{
	"Monica.sol": {
		"Monica": {
			"abi": [
				{
					"inputs": [
						{
							"internalType": "string",
							"name": "_name",
							"type": "string"
						},
						{
							"internalType": "string",
							"name": "_symbol",
							"type": "string"
						},
						{
							"internalType": "address",
							"name": "_treasury",
							"type": "address"
						},
						{
							"internalType": "uint256",
							"name": "_taxFee",
							"type": "uint256"
						}
					],
					"stateMutability": "nonpayable",
					"type": "constructor"
				},
				{
					"inputs": [
						{
							"internalType": "address",
							"name": "spender",
							"type": "address"
						},
						{
							"internalType": "uint256",
							"name": "allowance",
							"type": "uint256"
						},
						{
							"internalType": "uint256",
							"name": "needed",
							"type": "uint256"
						}
					],
					"name": "ERC20InsufficientAllowance",
					"type": "error"
				},
				{
					"inputs": [
						{
							"internalType": "address",
							"name": "sender",
							"type": "address"
						},
						{
							"internalType": "uint256",
							"name": "balance",
							"type": "uint256"
						},
						{
							"internalType": "uint256",
							"name": "needed",
							"type": "uint256"
						}
					],
					"name": "ERC20InsufficientBalance",
					"type": "error"
				},
				{
					"inputs": [
						{
							"internalType": "address",
							"name": "approver",
							"type": "address"
						}
					],
					"name": "ERC20InvalidApprover",
					"type": "error"
				},
				{
					"inputs": [
						{
							"internalType": "address",
							"name": "receiver",
							"type": "address"
						}
					],
					"name": "ERC20InvalidReceiver",
					"type": "error"
				},
				{
					"inputs": [
						{
							"internalType": "address",
							"name": "sender",
							"type": "address"
						}
					],
					"name": "ERC20InvalidSender",
					"type": "error"
				},
				{
					"inputs": [
						{
							"internalType": "address",
							"name": "spender",
							"type": "address"
						}
					],
					"name": "ERC20InvalidSpender",
					"type": "error"
				},
				{
					"inputs": [],
					"name": "EnforcedPause",
					"type": "error"
				},
				{
					"inputs": [],
					"name": "ExpectedPause",
					"type": "error"
				},
				{
					"inputs": [],
					"name": "InvalidTaxFee",
					"type": "error"
				},
				{
					"inputs": [],
					"name": "InvalidTreasuryAddress",
					"type": "error"
				},
				{
					"inputs": [
						{
							"internalType": "address",
							"name": "owner",
							"type": "address"
						}
					],
					"name": "OwnableInvalidOwner",
					"type": "error"
				},
				{
					"inputs": [
						{
							"internalType": "address",
							"name": "account",
							"type": "address"
						}
					],
					"name": "OwnableUnauthorizedAccount",
					"type": "error"
				},
				{
					"inputs": [],
					"name": "TransferFailed",
					"type": "error"
				},
				{
					"anonymous": false,
					"inputs": [
						{
							"indexed": true,
							"internalType": "address",
							"name": "owner",
							"type": "address"
						},
						{
							"indexed": true,
							"internalType": "address",
							"name": "spender",
							"type": "address"
						},
						{
							"indexed": false,
							"internalType": "uint256",
							"name": "value",
							"type": "uint256"
						}
					],
					"name": "Approval",
					"type": "event"
				},
				{
					"anonymous": false,
					"inputs": [
						{
							"indexed": true,
							"internalType": "address",
							"name": "account",
							"type": "address"
						},
						{
							"indexed": false,
							"internalType": "bool",
							"name": "exempt",
							"type": "bool"
						}
					],
					"name": "FeeExemptionUpdated",
					"type": "event"
				},
				{
					"anonymous": false,
					"inputs": [
						{
							"indexed": true,
							"internalType": "address",
							"name": "previousOwner",
							"type": "address"
						},
						{
							"indexed": true,
							"internalType": "address",
							"name": "newOwner",
							"type": "address"
						}
					],
					"name": "OwnershipTransferred",
					"type": "event"
				},
				{
					"anonymous": false,
					"inputs": [
						{
							"indexed": false,
							"internalType": "address",
							"name": "account",
							"type": "address"
						}
					],
					"name": "Paused",
					"type": "event"
				},
				{
					"anonymous": false,
					"inputs": [
						{
							"indexed": true,
							"internalType": "address",
							"name": "from",
							"type": "address"
						},
						{
							"indexed": true,
							"internalType": "address",
							"name": "to",
							"type": "address"
						},
						{
							"indexed": false,
							"internalType": "uint256",
							"name": "taxAmount",
							"type": "uint256"
						},
						{
							"indexed": false,
							"internalType": "uint256",
							"name": "transferAmount",
							"type": "uint256"
						}
					],
					"name": "TaxCollected",
					"type": "event"
				},
				{
					"anonymous": false,
					"inputs": [
						{
							"indexed": false,
							"internalType": "uint256",
							"name": "oldFee",
							"type": "uint256"
						},
						{
							"indexed": false,
							"internalType": "uint256",
							"name": "newFee",
							"type": "uint256"
						}
					],
					"name": "TaxFeeUpdated",
					"type": "event"
				},
				{
					"anonymous": false,
					"inputs": [
						{
							"indexed": true,
							"internalType": "address",
							"name": "from",
							"type": "address"
						},
						{
							"indexed": true,
							"internalType": "address",
							"name": "to",
							"type": "address"
						},
						{
							"indexed": false,
							"internalType": "uint256",
							"name": "value",
							"type": "uint256"
						}
					],
					"name": "Transfer",
					"type": "event"
				},
				{
					"anonymous": false,
					"inputs": [
						{
							"indexed": true,
							"internalType": "address",
							"name": "oldTreasury",
							"type": "address"
						},
						{
							"indexed": true,
							"internalType": "address",
							"name": "newTreasury",
							"type": "address"
						}
					],
					"name": "TreasuryUpdated",
					"type": "event"
				},
				{
					"anonymous": false,
					"inputs": [
						{
							"indexed": false,
							"internalType": "address",
							"name": "account",
							"type": "address"
						}
					],
					"name": "Unpaused",
					"type": "event"
				},
				{
					"inputs": [],
					"name": "MAX_FEE",
					"outputs": [
						{
							"internalType": "uint256",
							"name": "",
							"type": "uint256"
						}
					],
					"stateMutability": "view",
					"type": "function"
				},
				{
					"inputs": [
						{
							"internalType": "address",
							"name": "owner",
							"type": "address"
						},
						{
							"internalType": "address",
							"name": "spender",
							"type": "address"
						}
					],
					"name": "allowance",
					"outputs": [
						{
							"internalType": "uint256",
							"name": "",
							"type": "uint256"
						}
					],
					"stateMutability": "view",
					"type": "function"
				},
				{
					"inputs": [
						{
							"internalType": "address",
							"name": "spender",
							"type": "address"
						},
						{
							"internalType": "uint256",
							"name": "value",
							"type": "uint256"
						}
					],
					"name": "approve",
					"outputs": [
						{
							"internalType": "bool",
							"name": "",
							"type": "bool"
						}
					],
					"stateMutability": "nonpayable",
					"type": "function"
				},
				{
					"inputs": [
						{
							"internalType": "address",
							"name": "account",
							"type": "address"
						}
					],
					"name": "balanceOf",
					"outputs": [
						{
							"internalType": "uint256",
							"name": "",
							"type": "uint256"
						}
					],
					"stateMutability": "view",
					"type": "function"
				},
				{
					"inputs": [
						{
							"internalType": "uint256",
							"name": "amount",
							"type": "uint256"
						}
					],
					"name": "calculateTax",
					"outputs": [
						{
							"internalType": "uint256",
							"name": "",
							"type": "uint256"
						}
					],
					"stateMutability": "view",
					"type": "function"
				},
				{
					"inputs": [],
					"name": "decimals",
					"outputs": [
						{
							"internalType": "uint8",
							"name": "",
							"type": "uint8"
						}
					],
					"stateMutability": "view",
					"type": "function"
				},
				{
					"inputs": [],
					"name": "getMaxFee",
					"outputs": [
						{
							"internalType": "uint256",
							"name": "",
							"type": "uint256"
						}
					],
					"stateMutability": "pure",
					"type": "function"
				},
				{
					"inputs": [],
					"name": "getTaxFeePercentage",
					"outputs": [
						{
							"internalType": "uint256",
							"name": "",
							"type": "uint256"
						}
					],
					"stateMutability": "view",
					"type": "function"
				},
				{
					"inputs": [
						{
							"internalType": "address",
							"name": "",
							"type": "address"
						}
					],
					"name": "isFeeExempt",
					"outputs": [
						{
							"internalType": "bool",
							"name": "",
							"type": "bool"
						}
					],
					"stateMutability": "view",
					"type": "function"
				},
				{
					"inputs": [],
					"name": "name",
					"outputs": [
						{
							"internalType": "string",
							"name": "",
							"type": "string"
						}
					],
					"stateMutability": "view",
					"type": "function"
				},
				{
					"inputs": [],
					"name": "owner",
					"outputs": [
						{
							"internalType": "address",
							"name": "",
							"type": "address"
						}
					],
					"stateMutability": "view",
					"type": "function"
				},
				{
					"inputs": [],
					"name": "pause",
					"outputs": [],
					"stateMutability": "nonpayable",
					"type": "function"
				},
				{
					"inputs": [],
					"name": "paused",
					"outputs": [
						{
							"internalType": "bool",
							"name": "",
							"type": "bool"
						}
					],
					"stateMutability": "view",
					"type": "function"
				},
				{
					"inputs": [],
					"name": "renounceOwnership",
					"outputs": [],
					"stateMutability": "nonpayable",
					"type": "function"
				},
				{
					"inputs": [
						{
							"internalType": "address",
							"name": "_account",
							"type": "address"
						},
						{
							"internalType": "bool",
							"name": "_exempt",
							"type": "bool"
						}
					],
					"name": "setFeeExemption",
					"outputs": [],
					"stateMutability": "nonpayable",
					"type": "function"
				},
				{
					"inputs": [
						{
							"internalType": "uint256",
							"name": "_newFee",
							"type": "uint256"
						}
					],
					"name": "setTaxFee",
					"outputs": [],
					"stateMutability": "nonpayable",
					"type": "function"
				},
				{
					"inputs": [
						{
							"internalType": "address",
							"name": "_newTreasury",
							"type": "address"
						}
					],
					"name": "setTreasury",
					"outputs": [],
					"stateMutability": "nonpayable",
					"type": "function"
				},
				{
					"inputs": [],
					"name": "symbol",
					"outputs": [
						{
							"internalType": "string",
							"name": "",
							"type": "string"
						}
					],
					"stateMutability": "view",
					"type": "function"
				},
				{
					"inputs": [],
					"name": "taxFee",
					"outputs": [
						{
							"internalType": "uint256",
							"name": "",
							"type": "uint256"
						}
					],
					"stateMutability": "view",
					"type": "function"
				},
				{
					"inputs": [],
					"name": "totalSupply",
					"outputs": [
						{
							"internalType": "uint256",
							"name": "",
							"type": "uint256"
						}
					],
					"stateMutability": "view",
					"type": "function"
				},
				{
					"inputs": [
						{
							"internalType": "address",
							"name": "to",
							"type": "address"
						},
						{
							"internalType": "uint256",
							"name": "amount",
							"type": "uint256"
						}
					],
					"name": "transfer",
					"outputs": [
						{
							"internalType": "bool",
							"name": "",
							"type": "bool"
						}
					],
					"stateMutability": "nonpayable",
					"type": "function"
				},
				{
					"inputs": [
						{
							"internalType": "address",
							"name": "from",
							"type": "address"
						},
						{
							"internalType": "address",
							"name": "to",
							"type": "address"
						},
						{
							"internalType": "uint256",
							"name": "amount",
							"type": "uint256"
						}
					],
					"name": "transferFrom",
					"outputs": [
						{
							"internalType": "bool",
							"name": "",
							"type": "bool"
						}
					],
					"stateMutability": "nonpayable",
					"type": "function"
				},
				{
					"inputs": [
						{
							"internalType": "address",
							"name": "newOwner",
							"type": "address"
						}
					],
					"name": "transferOwnership",
					"outputs": [],
					"stateMutability": "nonpayable",
					"type": "function"
				},
				{
					"inputs": [],
					"name": "treasury",
					"outputs": [
						{
							"internalType": "address",
							"name": "",
							"type": "address"
						}
					],
					"stateMutability": "view",
					"type": "function"
				},
				{
					"inputs": [],
					"name": "unpause",
					"outputs": [],
					"stateMutability": "nonpayable",
					"type": "function"
				}
			],
			"devdoc": {
				"custom:security-contact": "monica.galeendo@gmail.com",
				"errors": {
					"ERC20InsufficientAllowance(address,uint256,uint256)": [
						{
							"details": "Indicates a failure with the `spender`’s `allowance`. Used in transfers.",
							"params": {
								"allowance": "Amount of tokens a `spender` is allowed to operate with.",
								"needed": "Minimum amount required to perform a transfer.",
								"spender": "Address that may be allowed to operate on tokens without being their owner."
							}
						}
					],
					"ERC20InsufficientBalance(address,uint256,uint256)": [
						{
							"details": "Indicates an error related to the current `balance` of a `sender`. Used in transfers.",
							"params": {
								"balance": "Current balance for the interacting account.",
								"needed": "Minimum amount required to perform a transfer.",
								"sender": "Address whose tokens are being transferred."
							}
						}
					],
					"ERC20InvalidApprover(address)": [
						{
							"details": "Indicates a failure with the `approver` of a token to be approved. Used in approvals.",
							"params": {
								"approver": "Address initiating an approval operation."
							}
						}
					],
					"ERC20InvalidReceiver(address)": [
						{
							"details": "Indicates a failure with the token `receiver`. Used in transfers.",
							"params": {
								"receiver": "Address to which tokens are being transferred."
							}
						}
					],
					"ERC20InvalidSender(address)": [
						{
							"details": "Indicates a failure with the token `sender`. Used in transfers.",
							"params": {
								"sender": "Address whose tokens are being transferred."
							}
						}
					],
					"ERC20InvalidSpender(address)": [
						{
							"details": "Indicates a failure with the `spender` to be approved. Used in approvals.",
							"params": {
								"spender": "Address that may be allowed to operate on tokens without being their owner."
							}
						}
					],
					"EnforcedPause()": [
						{
							"details": "The operation failed because the contract is paused."
						}
					],
					"ExpectedPause()": [
						{
							"details": "The operation failed because the contract is not paused."
						}
					],
					"OwnableInvalidOwner(address)": [
						{
							"details": "The owner is not a valid owner account. (eg. `address(0)`)"
						}
					],
					"OwnableUnauthorizedAccount(address)": [
						{
							"details": "The caller account is not authorized to perform an operation."
						}
					]
				},
				"events": {
					"Approval(address,address,uint256)": {
						"details": "Emitted when the allowance of a `spender` for an `owner` is set by a call to {approve}. `value` is the new allowance."
					},
					"Paused(address)": {
						"details": "Emitted when the pause is triggered by `account`."
					},
					"Transfer(address,address,uint256)": {
						"details": "Emitted when `value` tokens are moved from one account (`from`) to another (`to`). Note that `value` may be zero."
					},
					"Unpaused(address)": {
						"details": "Emitted when the pause is lifted by `account`."
					}
				},
				"kind": "dev",
				"methods": {
					"allowance(address,address)": {
						"details": "Returns the remaining number of tokens that `spender` will be allowed to spend on behalf of `owner` through {transferFrom}. This is zero by default. This value changes when {approve} or {transferFrom} are called."
					},
					"approve(address,uint256)": {
						"details": "See {IERC20-approve}. NOTE: If `value` is the maximum `uint256`, the allowance is not updated on `transferFrom`. This is semantically equivalent to an infinite approval. Requirements: - `spender` cannot be the zero address."
					},
					"balanceOf(address)": {
						"details": "Returns the value of tokens owned by `account`."
					},
					"calculateTax(uint256)": {
						"details": "Calculates tax amount for a given transfer amount",
						"params": {
							"amount": "Transfer amount"
						},
						"returns": {
							"_0": "Tax amount that would be collected"
						}
					},
					"decimals()": {
						"details": "Returns the number of decimals used to get its user representation. For example, if `decimals` equals `2`, a balance of `505` tokens should be displayed to a user as `5.05` (`505 / 10 ** 2`). Tokens usually opt for a value of 18, imitating the relationship between Ether and Wei. This is the default value returned by this function, unless it's overridden. NOTE: This information is only used for _display_ purposes: it in no way affects any of the arithmetic of the contract, including {IERC20-balanceOf} and {IERC20-transfer}."
					},
					"getMaxFee()": {
						"details": "Returns the maximum fee that can be set"
					},
					"getTaxFeePercentage()": {
						"details": "Returns the current tax fee as a percentage (with 2 decimals)"
					},
					"name()": {
						"details": "Returns the name of the token."
					},
					"owner()": {
						"details": "Returns the address of the current owner."
					},
					"paused()": {
						"details": "Returns true if the contract is paused, and false otherwise."
					},
					"renounceOwnership()": {
						"details": "Leaves the contract without owner. It will not be possible to call `onlyOwner` functions. Can only be called by the current owner. NOTE: Renouncing ownership will leave the contract without an owner, thereby disabling any functionality that is only available to the owner."
					},
					"setFeeExemption(address,bool)": {
						"details": "Sets fee exemption status for an address",
						"params": {
							"_account": "Address to update",
							"_exempt": "Whether the address should be exempt from fees"
						}
					},
					"setTaxFee(uint256)": {
						"details": "Updates the tax fee",
						"params": {
							"_newFee": "New tax fee in basis points"
						}
					},
					"setTreasury(address)": {
						"details": "Updates the treasury address",
						"params": {
							"_newTreasury": "New treasury address"
						}
					},
					"symbol()": {
						"details": "Returns the symbol of the token, usually a shorter version of the name."
					},
					"totalSupply()": {
						"details": "Returns the value of tokens in existence."
					},
					"transfer(address,uint256)": {
						"details": "Override transfer to include tax logic"
					},
					"transferFrom(address,address,uint256)": {
						"details": "Override transferFrom to include tax logic"
					},
					"transferOwnership(address)": {
						"details": "Transfers ownership of the contract to a new account (`newOwner`). Can only be called by the current owner."
					}
				},
				"version": 1
			},
			"evm": {
				"assembly": "    /* \"Monica.sol\":414:5404  contract Monica is ERC20, ERC20Pausable, Ownable {... */\n  mstore(0x40, 0x80)\n    /* \"Monica.sol\":1203:2062  constructor(... */\n  callvalue\n  dup1\n  iszero\n  tag_1\n  jumpi\n  revert(0x00, 0x00)\ntag_1:\n  pop\n  mload(0x40)\n  sub(codesize, bytecodeSize)\n  dup1\n  bytecodeSize\n  dup4\n  codecopy\n  dup2\n  dup2\n  add\n  0x40\n  mstore\n  dup2\n  add\n  swap1\n  tag_2\n  swap2\n  swap1\n  tag_3\n  jump\t// in\ntag_2:\n    /* \"Monica.sol\":1374:1384  msg.sender */\n  caller\n    /* \"Monica.sol\":1342:1347  _name */\n  dup5\n    /* \"Monica.sol\":1349:1356  _symbol */\n  dup5\n    /* \"@openzeppelin/contracts@5.4.0/token/ERC20/ERC20.sol\":1656:1661  name_ */\n  dup2\n    /* \"@openzeppelin/contracts@5.4.0/token/ERC20/ERC20.sol\":1648:1653  _name */\n  0x03\n    /* \"@openzeppelin/contracts@5.4.0/token/ERC20/ERC20.sol\":1648:1661  _name = name_ */\n  swap1\n  dup2\n  tag_8\n  swap2\n  swap1\n  tag_9\n  jump\t// in\ntag_8:\n  pop\n    /* \"@openzeppelin/contracts@5.4.0/token/ERC20/ERC20.sol\":1681:1688  symbol_ */\n  dup1\n    /* \"@openzeppelin/contracts@5.4.0/token/ERC20/ERC20.sol\":1671:1678  _symbol */\n  0x04\n    /* \"@openzeppelin/contracts@5.4.0/token/ERC20/ERC20.sol\":1671:1688  _symbol = symbol_ */\n  swap1\n  dup2\n  tag_10\n  swap2\n  swap1\n  tag_9\n  jump\t// in\ntag_10:\n  pop\n    /* \"@openzeppelin/contracts@5.4.0/token/ERC20/ERC20.sol\":1582:1695  constructor(string memory name_, string memory symbol_) {... */\n  pop\n  pop\n    /* \"@openzeppelin/contracts@5.4.0/access/Ownable.sol\":1297:1298  0 */\n  0x00\n    /* \"@openzeppelin/contracts@5.4.0/access/Ownable.sol\":1273:1299  initialOwner == address(0) */\n  0xffffffffffffffffffffffffffffffffffffffff\n  and\n    /* \"@openzeppelin/contracts@5.4.0/access/Ownable.sol\":1273:1285  initialOwner */\n  dup2\n    /* \"@openzeppelin/contracts@5.4.0/access/Ownable.sol\":1273:1299  initialOwner == address(0) */\n  0xffffffffffffffffffffffffffffffffffffffff\n  and\n  sub\n    /* \"@openzeppelin/contracts@5.4.0/access/Ownable.sol\":1269:1364  if (initialOwner == address(0)) {... */\n  tag_12\n  jumpi\n    /* \"@openzeppelin/contracts@5.4.0/access/Ownable.sol\":1350:1351  0 */\n  0x00\n    /* \"@openzeppelin/contracts@5.4.0/access/Ownable.sol\":1322:1353  OwnableInvalidOwner(address(0)) */\n  mload(0x40)\n  0x1e4fbdf700000000000000000000000000000000000000000000000000000000\n  dup2\n  mstore\n  0x04\n  add\n  tag_13\n  swap2\n  swap1\n  tag_14\n  jump\t// in\ntag_13:\n  mload(0x40)\n  dup1\n  swap2\n  sub\n  swap1\n  revert\n    /* \"@openzeppelin/contracts@5.4.0/access/Ownable.sol\":1269:1364  if (initialOwner == address(0)) {... */\ntag_12:\n    /* \"@openzeppelin/contracts@5.4.0/access/Ownable.sol\":1373:1405  _transferOwnership(initialOwner) */\n  tag_15\n    /* \"@openzeppelin/contracts@5.4.0/access/Ownable.sol\":1392:1404  initialOwner */\n  dup2\n    /* \"@openzeppelin/contracts@5.4.0/access/Ownable.sol\":1373:1391  _transferOwnership */\n  shl(0x20, tag_16)\n    /* \"@openzeppelin/contracts@5.4.0/access/Ownable.sol\":1373:1405  _transferOwnership(initialOwner) */\n  0x20\n  shr\n  jump\t// in\ntag_15:\n    /* \"@openzeppelin/contracts@5.4.0/access/Ownable.sol\":1225:1412  constructor(address initialOwner) {... */\n  pop\n    /* \"Monica.sol\":1425:1426  0 */\n  0x00\n    /* \"Monica.sol\":1404:1427  _treasury == address(0) */\n  0xffffffffffffffffffffffffffffffffffffffff\n  and\n    /* \"Monica.sol\":1404:1413  _treasury */\n  dup3\n    /* \"Monica.sol\":1404:1427  _treasury == address(0) */\n  0xffffffffffffffffffffffffffffffffffffffff\n  and\n  sub\n    /* \"Monica.sol\":1400:1460  if (_treasury == address(0)) revert InvalidTreasuryAddress() */\n  tag_18\n  jumpi\n    /* \"Monica.sol\":1436:1460  InvalidTreasuryAddress() */\n  mload(0x40)\n  0xcfe2ea6300000000000000000000000000000000000000000000000000000000\n  dup2\n  mstore\n  0x04\n  add\n  mload(0x40)\n  dup1\n  swap2\n  sub\n  swap1\n  revert\n    /* \"Monica.sol\":1400:1460  if (_treasury == address(0)) revert InvalidTreasuryAddress() */\ntag_18:\n    /* \"Monica.sol\":666:669  200 */\n  0xc8\n    /* \"Monica.sol\":1474:1481  _taxFee */\n  dup2\n    /* \"Monica.sol\":1474:1491  _taxFee > MAX_FEE */\n  gt\n    /* \"Monica.sol\":1470:1515  if (_taxFee > MAX_FEE) revert InvalidTaxFee() */\n  iszero\n  tag_19\n  jumpi\n    /* \"Monica.sol\":1500:1515  InvalidTaxFee() */\n  mload(0x40)\n  0x5ba09ae000000000000000000000000000000000000000000000000000000000\n  dup2\n  mstore\n  0x04\n  add\n  mload(0x40)\n  dup1\n  swap2\n  sub\n  swap1\n  revert\n    /* \"Monica.sol\":1470:1515  if (_taxFee > MAX_FEE) revert InvalidTaxFee() */\ntag_19:\n    /* \"Monica.sol\":1536:1545  _treasury */\n  dup2\n    /* \"Monica.sol\":1525:1533  treasury */\n  0x06\n  0x00\n    /* \"Monica.sol\":1525:1545  treasury = _treasury */\n  0x0100\n  exp\n  dup2\n  sload\n  dup2\n  0xffffffffffffffffffffffffffffffffffffffff\n  mul\n  not\n  and\n  swap1\n  dup4\n  0xffffffffffffffffffffffffffffffffffffffff\n  and\n  mul\n  or\n  swap1\n  sstore\n  pop\n    /* \"Monica.sol\":1564:1571  _taxFee */\n  dup1\n    /* \"Monica.sol\":1555:1561  taxFee */\n  0x07\n    /* \"Monica.sol\":1555:1571  taxFee = _taxFee */\n  dup2\n  swap1\n  sstore\n  pop\n    /* \"Monica.sol\":1672:1676  true */\n  0x01\n    /* \"Monica.sol\":1646:1657  isFeeExempt */\n  0x08\n    /* \"Monica.sol\":1646:1669  isFeeExempt[msg.sender] */\n  0x00\n    /* \"Monica.sol\":1658:1668  msg.sender */\n  caller\n    /* \"Monica.sol\":1646:1669  isFeeExempt[msg.sender] */\n  0xffffffffffffffffffffffffffffffffffffffff\n  and\n  0xffffffffffffffffffffffffffffffffffffffff\n  and\n  dup2\n  mstore\n  0x20\n  add\n  swap1\n  dup2\n  mstore\n  0x20\n  add\n  0x00\n  keccak256\n  0x00\n    /* \"Monica.sol\":1646:1676  isFeeExempt[msg.sender] = true */\n  0x0100\n  exp\n  dup2\n  sload\n  dup2\n  0xff\n  mul\n  not\n  and\n  swap1\n  dup4\n  iszero\n  iszero\n  mul\n  or\n  swap1\n  sstore\n  pop\n    /* \"Monica.sol\":1711:1715  true */\n  0x01\n    /* \"Monica.sol\":1686:1697  isFeeExempt */\n  0x08\n    /* \"Monica.sol\":1686:1708  isFeeExempt[_treasury] */\n  0x00\n    /* \"Monica.sol\":1698:1707  _treasury */\n  dup5\n    /* \"Monica.sol\":1686:1708  isFeeExempt[_treasury] */\n  0xffffffffffffffffffffffffffffffffffffffff\n  and\n  0xffffffffffffffffffffffffffffffffffffffff\n  and\n  dup2\n  mstore\n  0x20\n  add\n  swap1\n  dup2\n  mstore\n  0x20\n  add\n  0x00\n  keccak256\n  0x00\n    /* \"Monica.sol\":1686:1715  isFeeExempt[_treasury] = true */\n  0x0100\n  exp\n  dup2\n  sload\n  dup2\n  0xff\n  mul\n  not\n  and\n  swap1\n  dup4\n  iszero\n  iszero\n  mul\n  or\n  swap1\n  sstore\n  pop\n    /* \"Monica.sol\":1807:1850  _mint(msg.sender, 1000000 * 10**decimals()) */\n  tag_20\n    /* \"Monica.sol\":1813:1823  msg.sender */\n  caller\n    /* \"Monica.sol\":1839:1849  decimals() */\n  tag_21\n    /* \"Monica.sol\":1839:1847  decimals */\n  shl(0x20, tag_22)\n    /* \"Monica.sol\":1839:1849  decimals() */\n  0x20\n  shr\n  jump\t// in\ntag_21:\n    /* \"Monica.sol\":1835:1837  10 */\n  0x0a\n    /* \"Monica.sol\":1835:1849  10**decimals() */\n  tag_23\n  swap2\n  swap1\n  tag_24\n  jump\t// in\ntag_23:\n    /* \"Monica.sol\":1825:1832  1000000 */\n  0x0f4240\n    /* \"Monica.sol\":1825:1849  1000000 * 10**decimals() */\n  tag_25\n  swap2\n  swap1\n  tag_26\n  jump\t// in\ntag_25:\n    /* \"Monica.sol\":1807:1812  _mint */\n  shl(0x20, tag_27)\n    /* \"Monica.sol\":1807:1850  _mint(msg.sender, 1000000 * 10**decimals()) */\n  0x20\n  shr\n  jump\t// in\ntag_20:\n    /* \"Monica.sol\":1902:1911  _treasury */\n  dup2\n    /* \"Monica.sol\":1874:1912  TreasuryUpdated(address(0), _treasury) */\n  0xffffffffffffffffffffffffffffffffffffffff\n  and\n    /* \"Monica.sol\":1898:1899  0 */\n  0x00\n    /* \"Monica.sol\":1874:1912  TreasuryUpdated(address(0), _treasury) */\n  0xffffffffffffffffffffffffffffffffffffffff\n  and\n  0x4ab5be82436d353e61ca18726e984e561f5c1cc7c6d38b29d2553c790434705a\n  mload(0x40)\n  mload(0x40)\n  dup1\n  swap2\n  sub\n  swap1\n  log3\n    /* \"Monica.sol\":1927:1952  TaxFeeUpdated(0, _taxFee) */\n  0x2211abb4bbc4d80b7505c31b54d01d15ac6e33a42c59540d309d89daf759063a\n    /* \"Monica.sol\":1941:1942  0 */\n  0x00\n    /* \"Monica.sol\":1944:1951  _taxFee */\n  dup3\n    /* \"Monica.sol\":1927:1952  TaxFeeUpdated(0, _taxFee) */\n  mload(0x40)\n  tag_28\n  swap3\n  swap2\n  swap1\n  tag_29\n  jump\t// in\ntag_28:\n  mload(0x40)\n  dup1\n  swap2\n  sub\n  swap1\n  log1\n    /* \"Monica.sol\":1987:1997  msg.sender */\n  caller\n    /* \"Monica.sol\":1967:2004  FeeExemptionUpdated(msg.sender, true) */\n  0xffffffffffffffffffffffffffffffffffffffff\n  and\n  0x69e34a174b4a0cce59950c4c852317e9797bdcae125fbf8b5dd8b4311384412f\n    /* \"Monica.sol\":1999:2003  true */\n  0x01\n    /* \"Monica.sol\":1967:2004  FeeExemptionUpdated(msg.sender, true) */\n  mload(0x40)\n  tag_30\n  swap2\n  swap1\n  tag_31\n  jump\t// in\ntag_30:\n  mload(0x40)\n  dup1\n  swap2\n  sub\n  swap1\n  log2\n    /* \"Monica.sol\":2039:2048  _treasury */\n  dup2\n    /* \"Monica.sol\":2019:2055  FeeExemptionUpdated(_treasury, true) */\n  0xffffffffffffffffffffffffffffffffffffffff\n  and\n  0x69e34a174b4a0cce59950c4c852317e9797bdcae125fbf8b5dd8b4311384412f\n    /* \"Monica.sol\":2050:2054  true */\n  0x01\n    /* \"Monica.sol\":2019:2055  FeeExemptionUpdated(_treasury, true) */\n  mload(0x40)\n  tag_32\n  swap2\n  swap1\n  tag_31\n  jump\t// in\ntag_32:\n  mload(0x40)\n  dup1\n  swap2\n  sub\n  swap1\n  log2\n    /* \"Monica.sol\":1203:2062  constructor(... */\n  pop\n  pop\n  pop\n  pop\n    /* \"Monica.sol\":414:5404  contract Monica is ERC20, ERC20Pausable, Ownable {... */\n  jump(tag_33)\n    /* \"@openzeppelin/contracts@5.4.0/access/Ownable.sol\":2912:3099  function _transferOwnership(address newOwner) internal virtual {... */\ntag_16:\n    /* \"@openzeppelin/contracts@5.4.0/access/Ownable.sol\":2985:3001  address oldOwner */\n  0x00\n    /* \"@openzeppelin/contracts@5.4.0/access/Ownable.sol\":3004:3010  _owner */\n  0x05\n  0x01\n  swap1\n  sload\n  swap1\n  0x0100\n  exp\n  swap1\n  div\n  0xffffffffffffffffffffffffffffffffffffffff\n  and\n    /* \"@openzeppelin/contracts@5.4.0/access/Ownable.sol\":2985:3010  address oldOwner = _owner */\n  swap1\n  pop\n    /* \"@openzeppelin/contracts@5.4.0/access/Ownable.sol\":3029:3037  newOwner */\n  dup2\n    /* \"@openzeppelin/contracts@5.4.0/access/Ownable.sol\":3020:3026  _owner */\n  0x05\n  0x01\n    /* \"@openzeppelin/contracts@5.4.0/access/Ownable.sol\":3020:3037  _owner = newOwner */\n  0x0100\n  exp\n  dup2\n  sload\n  dup2\n  0xffffffffffffffffffffffffffffffffffffffff\n  mul\n  not\n  and\n  swap1\n  dup4\n  0xffffffffffffffffffffffffffffffffffffffff\n  and\n  mul\n  or\n  swap1\n  sstore\n  pop\n    /* \"@openzeppelin/contracts@5.4.0/access/Ownable.sol\":3083:3091  newOwner */\n  dup2\n    /* \"@openzeppelin/contracts@5.4.0/access/Ownable.sol\":3052:3092  OwnershipTransferred(oldOwner, newOwner) */\n  0xffffffffffffffffffffffffffffffffffffffff\n  and\n    /* \"@openzeppelin/contracts@5.4.0/access/Ownable.sol\":3073:3081  oldOwner */\n  dup2\n    /* \"@openzeppelin/contracts@5.4.0/access/Ownable.sol\":3052:3092  OwnershipTransferred(oldOwner, newOwner) */\n  0xffffffffffffffffffffffffffffffffffffffff\n  and\n  0x8be0079c531659141344cd1fd0a4f28419497f9722a3daafe3b4186f6b6457e0\n  mload(0x40)\n  mload(0x40)\n  dup1\n  swap2\n  sub\n  swap1\n  log3\n    /* \"@openzeppelin/contracts@5.4.0/access/Ownable.sol\":2975:3099  {... */\n  pop\n    /* \"@openzeppelin/contracts@5.4.0/access/Ownable.sol\":2912:3099  function _transferOwnership(address newOwner) internal virtual {... */\n  pop\n  jump\t// out\n    /* \"@openzeppelin/contracts@5.4.0/token/ERC20/ERC20.sol\":2688:2770  function decimals() public view virtual returns (uint8) {... */\ntag_22:\n    /* \"@openzeppelin/contracts@5.4.0/token/ERC20/ERC20.sol\":2737:2742  uint8 */\n  0x00\n    /* \"@openzeppelin/contracts@5.4.0/token/ERC20/ERC20.sol\":2761:2763  18 */\n  0x12\n    /* \"@openzeppelin/contracts@5.4.0/token/ERC20/ERC20.sol\":2754:2763  return 18 */\n  swap1\n  pop\n    /* \"@openzeppelin/contracts@5.4.0/token/ERC20/ERC20.sol\":2688:2770  function decimals() public view virtual returns (uint8) {... */\n  swap1\n  jump\t// out\n    /* \"@openzeppelin/contracts@5.4.0/token/ERC20/ERC20.sol\":7362:7570  function _mint(address account, uint256 value) internal {... */\ntag_27:\n    /* \"@openzeppelin/contracts@5.4.0/token/ERC20/ERC20.sol\":7451:7452  0 */\n  0x00\n    /* \"@openzeppelin/contracts@5.4.0/token/ERC20/ERC20.sol\":7432:7453  account == address(0) */\n  0xffffffffffffffffffffffffffffffffffffffff\n  and\n    /* \"@openzeppelin/contracts@5.4.0/token/ERC20/ERC20.sol\":7432:7439  account */\n  dup3\n    /* \"@openzeppelin/contracts@5.4.0/token/ERC20/ERC20.sol\":7432:7453  account == address(0) */\n  0xffffffffffffffffffffffffffffffffffffffff\n  and\n  sub\n    /* \"@openzeppelin/contracts@5.4.0/token/ERC20/ERC20.sol\":7428:7519  if (account == address(0)) {... */\n  tag_37\n  jumpi\n    /* \"@openzeppelin/contracts@5.4.0/token/ERC20/ERC20.sol\":7505:7506  0 */\n  0x00\n    /* \"@openzeppelin/contracts@5.4.0/token/ERC20/ERC20.sol\":7476:7508  ERC20InvalidReceiver(address(0)) */\n  mload(0x40)\n  0xec442f0500000000000000000000000000000000000000000000000000000000\n  dup2\n  mstore\n  0x04\n  add\n  tag_38\n  swap2\n  swap1\n  tag_14\n  jump\t// in\ntag_38:\n  mload(0x40)\n  dup1\n  swap2\n  sub\n  swap1\n  revert\n    /* \"@openzeppelin/contracts@5.4.0/token/ERC20/ERC20.sol\":7428:7519  if (account == address(0)) {... */\ntag_37:\n    /* \"@openzeppelin/contracts@5.4.0/token/ERC20/ERC20.sol\":7528:7563  _update(address(0), account, value) */\n  tag_39\n    /* \"@openzeppelin/contracts@5.4.0/token/ERC20/ERC20.sol\":7544:7545  0 */\n  0x00\n    /* \"@openzeppelin/contracts@5.4.0/token/ERC20/ERC20.sol\":7548:7555  account */\n  dup4\n    /* \"@openzeppelin/contracts@5.4.0/token/ERC20/ERC20.sol\":7557:7562  value */\n  dup4\n    /* \"@openzeppelin/contracts@5.4.0/token/ERC20/ERC20.sol\":7528:7535  _update */\n  shl(0x20, tag_40)\n    /* \"@openzeppelin/contracts@5.4.0/token/ERC20/ERC20.sol\":7528:7563  _update(address(0), account, value) */\n  0x20\n  shr\n  jump\t// in\ntag_39:\n    /* \"@openzeppelin/contracts@5.4.0/token/ERC20/ERC20.sol\":7362:7570  function _mint(address account, uint256 value) internal {... */\n  pop\n  pop\n  jump\t// out\n    /* \"Monica.sol\":4861:5402  function _update(address from, address to, uint256 amount) internal override(ERC20, ERC20Pausable) {... */\ntag_40:\n    /* \"Monica.sol\":4990:4991  0 */\n  0x00\n    /* \"Monica.sol\":4974:4992  from != address(0) */\n  0xffffffffffffffffffffffffffffffffffffffff\n  and\n    /* \"Monica.sol\":4974:4978  from */\n  dup4\n    /* \"Monica.sol\":4974:4992  from != address(0) */\n  0xffffffffffffffffffffffffffffffffffffffff\n  and\n  eq\n  iszero\n    /* \"Monica.sol\":4974:5012  from != address(0) && to != address(0) */\n  dup1\n  iszero\n  tag_42\n  jumpi\n  pop\n    /* \"Monica.sol\":5010:5011  0 */\n  0x00\n    /* \"Monica.sol\":4996:5012  to != address(0) */\n  0xffffffffffffffffffffffffffffffffffffffff\n  and\n    /* \"Monica.sol\":4996:4998  to */\n  dup3\n    /* \"Monica.sol\":4996:5012  to != address(0) */\n  0xffffffffffffffffffffffffffffffffffffffff\n  and\n  eq\n  iszero\n    /* \"Monica.sol\":4974:5012  from != address(0) && to != address(0) */\ntag_42:\n    /* \"Monica.sol\":4970:5355  if (from != address(0) && to != address(0)) {... */\n  iszero\n  tag_43\n  jumpi\n    /* \"Monica.sol\":5041:5042  0 */\n  0x00\n    /* \"Monica.sol\":5032:5038  taxFee */\n  sload(0x07)\n    /* \"Monica.sol\":5032:5042  taxFee > 0 */\n  gt\n    /* \"Monica.sol\":5028:5345  if (taxFee > 0) {... */\n  iszero\n  tag_44\n  jumpi\n    /* \"Monica.sol\":5062:5073  uint256 fee */\n  0x00\n    /* \"Monica.sol\":5096:5099  100 */\n  0x64\n    /* \"Monica.sol\":5086:5092  taxFee */\n  sload(0x07)\n    /* \"Monica.sol\":5077:5083  amount */\n  dup4\n    /* \"Monica.sol\":5077:5092  amount * taxFee */\n  tag_45\n  swap2\n  swap1\n  tag_26\n  jump\t// in\ntag_45:\n    /* \"Monica.sol\":5076:5099  (amount * taxFee) / 100 */\n  tag_46\n  swap2\n  swap1\n  tag_47\n  jump\t// in\ntag_46:\n    /* \"Monica.sol\":5062:5099  uint256 fee = (amount * taxFee) / 100 */\n  swap1\n  pop\n    /* \"Monica.sol\":5127:5128  0 */\n  0x00\n    /* \"Monica.sol\":5121:5124  fee */\n  dup2\n    /* \"Monica.sol\":5121:5128  fee > 0 */\n  gt\n    /* \"Monica.sol\":5117:5331  if (fee > 0) {... */\n  iszero\n  tag_48\n  jumpi\n    /* \"Monica.sol\":5152:5186  super._update(from, treasury, fee) */\n  tag_49\n    /* \"Monica.sol\":5166:5170  from */\n  dup5\n    /* \"Monica.sol\":5172:5180  treasury */\n  0x06\n  0x00\n  swap1\n  sload\n  swap1\n  0x0100\n  exp\n  swap1\n  div\n  0xffffffffffffffffffffffffffffffffffffffff\n  and\n    /* \"Monica.sol\":5182:5185  fee */\n  dup4\n    /* \"Monica.sol\":5152:5165  super._update */\n  shl(0x20, tag_50)\n    /* \"Monica.sol\":5152:5186  super._update(from, treasury, fee) */\n  0x20\n  shr\n  jump\t// in\ntag_49:\n    /* \"Monica.sol\":5208:5219  uint256 net */\n  0x00\n    /* \"Monica.sol\":5231:5234  fee */\n  dup2\n    /* \"Monica.sol\":5222:5228  amount */\n  dup4\n    /* \"Monica.sol\":5222:5234  amount - fee */\n  tag_51\n  swap2\n  swap1\n  tag_52\n  jump\t// in\ntag_51:\n    /* \"Monica.sol\":5208:5234  uint256 net = amount - fee */\n  swap1\n  pop\n    /* \"Monica.sol\":5256:5284  super._update(from, to, net) */\n  tag_53\n    /* \"Monica.sol\":5270:5274  from */\n  dup6\n    /* \"Monica.sol\":5276:5278  to */\n  dup6\n    /* \"Monica.sol\":5280:5283  net */\n  dup4\n    /* \"Monica.sol\":5256:5269  super._update */\n  shl(0x20, tag_50)\n    /* \"Monica.sol\":5256:5284  super._update(from, to, net) */\n  0x20\n  shr\n  jump\t// in\ntag_53:\n    /* \"Monica.sol\":5306:5313  return; */\n  pop\n  pop\n  jump(tag_41)\n    /* \"Monica.sol\":5117:5331  if (fee > 0) {... */\ntag_48:\n    /* \"Monica.sol\":5044:5345  {... */\n  pop\n    /* \"Monica.sol\":5028:5345  if (taxFee > 0) {... */\ntag_44:\n    /* \"Monica.sol\":4970:5355  if (from != address(0) && to != address(0)) {... */\ntag_43:\n    /* \"Monica.sol\":5364:5395  super._update(from, to, amount) */\n  tag_54\n    /* \"Monica.sol\":5378:5382  from */\n  dup4\n    /* \"Monica.sol\":5384:5386  to */\n  dup4\n    /* \"Monica.sol\":5388:5394  amount */\n  dup4\n    /* \"Monica.sol\":5364:5377  super._update */\n  shl(0x20, tag_50)\n    /* \"Monica.sol\":5364:5395  super._update(from, to, amount) */\n  0x20\n  shr\n  jump\t// in\ntag_54:\n    /* \"Monica.sol\":4861:5402  function _update(address from, address to, uint256 amount) internal override(ERC20, ERC20Pausable) {... */\ntag_41:\n  pop\n  pop\n  pop\n  jump\t// out\n    /* \"@openzeppelin/contracts@5.4.0/token/ERC20/extensions/ERC20Pausable.sol\":1113:1258  function _update(address from, address to, uint256 value) internal virtual override whenNotPaused {... */\ntag_50:\n    /* \"@openzeppelin/contracts@5.4.0/utils/Pausable.sol\":1350:1369  _requireNotPaused() */\n  tag_56\n    /* \"@openzeppelin/contracts@5.4.0/utils/Pausable.sol\":1350:1367  _requireNotPaused */\n  shl(0x20, tag_57)\n    /* \"@openzeppelin/contracts@5.4.0/utils/Pausable.sol\":1350:1369  _requireNotPaused() */\n  0x20\n  shr\n  jump\t// in\ntag_56:\n    /* \"@openzeppelin/contracts@5.4.0/token/ERC20/extensions/ERC20Pausable.sol\":1221:1251  super._update(from, to, value) */\n  tag_59\n    /* \"@openzeppelin/contracts@5.4.0/token/ERC20/extensions/ERC20Pausable.sol\":1235:1239  from */\n  dup4\n    /* \"@openzeppelin/contracts@5.4.0/token/ERC20/extensions/ERC20Pausable.sol\":1241:1243  to */\n  dup4\n    /* \"@openzeppelin/contracts@5.4.0/token/ERC20/extensions/ERC20Pausable.sol\":1245:1250  value */\n  dup4\n    /* \"@openzeppelin/contracts@5.4.0/token/ERC20/extensions/ERC20Pausable.sol\":1221:1234  super._update */\n  shl(0x20, tag_60)\n    /* \"@openzeppelin/contracts@5.4.0/token/ERC20/extensions/ERC20Pausable.sol\":1221:1251  super._update(from, to, value) */\n  0x20\n  shr\n  jump\t// in\ntag_59:\n    /* \"@openzeppelin/contracts@5.4.0/token/ERC20/extensions/ERC20Pausable.sol\":1113:1258  function _update(address from, address to, uint256 value) internal virtual override whenNotPaused {... */\n  pop\n  pop\n  pop\n  jump\t// out\n    /* \"@openzeppelin/contracts@5.4.0/utils/Pausable.sol\":1878:2006  function _requireNotPaused() internal view virtual {... */\ntag_57:\n    /* \"@openzeppelin/contracts@5.4.0/utils/Pausable.sol\":1943:1951  paused() */\n  tag_62\n    /* \"@openzeppelin/contracts@5.4.0/utils/Pausable.sol\":1943:1949  paused */\n  shl(0x20, tag_63)\n    /* \"@openzeppelin/contracts@5.4.0/utils/Pausable.sol\":1943:1951  paused() */\n  0x20\n  shr\n  jump\t// in\ntag_62:\n    /* \"@openzeppelin/contracts@5.4.0/utils/Pausable.sol\":1939:2000  if (paused()) {... */\n  iszero\n  tag_64\n  jumpi\n    /* \"@openzeppelin/contracts@5.4.0/utils/Pausable.sol\":1974:1989  EnforcedPause() */\n  mload(0x40)\n  0xd93c066500000000000000000000000000000000000000000000000000000000\n  dup2\n  mstore\n  0x04\n  add\n  mload(0x40)\n  dup1\n  swap2\n  sub\n  swap1\n  revert\n    /* \"@openzeppelin/contracts@5.4.0/utils/Pausable.sol\":1939:2000  if (paused()) {... */\ntag_64:\n    /* \"@openzeppelin/contracts@5.4.0/utils/Pausable.sol\":1878:2006  function _requireNotPaused() internal view virtual {... */\n  jump\t// out\n    /* \"@openzeppelin/contracts@5.4.0/token/ERC20/ERC20.sol\":5912:7019  function _update(address from, address to, uint256 value) internal virtual {... */\ntag_60:\n    /* \"@openzeppelin/contracts@5.4.0/token/ERC20/ERC20.sol\":6017:6018  0 */\n  0x00\n    /* \"@openzeppelin/contracts@5.4.0/token/ERC20/ERC20.sol\":6001:6019  from == address(0) */\n  0xffffffffffffffffffffffffffffffffffffffff\n  and\n    /* \"@openzeppelin/contracts@5.4.0/token/ERC20/ERC20.sol\":6001:6005  from */\n  dup4\n    /* \"@openzeppelin/contracts@5.4.0/token/ERC20/ERC20.sol\":6001:6019  from == address(0) */\n  0xffffffffffffffffffffffffffffffffffffffff\n  and\n  sub\n    /* \"@openzeppelin/contracts@5.4.0/token/ERC20/ERC20.sol\":5997:6537  if (from == address(0)) {... */\n  tag_66\n  jumpi\n    /* \"@openzeppelin/contracts@5.4.0/token/ERC20/ERC20.sol\":6153:6158  value */\n  dup1\n    /* \"@openzeppelin/contracts@5.4.0/token/ERC20/ERC20.sol\":6137:6149  _totalSupply */\n  0x02\n  0x00\n    /* \"@openzeppelin/contracts@5.4.0/token/ERC20/ERC20.sol\":6137:6158  _totalSupply += value */\n  dup3\n  dup3\n  sload\n  tag_67\n  swap2\n  swap1\n  tag_68\n  jump\t// in\ntag_67:\n  swap3\n  pop\n  pop\n  dup2\n  swap1\n  sstore\n  pop\n    /* \"@openzeppelin/contracts@5.4.0/token/ERC20/ERC20.sol\":5997:6537  if (from == address(0)) {... */\n  jump(tag_69)\ntag_66:\n    /* \"@openzeppelin/contracts@5.4.0/token/ERC20/ERC20.sol\":6189:6208  uint256 fromBalance */\n  0x00\n    /* \"@openzeppelin/contracts@5.4.0/token/ERC20/ERC20.sol\":6211:6220  _balances */\n  0x00\n    /* \"@openzeppelin/contracts@5.4.0/token/ERC20/ERC20.sol\":6211:6226  _balances[from] */\n  0x00\n    /* \"@openzeppelin/contracts@5.4.0/token/ERC20/ERC20.sol\":6221:6225  from */\n  dup6\n    /* \"@openzeppelin/contracts@5.4.0/token/ERC20/ERC20.sol\":6211:6226  _balances[from] */\n  0xffffffffffffffffffffffffffffffffffffffff\n  and\n  0xffffffffffffffffffffffffffffffffffffffff\n  and\n  dup2\n  mstore\n  0x20\n  add\n  swap1\n  dup2\n  mstore\n  0x20\n  add\n  0x00\n  keccak256\n  sload\n    /* \"@openzeppelin/contracts@5.4.0/token/ERC20/ERC20.sol\":6189:6226  uint256 fromBalance = _balances[from] */\n  swap1\n  pop\n    /* \"@openzeppelin/contracts@5.4.0/token/ERC20/ERC20.sol\":6258:6263  value */\n  dup2\n    /* \"@openzeppelin/contracts@5.4.0/token/ERC20/ERC20.sol\":6244:6255  fromBalance */\n  dup2\n    /* \"@openzeppelin/contracts@5.4.0/token/ERC20/ERC20.sol\":6244:6263  fromBalance < value */\n  lt\n    /* \"@openzeppelin/contracts@5.4.0/token/ERC20/ERC20.sol\":6240:6355  if (fromBalance < value) {... */\n  iszero\n  tag_70\n  jumpi\n    /* \"@openzeppelin/contracts@5.4.0/token/ERC20/ERC20.sol\":6315:6319  from */\n  dup4\n    /* \"@openzeppelin/contracts@5.4.0/token/ERC20/ERC20.sol\":6321:6332  fromBalance */\n  dup2\n    /* \"@openzeppelin/contracts@5.4.0/token/ERC20/ERC20.sol\":6334:6339  value */\n  dup4\n    /* \"@openzeppelin/contracts@5.4.0/token/ERC20/ERC20.sol\":6290:6340  ERC20InsufficientBalance(from, fromBalance, value) */\n  mload(0x40)\n  0xe450d38c00000000000000000000000000000000000000000000000000000000\n  dup2\n  mstore\n  0x04\n  add\n  tag_71\n  swap4\n  swap3\n  swap2\n  swap1\n  tag_72\n  jump\t// in\ntag_71:\n  mload(0x40)\n  dup1\n  swap2\n  sub\n  swap1\n  revert\n    /* \"@openzeppelin/contracts@5.4.0/token/ERC20/ERC20.sol\":6240:6355  if (fromBalance < value) {... */\ntag_70:\n    /* \"@openzeppelin/contracts@5.4.0/token/ERC20/ERC20.sol\":6507:6512  value */\n  dup2\n    /* \"@openzeppelin/contracts@5.4.0/token/ERC20/ERC20.sol\":6493:6504  fromBalance */\n  dup2\n    /* \"@openzeppelin/contracts@5.4.0/token/ERC20/ERC20.sol\":6493:6512  fromBalance - value */\n  sub\n    /* \"@openzeppelin/contracts@5.4.0/token/ERC20/ERC20.sol\":6475:6484  _balances */\n  0x00\n    /* \"@openzeppelin/contracts@5.4.0/token/ERC20/ERC20.sol\":6475:6490  _balances[from] */\n  0x00\n    /* \"@openzeppelin/contracts@5.4.0/token/ERC20/ERC20.sol\":6485:6489  from */\n  dup7\n    /* \"@openzeppelin/contracts@5.4.0/token/ERC20/ERC20.sol\":6475:6490  _balances[from] */\n  0xffffffffffffffffffffffffffffffffffffffff\n  and\n  0xffffffffffffffffffffffffffffffffffffffff\n  and\n  dup2\n  mstore\n  0x20\n  add\n  swap1\n  dup2\n  mstore\n  0x20\n  add\n  0x00\n  keccak256\n    /* \"@openzeppelin/contracts@5.4.0/token/ERC20/ERC20.sol\":6475:6512  _balances[from] = fromBalance - value */\n  dup2\n  swap1\n  sstore\n  pop\n    /* \"@openzeppelin/contracts@5.4.0/token/ERC20/ERC20.sol\":6175:6537  {... */\n  pop\n    /* \"@openzeppelin/contracts@5.4.0/token/ERC20/ERC20.sol\":5997:6537  if (from == address(0)) {... */\ntag_69:\n    /* \"@openzeppelin/contracts@5.4.0/token/ERC20/ERC20.sol\":6565:6566  0 */\n  0x00\n    /* \"@openzeppelin/contracts@5.4.0/token/ERC20/ERC20.sol\":6551:6567  to == address(0) */\n  0xffffffffffffffffffffffffffffffffffffffff\n  and\n    /* \"@openzeppelin/contracts@5.4.0/token/ERC20/ERC20.sol\":6551:6553  to */\n  dup3\n    /* \"@openzeppelin/contracts@5.4.0/token/ERC20/ERC20.sol\":6551:6567  to == address(0) */\n  0xffffffffffffffffffffffffffffffffffffffff\n  and\n  sub\n    /* \"@openzeppelin/contracts@5.4.0/token/ERC20/ERC20.sol\":6547:6972  if (to == address(0)) {... */\n  tag_73\n  jumpi\n    /* \"@openzeppelin/contracts@5.4.0/token/ERC20/ERC20.sol\":6730:6735  value */\n  dup1\n    /* \"@openzeppelin/contracts@5.4.0/token/ERC20/ERC20.sol\":6714:6726  _totalSupply */\n  0x02\n  0x00\n    /* \"@openzeppelin/contracts@5.4.0/token/ERC20/ERC20.sol\":6714:6735  _totalSupply -= value */\n  dup3\n  dup3\n  sload\n  sub\n  swap3\n  pop\n  pop\n  dup2\n  swap1\n  sstore\n  pop\n    /* \"@openzeppelin/contracts@5.4.0/token/ERC20/ERC20.sol\":6547:6972  if (to == address(0)) {... */\n  jump(tag_74)\ntag_73:\n    /* \"@openzeppelin/contracts@5.4.0/token/ERC20/ERC20.sol\":6942:6947  value */\n  dup1\n    /* \"@openzeppelin/contracts@5.4.0/token/ERC20/ERC20.sol\":6925:6934  _balances */\n  0x00\n    /* \"@openzeppelin/contracts@5.4.0/token/ERC20/ERC20.sol\":6925:6938  _balances[to] */\n  0x00\n    /* \"@openzeppelin/contracts@5.4.0/token/ERC20/ERC20.sol\":6935:6937  to */\n  dup5\n    /* \"@openzeppelin/contracts@5.4.0/token/ERC20/ERC20.sol\":6925:6938  _balances[to] */\n  0xffffffffffffffffffffffffffffffffffffffff\n  and\n  0xffffffffffffffffffffffffffffffffffffffff\n  and\n  dup2\n  mstore\n  0x20\n  add\n  swap1\n  dup2\n  mstore\n  0x20\n  add\n  0x00\n  keccak256\n  0x00\n    /* \"@openzeppelin/contracts@5.4.0/token/ERC20/ERC20.sol\":6925:6947  _balances[to] += value */\n  dup3\n  dup3\n  sload\n  add\n  swap3\n  pop\n  pop\n  dup2\n  swap1\n  sstore\n  pop\n    /* \"@openzeppelin/contracts@5.4.0/token/ERC20/ERC20.sol\":6547:6972  if (to == address(0)) {... */\ntag_74:\n    /* \"@openzeppelin/contracts@5.4.0/token/ERC20/ERC20.sol\":7002:7004  to */\n  dup2\n    /* \"@openzeppelin/contracts@5.4.0/token/ERC20/ERC20.sol\":6987:7012  Transfer(from, to, value) */\n  0xffffffffffffffffffffffffffffffffffffffff\n  and\n    /* \"@openzeppelin/contracts@5.4.0/token/ERC20/ERC20.sol\":6996:7000  from */\n  dup4\n    /* \"@openzeppelin/contracts@5.4.0/token/ERC20/ERC20.sol\":6987:7012  Transfer(from, to, value) */\n  0xffffffffffffffffffffffffffffffffffffffff\n  and\n  0xddf252ad1be2c89b69c2b068fc378daa952ba7f163c4a11628f55a4df523b3ef\n    /* \"@openzeppelin/contracts@5.4.0/token/ERC20/ERC20.sol\":7006:7011  value */\n  dup4\n    /* \"@openzeppelin/contracts@5.4.0/token/ERC20/ERC20.sol\":6987:7012  Transfer(from, to, value) */\n  mload(0x40)\n  tag_75\n  swap2\n  swap1\n  tag_76\n  jump\t// in\ntag_75:\n  mload(0x40)\n  dup1\n  swap2\n  sub\n  swap1\n  log3\n    /* \"@openzeppelin/contracts@5.4.0/token/ERC20/ERC20.sol\":5912:7019  function _update(address from, address to, uint256 value) internal virtual {... */\n  pop\n  pop\n  pop\n  jump\t// out\n    /* \"@openzeppelin/contracts@5.4.0/utils/Pausable.sol\":1726:1810  function paused() public view virtual returns (bool) {... */\ntag_63:\n    /* \"@openzeppelin/contracts@5.4.0/utils/Pausable.sol\":1773:1777  bool */\n  0x00\n    /* \"@openzeppelin/contracts@5.4.0/utils/Pausable.sol\":1796:1803  _paused */\n  0x05\n  0x00\n  swap1\n  sload\n  swap1\n  0x0100\n  exp\n  swap1\n  div\n  0xff\n  and\n    /* \"@openzeppelin/contracts@5.4.0/utils/Pausable.sol\":1789:1803  return _paused */\n  swap1\n  pop\n    /* \"@openzeppelin/contracts@5.4.0/utils/Pausable.sol\":1726:1810  function paused() public view virtual returns (bool) {... */\n  swap1\n  jump\t// out\n    /* \"#utility.yul\":7:82   */\ntag_78:\n    /* \"#utility.yul\":40:46   */\n  0x00\n    /* \"#utility.yul\":73:75   */\n  0x40\n    /* \"#utility.yul\":67:76   */\n  mload\n    /* \"#utility.yul\":57:76   */\n  swap1\n  pop\n    /* \"#utility.yul\":7:82   */\n  swap1\n  jump\t// out\n    /* \"#utility.yul\":88:205   */\ntag_79:\n    /* \"#utility.yul\":197:198   */\n  0x00\n    /* \"#utility.yul\":194:195   */\n  0x00\n    /* \"#utility.yul\":187:199   */\n  revert\n    /* \"#utility.yul\":211:328   */\ntag_80:\n    /* \"#utility.yul\":320:321   */\n  0x00\n    /* \"#utility.yul\":317:318   */\n  0x00\n    /* \"#utility.yul\":310:322   */\n  revert\n    /* \"#utility.yul\":334:451   */\ntag_81:\n    /* \"#utility.yul\":443:444   */\n  0x00\n    /* \"#utility.yul\":440:441   */\n  0x00\n    /* \"#utility.yul\":433:445   */\n  revert\n    /* \"#utility.yul\":457:574   */\ntag_82:\n    /* \"#utility.yul\":566:567   */\n  0x00\n    /* \"#utility.yul\":563:564   */\n  0x00\n    /* \"#utility.yul\":556:568   */\n  revert\n    /* \"#utility.yul\":580:682   */\ntag_83:\n    /* \"#utility.yul\":621:627   */\n  0x00\n    /* \"#utility.yul\":672:674   */\n  0x1f\n    /* \"#utility.yul\":668:675   */\n  not\n    /* \"#utility.yul\":663:665   */\n  0x1f\n    /* \"#utility.yul\":656:661   */\n  dup4\n    /* \"#utility.yul\":652:666   */\n  add\n    /* \"#utility.yul\":648:676   */\n  and\n    /* \"#utility.yul\":638:676   */\n  swap1\n  pop\n    /* \"#utility.yul\":580:682   */\n  swap2\n  swap1\n  pop\n  jump\t// out\n    /* \"#utility.yul\":688:868   */\ntag_84:\n    /* \"#utility.yul\":736:813   */\n  0x4e487b7100000000000000000000000000000000000000000000000000000000\n    /* \"#utility.yul\":733:734   */\n  0x00\n    /* \"#utility.yul\":726:814   */\n  mstore\n    /* \"#utility.yul\":833:837   */\n  0x41\n    /* \"#utility.yul\":830:831   */\n  0x04\n    /* \"#utility.yul\":823:838   */\n  mstore\n    /* \"#utility.yul\":857:861   */\n  0x24\n    /* \"#utility.yul\":854:855   */\n  0x00\n    /* \"#utility.yul\":847:862   */\n  revert\n    /* \"#utility.yul\":874:1155   */\ntag_85:\n    /* \"#utility.yul\":957:984   */\n  tag_138\n    /* \"#utility.yul\":979:983   */\n  dup3\n    /* \"#utility.yul\":957:984   */\n  tag_83\n  jump\t// in\ntag_138:\n    /* \"#utility.yul\":949:955   */\n  dup2\n    /* \"#utility.yul\":945:985   */\n  add\n    /* \"#utility.yul\":1087:1093   */\n  dup2\n    /* \"#utility.yul\":1075:1085   */\n  dup2\n    /* \"#utility.yul\":1072:1094   */\n  lt\n    /* \"#utility.yul\":1051:1069   */\n  0xffffffffffffffff\n    /* \"#utility.yul\":1039:1049   */\n  dup3\n    /* \"#utility.yul\":1036:1070   */\n  gt\n    /* \"#utility.yul\":1033:1095   */\n  or\n    /* \"#utility.yul\":1030:1118   */\n  iszero\n  tag_139\n  jumpi\n    /* \"#utility.yul\":1098:1116   */\n  tag_140\n  tag_84\n  jump\t// in\ntag_140:\n    /* \"#utility.yul\":1030:1118   */\ntag_139:\n    /* \"#utility.yul\":1138:1148   */\n  dup1\n    /* \"#utility.yul\":1134:1136   */\n  0x40\n    /* \"#utility.yul\":1127:1149   */\n  mstore\n    /* \"#utility.yul\":917:1155   */\n  pop\n    /* \"#utility.yul\":874:1155   */\n  pop\n  pop\n  jump\t// out\n    /* \"#utility.yul\":1161:1290   */\ntag_86:\n    /* \"#utility.yul\":1195:1201   */\n  0x00\n    /* \"#utility.yul\":1222:1242   */\n  tag_142\n  tag_78\n  jump\t// in\ntag_142:\n    /* \"#utility.yul\":1212:1242   */\n  swap1\n  pop\n    /* \"#utility.yul\":1251:1284   */\n  tag_143\n    /* \"#utility.yul\":1279:1283   */\n  dup3\n    /* \"#utility.yul\":1271:1277   */\n  dup3\n    /* \"#utility.yul\":1251:1284   */\n  tag_85\n  jump\t// in\ntag_143:\n    /* \"#utility.yul\":1161:1290   */\n  swap2\n  swap1\n  pop\n  jump\t// out\n    /* \"#utility.yul\":1296:1604   */\ntag_87:\n    /* \"#utility.yul\":1358:1362   */\n  0x00\n    /* \"#utility.yul\":1448:1466   */\n  0xffffffffffffffff\n    /* \"#utility.yul\":1440:1446   */\n  dup3\n    /* \"#utility.yul\":1437:1467   */\n  gt\n    /* \"#utility.yul\":1434:1490   */\n  iszero\n  tag_145\n  jumpi\n    /* \"#utility.yul\":1470:1488   */\n  tag_146\n  tag_84\n  jump\t// in\ntag_146:\n    /* \"#utility.yul\":1434:1490   */\ntag_145:\n    /* \"#utility.yul\":1508:1537   */\n  tag_147\n    /* \"#utility.yul\":1530:1536   */\n  dup3\n    /* \"#utility.yul\":1508:1537   */\n  tag_83\n  jump\t// in\ntag_147:\n    /* \"#utility.yul\":1500:1537   */\n  swap1\n  pop\n    /* \"#utility.yul\":1592:1596   */\n  0x20\n    /* \"#utility.yul\":1586:1590   */\n  dup2\n    /* \"#utility.yul\":1582:1597   */\n  add\n    /* \"#utility.yul\":1574:1597   */\n  swap1\n  pop\n    /* \"#utility.yul\":1296:1604   */\n  swap2\n  swap1\n  pop\n  jump\t// out\n    /* \"#utility.yul\":1610:1749   */\ntag_88:\n    /* \"#utility.yul\":1699:1705   */\n  dup3\n    /* \"#utility.yul\":1694:1697   */\n  dup2\n    /* \"#utility.yul\":1689:1692   */\n  dup4\n    /* \"#utility.yul\":1683:1706   */\n  mcopy\n    /* \"#utility.yul\":1740:1741   */\n  0x00\n    /* \"#utility.yul\":1731:1737   */\n  dup4\n    /* \"#utility.yul\":1726:1729   */\n  dup4\n    /* \"#utility.yul\":1722:1738   */\n  add\n    /* \"#utility.yul\":1715:1742   */\n  mstore\n    /* \"#utility.yul\":1610:1749   */\n  pop\n  pop\n  pop\n  jump\t// out\n    /* \"#utility.yul\":1755:2189   */\ntag_89:\n    /* \"#utility.yul\":1844:1849   */\n  0x00\n    /* \"#utility.yul\":1869:1935   */\n  tag_150\n    /* \"#utility.yul\":1885:1934   */\n  tag_151\n    /* \"#utility.yul\":1927:1933   */\n  dup5\n    /* \"#utility.yul\":1885:1934   */\n  tag_87\n  jump\t// in\ntag_151:\n    /* \"#utility.yul\":1869:1935   */\n  tag_86\n  jump\t// in\ntag_150:\n    /* \"#utility.yul\":1860:1935   */\n  swap1\n  pop\n    /* \"#utility.yul\":1958:1964   */\n  dup3\n    /* \"#utility.yul\":1951:1956   */\n  dup2\n    /* \"#utility.yul\":1944:1965   */\n  mstore\n    /* \"#utility.yul\":1996:2000   */\n  0x20\n    /* \"#utility.yul\":1989:1994   */\n  dup2\n    /* \"#utility.yul\":1985:2001   */\n  add\n    /* \"#utility.yul\":2034:2037   */\n  dup5\n    /* \"#utility.yul\":2025:2031   */\n  dup5\n    /* \"#utility.yul\":2020:2023   */\n  dup5\n    /* \"#utility.yul\":2016:2032   */\n  add\n    /* \"#utility.yul\":2013:2038   */\n  gt\n    /* \"#utility.yul\":2010:2122   */\n  iszero\n  tag_152\n  jumpi\n    /* \"#utility.yul\":2041:2120   */\n  tag_153\n  tag_82\n  jump\t// in\ntag_153:\n    /* \"#utility.yul\":2010:2122   */\ntag_152:\n    /* \"#utility.yul\":2131:2183   */\n  tag_154\n    /* \"#utility.yul\":2176:2182   */\n  dup5\n    /* \"#utility.yul\":2171:2174   */\n  dup3\n    /* \"#utility.yul\":2166:2169   */\n  dup6\n    /* \"#utility.yul\":2131:2183   */\n  tag_88\n  jump\t// in\ntag_154:\n    /* \"#utility.yul\":1850:2189   */\n  pop\n    /* \"#utility.yul\":1755:2189   */\n  swap4\n  swap3\n  pop\n  pop\n  pop\n  jump\t// out\n    /* \"#utility.yul\":2209:2564   */\ntag_90:\n    /* \"#utility.yul\":2276:2281   */\n  0x00\n    /* \"#utility.yul\":2325:2328   */\n  dup3\n    /* \"#utility.yul\":2318:2322   */\n  0x1f\n    /* \"#utility.yul\":2310:2316   */\n  dup4\n    /* \"#utility.yul\":2306:2323   */\n  add\n    /* \"#utility.yul\":2302:2329   */\n  slt\n    /* \"#utility.yul\":2292:2414   */\n  tag_156\n  jumpi\n    /* \"#utility.yul\":2333:2412   */\n  tag_157\n  tag_81\n  jump\t// in\ntag_157:\n    /* \"#utility.yul\":2292:2414   */\ntag_156:\n    /* \"#utility.yul\":2443:2449   */\n  dup2\n    /* \"#utility.yul\":2437:2450   */\n  mload\n    /* \"#utility.yul\":2468:2558   */\n  tag_158\n    /* \"#utility.yul\":2554:2557   */\n  dup5\n    /* \"#utility.yul\":2546:2552   */\n  dup3\n    /* \"#utility.yul\":2539:2543   */\n  0x20\n    /* \"#utility.yul\":2531:2537   */\n  dup7\n    /* \"#utility.yul\":2527:2544   */\n  add\n    /* \"#utility.yul\":2468:2558   */\n  tag_89\n  jump\t// in\ntag_158:\n    /* \"#utility.yul\":2459:2558   */\n  swap2\n  pop\n    /* \"#utility.yul\":2282:2564   */\n  pop\n    /* \"#utility.yul\":2209:2564   */\n  swap3\n  swap2\n  pop\n  pop\n  jump\t// out\n    /* \"#utility.yul\":2570:2696   */\ntag_91:\n    /* \"#utility.yul\":2607:2614   */\n  0x00\n    /* \"#utility.yul\":2647:2689   */\n  0xffffffffffffffffffffffffffffffffffffffff\n    /* \"#utility.yul\":2640:2645   */\n  dup3\n    /* \"#utility.yul\":2636:2690   */\n  and\n    /* \"#utility.yul\":2625:2690   */\n  swap1\n  pop\n    /* \"#utility.yul\":2570:2696   */\n  swap2\n  swap1\n  pop\n  jump\t// out\n    /* \"#utility.yul\":2702:2798   */\ntag_92:\n    /* \"#utility.yul\":2739:2746   */\n  0x00\n    /* \"#utility.yul\":2768:2792   */\n  tag_161\n    /* \"#utility.yul\":2786:2791   */\n  dup3\n    /* \"#utility.yul\":2768:2792   */\n  tag_91\n  jump\t// in\ntag_161:\n    /* \"#utility.yul\":2757:2792   */\n  swap1\n  pop\n    /* \"#utility.yul\":2702:2798   */\n  swap2\n  swap1\n  pop\n  jump\t// out\n    /* \"#utility.yul\":2804:2926   */\ntag_93:\n    /* \"#utility.yul\":2877:2901   */\n  tag_163\n    /* \"#utility.yul\":2895:2900   */\n  dup2\n    /* \"#utility.yul\":2877:2901   */\n  tag_92\n  jump\t// in\ntag_163:\n    /* \"#utility.yul\":2870:2875   */\n  dup2\n    /* \"#utility.yul\":2867:2902   */\n  eq\n    /* \"#utility.yul\":2857:2920   */\n  tag_164\n  jumpi\n    /* \"#utility.yul\":2916:2917   */\n  0x00\n    /* \"#utility.yul\":2913:2914   */\n  0x00\n    /* \"#utility.yul\":2906:2918   */\n  revert\n    /* \"#utility.yul\":2857:2920   */\ntag_164:\n    /* \"#utility.yul\":2804:2926   */\n  pop\n  jump\t// out\n    /* \"#utility.yul\":2932:3075   */\ntag_94:\n    /* \"#utility.yul\":2989:2994   */\n  0x00\n    /* \"#utility.yul\":3020:3026   */\n  dup2\n    /* \"#utility.yul\":3014:3027   */\n  mload\n    /* \"#utility.yul\":3005:3027   */\n  swap1\n  pop\n    /* \"#utility.yul\":3036:3069   */\n  tag_166\n    /* \"#utility.yul\":3063:3068   */\n  dup2\n    /* \"#utility.yul\":3036:3069   */\n  tag_93\n  jump\t// in\ntag_166:\n    /* \"#utility.yul\":2932:3075   */\n  swap3\n  swap2\n  pop\n  pop\n  jump\t// out\n    /* \"#utility.yul\":3081:3158   */\ntag_95:\n    /* \"#utility.yul\":3118:3125   */\n  0x00\n    /* \"#utility.yul\":3147:3152   */\n  dup2\n    /* \"#utility.yul\":3136:3152   */\n  swap1\n  pop\n    /* \"#utility.yul\":3081:3158   */\n  swap2\n  swap1\n  pop\n  jump\t// out\n    /* \"#utility.yul\":3164:3286   */\ntag_96:\n    /* \"#utility.yul\":3237:3261   */\n  tag_169\n    /* \"#utility.yul\":3255:3260   */\n  dup2\n    /* \"#utility.yul\":3237:3261   */\n  tag_95\n  jump\t// in\ntag_169:\n    /* \"#utility.yul\":3230:3235   */\n  dup2\n    /* \"#utility.yul\":3227:3262   */\n  eq\n    /* \"#utility.yul\":3217:3280   */\n  tag_170\n  jumpi\n    /* \"#utility.yul\":3276:3277   */\n  0x00\n    /* \"#utility.yul\":3273:3274   */\n  0x00\n    /* \"#utility.yul\":3266:3278   */\n  revert\n    /* \"#utility.yul\":3217:3280   */\ntag_170:\n    /* \"#utility.yul\":3164:3286   */\n  pop\n  jump\t// out\n    /* \"#utility.yul\":3292:3435   */\ntag_97:\n    /* \"#utility.yul\":3349:3354   */\n  0x00\n    /* \"#utility.yul\":3380:3386   */\n  dup2\n    /* \"#utility.yul\":3374:3387   */\n  mload\n    /* \"#utility.yul\":3365:3387   */\n  swap1\n  pop\n    /* \"#utility.yul\":3396:3429   */\n  tag_172\n    /* \"#utility.yul\":3423:3428   */\n  dup2\n    /* \"#utility.yul\":3396:3429   */\n  tag_96\n  jump\t// in\ntag_172:\n    /* \"#utility.yul\":3292:3435   */\n  swap3\n  swap2\n  pop\n  pop\n  jump\t// out\n    /* \"#utility.yul\":3441:4607   */\ntag_3:\n    /* \"#utility.yul\":3558:3564   */\n  0x00\n    /* \"#utility.yul\":3566:3572   */\n  0x00\n    /* \"#utility.yul\":3574:3580   */\n  0x00\n    /* \"#utility.yul\":3582:3588   */\n  0x00\n    /* \"#utility.yul\":3631:3634   */\n  0x80\n    /* \"#utility.yul\":3619:3628   */\n  dup6\n    /* \"#utility.yul\":3610:3617   */\n  dup8\n    /* \"#utility.yul\":3606:3629   */\n  sub\n    /* \"#utility.yul\":3602:3635   */\n  slt\n    /* \"#utility.yul\":3599:3719   */\n  iszero\n  tag_174\n  jumpi\n    /* \"#utility.yul\":3638:3717   */\n  tag_175\n  tag_79\n  jump\t// in\ntag_175:\n    /* \"#utility.yul\":3599:3719   */\ntag_174:\n    /* \"#utility.yul\":3779:3780   */\n  0x00\n    /* \"#utility.yul\":3768:3777   */\n  dup6\n    /* \"#utility.yul\":3764:3781   */\n  add\n    /* \"#utility.yul\":3758:3782   */\n  mload\n    /* \"#utility.yul\":3809:3827   */\n  0xffffffffffffffff\n    /* \"#utility.yul\":3801:3807   */\n  dup2\n    /* \"#utility.yul\":3798:3828   */\n  gt\n    /* \"#utility.yul\":3795:3912   */\n  iszero\n  tag_176\n  jumpi\n    /* \"#utility.yul\":3831:3910   */\n  tag_177\n  tag_80\n  jump\t// in\ntag_177:\n    /* \"#utility.yul\":3795:3912   */\ntag_176:\n    /* \"#utility.yul\":3936:4010   */\n  tag_178\n    /* \"#utility.yul\":4002:4009   */\n  dup8\n    /* \"#utility.yul\":3993:3999   */\n  dup3\n    /* \"#utility.yul\":3982:3991   */\n  dup9\n    /* \"#utility.yul\":3978:4000   */\n  add\n    /* \"#utility.yul\":3936:4010   */\n  tag_90\n  jump\t// in\ntag_178:\n    /* \"#utility.yul\":3926:4010   */\n  swap5\n  pop\n    /* \"#utility.yul\":3729:4020   */\n  pop\n    /* \"#utility.yul\":4080:4082   */\n  0x20\n    /* \"#utility.yul\":4069:4078   */\n  dup6\n    /* \"#utility.yul\":4065:4083   */\n  add\n    /* \"#utility.yul\":4059:4084   */\n  mload\n    /* \"#utility.yul\":4111:4129   */\n  0xffffffffffffffff\n    /* \"#utility.yul\":4103:4109   */\n  dup2\n    /* \"#utility.yul\":4100:4130   */\n  gt\n    /* \"#utility.yul\":4097:4214   */\n  iszero\n  tag_179\n  jumpi\n    /* \"#utility.yul\":4133:4212   */\n  tag_180\n  tag_80\n  jump\t// in\ntag_180:\n    /* \"#utility.yul\":4097:4214   */\ntag_179:\n    /* \"#utility.yul\":4238:4312   */\n  tag_181\n    /* \"#utility.yul\":4304:4311   */\n  dup8\n    /* \"#utility.yul\":4295:4301   */\n  dup3\n    /* \"#utility.yul\":4284:4293   */\n  dup9\n    /* \"#utility.yul\":4280:4302   */\n  add\n    /* \"#utility.yul\":4238:4312   */\n  tag_90\n  jump\t// in\ntag_181:\n    /* \"#utility.yul\":4228:4312   */\n  swap4\n  pop\n    /* \"#utility.yul\":4030:4322   */\n  pop\n    /* \"#utility.yul\":4361:4363   */\n  0x40\n    /* \"#utility.yul\":4387:4451   */\n  tag_182\n    /* \"#utility.yul\":4443:4450   */\n  dup8\n    /* \"#utility.yul\":4434:4440   */\n  dup3\n    /* \"#utility.yul\":4423:4432   */\n  dup9\n    /* \"#utility.yul\":4419:4441   */\n  add\n    /* \"#utility.yul\":4387:4451   */\n  tag_94\n  jump\t// in\ntag_182:\n    /* \"#utility.yul\":4377:4451   */\n  swap3\n  pop\n    /* \"#utility.yul\":4332:4461   */\n  pop\n    /* \"#utility.yul\":4500:4502   */\n  0x60\n    /* \"#utility.yul\":4526:4590   */\n  tag_183\n    /* \"#utility.yul\":4582:4589   */\n  dup8\n    /* \"#utility.yul\":4573:4579   */\n  dup3\n    /* \"#utility.yul\":4562:4571   */\n  dup9\n    /* \"#utility.yul\":4558:4580   */\n  add\n    /* \"#utility.yul\":4526:4590   */\n  tag_97\n  jump\t// in\ntag_183:\n    /* \"#utility.yul\":4516:4590   */\n  swap2\n  pop\n    /* \"#utility.yul\":4471:4600   */\n  pop\n    /* \"#utility.yul\":3441:4607   */\n  swap3\n  swap6\n  swap2\n  swap5\n  pop\n  swap3\n  pop\n  jump\t// out\n    /* \"#utility.yul\":4613:4712   */\ntag_98:\n    /* \"#utility.yul\":4665:4671   */\n  0x00\n    /* \"#utility.yul\":4699:4704   */\n  dup2\n    /* \"#utility.yul\":4693:4705   */\n  mload\n    /* \"#utility.yul\":4683:4705   */\n  swap1\n  pop\n    /* \"#utility.yul\":4613:4712   */\n  swap2\n  swap1\n  pop\n  jump\t// out\n    /* \"#utility.yul\":4718:4898   */\ntag_99:\n    /* \"#utility.yul\":4766:4843   */\n  0x4e487b7100000000000000000000000000000000000000000000000000000000\n    /* \"#utility.yul\":4763:4764   */\n  0x00\n    /* \"#utility.yul\":4756:4844   */\n  mstore\n    /* \"#utility.yul\":4863:4867   */\n  0x22\n    /* \"#utility.yul\":4860:4861   */\n  0x04\n    /* \"#utility.yul\":4853:4868   */\n  mstore\n    /* \"#utility.yul\":4887:4891   */\n  0x24\n    /* \"#utility.yul\":4884:4885   */\n  0x00\n    /* \"#utility.yul\":4877:4892   */\n  revert\n    /* \"#utility.yul\":4904:5224   */\ntag_100:\n    /* \"#utility.yul\":4948:4954   */\n  0x00\n    /* \"#utility.yul\":4985:4986   */\n  0x02\n    /* \"#utility.yul\":4979:4983   */\n  dup3\n    /* \"#utility.yul\":4975:4987   */\n  div\n    /* \"#utility.yul\":4965:4987   */\n  swap1\n  pop\n    /* \"#utility.yul\":5032:5033   */\n  0x01\n    /* \"#utility.yul\":5026:5030   */\n  dup3\n    /* \"#utility.yul\":5022:5034   */\n  and\n    /* \"#utility.yul\":5053:5071   */\n  dup1\n    /* \"#utility.yul\":5043:5124   */\n  tag_187\n  jumpi\n    /* \"#utility.yul\":5109:5113   */\n  0x7f\n    /* \"#utility.yul\":5101:5107   */\n  dup3\n    /* \"#utility.yul\":5097:5114   */\n  and\n    /* \"#utility.yul\":5087:5114   */\n  swap2\n  pop\n    /* \"#utility.yul\":5043:5124   */\ntag_187:\n    /* \"#utility.yul\":5171:5173   */\n  0x20\n    /* \"#utility.yul\":5163:5169   */\n  dup3\n    /* \"#utility.yul\":5160:5174   */\n  lt\n    /* \"#utility.yul\":5140:5158   */\n  dup2\n    /* \"#utility.yul\":5137:5175   */\n  sub\n    /* \"#utility.yul\":5134:5218   */\n  tag_188\n  jumpi\n    /* \"#utility.yul\":5190:5208   */\n  tag_189\n  tag_99\n  jump\t// in\ntag_189:\n    /* \"#utility.yul\":5134:5218   */\ntag_188:\n    /* \"#utility.yul\":4955:5224   */\n  pop\n    /* \"#utility.yul\":4904:5224   */\n  swap2\n  swap1\n  pop\n  jump\t// out\n    /* \"#utility.yul\":5230:5371   */\ntag_101:\n    /* \"#utility.yul\":5279:5283   */\n  0x00\n    /* \"#utility.yul\":5302:5305   */\n  dup2\n    /* \"#utility.yul\":5294:5305   */\n  swap1\n  pop\n    /* \"#utility.yul\":5325:5328   */\n  dup2\n    /* \"#utility.yul\":5322:5323   */\n  0x00\n    /* \"#utility.yul\":5315:5329   */\n  mstore\n    /* \"#utility.yul\":5359:5363   */\n  0x20\n    /* \"#utility.yul\":5356:5357   */\n  0x00\n    /* \"#utility.yul\":5346:5364   */\n  keccak256\n    /* \"#utility.yul\":5338:5364   */\n  swap1\n  pop\n    /* \"#utility.yul\":5230:5371   */\n  swap2\n  swap1\n  pop\n  jump\t// out\n    /* \"#utility.yul\":5377:5470   */\ntag_102:\n    /* \"#utility.yul\":5414:5420   */\n  0x00\n    /* \"#utility.yul\":5461:5463   */\n  0x20\n    /* \"#utility.yul\":5456:5458   */\n  0x1f\n    /* \"#utility.yul\":5449:5454   */\n  dup4\n    /* \"#utility.yul\":5445:5459   */\n  add\n    /* \"#utility.yul\":5441:5464   */\n  div\n    /* \"#utility.yul\":5431:5464   */\n  swap1\n  pop\n    /* \"#utility.yul\":5377:5470   */\n  swap2\n  swap1\n  pop\n  jump\t// out\n    /* \"#utility.yul\":5476:5583   */\ntag_103:\n    /* \"#utility.yul\":5520:5528   */\n  0x00\n    /* \"#utility.yul\":5570:5575   */\n  dup3\n    /* \"#utility.yul\":5564:5568   */\n  dup3\n    /* \"#utility.yul\":5560:5576   */\n  shl\n    /* \"#utility.yul\":5539:5576   */\n  swap1\n  pop\n    /* \"#utility.yul\":5476:5583   */\n  swap3\n  swap2\n  pop\n  pop\n  jump\t// out\n    /* \"#utility.yul\":5589:5982   */\ntag_104:\n    /* \"#utility.yul\":5658:5664   */\n  0x00\n    /* \"#utility.yul\":5708:5709   */\n  0x08\n    /* \"#utility.yul\":5696:5706   */\n  dup4\n    /* \"#utility.yul\":5692:5710   */\n  mul\n    /* \"#utility.yul\":5731:5828   */\n  tag_194\n    /* \"#utility.yul\":5761:5827   */\n  0xffffffffffffffffffffffffffffffffffffffffffffffffffffffffffffffff\n    /* \"#utility.yul\":5750:5759   */\n  dup3\n    /* \"#utility.yul\":5731:5828   */\n  tag_103\n  jump\t// in\ntag_194:\n    /* \"#utility.yul\":5849:5888   */\n  tag_195\n    /* \"#utility.yul\":5879:5887   */\n  dup7\n    /* \"#utility.yul\":5868:5877   */\n  dup4\n    /* \"#utility.yul\":5849:5888   */\n  tag_103\n  jump\t// in\ntag_195:\n    /* \"#utility.yul\":5837:5888   */\n  swap6\n  pop\n    /* \"#utility.yul\":5921:5925   */\n  dup1\n    /* \"#utility.yul\":5917:5926   */\n  not\n    /* \"#utility.yul\":5910:5915   */\n  dup5\n    /* \"#utility.yul\":5906:5927   */\n  and\n    /* \"#utility.yul\":5897:5927   */\n  swap4\n  pop\n    /* \"#utility.yul\":5970:5974   */\n  dup1\n    /* \"#utility.yul\":5960:5968   */\n  dup7\n    /* \"#utility.yul\":5956:5975   */\n  and\n    /* \"#utility.yul\":5949:5954   */\n  dup5\n    /* \"#utility.yul\":5946:5976   */\n  or\n    /* \"#utility.yul\":5936:5976   */\n  swap3\n  pop\n    /* \"#utility.yul\":5665:5982   */\n  pop\n  pop\n    /* \"#utility.yul\":5589:5982   */\n  swap4\n  swap3\n  pop\n  pop\n  pop\n  jump\t// out\n    /* \"#utility.yul\":5988:6048   */\ntag_105:\n    /* \"#utility.yul\":6016:6019   */\n  0x00\n    /* \"#utility.yul\":6037:6042   */\n  dup2\n    /* \"#utility.yul\":6030:6042   */\n  swap1\n  pop\n    /* \"#utility.yul\":5988:6048   */\n  swap2\n  swap1\n  pop\n  jump\t// out\n    /* \"#utility.yul\":6054:6196   */\ntag_106:\n    /* \"#utility.yul\":6104:6113   */\n  0x00\n    /* \"#utility.yul\":6137:6190   */\n  tag_198\n    /* \"#utility.yul\":6155:6189   */\n  tag_199\n    /* \"#utility.yul\":6164:6188   */\n  tag_200\n    /* \"#utility.yul\":6182:6187   */\n  dup5\n    /* \"#utility.yul\":6164:6188   */\n  tag_95\n  jump\t// in\ntag_200:\n    /* \"#utility.yul\":6155:6189   */\n  tag_105\n  jump\t// in\ntag_199:\n    /* \"#utility.yul\":6137:6190   */\n  tag_95\n  jump\t// in\ntag_198:\n    /* \"#utility.yul\":6124:6190   */\n  swap1\n  pop\n    /* \"#utility.yul\":6054:6196   */\n  swap2\n  swap1\n  pop\n  jump\t// out\n    /* \"#utility.yul\":6202:6277   */\ntag_107:\n    /* \"#utility.yul\":6245:6248   */\n  0x00\n    /* \"#utility.yul\":6266:6271   */\n  dup2\n    /* \"#utility.yul\":6259:6271   */\n  swap1\n  pop\n    /* \"#utility.yul\":6202:6277   */\n  swap2\n  swap1\n  pop\n  jump\t// out\n    /* \"#utility.yul\":6283:6552   */\ntag_108:\n    /* \"#utility.yul\":6393:6432   */\n  tag_203\n    /* \"#utility.yul\":6424:6431   */\n  dup4\n    /* \"#utility.yul\":6393:6432   */\n  tag_106\n  jump\t// in\ntag_203:\n    /* \"#utility.yul\":6454:6545   */\n  tag_204\n    /* \"#utility.yul\":6503:6544   */\n  tag_205\n    /* \"#utility.yul\":6527:6543   */\n  dup3\n    /* \"#utility.yul\":6503:6544   */\n  tag_107\n  jump\t// in\ntag_205:\n    /* \"#utility.yul\":6495:6501   */\n  dup5\n    /* \"#utility.yul\":6488:6492   */\n  dup5\n    /* \"#utility.yul\":6482:6493   */\n  sload\n    /* \"#utility.yul\":6454:6545   */\n  tag_104\n  jump\t// in\ntag_204:\n    /* \"#utility.yul\":6448:6452   */\n  dup3\n    /* \"#utility.yul\":6441:6546   */\n  sstore\n    /* \"#utility.yul\":6359:6552   */\n  pop\n    /* \"#utility.yul\":6283:6552   */\n  pop\n  pop\n  pop\n  jump\t// out\n    /* \"#utility.yul\":6558:6631   */\ntag_109:\n    /* \"#utility.yul\":6603:6606   */\n  0x00\n    /* \"#utility.yul\":6624:6625   */\n  0x00\n    /* \"#utility.yul\":6617:6625   */\n  swap1\n  pop\n    /* \"#utility.yul\":6558:6631   */\n  swap1\n  jump\t// out\n    /* \"#utility.yul\":6637:6826   */\ntag_110:\n    /* \"#utility.yul\":6714:6746   */\n  tag_208\n  tag_109\n  jump\t// in\ntag_208:\n    /* \"#utility.yul\":6755:6820   */\n  tag_209\n    /* \"#utility.yul\":6813:6819   */\n  dup2\n    /* \"#utility.yul\":6805:6811   */\n  dup5\n    /* \"#utility.yul\":6799:6803   */\n  dup5\n    /* \"#utility.yul\":6755:6820   */\n  tag_108\n  jump\t// in\ntag_209:\n    /* \"#utility.yul\":6690:6826   */\n  pop\n    /* \"#utility.yul\":6637:6826   */\n  pop\n  pop\n  jump\t// out\n    /* \"#utility.yul\":6832:7018   */\ntag_111:\n    /* \"#utility.yul\":6892:7012   */\ntag_211:\n    /* \"#utility.yul\":6909:6912   */\n  dup2\n    /* \"#utility.yul\":6902:6907   */\n  dup2\n    /* \"#utility.yul\":6899:6913   */\n  lt\n    /* \"#utility.yul\":6892:7012   */\n  iszero\n  tag_213\n  jumpi\n    /* \"#utility.yul\":6963:7002   */\n  tag_214\n    /* \"#utility.yul\":7000:7001   */\n  0x00\n    /* \"#utility.yul\":6993:6998   */\n  dup3\n    /* \"#utility.yul\":6963:7002   */\n  tag_110\n  jump\t// in\ntag_214:\n    /* \"#utility.yul\":6936:6937   */\n  0x01\n    /* \"#utility.yul\":6929:6934   */\n  dup2\n    /* \"#utility.yul\":6925:6938   */\n  add\n    /* \"#utility.yul\":6916:6938   */\n  swap1\n  pop\n    /* \"#utility.yul\":6892:7012   */\n  jump(tag_211)\ntag_213:\n    /* \"#utility.yul\":6832:7018   */\n  pop\n  pop\n  jump\t// out\n    /* \"#utility.yul\":7024:7567   */\ntag_112:\n    /* \"#utility.yul\":7125:7127   */\n  0x1f\n    /* \"#utility.yul\":7120:7123   */\n  dup3\n    /* \"#utility.yul\":7117:7128   */\n  gt\n    /* \"#utility.yul\":7114:7560   */\n  iszero\n  tag_216\n  jumpi\n    /* \"#utility.yul\":7159:7197   */\n  tag_217\n    /* \"#utility.yul\":7191:7196   */\n  dup2\n    /* \"#utility.yul\":7159:7197   */\n  tag_101\n  jump\t// in\ntag_217:\n    /* \"#utility.yul\":7243:7272   */\n  tag_218\n    /* \"#utility.yul\":7261:7271   */\n  dup5\n    /* \"#utility.yul\":7243:7272   */\n  tag_102\n  jump\t// in\ntag_218:\n    /* \"#utility.yul\":7233:7241   */\n  dup2\n    /* \"#utility.yul\":7229:7273   */\n  add\n    /* \"#utility.yul\":7426:7428   */\n  0x20\n    /* \"#utility.yul\":7414:7424   */\n  dup6\n    /* \"#utility.yul\":7411:7429   */\n  lt\n    /* \"#utility.yul\":7408:7457   */\n  iszero\n  tag_219\n  jumpi\n    /* \"#utility.yul\":7447:7455   */\n  dup2\n    /* \"#utility.yul\":7432:7455   */\n  swap1\n  pop\n    /* \"#utility.yul\":7408:7457   */\ntag_219:\n    /* \"#utility.yul\":7470:7550   */\n  tag_220\n    /* \"#utility.yul\":7526:7548   */\n  tag_221\n    /* \"#utility.yul\":7544:7547   */\n  dup6\n    /* \"#utility.yul\":7526:7548   */\n  tag_102\n  jump\t// in\ntag_221:\n    /* \"#utility.yul\":7516:7524   */\n  dup4\n    /* \"#utility.yul\":7512:7549   */\n  add\n    /* \"#utility.yul\":7499:7510   */\n  dup3\n    /* \"#utility.yul\":7470:7550   */\n  tag_111\n  jump\t// in\ntag_220:\n    /* \"#utility.yul\":7129:7560   */\n  pop\n  pop\n    /* \"#utility.yul\":7114:7560   */\ntag_216:\n    /* \"#utility.yul\":7024:7567   */\n  pop\n  pop\n  pop\n  jump\t// out\n    /* \"#utility.yul\":7573:7690   */\ntag_113:\n    /* \"#utility.yul\":7627:7635   */\n  0x00\n    /* \"#utility.yul\":7677:7682   */\n  dup3\n    /* \"#utility.yul\":7671:7675   */\n  dup3\n    /* \"#utility.yul\":7667:7683   */\n  shr\n    /* \"#utility.yul\":7646:7683   */\n  swap1\n  pop\n    /* \"#utility.yul\":7573:7690   */\n  swap3\n  swap2\n  pop\n  pop\n  jump\t// out\n    /* \"#utility.yul\":7696:7865   */\ntag_114:\n    /* \"#utility.yul\":7740:7746   */\n  0x00\n    /* \"#utility.yul\":7773:7824   */\n  tag_224\n    /* \"#utility.yul\":7821:7822   */\n  0x00\n    /* \"#utility.yul\":7817:7823   */\n  not\n    /* \"#utility.yul\":7809:7814   */\n  dup5\n    /* \"#utility.yul\":7806:7807   */\n  0x08\n    /* \"#utility.yul\":7802:7815   */\n  mul\n    /* \"#utility.yul\":7773:7824   */\n  tag_113\n  jump\t// in\ntag_224:\n    /* \"#utility.yul\":7769:7825   */\n  not\n    /* \"#utility.yul\":7854:7858   */\n  dup1\n    /* \"#utility.yul\":7848:7852   */\n  dup4\n    /* \"#utility.yul\":7844:7859   */\n  and\n    /* \"#utility.yul\":7834:7859   */\n  swap2\n  pop\n    /* \"#utility.yul\":7747:7865   */\n  pop\n    /* \"#utility.yul\":7696:7865   */\n  swap3\n  swap2\n  pop\n  pop\n  jump\t// out\n    /* \"#utility.yul\":7870:8165   */\ntag_115:\n    /* \"#utility.yul\":7946:7950   */\n  0x00\n    /* \"#utility.yul\":8092:8121   */\n  tag_226\n    /* \"#utility.yul\":8117:8120   */\n  dup4\n    /* \"#utility.yul\":8111:8115   */\n  dup4\n    /* \"#utility.yul\":8092:8121   */\n  tag_114\n  jump\t// in\ntag_226:\n    /* \"#utility.yul\":8084:8121   */\n  swap2\n  pop\n    /* \"#utility.yul\":8154:8157   */\n  dup3\n    /* \"#utility.yul\":8151:8152   */\n  0x02\n    /* \"#utility.yul\":8147:8158   */\n  mul\n    /* \"#utility.yul\":8141:8145   */\n  dup3\n    /* \"#utility.yul\":8138:8159   */\n  or\n    /* \"#utility.yul\":8130:8159   */\n  swap1\n  pop\n    /* \"#utility.yul\":7870:8165   */\n  swap3\n  swap2\n  pop\n  pop\n  jump\t// out\n    /* \"#utility.yul\":8170:9565   */\ntag_9:\n    /* \"#utility.yul\":8287:8324   */\n  tag_228\n    /* \"#utility.yul\":8320:8323   */\n  dup3\n    /* \"#utility.yul\":8287:8324   */\n  tag_98\n  jump\t// in\ntag_228:\n    /* \"#utility.yul\":8389:8407   */\n  0xffffffffffffffff\n    /* \"#utility.yul\":8381:8387   */\n  dup2\n    /* \"#utility.yul\":8378:8408   */\n  gt\n    /* \"#utility.yul\":8375:8431   */\n  iszero\n  tag_229\n  jumpi\n    /* \"#utility.yul\":8411:8429   */\n  tag_230\n  tag_84\n  jump\t// in\ntag_230:\n    /* \"#utility.yul\":8375:8431   */\ntag_229:\n    /* \"#utility.yul\":8455:8493   */\n  tag_231\n    /* \"#utility.yul\":8487:8491   */\n  dup3\n    /* \"#utility.yul\":8481:8492   */\n  sload\n    /* \"#utility.yul\":8455:8493   */\n  tag_100\n  jump\t// in\ntag_231:\n    /* \"#utility.yul\":8540:8607   */\n  tag_232\n    /* \"#utility.yul\":8600:8606   */\n  dup3\n    /* \"#utility.yul\":8592:8598   */\n  dup3\n    /* \"#utility.yul\":8586:8590   */\n  dup6\n    /* \"#utility.yul\":8540:8607   */\n  tag_112\n  jump\t// in\ntag_232:\n    /* \"#utility.yul\":8634:8635   */\n  0x00\n    /* \"#utility.yul\":8658:8662   */\n  0x20\n    /* \"#utility.yul\":8645:8662   */\n  swap1\n  pop\n    /* \"#utility.yul\":8690:8692   */\n  0x1f\n    /* \"#utility.yul\":8682:8688   */\n  dup4\n    /* \"#utility.yul\":8679:8693   */\n  gt\n    /* \"#utility.yul\":8707:8708   */\n  0x01\n    /* \"#utility.yul\":8702:9320   */\n  dup2\n  eq\n  tag_234\n  jumpi\n    /* \"#utility.yul\":9364:9365   */\n  0x00\n    /* \"#utility.yul\":9381:9387   */\n  dup5\n    /* \"#utility.yul\":9378:9455   */\n  iszero\n  tag_235\n  jumpi\n    /* \"#utility.yul\":9430:9439   */\n  dup3\n    /* \"#utility.yul\":9425:9428   */\n  dup8\n    /* \"#utility.yul\":9421:9440   */\n  add\n    /* \"#utility.yul\":9415:9441   */\n  mload\n    /* \"#utility.yul\":9406:9441   */\n  swap1\n  pop\n    /* \"#utility.yul\":9378:9455   */\ntag_235:\n    /* \"#utility.yul\":9481:9548   */\n  tag_236\n    /* \"#utility.yul\":9541:9547   */\n  dup6\n    /* \"#utility.yul\":9534:9539   */\n  dup3\n    /* \"#utility.yul\":9481:9548   */\n  tag_115\n  jump\t// in\ntag_236:\n    /* \"#utility.yul\":9475:9479   */\n  dup7\n    /* \"#utility.yul\":9468:9549   */\n  sstore\n    /* \"#utility.yul\":9337:9559   */\n  pop\n    /* \"#utility.yul\":8672:9559   */\n  jump(tag_233)\n    /* \"#utility.yul\":8702:9320   */\ntag_234:\n    /* \"#utility.yul\":8754:8758   */\n  0x1f\n    /* \"#utility.yul\":8750:8759   */\n  not\n    /* \"#utility.yul\":8742:8748   */\n  dup5\n    /* \"#utility.yul\":8738:8760   */\n  and\n    /* \"#utility.yul\":8788:8825   */\n  tag_237\n    /* \"#utility.yul\":8820:8824   */\n  dup7\n    /* \"#utility.yul\":8788:8825   */\n  tag_101\n  jump\t// in\ntag_237:\n    /* \"#utility.yul\":8847:8848   */\n  0x00\n    /* \"#utility.yul\":8861:9069   */\ntag_238:\n    /* \"#utility.yul\":8875:8882   */\n  dup3\n    /* \"#utility.yul\":8872:8873   */\n  dup2\n    /* \"#utility.yul\":8869:8883   */\n  lt\n    /* \"#utility.yul\":8861:9069   */\n  iszero\n  tag_240\n  jumpi\n    /* \"#utility.yul\":8954:8963   */\n  dup5\n    /* \"#utility.yul\":8949:8952   */\n  dup10\n    /* \"#utility.yul\":8945:8964   */\n  add\n    /* \"#utility.yul\":8939:8965   */\n  mload\n    /* \"#utility.yul\":8931:8937   */\n  dup3\n    /* \"#utility.yul\":8924:8966   */\n  sstore\n    /* \"#utility.yul\":9005:9006   */\n  0x01\n    /* \"#utility.yul\":8997:9003   */\n  dup3\n    /* \"#utility.yul\":8993:9007   */\n  add\n    /* \"#utility.yul\":8983:9007   */\n  swap2\n  pop\n    /* \"#utility.yul\":9052:9054   */\n  0x20\n    /* \"#utility.yul\":9041:9050   */\n  dup6\n    /* \"#utility.yul\":9037:9055   */\n  add\n    /* \"#utility.yul\":9024:9055   */\n  swap5\n  pop\n    /* \"#utility.yul\":8898:8902   */\n  0x20\n    /* \"#utility.yul\":8895:8896   */\n  dup2\n    /* \"#utility.yul\":8891:8903   */\n  add\n    /* \"#utility.yul\":8886:8903   */\n  swap1\n  pop\n    /* \"#utility.yul\":8861:9069   */\n  jump(tag_238)\ntag_240:\n    /* \"#utility.yul\":9097:9103   */\n  dup7\n    /* \"#utility.yul\":9088:9095   */\n  dup4\n    /* \"#utility.yul\":9085:9104   */\n  lt\n    /* \"#utility.yul\":9082:9261   */\n  iszero\n  tag_241\n  jumpi\n    /* \"#utility.yul\":9155:9164   */\n  dup5\n    /* \"#utility.yul\":9150:9153   */\n  dup10\n    /* \"#utility.yul\":9146:9165   */\n  add\n    /* \"#utility.yul\":9140:9166   */\n  mload\n    /* \"#utility.yul\":9198:9246   */\n  tag_242\n    /* \"#utility.yul\":9240:9244   */\n  0x1f\n    /* \"#utility.yul\":9232:9238   */\n  dup10\n    /* \"#utility.yul\":9228:9245   */\n  and\n    /* \"#utility.yul\":9217:9226   */\n  dup3\n    /* \"#utility.yul\":9198:9246   */\n  tag_114\n  jump\t// in\ntag_242:\n    /* \"#utility.yul\":9190:9196   */\n  dup4\n    /* \"#utility.yul\":9183:9247   */\n  sstore\n    /* \"#utility.yul\":9105:9261   */\n  pop\n    /* \"#utility.yul\":9082:9261   */\ntag_241:\n    /* \"#utility.yul\":9307:9308   */\n  0x01\n    /* \"#utility.yul\":9303:9304   */\n  0x02\n    /* \"#utility.yul\":9295:9301   */\n  dup9\n    /* \"#utility.yul\":9291:9305   */\n  mul\n    /* \"#utility.yul\":9287:9309   */\n  add\n    /* \"#utility.yul\":9281:9285   */\n  dup9\n    /* \"#utility.yul\":9274:9310   */\n  sstore\n    /* \"#utility.yul\":8709:9320   */\n  pop\n  pop\n  pop\n    /* \"#utility.yul\":8672:9559   */\ntag_233:\n  pop\n    /* \"#utility.yul\":8262:9565   */\n  pop\n  pop\n  pop\n    /* \"#utility.yul\":8170:9565   */\n  pop\n  pop\n  jump\t// out\n    /* \"#utility.yul\":9571:9689   */\ntag_116:\n    /* \"#utility.yul\":9658:9682   */\n  tag_244\n    /* \"#utility.yul\":9676:9681   */\n  dup2\n    /* \"#utility.yul\":9658:9682   */\n  tag_92\n  jump\t// in\ntag_244:\n    /* \"#utility.yul\":9653:9656   */\n  dup3\n    /* \"#utility.yul\":9646:9683   */\n  mstore\n    /* \"#utility.yul\":9571:9689   */\n  pop\n  pop\n  jump\t// out\n    /* \"#utility.yul\":9695:9917   */\ntag_14:\n    /* \"#utility.yul\":9788:9792   */\n  0x00\n    /* \"#utility.yul\":9826:9828   */\n  0x20\n    /* \"#utility.yul\":9815:9824   */\n  dup3\n    /* \"#utility.yul\":9811:9829   */\n  add\n    /* \"#utility.yul\":9803:9829   */\n  swap1\n  pop\n    /* \"#utility.yul\":9839:9910   */\n  tag_246\n    /* \"#utility.yul\":9907:9908   */\n  0x00\n    /* \"#utility.yul\":9896:9905   */\n  dup4\n    /* \"#utility.yul\":9892:9909   */\n  add\n    /* \"#utility.yul\":9883:9889   */\n  dup5\n    /* \"#utility.yul\":9839:9910   */\n  tag_116\n  jump\t// in\ntag_246:\n    /* \"#utility.yul\":9695:9917   */\n  swap3\n  swap2\n  pop\n  pop\n  jump\t// out\n    /* \"#utility.yul\":9923:10103   */\ntag_117:\n    /* \"#utility.yul\":9971:10048   */\n  0x4e487b7100000000000000000000000000000000000000000000000000000000\n    /* \"#utility.yul\":9968:9969   */\n  0x00\n    /* \"#utility.yul\":9961:10049   */\n  mstore\n    /* \"#utility.yul\":10068:10072   */\n  0x11\n    /* \"#utility.yul\":10065:10066   */\n  0x04\n    /* \"#utility.yul\":10058:10073   */\n  mstore\n    /* \"#utility.yul\":10092:10096   */\n  0x24\n    /* \"#utility.yul\":10089:10090   */\n  0x00\n    /* \"#utility.yul\":10082:10097   */\n  revert\n    /* \"#utility.yul\":10109:10211   */\ntag_118:\n    /* \"#utility.yul\":10151:10159   */\n  0x00\n    /* \"#utility.yul\":10198:10203   */\n  dup2\n    /* \"#utility.yul\":10195:10196   */\n  0x01\n    /* \"#utility.yul\":10191:10204   */\n  shr\n    /* \"#utility.yul\":10170:10204   */\n  swap1\n  pop\n    /* \"#utility.yul\":10109:10211   */\n  swap2\n  swap1\n  pop\n  jump\t// out\n    /* \"#utility.yul\":10217:11065   */\ntag_119:\n    /* \"#utility.yul\":10278:10283   */\n  0x00\n    /* \"#utility.yul\":10285:10289   */\n  0x00\n    /* \"#utility.yul\":10309:10315   */\n  dup3\n    /* \"#utility.yul\":10300:10315   */\n  swap2\n  pop\n    /* \"#utility.yul\":10333:10338   */\n  dup4\n    /* \"#utility.yul\":10324:10338   */\n  swap1\n  pop\n    /* \"#utility.yul\":10347:11059   */\ntag_250:\n    /* \"#utility.yul\":10368:10369   */\n  0x01\n    /* \"#utility.yul\":10358:10366   */\n  dup6\n    /* \"#utility.yul\":10355:10370   */\n  gt\n    /* \"#utility.yul\":10347:11059   */\n  iszero\n  tag_252\n  jumpi\n    /* \"#utility.yul\":10463:10467   */\n  dup1\n    /* \"#utility.yul\":10458:10461   */\n  dup7\n    /* \"#utility.yul\":10454:10468   */\n  div\n    /* \"#utility.yul\":10448:10452   */\n  dup2\n    /* \"#utility.yul\":10445:10469   */\n  gt\n    /* \"#utility.yul\":10442:10492   */\n  iszero\n  tag_253\n  jumpi\n    /* \"#utility.yul\":10472:10490   */\n  tag_254\n  tag_117\n  jump\t// in\ntag_254:\n    /* \"#utility.yul\":10442:10492   */\ntag_253:\n    /* \"#utility.yul\":10522:10523   */\n  0x01\n    /* \"#utility.yul\":10512:10520   */\n  dup6\n    /* \"#utility.yul\":10508:10524   */\n  and\n    /* \"#utility.yul\":10505:10956   */\n  iszero\n  tag_255\n  jumpi\n    /* \"#utility.yul\":10937:10941   */\n  dup1\n    /* \"#utility.yul\":10930:10935   */\n  dup3\n    /* \"#utility.yul\":10926:10942   */\n  mul\n    /* \"#utility.yul\":10917:10942   */\n  swap2\n  pop\n    /* \"#utility.yul\":10505:10956   */\ntag_255:\n    /* \"#utility.yul\":10987:10991   */\n  dup1\n    /* \"#utility.yul\":10981:10985   */\n  dup2\n    /* \"#utility.yul\":10977:10992   */\n  mul\n    /* \"#utility.yul\":10969:10992   */\n  swap1\n  pop\n    /* \"#utility.yul\":11017:11049   */\n  tag_256\n    /* \"#utility.yul\":11040:11048   */\n  dup6\n    /* \"#utility.yul\":11017:11049   */\n  tag_118\n  jump\t// in\ntag_256:\n    /* \"#utility.yul\":11005:11049   */\n  swap5\n  pop\n    /* \"#utility.yul\":10347:11059   */\n  jump(tag_250)\ntag_252:\n    /* \"#utility.yul\":10217:11065   */\n  swap5\n  pop\n  swap5\n  swap3\n  pop\n  pop\n  pop\n  jump\t// out\n    /* \"#utility.yul\":11071:12144   */\ntag_120:\n    /* \"#utility.yul\":11125:11130   */\n  0x00\n    /* \"#utility.yul\":11316:11324   */\n  dup3\n    /* \"#utility.yul\":11306:11346   */\n  tag_258\n  jumpi\n    /* \"#utility.yul\":11337:11338   */\n  0x01\n    /* \"#utility.yul\":11328:11338   */\n  swap1\n  pop\n    /* \"#utility.yul\":11339:11344   */\n  jump(tag_257)\n    /* \"#utility.yul\":11306:11346   */\ntag_258:\n    /* \"#utility.yul\":11365:11369   */\n  dup2\n    /* \"#utility.yul\":11355:11391   */\n  tag_259\n  jumpi\n    /* \"#utility.yul\":11382:11383   */\n  0x00\n    /* \"#utility.yul\":11373:11383   */\n  swap1\n  pop\n    /* \"#utility.yul\":11384:11389   */\n  jump(tag_257)\n    /* \"#utility.yul\":11355:11391   */\ntag_259:\n    /* \"#utility.yul\":11451:11455   */\n  dup2\n    /* \"#utility.yul\":11499:11500   */\n  0x01\n    /* \"#utility.yul\":11494:11521   */\n  dup2\n  eq\n  tag_261\n  jumpi\n    /* \"#utility.yul\":11535:11536   */\n  0x02\n    /* \"#utility.yul\":11530:11721   */\n  dup2\n  eq\n  tag_262\n  jumpi\n    /* \"#utility.yul\":11444:11721   */\n  jump(tag_260)\n    /* \"#utility.yul\":11494:11521   */\ntag_261:\n    /* \"#utility.yul\":11512:11513   */\n  0x01\n    /* \"#utility.yul\":11503:11513   */\n  swap2\n  pop\n    /* \"#utility.yul\":11514:11519   */\n  pop\n  jump(tag_257)\n    /* \"#utility.yul\":11530:11721   */\ntag_262:\n    /* \"#utility.yul\":11575:11578   */\n  0xff\n    /* \"#utility.yul\":11565:11573   */\n  dup5\n    /* \"#utility.yul\":11562:11579   */\n  gt\n    /* \"#utility.yul\":11559:11602   */\n  iszero\n  tag_263\n  jumpi\n    /* \"#utility.yul\":11582:11600   */\n  tag_264\n  tag_117\n  jump\t// in\ntag_264:\n    /* \"#utility.yul\":11559:11602   */\ntag_263:\n    /* \"#utility.yul\":11631:11639   */\n  dup4\n    /* \"#utility.yul\":11628:11629   */\n  0x02\n    /* \"#utility.yul\":11624:11640   */\n  exp\n    /* \"#utility.yul\":11615:11640   */\n  swap2\n  pop\n    /* \"#utility.yul\":11666:11669   */\n  dup5\n    /* \"#utility.yul\":11659:11664   */\n  dup3\n    /* \"#utility.yul\":11656:11670   */\n  gt\n    /* \"#utility.yul\":11653:11693   */\n  iszero\n  tag_265\n  jumpi\n    /* \"#utility.yul\":11673:11691   */\n  tag_266\n  tag_117\n  jump\t// in\ntag_266:\n    /* \"#utility.yul\":11653:11693   */\ntag_265:\n    /* \"#utility.yul\":11706:11711   */\n  pop\n  jump(tag_257)\n    /* \"#utility.yul\":11444:11721   */\ntag_260:\n  pop\n    /* \"#utility.yul\":11830:11832   */\n  0x20\n    /* \"#utility.yul\":11820:11828   */\n  dup4\n    /* \"#utility.yul\":11817:11833   */\n  lt\n    /* \"#utility.yul\":11811:11814   */\n  0x0133\n    /* \"#utility.yul\":11805:11809   */\n  dup4\n    /* \"#utility.yul\":11802:11815   */\n  lt\n    /* \"#utility.yul\":11798:11834   */\n  and\n    /* \"#utility.yul\":11780:11782   */\n  0x4e\n    /* \"#utility.yul\":11770:11778   */\n  dup5\n    /* \"#utility.yul\":11767:11783   */\n  lt\n    /* \"#utility.yul\":11762:11764   */\n  0x0b\n    /* \"#utility.yul\":11756:11760   */\n  dup5\n    /* \"#utility.yul\":11753:11765   */\n  lt\n    /* \"#utility.yul\":11749:11784   */\n  and\n    /* \"#utility.yul\":11733:11844   */\n  or\n    /* \"#utility.yul\":11730:11976   */\n  iszero\n  tag_267\n  jumpi\n    /* \"#utility.yul\":11886:11894   */\n  dup3\n    /* \"#utility.yul\":11880:11884   */\n  dup3\n    /* \"#utility.yul\":11876:11895   */\n  exp\n    /* \"#utility.yul\":11867:11895   */\n  swap1\n  pop\n    /* \"#utility.yul\":11921:11924   */\n  dup4\n    /* \"#utility.yul\":11914:11919   */\n  dup2\n    /* \"#utility.yul\":11911:11925   */\n  gt\n    /* \"#utility.yul\":11908:11948   */\n  iszero\n  tag_268\n  jumpi\n    /* \"#utility.yul\":11928:11946   */\n  tag_269\n  tag_117\n  jump\t// in\ntag_269:\n    /* \"#utility.yul\":11908:11948   */\ntag_268:\n    /* \"#utility.yul\":11961:11966   */\n  jump(tag_257)\n    /* \"#utility.yul\":11730:11976   */\ntag_267:\n    /* \"#utility.yul\":12001:12043   */\n  tag_270\n    /* \"#utility.yul\":12039:12042   */\n  dup5\n    /* \"#utility.yul\":12029:12037   */\n  dup5\n    /* \"#utility.yul\":12023:12027   */\n  dup5\n    /* \"#utility.yul\":12020:12021   */\n  0x01\n    /* \"#utility.yul\":12001:12043   */\n  tag_119\n  jump\t// in\ntag_270:\n    /* \"#utility.yul\":11986:12043   */\n  swap3\n  pop\n  swap1\n  pop\n    /* \"#utility.yul\":12075:12079   */\n  dup2\n    /* \"#utility.yul\":12070:12073   */\n  dup5\n    /* \"#utility.yul\":12066:12080   */\n  div\n    /* \"#utility.yul\":12059:12064   */\n  dup2\n    /* \"#utility.yul\":12056:12081   */\n  gt\n    /* \"#utility.yul\":12053:12104   */\n  iszero\n  tag_271\n  jumpi\n    /* \"#utility.yul\":12084:12102   */\n  tag_272\n  tag_117\n  jump\t// in\ntag_272:\n    /* \"#utility.yul\":12053:12104   */\ntag_271:\n    /* \"#utility.yul\":12133:12137   */\n  dup2\n    /* \"#utility.yul\":12126:12131   */\n  dup2\n    /* \"#utility.yul\":12122:12138   */\n  mul\n    /* \"#utility.yul\":12113:12138   */\n  swap1\n  pop\n    /* \"#utility.yul\":11071:12144   */\ntag_257:\n  swap4\n  swap3\n  pop\n  pop\n  pop\n  jump\t// out\n    /* \"#utility.yul\":12150:12236   */\ntag_121:\n    /* \"#utility.yul\":12185:12192   */\n  0x00\n    /* \"#utility.yul\":12225:12229   */\n  0xff\n    /* \"#utility.yul\":12218:12223   */\n  dup3\n    /* \"#utility.yul\":12214:12230   */\n  and\n    /* \"#utility.yul\":12203:12230   */\n  swap1\n  pop\n    /* \"#utility.yul\":12150:12236   */\n  swap2\n  swap1\n  pop\n  jump\t// out\n    /* \"#utility.yul\":12242:12523   */\ntag_24:\n    /* \"#utility.yul\":12300:12305   */\n  0x00\n    /* \"#utility.yul\":12324:12347   */\n  tag_275\n    /* \"#utility.yul\":12342:12346   */\n  dup3\n    /* \"#utility.yul\":12324:12347   */\n  tag_95\n  jump\t// in\ntag_275:\n    /* \"#utility.yul\":12316:12347   */\n  swap2\n  pop\n    /* \"#utility.yul\":12368:12393   */\n  tag_276\n    /* \"#utility.yul\":12384:12392   */\n  dup4\n    /* \"#utility.yul\":12368:12393   */\n  tag_121\n  jump\t// in\ntag_276:\n    /* \"#utility.yul\":12356:12393   */\n  swap3\n  pop\n    /* \"#utility.yul\":12412:12516   */\n  tag_277\n    /* \"#utility.yul\":12449:12515   */\n  0xffffffffffffffffffffffffffffffffffffffffffffffffffffffffffffffff\n    /* \"#utility.yul\":12439:12447   */\n  dup5\n    /* \"#utility.yul\":12433:12437   */\n  dup5\n    /* \"#utility.yul\":12412:12516   */\n  tag_120\n  jump\t// in\ntag_277:\n    /* \"#utility.yul\":12403:12516   */\n  swap1\n  pop\n    /* \"#utility.yul\":12242:12523   */\n  swap3\n  swap2\n  pop\n  pop\n  jump\t// out\n    /* \"#utility.yul\":12529:12939   */\ntag_26:\n    /* \"#utility.yul\":12569:12576   */\n  0x00\n    /* \"#utility.yul\":12592:12612   */\n  tag_279\n    /* \"#utility.yul\":12610:12611   */\n  dup3\n    /* \"#utility.yul\":12592:12612   */\n  tag_95\n  jump\t// in\ntag_279:\n    /* \"#utility.yul\":12587:12612   */\n  swap2\n  pop\n    /* \"#utility.yul\":12626:12646   */\n  tag_280\n    /* \"#utility.yul\":12644:12645   */\n  dup4\n    /* \"#utility.yul\":12626:12646   */\n  tag_95\n  jump\t// in\ntag_280:\n    /* \"#utility.yul\":12621:12646   */\n  swap3\n  pop\n    /* \"#utility.yul\":12681:12682   */\n  dup3\n    /* \"#utility.yul\":12678:12679   */\n  dup3\n    /* \"#utility.yul\":12674:12683   */\n  mul\n    /* \"#utility.yul\":12703:12733   */\n  tag_281\n    /* \"#utility.yul\":12721:12732   */\n  dup2\n    /* \"#utility.yul\":12703:12733   */\n  tag_95\n  jump\t// in\ntag_281:\n    /* \"#utility.yul\":12692:12733   */\n  swap2\n  pop\n    /* \"#utility.yul\":12882:12883   */\n  dup3\n    /* \"#utility.yul\":12873:12880   */\n  dup3\n    /* \"#utility.yul\":12869:12884   */\n  div\n    /* \"#utility.yul\":12866:12867   */\n  dup5\n    /* \"#utility.yul\":12863:12885   */\n  eq\n    /* \"#utility.yul\":12843:12844   */\n  dup4\n    /* \"#utility.yul\":12836:12845   */\n  iszero\n    /* \"#utility.yul\":12816:12899   */\n  or\n    /* \"#utility.yul\":12793:12932   */\n  tag_282\n  jumpi\n    /* \"#utility.yul\":12912:12930   */\n  tag_283\n  tag_117\n  jump\t// in\ntag_283:\n    /* \"#utility.yul\":12793:12932   */\ntag_282:\n    /* \"#utility.yul\":12577:12939   */\n  pop\n    /* \"#utility.yul\":12529:12939   */\n  swap3\n  swap2\n  pop\n  pop\n  jump\t// out\n    /* \"#utility.yul\":12945:13030   */\ntag_122:\n    /* \"#utility.yul\":12990:12997   */\n  0x00\n    /* \"#utility.yul\":13019:13024   */\n  dup2\n    /* \"#utility.yul\":13008:13024   */\n  swap1\n  pop\n    /* \"#utility.yul\":12945:13030   */\n  swap2\n  swap1\n  pop\n  jump\t// out\n    /* \"#utility.yul\":13036:13194   */\ntag_123:\n    /* \"#utility.yul\":13094:13103   */\n  0x00\n    /* \"#utility.yul\":13127:13188   */\n  tag_286\n    /* \"#utility.yul\":13145:13187   */\n  tag_287\n    /* \"#utility.yul\":13154:13186   */\n  tag_288\n    /* \"#utility.yul\":13180:13185   */\n  dup5\n    /* \"#utility.yul\":13154:13186   */\n  tag_122\n  jump\t// in\ntag_288:\n    /* \"#utility.yul\":13145:13187   */\n  tag_105\n  jump\t// in\ntag_287:\n    /* \"#utility.yul\":13127:13188   */\n  tag_95\n  jump\t// in\ntag_286:\n    /* \"#utility.yul\":13114:13188   */\n  swap1\n  pop\n    /* \"#utility.yul\":13036:13194   */\n  swap2\n  swap1\n  pop\n  jump\t// out\n    /* \"#utility.yul\":13200:13347   */\ntag_124:\n    /* \"#utility.yul\":13295:13340   */\n  tag_290\n    /* \"#utility.yul\":13334:13339   */\n  dup2\n    /* \"#utility.yul\":13295:13340   */\n  tag_123\n  jump\t// in\ntag_290:\n    /* \"#utility.yul\":13290:13293   */\n  dup3\n    /* \"#utility.yul\":13283:13341   */\n  mstore\n    /* \"#utility.yul\":13200:13347   */\n  pop\n  pop\n  jump\t// out\n    /* \"#utility.yul\":13353:13471   */\ntag_125:\n    /* \"#utility.yul\":13440:13464   */\n  tag_292\n    /* \"#utility.yul\":13458:13463   */\n  dup2\n    /* \"#utility.yul\":13440:13464   */\n  tag_95\n  jump\t// in\ntag_292:\n    /* \"#utility.yul\":13435:13438   */\n  dup3\n    /* \"#utility.yul\":13428:13465   */\n  mstore\n    /* \"#utility.yul\":13353:13471   */\n  pop\n  pop\n  jump\t// out\n    /* \"#utility.yul\":13477:13825   */\ntag_29:\n    /* \"#utility.yul\":13606:13610   */\n  0x00\n    /* \"#utility.yul\":13644:13646   */\n  0x40\n    /* \"#utility.yul\":13633:13642   */\n  dup3\n    /* \"#utility.yul\":13629:13647   */\n  add\n    /* \"#utility.yul\":13621:13647   */\n  swap1\n  pop\n    /* \"#utility.yul\":13657:13736   */\n  tag_294\n    /* \"#utility.yul\":13733:13734   */\n  0x00\n    /* \"#utility.yul\":13722:13731   */\n  dup4\n    /* \"#utility.yul\":13718:13735   */\n  add\n    /* \"#utility.yul\":13709:13715   */\n  dup6\n    /* \"#utility.yul\":13657:13736   */\n  tag_124\n  jump\t// in\ntag_294:\n    /* \"#utility.yul\":13746:13818   */\n  tag_295\n    /* \"#utility.yul\":13814:13816   */\n  0x20\n    /* \"#utility.yul\":13803:13812   */\n  dup4\n    /* \"#utility.yul\":13799:13817   */\n  add\n    /* \"#utility.yul\":13790:13796   */\n  dup5\n    /* \"#utility.yul\":13746:13818   */\n  tag_125\n  jump\t// in\ntag_295:\n    /* \"#utility.yul\":13477:13825   */\n  swap4\n  swap3\n  pop\n  pop\n  pop\n  jump\t// out\n    /* \"#utility.yul\":13831:13921   */\ntag_126:\n    /* \"#utility.yul\":13865:13872   */\n  0x00\n    /* \"#utility.yul\":13908:13913   */\n  dup2\n    /* \"#utility.yul\":13901:13914   */\n  iszero\n    /* \"#utility.yul\":13894:13915   */\n  iszero\n    /* \"#utility.yul\":13883:13915   */\n  swap1\n  pop\n    /* \"#utility.yul\":13831:13921   */\n  swap2\n  swap1\n  pop\n  jump\t// out\n    /* \"#utility.yul\":13927:14036   */\ntag_127:\n    /* \"#utility.yul\":14008:14029   */\n  tag_298\n    /* \"#utility.yul\":14023:14028   */\n  dup2\n    /* \"#utility.yul\":14008:14029   */\n  tag_126\n  jump\t// in\ntag_298:\n    /* \"#utility.yul\":14003:14006   */\n  dup3\n    /* \"#utility.yul\":13996:14030   */\n  mstore\n    /* \"#utility.yul\":13927:14036   */\n  pop\n  pop\n  jump\t// out\n    /* \"#utility.yul\":14042:14252   */\ntag_31:\n    /* \"#utility.yul\":14129:14133   */\n  0x00\n    /* \"#utility.yul\":14167:14169   */\n  0x20\n    /* \"#utility.yul\":14156:14165   */\n  dup3\n    /* \"#utility.yul\":14152:14170   */\n  add\n    /* \"#utility.yul\":14144:14170   */\n  swap1\n  pop\n    /* \"#utility.yul\":14180:14245   */\n  tag_300\n    /* \"#utility.yul\":14242:14243   */\n  0x00\n    /* \"#utility.yul\":14231:14240   */\n  dup4\n    /* \"#utility.yul\":14227:14244   */\n  add\n    /* \"#utility.yul\":14218:14224   */\n  dup5\n    /* \"#utility.yul\":14180:14245   */\n  tag_127\n  jump\t// in\ntag_300:\n    /* \"#utility.yul\":14042:14252   */\n  swap3\n  swap2\n  pop\n  pop\n  jump\t// out\n    /* \"#utility.yul\":14258:14438   */\ntag_128:\n    /* \"#utility.yul\":14306:14383   */\n  0x4e487b7100000000000000000000000000000000000000000000000000000000\n    /* \"#utility.yul\":14303:14304   */\n  0x00\n    /* \"#utility.yul\":14296:14384   */\n  mstore\n    /* \"#utility.yul\":14403:14407   */\n  0x12\n    /* \"#utility.yul\":14400:14401   */\n  0x04\n    /* \"#utility.yul\":14393:14408   */\n  mstore\n    /* \"#utility.yul\":14427:14431   */\n  0x24\n    /* \"#utility.yul\":14424:14425   */\n  0x00\n    /* \"#utility.yul\":14417:14432   */\n  revert\n    /* \"#utility.yul\":14444:14629   */\ntag_47:\n    /* \"#utility.yul\":14484:14485   */\n  0x00\n    /* \"#utility.yul\":14501:14521   */\n  tag_303\n    /* \"#utility.yul\":14519:14520   */\n  dup3\n    /* \"#utility.yul\":14501:14521   */\n  tag_95\n  jump\t// in\ntag_303:\n    /* \"#utility.yul\":14496:14521   */\n  swap2\n  pop\n    /* \"#utility.yul\":14535:14555   */\n  tag_304\n    /* \"#utility.yul\":14553:14554   */\n  dup4\n    /* \"#utility.yul\":14535:14555   */\n  tag_95\n  jump\t// in\ntag_304:\n    /* \"#utility.yul\":14530:14555   */\n  swap3\n  pop\n    /* \"#utility.yul\":14574:14575   */\n  dup3\n    /* \"#utility.yul\":14564:14599   */\n  tag_305\n  jumpi\n    /* \"#utility.yul\":14579:14597   */\n  tag_306\n  tag_128\n  jump\t// in\ntag_306:\n    /* \"#utility.yul\":14564:14599   */\ntag_305:\n    /* \"#utility.yul\":14621:14622   */\n  dup3\n    /* \"#utility.yul\":14618:14619   */\n  dup3\n    /* \"#utility.yul\":14614:14623   */\n  div\n    /* \"#utility.yul\":14609:14623   */\n  swap1\n  pop\n    /* \"#utility.yul\":14444:14629   */\n  swap3\n  swap2\n  pop\n  pop\n  jump\t// out\n    /* \"#utility.yul\":14635:14829   */\ntag_52:\n    /* \"#utility.yul\":14675:14679   */\n  0x00\n    /* \"#utility.yul\":14695:14715   */\n  tag_308\n    /* \"#utility.yul\":14713:14714   */\n  dup3\n    /* \"#utility.yul\":14695:14715   */\n  tag_95\n  jump\t// in\ntag_308:\n    /* \"#utility.yul\":14690:14715   */\n  swap2\n  pop\n    /* \"#utility.yul\":14729:14749   */\n  tag_309\n    /* \"#utility.yul\":14747:14748   */\n  dup4\n    /* \"#utility.yul\":14729:14749   */\n  tag_95\n  jump\t// in\ntag_309:\n    /* \"#utility.yul\":14724:14749   */\n  swap3\n  pop\n    /* \"#utility.yul\":14773:14774   */\n  dup3\n    /* \"#utility.yul\":14770:14771   */\n  dup3\n    /* \"#utility.yul\":14766:14775   */\n  sub\n    /* \"#utility.yul\":14758:14775   */\n  swap1\n  pop\n    /* \"#utility.yul\":14797:14798   */\n  dup2\n    /* \"#utility.yul\":14791:14795   */\n  dup2\n    /* \"#utility.yul\":14788:14799   */\n  gt\n    /* \"#utility.yul\":14785:14822   */\n  iszero\n  tag_310\n  jumpi\n    /* \"#utility.yul\":14802:14820   */\n  tag_311\n  tag_117\n  jump\t// in\ntag_311:\n    /* \"#utility.yul\":14785:14822   */\ntag_310:\n    /* \"#utility.yul\":14635:14829   */\n  swap3\n  swap2\n  pop\n  pop\n  jump\t// out\n    /* \"#utility.yul\":14835:15026   */\ntag_68:\n    /* \"#utility.yul\":14875:14878   */\n  0x00\n    /* \"#utility.yul\":14894:14914   */\n  tag_313\n    /* \"#utility.yul\":14912:14913   */\n  dup3\n    /* \"#utility.yul\":14894:14914   */\n  tag_95\n  jump\t// in\ntag_313:\n    /* \"#utility.yul\":14889:14914   */\n  swap2\n  pop\n    /* \"#utility.yul\":14928:14948   */\n  tag_314\n    /* \"#utility.yul\":14946:14947   */\n  dup4\n    /* \"#utility.yul\":14928:14948   */\n  tag_95\n  jump\t// in\ntag_314:\n    /* \"#utility.yul\":14923:14948   */\n  swap3\n  pop\n    /* \"#utility.yul\":14971:14972   */\n  dup3\n    /* \"#utility.yul\":14968:14969   */\n  dup3\n    /* \"#utility.yul\":14964:14973   */\n  add\n    /* \"#utility.yul\":14957:14973   */\n  swap1\n  pop\n    /* \"#utility.yul\":14992:14995   */\n  dup1\n    /* \"#utility.yul\":14989:14990   */\n  dup3\n    /* \"#utility.yul\":14986:14996   */\n  gt\n    /* \"#utility.yul\":14983:15019   */\n  iszero\n  tag_315\n  jumpi\n    /* \"#utility.yul\":14999:15017   */\n  tag_316\n  tag_117\n  jump\t// in\ntag_316:\n    /* \"#utility.yul\":14983:15019   */\ntag_315:\n    /* \"#utility.yul\":14835:15026   */\n  swap3\n  swap2\n  pop\n  pop\n  jump\t// out\n    /* \"#utility.yul\":15032:15474   */\ntag_72:\n    /* \"#utility.yul\":15181:15185   */\n  0x00\n    /* \"#utility.yul\":15219:15221   */\n  0x60\n    /* \"#utility.yul\":15208:15217   */\n  dup3\n    /* \"#utility.yul\":15204:15222   */\n  add\n    /* \"#utility.yul\":15196:15222   */\n  swap1\n  pop\n    /* \"#utility.yul\":15232:15303   */\n  tag_318\n    /* \"#utility.yul\":15300:15301   */\n  0x00\n    /* \"#utility.yul\":15289:15298   */\n  dup4\n    /* \"#utility.yul\":15285:15302   */\n  add\n    /* \"#utility.yul\":15276:15282   */\n  dup7\n    /* \"#utility.yul\":15232:15303   */\n  tag_116\n  jump\t// in\ntag_318:\n    /* \"#utility.yul\":15313:15385   */\n  tag_319\n    /* \"#utility.yul\":15381:15383   */\n  0x20\n    /* \"#utility.yul\":15370:15379   */\n  dup4\n    /* \"#utility.yul\":15366:15384   */\n  add\n    /* \"#utility.yul\":15357:15363   */\n  dup6\n    /* \"#utility.yul\":15313:15385   */\n  tag_125\n  jump\t// in\ntag_319:\n    /* \"#utility.yul\":15395:15467   */\n  tag_320\n    /* \"#utility.yul\":15463:15465   */\n  0x40\n    /* \"#utility.yul\":15452:15461   */\n  dup4\n    /* \"#utility.yul\":15448:15466   */\n  add\n    /* \"#utility.yul\":15439:15445   */\n  dup5\n    /* \"#utility.yul\":15395:15467   */\n  tag_125\n  jump\t// in\ntag_320:\n    /* \"#utility.yul\":15032:15474   */\n  swap5\n  swap4\n  pop\n  pop\n  pop\n  pop\n  jump\t// out\n    /* \"#utility.yul\":15480:15702   */\ntag_76:\n    /* \"#utility.yul\":15573:15577   */\n  0x00\n    /* \"#utility.yul\":15611:15613   */\n  0x20\n    /* \"#utility.yul\":15600:15609   */\n  dup3\n    /* \"#utility.yul\":15596:15614   */\n  add\n    /* \"#utility.yul\":15588:15614   */\n  swap1\n  pop\n    /* \"#utility.yul\":15624:15695   */\n  tag_322\n    /* \"#utility.yul\":15692:15693   */\n  0x00\n    /* \"#utility.yul\":15681:15690   */\n  dup4\n    /* \"#utility.yul\":15677:15694   */\n  add\n    /* \"#utility.yul\":15668:15674   */\n  dup5\n    /* \"#utility.yul\":15624:15695   */\n  tag_125\n  jump\t// in\ntag_322:\n    /* \"#utility.yul\":15480:15702   */\n  swap3\n  swap2\n  pop\n  pop\n  jump\t// out\n    /* \"Monica.sol\":414:5404  contract Monica is ERC20, ERC20Pausable, Ownable {... */\ntag_33:\n  dataSize(sub_0)\n  dup1\n  dataOffset(sub_0)\n  0x00\n  codecopy\n  0x00\n  return\nstop\n\nsub_0: assembly {\n        /* \"Monica.sol\":414:5404  contract Monica is ERC20, ERC20Pausable, Ownable {... */\n      mstore(0x40, 0x80)\n      callvalue\n      dup1\n      iszero\n      tag_1\n      jumpi\n      revert(0x00, 0x00)\n    tag_1:\n      pop\n      jumpi(tag_2, lt(calldatasize, 0x04))\n      shr(0xe0, calldataload(0x00))\n      dup1\n      0x751fd179\n      gt\n      tag_28\n      jumpi\n      dup1\n      0xa071dcf4\n      gt\n      tag_29\n      jumpi\n      dup1\n      0xc4081a4c\n      gt\n      tag_30\n      jumpi\n      dup1\n      0xc4081a4c\n      eq\n      tag_24\n      jumpi\n      dup1\n      0xdd62ed3e\n      eq\n      tag_25\n      jumpi\n      dup1\n      0xf0f44260\n      eq\n      tag_26\n      jumpi\n      dup1\n      0xf2fde38b\n      eq\n      tag_27\n      jumpi\n      jump(tag_2)\n    tag_30:\n      dup1\n      0xa071dcf4\n      eq\n      tag_21\n      jumpi\n      dup1\n      0xa9059cbb\n      eq\n      tag_22\n      jumpi\n      dup1\n      0xbc063e1a\n      eq\n      tag_23\n      jumpi\n      jump(tag_2)\n    tag_29:\n      dup1\n      0x751fd179\n      eq\n      tag_15\n      jumpi\n      dup1\n      0x8456cb59\n      eq\n      tag_16\n      jumpi\n      dup1\n      0x8da5cb5b\n      eq\n      tag_17\n      jumpi\n      dup1\n      0x92828671\n      eq\n      tag_18\n      jumpi\n      dup1\n      0x95d89b41\n      eq\n      tag_19\n      jumpi\n      dup1\n      0x99f3bc9a\n      eq\n      tag_20\n      jumpi\n      jump(tag_2)\n    tag_28:\n      dup1\n      0x3f4ba83a\n      gt\n      tag_31\n      jumpi\n      dup1\n      0x3f4ba83a\n      eq\n      tag_9\n      jumpi\n      dup1\n      0x483a9310\n      eq\n      tag_10\n      jumpi\n      dup1\n      0x5c975abb\n      eq\n      tag_11\n      jumpi\n      dup1\n      0x61d027b3\n      eq\n      tag_12\n      jumpi\n      dup1\n      0x70a08231\n      eq\n      tag_13\n      jumpi\n      dup1\n      0x715018a6\n      eq\n      tag_14\n      jumpi\n      jump(tag_2)\n    tag_31:\n      dup1\n      0x06fdde03\n      eq\n      tag_3\n      jumpi\n      dup1\n      0x095ea7b3\n      eq\n      tag_4\n      jumpi\n      dup1\n      0x18160ddd\n      eq\n      tag_5\n      jumpi\n      dup1\n      0x23b872dd\n      eq\n      tag_6\n      jumpi\n      dup1\n      0x313ce567\n      eq\n      tag_7\n      jumpi\n      dup1\n      0x3f4218e0\n      eq\n      tag_8\n      jumpi\n    tag_2:\n      revert(0x00, 0x00)\n        /* \"@openzeppelin/contracts@5.4.0/token/ERC20/ERC20.sol\":1760:1849  function name() public view virtual returns (string memory) {... */\n    tag_3:\n      tag_32\n      tag_33\n      jump\t// in\n    tag_32:\n      mload(0x40)\n      tag_34\n      swap2\n      swap1\n      tag_35\n      jump\t// in\n    tag_34:\n      mload(0x40)\n      dup1\n      swap2\n      sub\n      swap1\n      return\n        /* \"@openzeppelin/contracts@5.4.0/token/ERC20/ERC20.sol\":3902:4088  function approve(address spender, uint256 value) public virtual returns (bool) {... */\n    tag_4:\n      tag_36\n      0x04\n      dup1\n      calldatasize\n      sub\n      dup2\n      add\n      swap1\n      tag_37\n      swap2\n      swap1\n      tag_38\n      jump\t// in\n    tag_37:\n      tag_39\n      jump\t// in\n    tag_36:\n      mload(0x40)\n      tag_40\n      swap2\n      swap1\n      tag_41\n      jump\t// in\n    tag_40:\n      mload(0x40)\n      dup1\n      swap2\n      sub\n      swap1\n      return\n        /* \"@openzeppelin/contracts@5.4.0/token/ERC20/ERC20.sol\":2803:2900  function totalSupply() public view virtual returns (uint256) {... */\n    tag_5:\n      tag_42\n      tag_43\n      jump\t// in\n    tag_42:\n      mload(0x40)\n      tag_44\n      swap2\n      swap1\n      tag_45\n      jump\t// in\n    tag_44:\n      mload(0x40)\n      dup1\n      swap2\n      sub\n      swap1\n      return\n        /* \"Monica.sol\":3882:4136  function transferFrom(address from, address to, uint256 amount) public virtual override returns (bool) {... */\n    tag_6:\n      tag_46\n      0x04\n      dup1\n      calldatasize\n      sub\n      dup2\n      add\n      swap1\n      tag_47\n      swap2\n      swap1\n      tag_48\n      jump\t// in\n    tag_47:\n      tag_49\n      jump\t// in\n    tag_46:\n      mload(0x40)\n      tag_50\n      swap2\n      swap1\n      tag_41\n      jump\t// in\n    tag_50:\n      mload(0x40)\n      dup1\n      swap2\n      sub\n      swap1\n      return\n        /* \"@openzeppelin/contracts@5.4.0/token/ERC20/ERC20.sol\":2688:2770  function decimals() public view virtual returns (uint8) {... */\n    tag_7:\n      tag_51\n      tag_52\n      jump\t// in\n    tag_51:\n      mload(0x40)\n      tag_53\n      swap2\n      swap1\n      tag_54\n      jump\t// in\n    tag_53:\n      mload(0x40)\n      dup1\n      swap2\n      sub\n      swap1\n      return\n        /* \"Monica.sol\":725:768  mapping(address => bool) public isFeeExempt */\n    tag_8:\n      tag_55\n      0x04\n      dup1\n      calldatasize\n      sub\n      dup2\n      add\n      swap1\n      tag_56\n      swap2\n      swap1\n      tag_57\n      jump\t// in\n    tag_56:\n      tag_58\n      jump\t// in\n    tag_55:\n      mload(0x40)\n      tag_59\n      swap2\n      swap1\n      tag_41\n      jump\t// in\n    tag_59:\n      mload(0x40)\n      dup1\n      swap2\n      sub\n      swap1\n      return\n        /* \"Monica.sol\":3478:3541  function unpause() public onlyOwner {... */\n    tag_9:\n      tag_60\n      tag_61\n      jump\t// in\n    tag_60:\n      stop\n        /* \"Monica.sol\":4666:4787  function calculateTax(uint256 amount) external view returns (uint256) {... */\n    tag_10:\n      tag_62\n      0x04\n      dup1\n      calldatasize\n      sub\n      dup2\n      add\n      swap1\n      tag_63\n      swap2\n      swap1\n      tag_64\n      jump\t// in\n    tag_63:\n      tag_65\n      jump\t// in\n    tag_62:\n      mload(0x40)\n      tag_66\n      swap2\n      swap1\n      tag_45\n      jump\t// in\n    tag_66:\n      mload(0x40)\n      dup1\n      swap2\n      sub\n      swap1\n      return\n        /* \"@openzeppelin/contracts@5.4.0/utils/Pausable.sol\":1726:1810  function paused() public view virtual returns (bool) {... */\n    tag_11:\n      tag_67\n      tag_68\n      jump\t// in\n    tag_67:\n      mload(0x40)\n      tag_69\n      swap2\n      swap1\n      tag_41\n      jump\t// in\n    tag_69:\n      mload(0x40)\n      dup1\n      swap2\n      sub\n      swap1\n      return\n        /* \"Monica.sol\":493:516  address public treasury */\n    tag_12:\n      tag_70\n      tag_71\n      jump\t// in\n    tag_70:\n      mload(0x40)\n      tag_72\n      swap2\n      swap1\n      tag_73\n      jump\t// in\n    tag_72:\n      mload(0x40)\n      dup1\n      swap2\n      sub\n      swap1\n      return\n        /* \"@openzeppelin/contracts@5.4.0/token/ERC20/ERC20.sol\":2933:3049  function balanceOf(address account) public view virtual returns (uint256) {... */\n    tag_13:\n      tag_74\n      0x04\n      dup1\n      calldatasize\n      sub\n      dup2\n      add\n      swap1\n      tag_75\n      swap2\n      swap1\n      tag_57\n      jump\t// in\n    tag_75:\n      tag_76\n      jump\t// in\n    tag_74:\n      mload(0x40)\n      tag_77\n      swap2\n      swap1\n      tag_45\n      jump\t// in\n    tag_77:\n      mload(0x40)\n      dup1\n      swap2\n      sub\n      swap1\n      return\n        /* \"@openzeppelin/contracts@5.4.0/access/Ownable.sol\":2293:2394  function renounceOwnership() public virtual onlyOwner {... */\n    tag_14:\n      tag_78\n      tag_79\n      jump\t// in\n    tag_78:\n      stop\n        /* \"Monica.sol\":3230:3407  function setFeeExemption(address _account, bool _exempt) external onlyOwner {... */\n    tag_15:\n      tag_80\n      0x04\n      dup1\n      calldatasize\n      sub\n      dup2\n      add\n      swap1\n      tag_81\n      swap2\n      swap1\n      tag_82\n      jump\t// in\n    tag_81:\n      tag_83\n      jump\t// in\n    tag_80:\n      stop\n        /* \"Monica.sol\":3413:3472  function pause() public onlyOwner {... */\n    tag_16:\n      tag_84\n      tag_85\n      jump\t// in\n    tag_84:\n      stop\n        /* \"@openzeppelin/contracts@5.4.0/access/Ownable.sol\":1638:1723  function owner() public view virtual returns (address) {... */\n    tag_17:\n      tag_86\n      tag_87\n      jump\t// in\n    tag_86:\n      mload(0x40)\n      tag_88\n      swap2\n      swap1\n      tag_73\n      jump\t// in\n    tag_88:\n      mload(0x40)\n      dup1\n      swap2\n      sub\n      swap1\n      return\n        /* \"Monica.sol\":4214:4298  function getMaxFee() external pure returns (uint256) {... */\n    tag_18:\n      tag_89\n      tag_90\n      jump\t// in\n    tag_89:\n      mload(0x40)\n      tag_91\n      swap2\n      swap1\n      tag_45\n      jump\t// in\n    tag_91:\n      mload(0x40)\n      dup1\n      swap2\n      sub\n      swap1\n      return\n        /* \"@openzeppelin/contracts@5.4.0/token/ERC20/ERC20.sol\":1962:2055  function symbol() public view virtual returns (string memory) {... */\n    tag_19:\n      tag_92\n      tag_93\n      jump\t// in\n    tag_92:\n      mload(0x40)\n      tag_94\n      swap2\n      swap1\n      tag_35\n      jump\t// in\n    tag_94:\n      mload(0x40)\n      dup1\n      swap2\n      sub\n      swap1\n      return\n        /* \"Monica.sol\":4398:4491  function getTaxFeePercentage() external view returns (uint256) {... */\n    tag_20:\n      tag_95\n      tag_96\n      jump\t// in\n    tag_95:\n      mload(0x40)\n      tag_97\n      swap2\n      swap1\n      tag_45\n      jump\t// in\n    tag_97:\n      mload(0x40)\n      dup1\n      swap2\n      sub\n      swap1\n      return\n        /* \"Monica.sol\":522:543  uint256 public taxFee */\n    tag_21:\n      tag_98\n      tag_99\n      jump\t// in\n    tag_98:\n      mload(0x40)\n      tag_100\n      swap2\n      swap1\n      tag_45\n      jump\t// in\n    tag_100:\n      mload(0x40)\n      dup1\n      swap2\n      sub\n      swap1\n      return\n        /* \"Monica.sol\":3614:3801  function transfer(address to, uint256 amount) public virtual override returns (bool) {... */\n    tag_22:\n      tag_101\n      0x04\n      dup1\n      calldatasize\n      sub\n      dup2\n      add\n      swap1\n      tag_102\n      swap2\n      swap1\n      tag_38\n      jump\t// in\n    tag_102:\n      tag_103\n      jump\t// in\n    tag_101:\n      mload(0x40)\n      tag_104\n      swap2\n      swap1\n      tag_41\n      jump\t// in\n    tag_104:\n      mload(0x40)\n      dup1\n      swap2\n      sub\n      swap1\n      return\n        /* \"Monica.sol\":632:669  uint256 public constant MAX_FEE = 200 */\n    tag_23:\n      tag_105\n      tag_106\n      jump\t// in\n    tag_105:\n      mload(0x40)\n      tag_107\n      swap2\n      swap1\n      tag_45\n      jump\t// in\n    tag_107:\n      mload(0x40)\n      dup1\n      swap2\n      sub\n      swap1\n      return\n        /* \"Monica.sol\":2804:3041  function setTaxFee(uint256 _newFee) external onlyOwner {... */\n    tag_24:\n      tag_108\n      0x04\n      dup1\n      calldatasize\n      sub\n      dup2\n      add\n      swap1\n      tag_109\n      swap2\n      swap1\n      tag_64\n      jump\t// in\n    tag_109:\n      tag_110\n      jump\t// in\n    tag_108:\n      stop\n        /* \"@openzeppelin/contracts@5.4.0/token/ERC20/ERC20.sol\":3455:3595  function allowance(address owner, address spender) public view virtual returns (uint256) {... */\n    tag_25:\n      tag_111\n      0x04\n      dup1\n      calldatasize\n      sub\n      dup2\n      add\n      swap1\n      tag_112\n      swap2\n      swap1\n      tag_113\n      jump\t// in\n    tag_112:\n      tag_114\n      jump\t// in\n    tag_111:\n      mload(0x40)\n      tag_115\n      swap2\n      swap1\n      tag_45\n      jump\t// in\n    tag_115:\n      mload(0x40)\n      dup1\n      swap2\n      sub\n      swap1\n      return\n        /* \"Monica.sol\":2173:2696  function setTreasury(address _newTreasury) external onlyOwner {... */\n    tag_26:\n      tag_116\n      0x04\n      dup1\n      calldatasize\n      sub\n      dup2\n      add\n      swap1\n      tag_117\n      swap2\n      swap1\n      tag_57\n      jump\t// in\n    tag_117:\n      tag_118\n      jump\t// in\n    tag_116:\n      stop\n        /* \"@openzeppelin/contracts@5.4.0/access/Ownable.sol\":2543:2758  function transferOwnership(address newOwner) public virtual onlyOwner {... */\n    tag_27:\n      tag_119\n      0x04\n      dup1\n      calldatasize\n      sub\n      dup2\n      add\n      swap1\n      tag_120\n      swap2\n      swap1\n      tag_57\n      jump\t// in\n    tag_120:\n      tag_121\n      jump\t// in\n    tag_119:\n      stop\n        /* \"@openzeppelin/contracts@5.4.0/token/ERC20/ERC20.sol\":1760:1849  function name() public view virtual returns (string memory) {... */\n    tag_33:\n        /* \"@openzeppelin/contracts@5.4.0/token/ERC20/ERC20.sol\":1805:1818  string memory */\n      0x60\n        /* \"@openzeppelin/contracts@5.4.0/token/ERC20/ERC20.sol\":1837:1842  _name */\n      0x03\n        /* \"@openzeppelin/contracts@5.4.0/token/ERC20/ERC20.sol\":1830:1842  return _name */\n      dup1\n      sload\n      tag_123\n      swap1\n      tag_124\n      jump\t// in\n    tag_123:\n      dup1\n      0x1f\n      add\n      0x20\n      dup1\n      swap2\n      div\n      mul\n      0x20\n      add\n      mload(0x40)\n      swap1\n      dup2\n      add\n      0x40\n      mstore\n      dup1\n      swap3\n      swap2\n      swap1\n      dup2\n      dup2\n      mstore\n      0x20\n      add\n      dup3\n      dup1\n      sload\n      tag_125\n      swap1\n      tag_124\n      jump\t// in\n    tag_125:\n      dup1\n      iszero\n      tag_126\n      jumpi\n      dup1\n      0x1f\n      lt\n      tag_127\n      jumpi\n      0x0100\n      dup1\n      dup4\n      sload\n      div\n      mul\n      dup4\n      mstore\n      swap2\n      0x20\n      add\n      swap2\n      jump(tag_126)\n    tag_127:\n      dup3\n      add\n      swap2\n      swap1\n      0x00\n      mstore\n      keccak256(0x00, 0x20)\n      swap1\n    tag_128:\n      dup2\n      sload\n      dup2\n      mstore\n      swap1\n      0x01\n      add\n      swap1\n      0x20\n      add\n      dup1\n      dup4\n      gt\n      tag_128\n      jumpi\n      dup3\n      swap1\n      sub\n      0x1f\n      and\n      dup3\n      add\n      swap2\n    tag_126:\n      pop\n      pop\n      pop\n      pop\n      pop\n      swap1\n      pop\n        /* \"@openzeppelin/contracts@5.4.0/token/ERC20/ERC20.sol\":1760:1849  function name() public view virtual returns (string memory) {... */\n      swap1\n      jump\t// out\n        /* \"@openzeppelin/contracts@5.4.0/token/ERC20/ERC20.sol\":3902:4088  function approve(address spender, uint256 value) public virtual returns (bool) {... */\n    tag_39:\n        /* \"@openzeppelin/contracts@5.4.0/token/ERC20/ERC20.sol\":3975:3979  bool */\n      0x00\n        /* \"@openzeppelin/contracts@5.4.0/token/ERC20/ERC20.sol\":3991:4004  address owner */\n      0x00\n        /* \"@openzeppelin/contracts@5.4.0/token/ERC20/ERC20.sol\":4007:4019  _msgSender() */\n      tag_130\n        /* \"@openzeppelin/contracts@5.4.0/token/ERC20/ERC20.sol\":4007:4017  _msgSender */\n      tag_131\n        /* \"@openzeppelin/contracts@5.4.0/token/ERC20/ERC20.sol\":4007:4019  _msgSender() */\n      jump\t// in\n    tag_130:\n        /* \"@openzeppelin/contracts@5.4.0/token/ERC20/ERC20.sol\":3991:4019  address owner = _msgSender() */\n      swap1\n      pop\n        /* \"@openzeppelin/contracts@5.4.0/token/ERC20/ERC20.sol\":4029:4060  _approve(owner, spender, value) */\n      tag_132\n        /* \"@openzeppelin/contracts@5.4.0/token/ERC20/ERC20.sol\":4038:4043  owner */\n      dup2\n        /* \"@openzeppelin/contracts@5.4.0/token/ERC20/ERC20.sol\":4045:4052  spender */\n      dup6\n        /* \"@openzeppelin/contracts@5.4.0/token/ERC20/ERC20.sol\":4054:4059  value */\n      dup6\n        /* \"@openzeppelin/contracts@5.4.0/token/ERC20/ERC20.sol\":4029:4037  _approve */\n      tag_133\n        /* \"@openzeppelin/contracts@5.4.0/token/ERC20/ERC20.sol\":4029:4060  _approve(owner, spender, value) */\n      jump\t// in\n    tag_132:\n        /* \"@openzeppelin/contracts@5.4.0/token/ERC20/ERC20.sol\":4077:4081  true */\n      0x01\n        /* \"@openzeppelin/contracts@5.4.0/token/ERC20/ERC20.sol\":4070:4081  return true */\n      swap2\n      pop\n      pop\n        /* \"@openzeppelin/contracts@5.4.0/token/ERC20/ERC20.sol\":3902:4088  function approve(address spender, uint256 value) public virtual returns (bool) {... */\n      swap3\n      swap2\n      pop\n      pop\n      jump\t// out\n        /* \"@openzeppelin/contracts@5.4.0/token/ERC20/ERC20.sol\":2803:2900  function totalSupply() public view virtual returns (uint256) {... */\n    tag_43:\n        /* \"@openzeppelin/contracts@5.4.0/token/ERC20/ERC20.sol\":2855:2862  uint256 */\n      0x00\n        /* \"@openzeppelin/contracts@5.4.0/token/ERC20/ERC20.sol\":2881:2893  _totalSupply */\n      sload(0x02)\n        /* \"@openzeppelin/contracts@5.4.0/token/ERC20/ERC20.sol\":2874:2893  return _totalSupply */\n      swap1\n      pop\n        /* \"@openzeppelin/contracts@5.4.0/token/ERC20/ERC20.sol\":2803:2900  function totalSupply() public view virtual returns (uint256) {... */\n      swap1\n      jump\t// out\n        /* \"Monica.sol\":3882:4136  function transferFrom(address from, address to, uint256 amount) public virtual override returns (bool) {... */\n    tag_49:\n        /* \"Monica.sol\":3979:3983  bool */\n      0x00\n        /* \"Monica.sol\":3995:4010  address spender */\n      0x00\n        /* \"Monica.sol\":4013:4025  _msgSender() */\n      tag_136\n        /* \"Monica.sol\":4013:4023  _msgSender */\n      tag_131\n        /* \"Monica.sol\":4013:4025  _msgSender() */\n      jump\t// in\n    tag_136:\n        /* \"Monica.sol\":3995:4025  address spender = _msgSender() */\n      swap1\n      pop\n        /* \"Monica.sol\":4035:4073  _spendAllowance(from, spender, amount) */\n      tag_137\n        /* \"Monica.sol\":4051:4055  from */\n      dup6\n        /* \"Monica.sol\":4057:4064  spender */\n      dup3\n        /* \"Monica.sol\":4066:4072  amount */\n      dup6\n        /* \"Monica.sol\":4035:4050  _spendAllowance */\n      tag_138\n        /* \"Monica.sol\":4035:4073  _spendAllowance(from, spender, amount) */\n      jump\t// in\n    tag_137:\n        /* \"Monica.sol\":4083:4108  _update(from, to, amount) */\n      tag_139\n        /* \"Monica.sol\":4091:4095  from */\n      dup6\n        /* \"Monica.sol\":4097:4099  to */\n      dup6\n        /* \"Monica.sol\":4101:4107  amount */\n      dup6\n        /* \"Monica.sol\":4083:4090  _update */\n      tag_140\n        /* \"Monica.sol\":4083:4108  _update(from, to, amount) */\n      jump\t// in\n    tag_139:\n        /* \"Monica.sol\":4125:4129  true */\n      0x01\n        /* \"Monica.sol\":4118:4129  return true */\n      swap2\n      pop\n      pop\n        /* \"Monica.sol\":3882:4136  function transferFrom(address from, address to, uint256 amount) public virtual override returns (bool) {... */\n      swap4\n      swap3\n      pop\n      pop\n      pop\n      jump\t// out\n        /* \"@openzeppelin/contracts@5.4.0/token/ERC20/ERC20.sol\":2688:2770  function decimals() public view virtual returns (uint8) {... */\n    tag_52:\n        /* \"@openzeppelin/contracts@5.4.0/token/ERC20/ERC20.sol\":2737:2742  uint8 */\n      0x00\n        /* \"@openzeppelin/contracts@5.4.0/token/ERC20/ERC20.sol\":2761:2763  18 */\n      0x12\n        /* \"@openzeppelin/contracts@5.4.0/token/ERC20/ERC20.sol\":2754:2763  return 18 */\n      swap1\n      pop\n        /* \"@openzeppelin/contracts@5.4.0/token/ERC20/ERC20.sol\":2688:2770  function decimals() public view virtual returns (uint8) {... */\n      swap1\n      jump\t// out\n        /* \"Monica.sol\":725:768  mapping(address => bool) public isFeeExempt */\n    tag_58:\n      mstore(0x20, 0x08)\n      dup1\n      0x00\n      mstore\n      keccak256(0x00, 0x40)\n      0x00\n      swap2\n      pop\n      sload\n      swap1\n      0x0100\n      exp\n      swap1\n      div\n      0xff\n      and\n      dup2\n      jump\t// out\n        /* \"Monica.sol\":3478:3541  function unpause() public onlyOwner {... */\n    tag_61:\n        /* \"@openzeppelin/contracts@5.4.0/access/Ownable.sol\":1531:1544  _checkOwner() */\n      tag_143\n        /* \"@openzeppelin/contracts@5.4.0/access/Ownable.sol\":1531:1542  _checkOwner */\n      tag_144\n        /* \"@openzeppelin/contracts@5.4.0/access/Ownable.sol\":1531:1544  _checkOwner() */\n      jump\t// in\n    tag_143:\n        /* \"Monica.sol\":3524:3534  _unpause() */\n      tag_146\n        /* \"Monica.sol\":3524:3532  _unpause */\n      tag_147\n        /* \"Monica.sol\":3524:3534  _unpause() */\n      jump\t// in\n    tag_146:\n        /* \"Monica.sol\":3478:3541  function unpause() public onlyOwner {... */\n      jump\t// out\n        /* \"Monica.sol\":4666:4787  function calculateTax(uint256 amount) external view returns (uint256) {... */\n    tag_65:\n        /* \"Monica.sol\":4727:4734  uint256 */\n      0x00\n        /* \"Monica.sol\":666:669  200 */\n      0xc8\n        /* \"Monica.sol\":4763:4769  taxFee */\n      sload(0x07)\n        /* \"Monica.sol\":4754:4760  amount */\n      dup4\n        /* \"Monica.sol\":4754:4769  amount * taxFee */\n      tag_149\n      swap2\n      swap1\n      tag_150\n      jump\t// in\n    tag_149:\n        /* \"Monica.sol\":4753:4780  (amount * taxFee) / MAX_FEE */\n      tag_151\n      swap2\n      swap1\n      tag_152\n      jump\t// in\n    tag_151:\n        /* \"Monica.sol\":4746:4780  return (amount * taxFee) / MAX_FEE */\n      swap1\n      pop\n        /* \"Monica.sol\":4666:4787  function calculateTax(uint256 amount) external view returns (uint256) {... */\n      swap2\n      swap1\n      pop\n      jump\t// out\n        /* \"@openzeppelin/contracts@5.4.0/utils/Pausable.sol\":1726:1810  function paused() public view virtual returns (bool) {... */\n    tag_68:\n        /* \"@openzeppelin/contracts@5.4.0/utils/Pausable.sol\":1773:1777  bool */\n      0x00\n        /* \"@openzeppelin/contracts@5.4.0/utils/Pausable.sol\":1796:1803  _paused */\n      0x05\n      0x00\n      swap1\n      sload\n      swap1\n      0x0100\n      exp\n      swap1\n      div\n      0xff\n      and\n        /* \"@openzeppelin/contracts@5.4.0/utils/Pausable.sol\":1789:1803  return _paused */\n      swap1\n      pop\n        /* \"@openzeppelin/contracts@5.4.0/utils/Pausable.sol\":1726:1810  function paused() public view virtual returns (bool) {... */\n      swap1\n      jump\t// out\n        /* \"Monica.sol\":493:516  address public treasury */\n    tag_71:\n      0x06\n      0x00\n      swap1\n      sload\n      swap1\n      0x0100\n      exp\n      swap1\n      div\n      0xffffffffffffffffffffffffffffffffffffffff\n      and\n      dup2\n      jump\t// out\n        /* \"@openzeppelin/contracts@5.4.0/token/ERC20/ERC20.sol\":2933:3049  function balanceOf(address account) public view virtual returns (uint256) {... */\n    tag_76:\n        /* \"@openzeppelin/contracts@5.4.0/token/ERC20/ERC20.sol\":2998:3005  uint256 */\n      0x00\n        /* \"@openzeppelin/contracts@5.4.0/token/ERC20/ERC20.sol\":3024:3033  _balances */\n      0x00\n        /* \"@openzeppelin/contracts@5.4.0/token/ERC20/ERC20.sol\":3024:3042  _balances[account] */\n      0x00\n        /* \"@openzeppelin/contracts@5.4.0/token/ERC20/ERC20.sol\":3034:3041  account */\n      dup4\n        /* \"@openzeppelin/contracts@5.4.0/token/ERC20/ERC20.sol\":3024:3042  _balances[account] */\n      0xffffffffffffffffffffffffffffffffffffffff\n      and\n      0xffffffffffffffffffffffffffffffffffffffff\n      and\n      dup2\n      mstore\n      0x20\n      add\n      swap1\n      dup2\n      mstore\n      0x20\n      add\n      0x00\n      keccak256\n      sload\n        /* \"@openzeppelin/contracts@5.4.0/token/ERC20/ERC20.sol\":3017:3042  return _balances[account] */\n      swap1\n      pop\n        /* \"@openzeppelin/contracts@5.4.0/token/ERC20/ERC20.sol\":2933:3049  function balanceOf(address account) public view virtual returns (uint256) {... */\n      swap2\n      swap1\n      pop\n      jump\t// out\n        /* \"@openzeppelin/contracts@5.4.0/access/Ownable.sol\":2293:2394  function renounceOwnership() public virtual onlyOwner {... */\n    tag_79:\n        /* \"@openzeppelin/contracts@5.4.0/access/Ownable.sol\":1531:1544  _checkOwner() */\n      tag_156\n        /* \"@openzeppelin/contracts@5.4.0/access/Ownable.sol\":1531:1542  _checkOwner */\n      tag_144\n        /* \"@openzeppelin/contracts@5.4.0/access/Ownable.sol\":1531:1544  _checkOwner() */\n      jump\t// in\n    tag_156:\n        /* \"@openzeppelin/contracts@5.4.0/access/Ownable.sol\":2357:2387  _transferOwnership(address(0)) */\n      tag_158\n        /* \"@openzeppelin/contracts@5.4.0/access/Ownable.sol\":2384:2385  0 */\n      0x00\n        /* \"@openzeppelin/contracts@5.4.0/access/Ownable.sol\":2357:2375  _transferOwnership */\n      tag_159\n        /* \"@openzeppelin/contracts@5.4.0/access/Ownable.sol\":2357:2387  _transferOwnership(address(0)) */\n      jump\t// in\n    tag_158:\n        /* \"@openzeppelin/contracts@5.4.0/access/Ownable.sol\":2293:2394  function renounceOwnership() public virtual onlyOwner {... */\n      jump\t// out\n        /* \"Monica.sol\":3230:3407  function setFeeExemption(address _account, bool _exempt) external onlyOwner {... */\n    tag_83:\n        /* \"@openzeppelin/contracts@5.4.0/access/Ownable.sol\":1531:1544  _checkOwner() */\n      tag_161\n        /* \"@openzeppelin/contracts@5.4.0/access/Ownable.sol\":1531:1542  _checkOwner */\n      tag_144\n        /* \"@openzeppelin/contracts@5.4.0/access/Ownable.sol\":1531:1544  _checkOwner() */\n      jump\t// in\n    tag_161:\n        /* \"Monica.sol\":3340:3347  _exempt */\n      dup1\n        /* \"Monica.sol\":3316:3327  isFeeExempt */\n      0x08\n        /* \"Monica.sol\":3316:3337  isFeeExempt[_account] */\n      0x00\n        /* \"Monica.sol\":3328:3336  _account */\n      dup5\n        /* \"Monica.sol\":3316:3337  isFeeExempt[_account] */\n      0xffffffffffffffffffffffffffffffffffffffff\n      and\n      0xffffffffffffffffffffffffffffffffffffffff\n      and\n      dup2\n      mstore\n      0x20\n      add\n      swap1\n      dup2\n      mstore\n      0x20\n      add\n      0x00\n      keccak256\n      0x00\n        /* \"Monica.sol\":3316:3347  isFeeExempt[_account] = _exempt */\n      0x0100\n      exp\n      dup2\n      sload\n      dup2\n      0xff\n      mul\n      not\n      and\n      swap1\n      dup4\n      iszero\n      iszero\n      mul\n      or\n      swap1\n      sstore\n      pop\n        /* \"Monica.sol\":3382:3390  _account */\n      dup2\n        /* \"Monica.sol\":3362:3400  FeeExemptionUpdated(_account, _exempt) */\n      0xffffffffffffffffffffffffffffffffffffffff\n      and\n      0x69e34a174b4a0cce59950c4c852317e9797bdcae125fbf8b5dd8b4311384412f\n        /* \"Monica.sol\":3392:3399  _exempt */\n      dup3\n        /* \"Monica.sol\":3362:3400  FeeExemptionUpdated(_account, _exempt) */\n      mload(0x40)\n      tag_163\n      swap2\n      swap1\n      tag_41\n      jump\t// in\n    tag_163:\n      mload(0x40)\n      dup1\n      swap2\n      sub\n      swap1\n      log2\n        /* \"Monica.sol\":3230:3407  function setFeeExemption(address _account, bool _exempt) external onlyOwner {... */\n      pop\n      pop\n      jump\t// out\n        /* \"Monica.sol\":3413:3472  function pause() public onlyOwner {... */\n    tag_85:\n        /* \"@openzeppelin/contracts@5.4.0/access/Ownable.sol\":1531:1544  _checkOwner() */\n      tag_165\n        /* \"@openzeppelin/contracts@5.4.0/access/Ownable.sol\":1531:1542  _checkOwner */\n      tag_144\n        /* \"@openzeppelin/contracts@5.4.0/access/Ownable.sol\":1531:1544  _checkOwner() */\n      jump\t// in\n    tag_165:\n        /* \"Monica.sol\":3457:3465  _pause() */\n      tag_167\n        /* \"Monica.sol\":3457:3463  _pause */\n      tag_168\n        /* \"Monica.sol\":3457:3465  _pause() */\n      jump\t// in\n    tag_167:\n        /* \"Monica.sol\":3413:3472  function pause() public onlyOwner {... */\n      jump\t// out\n        /* \"@openzeppelin/contracts@5.4.0/access/Ownable.sol\":1638:1723  function owner() public view virtual returns (address) {... */\n    tag_87:\n        /* \"@openzeppelin/contracts@5.4.0/access/Ownable.sol\":1684:1691  address */\n      0x00\n        /* \"@openzeppelin/contracts@5.4.0/access/Ownable.sol\":1710:1716  _owner */\n      0x05\n      0x01\n      swap1\n      sload\n      swap1\n      0x0100\n      exp\n      swap1\n      div\n      0xffffffffffffffffffffffffffffffffffffffff\n      and\n        /* \"@openzeppelin/contracts@5.4.0/access/Ownable.sol\":1703:1716  return _owner */\n      swap1\n      pop\n        /* \"@openzeppelin/contracts@5.4.0/access/Ownable.sol\":1638:1723  function owner() public view virtual returns (address) {... */\n      swap1\n      jump\t// out\n        /* \"Monica.sol\":4214:4298  function getMaxFee() external pure returns (uint256) {... */\n    tag_90:\n        /* \"Monica.sol\":4258:4265  uint256 */\n      0x00\n        /* \"Monica.sol\":666:669  200 */\n      0xc8\n        /* \"Monica.sol\":4277:4291  return MAX_FEE */\n      swap1\n      pop\n        /* \"Monica.sol\":4214:4298  function getMaxFee() external pure returns (uint256) {... */\n      swap1\n      jump\t// out\n        /* \"@openzeppelin/contracts@5.4.0/token/ERC20/ERC20.sol\":1962:2055  function symbol() public view virtual returns (string memory) {... */\n    tag_93:\n        /* \"@openzeppelin/contracts@5.4.0/token/ERC20/ERC20.sol\":2009:2022  string memory */\n      0x60\n        /* \"@openzeppelin/contracts@5.4.0/token/ERC20/ERC20.sol\":2041:2048  _symbol */\n      0x04\n        /* \"@openzeppelin/contracts@5.4.0/token/ERC20/ERC20.sol\":2034:2048  return _symbol */\n      dup1\n      sload\n      tag_172\n      swap1\n      tag_124\n      jump\t// in\n    tag_172:\n      dup1\n      0x1f\n      add\n      0x20\n      dup1\n      swap2\n      div\n      mul\n      0x20\n      add\n      mload(0x40)\n      swap1\n      dup2\n      add\n      0x40\n      mstore\n      dup1\n      swap3\n      swap2\n      swap1\n      dup2\n      dup2\n      mstore\n      0x20\n      add\n      dup3\n      dup1\n      sload\n      tag_173\n      swap1\n      tag_124\n      jump\t// in\n    tag_173:\n      dup1\n      iszero\n      tag_174\n      jumpi\n      dup1\n      0x1f\n      lt\n      tag_175\n      jumpi\n      0x0100\n      dup1\n      dup4\n      sload\n      div\n      mul\n      dup4\n      mstore\n      swap2\n      0x20\n      add\n      swap2\n      jump(tag_174)\n    tag_175:\n      dup3\n      add\n      swap2\n      swap1\n      0x00\n      mstore\n      keccak256(0x00, 0x20)\n      swap1\n    tag_176:\n      dup2\n      sload\n      dup2\n      mstore\n      swap1\n      0x01\n      add\n      swap1\n      0x20\n      add\n      dup1\n      dup4\n      gt\n      tag_176\n      jumpi\n      dup3\n      swap1\n      sub\n      0x1f\n      and\n      dup3\n      add\n      swap2\n    tag_174:\n      pop\n      pop\n      pop\n      pop\n      pop\n      swap1\n      pop\n        /* \"@openzeppelin/contracts@5.4.0/token/ERC20/ERC20.sol\":1962:2055  function symbol() public view virtual returns (string memory) {... */\n      swap1\n      jump\t// out\n        /* \"Monica.sol\":4398:4491  function getTaxFeePercentage() external view returns (uint256) {... */\n    tag_96:\n        /* \"Monica.sol\":4452:4459  uint256 */\n      0x00\n        /* \"Monica.sol\":4478:4484  taxFee */\n      sload(0x07)\n        /* \"Monica.sol\":4471:4484  return taxFee */\n      swap1\n      pop\n        /* \"Monica.sol\":4398:4491  function getTaxFeePercentage() external view returns (uint256) {... */\n      swap1\n      jump\t// out\n        /* \"Monica.sol\":522:543  uint256 public taxFee */\n    tag_99:\n      sload(0x07)\n      dup2\n      jump\t// out\n        /* \"Monica.sol\":3614:3801  function transfer(address to, uint256 amount) public virtual override returns (bool) {... */\n    tag_103:\n        /* \"Monica.sol\":3693:3697  bool */\n      0x00\n        /* \"Monica.sol\":3709:3722  address owner */\n      0x00\n        /* \"Monica.sol\":3725:3737  _msgSender() */\n      tag_179\n        /* \"Monica.sol\":3725:3735  _msgSender */\n      tag_131\n        /* \"Monica.sol\":3725:3737  _msgSender() */\n      jump\t// in\n    tag_179:\n        /* \"Monica.sol\":3709:3737  address owner = _msgSender() */\n      swap1\n      pop\n        /* \"Monica.sol\":3747:3773  _update(owner, to, amount) */\n      tag_180\n        /* \"Monica.sol\":3755:3760  owner */\n      dup2\n        /* \"Monica.sol\":3762:3764  to */\n      dup6\n        /* \"Monica.sol\":3766:3772  amount */\n      dup6\n        /* \"Monica.sol\":3747:3754  _update */\n      tag_140\n        /* \"Monica.sol\":3747:3773  _update(owner, to, amount) */\n      jump\t// in\n    tag_180:\n        /* \"Monica.sol\":3790:3794  true */\n      0x01\n        /* \"Monica.sol\":3783:3794  return true */\n      swap2\n      pop\n      pop\n        /* \"Monica.sol\":3614:3801  function transfer(address to, uint256 amount) public virtual override returns (bool) {... */\n      swap3\n      swap2\n      pop\n      pop\n      jump\t// out\n        /* \"Monica.sol\":632:669  uint256 public constant MAX_FEE = 200 */\n    tag_106:\n        /* \"Monica.sol\":666:669  200 */\n      0xc8\n        /* \"Monica.sol\":632:669  uint256 public constant MAX_FEE = 200 */\n      dup2\n      jump\t// out\n        /* \"Monica.sol\":2804:3041  function setTaxFee(uint256 _newFee) external onlyOwner {... */\n    tag_110:\n        /* \"@openzeppelin/contracts@5.4.0/access/Ownable.sol\":1531:1544  _checkOwner() */\n      tag_182\n        /* \"@openzeppelin/contracts@5.4.0/access/Ownable.sol\":1531:1542  _checkOwner */\n      tag_144\n        /* \"@openzeppelin/contracts@5.4.0/access/Ownable.sol\":1531:1544  _checkOwner() */\n      jump\t// in\n    tag_182:\n        /* \"Monica.sol\":2883:2888  10000 */\n      0x2710\n        /* \"Monica.sol\":2873:2880  _newFee */\n      dup2\n        /* \"Monica.sol\":2873:2888  _newFee > 10000 */\n      gt\n        /* \"Monica.sol\":2869:2912  if (_newFee > 10000) revert InvalidTaxFee() */\n      iszero\n      tag_184\n      jumpi\n        /* \"Monica.sol\":2897:2912  InvalidTaxFee() */\n      mload(0x40)\n      0x5ba09ae000000000000000000000000000000000000000000000000000000000\n      dup2\n      mstore\n      0x04\n      add\n      mload(0x40)\n      dup1\n      swap2\n      sub\n      swap1\n      revert\n        /* \"Monica.sol\":2869:2912  if (_newFee > 10000) revert InvalidTaxFee() */\n    tag_184:\n        /* \"Monica.sol\":2931:2945  uint256 oldFee */\n      0x00\n        /* \"Monica.sol\":2948:2954  taxFee */\n      sload(0x07)\n        /* \"Monica.sol\":2931:2954  uint256 oldFee = taxFee */\n      swap1\n      pop\n        /* \"Monica.sol\":2973:2980  _newFee */\n      dup2\n        /* \"Monica.sol\":2964:2970  taxFee */\n      0x07\n        /* \"Monica.sol\":2964:2980  taxFee = _newFee */\n      dup2\n      swap1\n      sstore\n      pop\n        /* \"Monica.sol\":3004:3034  TaxFeeUpdated(oldFee, _newFee) */\n      0x2211abb4bbc4d80b7505c31b54d01d15ac6e33a42c59540d309d89daf759063a\n        /* \"Monica.sol\":3018:3024  oldFee */\n      dup2\n        /* \"Monica.sol\":3026:3033  _newFee */\n      dup4\n        /* \"Monica.sol\":3004:3034  TaxFeeUpdated(oldFee, _newFee) */\n      mload(0x40)\n      tag_185\n      swap3\n      swap2\n      swap1\n      tag_186\n      jump\t// in\n    tag_185:\n      mload(0x40)\n      dup1\n      swap2\n      sub\n      swap1\n      log1\n        /* \"Monica.sol\":2859:3041  {... */\n      pop\n        /* \"Monica.sol\":2804:3041  function setTaxFee(uint256 _newFee) external onlyOwner {... */\n      pop\n      jump\t// out\n        /* \"@openzeppelin/contracts@5.4.0/token/ERC20/ERC20.sol\":3455:3595  function allowance(address owner, address spender) public view virtual returns (uint256) {... */\n    tag_114:\n        /* \"@openzeppelin/contracts@5.4.0/token/ERC20/ERC20.sol\":3535:3542  uint256 */\n      0x00\n        /* \"@openzeppelin/contracts@5.4.0/token/ERC20/ERC20.sol\":3561:3572  _allowances */\n      0x01\n        /* \"@openzeppelin/contracts@5.4.0/token/ERC20/ERC20.sol\":3561:3579  _allowances[owner] */\n      0x00\n        /* \"@openzeppelin/contracts@5.4.0/token/ERC20/ERC20.sol\":3573:3578  owner */\n      dup5\n        /* \"@openzeppelin/contracts@5.4.0/token/ERC20/ERC20.sol\":3561:3579  _allowances[owner] */\n      0xffffffffffffffffffffffffffffffffffffffff\n      and\n      0xffffffffffffffffffffffffffffffffffffffff\n      and\n      dup2\n      mstore\n      0x20\n      add\n      swap1\n      dup2\n      mstore\n      0x20\n      add\n      0x00\n      keccak256\n        /* \"@openzeppelin/contracts@5.4.0/token/ERC20/ERC20.sol\":3561:3588  _allowances[owner][spender] */\n      0x00\n        /* \"@openzeppelin/contracts@5.4.0/token/ERC20/ERC20.sol\":3580:3587  spender */\n      dup4\n        /* \"@openzeppelin/contracts@5.4.0/token/ERC20/ERC20.sol\":3561:3588  _allowances[owner][spender] */\n      0xffffffffffffffffffffffffffffffffffffffff\n      and\n      0xffffffffffffffffffffffffffffffffffffffff\n      and\n      dup2\n      mstore\n      0x20\n      add\n      swap1\n      dup2\n      mstore\n      0x20\n      add\n      0x00\n      keccak256\n      sload\n        /* \"@openzeppelin/contracts@5.4.0/token/ERC20/ERC20.sol\":3554:3588  return _allowances[owner][spender] */\n      swap1\n      pop\n        /* \"@openzeppelin/contracts@5.4.0/token/ERC20/ERC20.sol\":3455:3595  function allowance(address owner, address spender) public view virtual returns (uint256) {... */\n      swap3\n      swap2\n      pop\n      pop\n      jump\t// out\n        /* \"Monica.sol\":2173:2696  function setTreasury(address _newTreasury) external onlyOwner {... */\n    tag_118:\n        /* \"@openzeppelin/contracts@5.4.0/access/Ownable.sol\":1531:1544  _checkOwner() */\n      tag_189\n        /* \"@openzeppelin/contracts@5.4.0/access/Ownable.sol\":1531:1542  _checkOwner */\n      tag_144\n        /* \"@openzeppelin/contracts@5.4.0/access/Ownable.sol\":1531:1544  _checkOwner() */\n      jump\t// in\n    tag_189:\n        /* \"Monica.sol\":2273:2274  0 */\n      0x00\n        /* \"Monica.sol\":2249:2275  _newTreasury == address(0) */\n      0xffffffffffffffffffffffffffffffffffffffff\n      and\n        /* \"Monica.sol\":2249:2261  _newTreasury */\n      dup2\n        /* \"Monica.sol\":2249:2275  _newTreasury == address(0) */\n      0xffffffffffffffffffffffffffffffffffffffff\n      and\n      sub\n        /* \"Monica.sol\":2245:2308  if (_newTreasury == address(0)) revert InvalidTreasuryAddress() */\n      tag_191\n      jumpi\n        /* \"Monica.sol\":2284:2308  InvalidTreasuryAddress() */\n      mload(0x40)\n      0xcfe2ea6300000000000000000000000000000000000000000000000000000000\n      dup2\n      mstore\n      0x04\n      add\n      mload(0x40)\n      dup1\n      swap2\n      sub\n      swap1\n      revert\n        /* \"Monica.sol\":2245:2308  if (_newTreasury == address(0)) revert InvalidTreasuryAddress() */\n    tag_191:\n        /* \"Monica.sol\":2327:2346  address oldTreasury */\n      0x00\n        /* \"Monica.sol\":2349:2357  treasury */\n      0x06\n      0x00\n      swap1\n      sload\n      swap1\n      0x0100\n      exp\n      swap1\n      div\n      0xffffffffffffffffffffffffffffffffffffffff\n      and\n        /* \"Monica.sol\":2327:2357  address oldTreasury = treasury */\n      swap1\n      pop\n        /* \"Monica.sol\":2378:2390  _newTreasury */\n      dup2\n        /* \"Monica.sol\":2367:2375  treasury */\n      0x06\n      0x00\n        /* \"Monica.sol\":2367:2390  treasury = _newTreasury */\n      0x0100\n      exp\n      dup2\n      sload\n      dup2\n      0xffffffffffffffffffffffffffffffffffffffff\n      mul\n      not\n      and\n      swap1\n      dup4\n      0xffffffffffffffffffffffffffffffffffffffff\n      and\n      mul\n      or\n      swap1\n      sstore\n      pop\n        /* \"Monica.sol\":2468:2473  false */\n      0x00\n        /* \"Monica.sol\":2441:2452  isFeeExempt */\n      0x08\n        /* \"Monica.sol\":2441:2465  isFeeExempt[oldTreasury] */\n      0x00\n        /* \"Monica.sol\":2453:2464  oldTreasury */\n      dup4\n        /* \"Monica.sol\":2441:2465  isFeeExempt[oldTreasury] */\n      0xffffffffffffffffffffffffffffffffffffffff\n      and\n      0xffffffffffffffffffffffffffffffffffffffff\n      and\n      dup2\n      mstore\n      0x20\n      add\n      swap1\n      dup2\n      mstore\n      0x20\n      add\n      0x00\n      keccak256\n      0x00\n        /* \"Monica.sol\":2441:2473  isFeeExempt[oldTreasury] = false */\n      0x0100\n      exp\n      dup2\n      sload\n      dup2\n      0xff\n      mul\n      not\n      and\n      swap1\n      dup4\n      iszero\n      iszero\n      mul\n      or\n      swap1\n      sstore\n      pop\n        /* \"Monica.sol\":2511:2515  true */\n      0x01\n        /* \"Monica.sol\":2483:2494  isFeeExempt */\n      0x08\n        /* \"Monica.sol\":2483:2508  isFeeExempt[_newTreasury] */\n      0x00\n        /* \"Monica.sol\":2495:2507  _newTreasury */\n      dup5\n        /* \"Monica.sol\":2483:2508  isFeeExempt[_newTreasury] */\n      0xffffffffffffffffffffffffffffffffffffffff\n      and\n      0xffffffffffffffffffffffffffffffffffffffff\n      and\n      dup2\n      mstore\n      0x20\n      add\n      swap1\n      dup2\n      mstore\n      0x20\n      add\n      0x00\n      keccak256\n      0x00\n        /* \"Monica.sol\":2483:2515  isFeeExempt[_newTreasury] = true */\n      0x0100\n      exp\n      dup2\n      sload\n      dup2\n      0xff\n      mul\n      not\n      and\n      swap1\n      dup4\n      iszero\n      iszero\n      mul\n      or\n      swap1\n      sstore\n      pop\n        /* \"Monica.sol\":2568:2580  _newTreasury */\n      dup2\n        /* \"Monica.sol\":2539:2581  TreasuryUpdated(oldTreasury, _newTreasury) */\n      0xffffffffffffffffffffffffffffffffffffffff\n      and\n        /* \"Monica.sol\":2555:2566  oldTreasury */\n      dup2\n        /* \"Monica.sol\":2539:2581  TreasuryUpdated(oldTreasury, _newTreasury) */\n      0xffffffffffffffffffffffffffffffffffffffff\n      and\n      0x4ab5be82436d353e61ca18726e984e561f5c1cc7c6d38b29d2553c790434705a\n      mload(0x40)\n      mload(0x40)\n      dup1\n      swap2\n      sub\n      swap1\n      log3\n        /* \"Monica.sol\":2616:2627  oldTreasury */\n      dup1\n        /* \"Monica.sol\":2596:2635  FeeExemptionUpdated(oldTreasury, false) */\n      0xffffffffffffffffffffffffffffffffffffffff\n      and\n      0x69e34a174b4a0cce59950c4c852317e9797bdcae125fbf8b5dd8b4311384412f\n        /* \"Monica.sol\":2629:2634  false */\n      0x00\n        /* \"Monica.sol\":2596:2635  FeeExemptionUpdated(oldTreasury, false) */\n      mload(0x40)\n      tag_192\n      swap2\n      swap1\n      tag_41\n      jump\t// in\n    tag_192:\n      mload(0x40)\n      dup1\n      swap2\n      sub\n      swap1\n      log2\n        /* \"Monica.sol\":2670:2682  _newTreasury */\n      dup2\n        /* \"Monica.sol\":2650:2689  FeeExemptionUpdated(_newTreasury, true) */\n      0xffffffffffffffffffffffffffffffffffffffff\n      and\n      0x69e34a174b4a0cce59950c4c852317e9797bdcae125fbf8b5dd8b4311384412f\n        /* \"Monica.sol\":2684:2688  true */\n      0x01\n        /* \"Monica.sol\":2650:2689  FeeExemptionUpdated(_newTreasury, true) */\n      mload(0x40)\n      tag_193\n      swap2\n      swap1\n      tag_41\n      jump\t// in\n    tag_193:\n      mload(0x40)\n      dup1\n      swap2\n      sub\n      swap1\n      log2\n        /* \"Monica.sol\":2235:2696  {... */\n      pop\n        /* \"Monica.sol\":2173:2696  function setTreasury(address _newTreasury) external onlyOwner {... */\n      pop\n      jump\t// out\n        /* \"@openzeppelin/contracts@5.4.0/access/Ownable.sol\":2543:2758  function transferOwnership(address newOwner) public virtual onlyOwner {... */\n    tag_121:\n        /* \"@openzeppelin/contracts@5.4.0/access/Ownable.sol\":1531:1544  _checkOwner() */\n      tag_195\n        /* \"@openzeppelin/contracts@5.4.0/access/Ownable.sol\":1531:1542  _checkOwner */\n      tag_144\n        /* \"@openzeppelin/contracts@5.4.0/access/Ownable.sol\":1531:1544  _checkOwner() */\n      jump\t// in\n    tag_195:\n        /* \"@openzeppelin/contracts@5.4.0/access/Ownable.sol\":2647:2648  0 */\n      0x00\n        /* \"@openzeppelin/contracts@5.4.0/access/Ownable.sol\":2627:2649  newOwner == address(0) */\n      0xffffffffffffffffffffffffffffffffffffffff\n      and\n        /* \"@openzeppelin/contracts@5.4.0/access/Ownable.sol\":2627:2635  newOwner */\n      dup2\n        /* \"@openzeppelin/contracts@5.4.0/access/Ownable.sol\":2627:2649  newOwner == address(0) */\n      0xffffffffffffffffffffffffffffffffffffffff\n      and\n      sub\n        /* \"@openzeppelin/contracts@5.4.0/access/Ownable.sol\":2623:2714  if (newOwner == address(0)) {... */\n      tag_197\n      jumpi\n        /* \"@openzeppelin/contracts@5.4.0/access/Ownable.sol\":2700:2701  0 */\n      0x00\n        /* \"@openzeppelin/contracts@5.4.0/access/Ownable.sol\":2672:2703  OwnableInvalidOwner(address(0)) */\n      mload(0x40)\n      0x1e4fbdf700000000000000000000000000000000000000000000000000000000\n      dup2\n      mstore\n      0x04\n      add\n      tag_198\n      swap2\n      swap1\n      tag_73\n      jump\t// in\n    tag_198:\n      mload(0x40)\n      dup1\n      swap2\n      sub\n      swap1\n      revert\n        /* \"@openzeppelin/contracts@5.4.0/access/Ownable.sol\":2623:2714  if (newOwner == address(0)) {... */\n    tag_197:\n        /* \"@openzeppelin/contracts@5.4.0/access/Ownable.sol\":2723:2751  _transferOwnership(newOwner) */\n      tag_199\n        /* \"@openzeppelin/contracts@5.4.0/access/Ownable.sol\":2742:2750  newOwner */\n      dup2\n        /* \"@openzeppelin/contracts@5.4.0/access/Ownable.sol\":2723:2741  _transferOwnership */\n      tag_159\n        /* \"@openzeppelin/contracts@5.4.0/access/Ownable.sol\":2723:2751  _transferOwnership(newOwner) */\n      jump\t// in\n    tag_199:\n        /* \"@openzeppelin/contracts@5.4.0/access/Ownable.sol\":2543:2758  function transferOwnership(address newOwner) public virtual onlyOwner {... */\n      pop\n      jump\t// out\n        /* \"@openzeppelin/contracts@5.4.0/utils/Context.sol\":656:752  function _msgSender() internal view virtual returns (address) {... */\n    tag_131:\n        /* \"@openzeppelin/contracts@5.4.0/utils/Context.sol\":709:716  address */\n      0x00\n        /* \"@openzeppelin/contracts@5.4.0/utils/Context.sol\":735:745  msg.sender */\n      caller\n        /* \"@openzeppelin/contracts@5.4.0/utils/Context.sol\":728:745  return msg.sender */\n      swap1\n      pop\n        /* \"@openzeppelin/contracts@5.4.0/utils/Context.sol\":656:752  function _msgSender() internal view virtual returns (address) {... */\n      swap1\n      jump\t// out\n        /* \"@openzeppelin/contracts@5.4.0/token/ERC20/ERC20.sol\":8630:8758  function _approve(address owner, address spender, uint256 value) internal {... */\n    tag_133:\n        /* \"@openzeppelin/contracts@5.4.0/token/ERC20/ERC20.sol\":8714:8751  _approve(owner, spender, value, true) */\n      tag_202\n        /* \"@openzeppelin/contracts@5.4.0/token/ERC20/ERC20.sol\":8723:8728  owner */\n      dup4\n        /* \"@openzeppelin/contracts@5.4.0/token/ERC20/ERC20.sol\":8730:8737  spender */\n      dup4\n        /* \"@openzeppelin/contracts@5.4.0/token/ERC20/ERC20.sol\":8739:8744  value */\n      dup4\n        /* \"@openzeppelin/contracts@5.4.0/token/ERC20/ERC20.sol\":8746:8750  true */\n      0x01\n        /* \"@openzeppelin/contracts@5.4.0/token/ERC20/ERC20.sol\":8714:8722  _approve */\n      tag_203\n        /* \"@openzeppelin/contracts@5.4.0/token/ERC20/ERC20.sol\":8714:8751  _approve(owner, spender, value, true) */\n      jump\t// in\n    tag_202:\n        /* \"@openzeppelin/contracts@5.4.0/token/ERC20/ERC20.sol\":8630:8758  function _approve(address owner, address spender, uint256 value) internal {... */\n      pop\n      pop\n      pop\n      jump\t// out\n        /* \"@openzeppelin/contracts@5.4.0/token/ERC20/ERC20.sol\":10319:10795  function _spendAllowance(address owner, address spender, uint256 value) internal virtual {... */\n    tag_138:\n        /* \"@openzeppelin/contracts@5.4.0/token/ERC20/ERC20.sol\":10418:10442  uint256 currentAllowance */\n      0x00\n        /* \"@openzeppelin/contracts@5.4.0/token/ERC20/ERC20.sol\":10445:10470  allowance(owner, spender) */\n      tag_205\n        /* \"@openzeppelin/contracts@5.4.0/token/ERC20/ERC20.sol\":10455:10460  owner */\n      dup5\n        /* \"@openzeppelin/contracts@5.4.0/token/ERC20/ERC20.sol\":10462:10469  spender */\n      dup5\n        /* \"@openzeppelin/contracts@5.4.0/token/ERC20/ERC20.sol\":10445:10454  allowance */\n      tag_114\n        /* \"@openzeppelin/contracts@5.4.0/token/ERC20/ERC20.sol\":10445:10470  allowance(owner, spender) */\n      jump\t// in\n    tag_205:\n        /* \"@openzeppelin/contracts@5.4.0/token/ERC20/ERC20.sol\":10418:10470  uint256 currentAllowance = allowance(owner, spender) */\n      swap1\n      pop\n        /* \"@openzeppelin/contracts@5.4.0/token/ERC20/ERC20.sol\":10503:10520  type(uint256).max */\n      0xffffffffffffffffffffffffffffffffffffffffffffffffffffffffffffffff\n        /* \"@openzeppelin/contracts@5.4.0/token/ERC20/ERC20.sol\":10484:10500  currentAllowance */\n      dup2\n        /* \"@openzeppelin/contracts@5.4.0/token/ERC20/ERC20.sol\":10484:10520  currentAllowance < type(uint256).max */\n      lt\n        /* \"@openzeppelin/contracts@5.4.0/token/ERC20/ERC20.sol\":10480:10789  if (currentAllowance < type(uint256).max) {... */\n      iszero\n      tag_206\n      jumpi\n        /* \"@openzeppelin/contracts@5.4.0/token/ERC20/ERC20.sol\":10559:10564  value */\n      dup2\n        /* \"@openzeppelin/contracts@5.4.0/token/ERC20/ERC20.sol\":10540:10556  currentAllowance */\n      dup2\n        /* \"@openzeppelin/contracts@5.4.0/token/ERC20/ERC20.sol\":10540:10564  currentAllowance < value */\n      lt\n        /* \"@openzeppelin/contracts@5.4.0/token/ERC20/ERC20.sol\":10536:10666  if (currentAllowance < value) {... */\n      iszero\n      tag_207\n      jumpi\n        /* \"@openzeppelin/contracts@5.4.0/token/ERC20/ERC20.sol\":10618:10625  spender */\n      dup3\n        /* \"@openzeppelin/contracts@5.4.0/token/ERC20/ERC20.sol\":10627:10643  currentAllowance */\n      dup2\n        /* \"@openzeppelin/contracts@5.4.0/token/ERC20/ERC20.sol\":10645:10650  value */\n      dup4\n        /* \"@openzeppelin/contracts@5.4.0/token/ERC20/ERC20.sol\":10591:10651  ERC20InsufficientAllowance(spender, currentAllowance, value) */\n      mload(0x40)\n      0xfb8f41b200000000000000000000000000000000000000000000000000000000\n      dup2\n      mstore\n      0x04\n      add\n      tag_208\n      swap4\n      swap3\n      swap2\n      swap1\n      tag_209\n      jump\t// in\n    tag_208:\n      mload(0x40)\n      dup1\n      swap2\n      sub\n      swap1\n      revert\n        /* \"@openzeppelin/contracts@5.4.0/token/ERC20/ERC20.sol\":10536:10666  if (currentAllowance < value) {... */\n    tag_207:\n        /* \"@openzeppelin/contracts@5.4.0/token/ERC20/ERC20.sol\":10707:10764  _approve(owner, spender, currentAllowance - value, false) */\n      tag_210\n        /* \"@openzeppelin/contracts@5.4.0/token/ERC20/ERC20.sol\":10716:10721  owner */\n      dup5\n        /* \"@openzeppelin/contracts@5.4.0/token/ERC20/ERC20.sol\":10723:10730  spender */\n      dup5\n        /* \"@openzeppelin/contracts@5.4.0/token/ERC20/ERC20.sol\":10751:10756  value */\n      dup5\n        /* \"@openzeppelin/contracts@5.4.0/token/ERC20/ERC20.sol\":10732:10748  currentAllowance */\n      dup5\n        /* \"@openzeppelin/contracts@5.4.0/token/ERC20/ERC20.sol\":10732:10756  currentAllowance - value */\n      sub\n        /* \"@openzeppelin/contracts@5.4.0/token/ERC20/ERC20.sol\":10758:10763  false */\n      0x00\n        /* \"@openzeppelin/contracts@5.4.0/token/ERC20/ERC20.sol\":10707:10715  _approve */\n      tag_203\n        /* \"@openzeppelin/contracts@5.4.0/token/ERC20/ERC20.sol\":10707:10764  _approve(owner, spender, currentAllowance - value, false) */\n      jump\t// in\n    tag_210:\n        /* \"@openzeppelin/contracts@5.4.0/token/ERC20/ERC20.sol\":10480:10789  if (currentAllowance < type(uint256).max) {... */\n    tag_206:\n        /* \"@openzeppelin/contracts@5.4.0/token/ERC20/ERC20.sol\":10408:10795  {... */\n      pop\n        /* \"@openzeppelin/contracts@5.4.0/token/ERC20/ERC20.sol\":10319:10795  function _spendAllowance(address owner, address spender, uint256 value) internal virtual {... */\n      pop\n      pop\n      pop\n      jump\t// out\n        /* \"Monica.sol\":4861:5402  function _update(address from, address to, uint256 amount) internal override(ERC20, ERC20Pausable) {... */\n    tag_140:\n        /* \"Monica.sol\":4990:4991  0 */\n      0x00\n        /* \"Monica.sol\":4974:4992  from != address(0) */\n      0xffffffffffffffffffffffffffffffffffffffff\n      and\n        /* \"Monica.sol\":4974:4978  from */\n      dup4\n        /* \"Monica.sol\":4974:4992  from != address(0) */\n      0xffffffffffffffffffffffffffffffffffffffff\n      and\n      eq\n      iszero\n        /* \"Monica.sol\":4974:5012  from != address(0) && to != address(0) */\n      dup1\n      iszero\n      tag_212\n      jumpi\n      pop\n        /* \"Monica.sol\":5010:5011  0 */\n      0x00\n        /* \"Monica.sol\":4996:5012  to != address(0) */\n      0xffffffffffffffffffffffffffffffffffffffff\n      and\n        /* \"Monica.sol\":4996:4998  to */\n      dup3\n        /* \"Monica.sol\":4996:5012  to != address(0) */\n      0xffffffffffffffffffffffffffffffffffffffff\n      and\n      eq\n      iszero\n        /* \"Monica.sol\":4974:5012  from != address(0) && to != address(0) */\n    tag_212:\n        /* \"Monica.sol\":4970:5355  if (from != address(0) && to != address(0)) {... */\n      iszero\n      tag_213\n      jumpi\n        /* \"Monica.sol\":5041:5042  0 */\n      0x00\n        /* \"Monica.sol\":5032:5038  taxFee */\n      sload(0x07)\n        /* \"Monica.sol\":5032:5042  taxFee > 0 */\n      gt\n        /* \"Monica.sol\":5028:5345  if (taxFee > 0) {... */\n      iszero\n      tag_214\n      jumpi\n        /* \"Monica.sol\":5062:5073  uint256 fee */\n      0x00\n        /* \"Monica.sol\":5096:5099  100 */\n      0x64\n        /* \"Monica.sol\":5086:5092  taxFee */\n      sload(0x07)\n        /* \"Monica.sol\":5077:5083  amount */\n      dup4\n        /* \"Monica.sol\":5077:5092  amount * taxFee */\n      tag_215\n      swap2\n      swap1\n      tag_150\n      jump\t// in\n    tag_215:\n        /* \"Monica.sol\":5076:5099  (amount * taxFee) / 100 */\n      tag_216\n      swap2\n      swap1\n      tag_152\n      jump\t// in\n    tag_216:\n        /* \"Monica.sol\":5062:5099  uint256 fee = (amount * taxFee) / 100 */\n      swap1\n      pop\n        /* \"Monica.sol\":5127:5128  0 */\n      0x00\n        /* \"Monica.sol\":5121:5124  fee */\n      dup2\n        /* \"Monica.sol\":5121:5128  fee > 0 */\n      gt\n        /* \"Monica.sol\":5117:5331  if (fee > 0) {... */\n      iszero\n      tag_217\n      jumpi\n        /* \"Monica.sol\":5152:5186  super._update(from, treasury, fee) */\n      tag_218\n        /* \"Monica.sol\":5166:5170  from */\n      dup5\n        /* \"Monica.sol\":5172:5180  treasury */\n      0x06\n      0x00\n      swap1\n      sload\n      swap1\n      0x0100\n      exp\n      swap1\n      div\n      0xffffffffffffffffffffffffffffffffffffffff\n      and\n        /* \"Monica.sol\":5182:5185  fee */\n      dup4\n        /* \"Monica.sol\":5152:5165  super._update */\n      tag_219\n        /* \"Monica.sol\":5152:5186  super._update(from, treasury, fee) */\n      jump\t// in\n    tag_218:\n        /* \"Monica.sol\":5208:5219  uint256 net */\n      0x00\n        /* \"Monica.sol\":5231:5234  fee */\n      dup2\n        /* \"Monica.sol\":5222:5228  amount */\n      dup4\n        /* \"Monica.sol\":5222:5234  amount - fee */\n      tag_220\n      swap2\n      swap1\n      tag_221\n      jump\t// in\n    tag_220:\n        /* \"Monica.sol\":5208:5234  uint256 net = amount - fee */\n      swap1\n      pop\n        /* \"Monica.sol\":5256:5284  super._update(from, to, net) */\n      tag_222\n        /* \"Monica.sol\":5270:5274  from */\n      dup6\n        /* \"Monica.sol\":5276:5278  to */\n      dup6\n        /* \"Monica.sol\":5280:5283  net */\n      dup4\n        /* \"Monica.sol\":5256:5269  super._update */\n      tag_219\n        /* \"Monica.sol\":5256:5284  super._update(from, to, net) */\n      jump\t// in\n    tag_222:\n        /* \"Monica.sol\":5306:5313  return; */\n      pop\n      pop\n      jump(tag_211)\n        /* \"Monica.sol\":5117:5331  if (fee > 0) {... */\n    tag_217:\n        /* \"Monica.sol\":5044:5345  {... */\n      pop\n        /* \"Monica.sol\":5028:5345  if (taxFee > 0) {... */\n    tag_214:\n        /* \"Monica.sol\":4970:5355  if (from != address(0) && to != address(0)) {... */\n    tag_213:\n        /* \"Monica.sol\":5364:5395  super._update(from, to, amount) */\n      tag_223\n        /* \"Monica.sol\":5378:5382  from */\n      dup4\n        /* \"Monica.sol\":5384:5386  to */\n      dup4\n        /* \"Monica.sol\":5388:5394  amount */\n      dup4\n        /* \"Monica.sol\":5364:5377  super._update */\n      tag_219\n        /* \"Monica.sol\":5364:5395  super._update(from, to, amount) */\n      jump\t// in\n    tag_223:\n        /* \"Monica.sol\":4861:5402  function _update(address from, address to, uint256 amount) internal override(ERC20, ERC20Pausable) {... */\n    tag_211:\n      pop\n      pop\n      pop\n      jump\t// out\n        /* \"@openzeppelin/contracts@5.4.0/access/Ownable.sol\":1796:1958  function _checkOwner() internal view virtual {... */\n    tag_144:\n        /* \"@openzeppelin/contracts@5.4.0/access/Ownable.sol\":1866:1878  _msgSender() */\n      tag_225\n        /* \"@openzeppelin/contracts@5.4.0/access/Ownable.sol\":1866:1876  _msgSender */\n      tag_131\n        /* \"@openzeppelin/contracts@5.4.0/access/Ownable.sol\":1866:1878  _msgSender() */\n      jump\t// in\n    tag_225:\n        /* \"@openzeppelin/contracts@5.4.0/access/Ownable.sol\":1855:1878  owner() != _msgSender() */\n      0xffffffffffffffffffffffffffffffffffffffff\n      and\n        /* \"@openzeppelin/contracts@5.4.0/access/Ownable.sol\":1855:1862  owner() */\n      tag_226\n        /* \"@openzeppelin/contracts@5.4.0/access/Ownable.sol\":1855:1860  owner */\n      tag_87\n        /* \"@openzeppelin/contracts@5.4.0/access/Ownable.sol\":1855:1862  owner() */\n      jump\t// in\n    tag_226:\n        /* \"@openzeppelin/contracts@5.4.0/access/Ownable.sol\":1855:1878  owner() != _msgSender() */\n      0xffffffffffffffffffffffffffffffffffffffff\n      and\n      eq\n        /* \"@openzeppelin/contracts@5.4.0/access/Ownable.sol\":1851:1952  if (owner() != _msgSender()) {... */\n      tag_227\n      jumpi\n        /* \"@openzeppelin/contracts@5.4.0/access/Ownable.sol\":1928:1940  _msgSender() */\n      tag_228\n        /* \"@openzeppelin/contracts@5.4.0/access/Ownable.sol\":1928:1938  _msgSender */\n      tag_131\n        /* \"@openzeppelin/contracts@5.4.0/access/Ownable.sol\":1928:1940  _msgSender() */\n      jump\t// in\n    tag_228:\n        /* \"@openzeppelin/contracts@5.4.0/access/Ownable.sol\":1901:1941  OwnableUnauthorizedAccount(_msgSender()) */\n      mload(0x40)\n      0x118cdaa700000000000000000000000000000000000000000000000000000000\n      dup2\n      mstore\n      0x04\n      add\n      tag_229\n      swap2\n      swap1\n      tag_73\n      jump\t// in\n    tag_229:\n      mload(0x40)\n      dup1\n      swap2\n      sub\n      swap1\n      revert\n        /* \"@openzeppelin/contracts@5.4.0/access/Ownable.sol\":1851:1952  if (owner() != _msgSender()) {... */\n    tag_227:\n        /* \"@openzeppelin/contracts@5.4.0/access/Ownable.sol\":1796:1958  function _checkOwner() internal view virtual {... */\n      jump\t// out\n        /* \"@openzeppelin/contracts@5.4.0/utils/Pausable.sol\":2586:2703  function _unpause() internal virtual whenPaused {... */\n    tag_147:\n        /* \"@openzeppelin/contracts@5.4.0/utils/Pausable.sol\":1597:1613  _requirePaused() */\n      tag_231\n        /* \"@openzeppelin/contracts@5.4.0/utils/Pausable.sol\":1597:1611  _requirePaused */\n      tag_232\n        /* \"@openzeppelin/contracts@5.4.0/utils/Pausable.sol\":1597:1613  _requirePaused() */\n      jump\t// in\n    tag_231:\n        /* \"@openzeppelin/contracts@5.4.0/utils/Pausable.sol\":2654:2659  false */\n      0x00\n        /* \"@openzeppelin/contracts@5.4.0/utils/Pausable.sol\":2644:2651  _paused */\n      0x05\n      0x00\n        /* \"@openzeppelin/contracts@5.4.0/utils/Pausable.sol\":2644:2659  _paused = false */\n      0x0100\n      exp\n      dup2\n      sload\n      dup2\n      0xff\n      mul\n      not\n      and\n      swap1\n      dup4\n      iszero\n      iszero\n      mul\n      or\n      swap1\n      sstore\n      pop\n        /* \"@openzeppelin/contracts@5.4.0/utils/Pausable.sol\":2674:2696  Unpaused(_msgSender()) */\n      0x5db9ee0a495bf2e6ff9c91a7834c1ba4fdd244a5e8aa4e537bd38aeae4b073aa\n        /* \"@openzeppelin/contracts@5.4.0/utils/Pausable.sol\":2683:2695  _msgSender() */\n      tag_234\n        /* \"@openzeppelin/contracts@5.4.0/utils/Pausable.sol\":2683:2693  _msgSender */\n      tag_131\n        /* \"@openzeppelin/contracts@5.4.0/utils/Pausable.sol\":2683:2695  _msgSender() */\n      jump\t// in\n    tag_234:\n        /* \"@openzeppelin/contracts@5.4.0/utils/Pausable.sol\":2674:2696  Unpaused(_msgSender()) */\n      mload(0x40)\n      tag_235\n      swap2\n      swap1\n      tag_73\n      jump\t// in\n    tag_235:\n      mload(0x40)\n      dup1\n      swap2\n      sub\n      swap1\n      log1\n        /* \"@openzeppelin/contracts@5.4.0/utils/Pausable.sol\":2586:2703  function _unpause() internal virtual whenPaused {... */\n      jump\t// out\n        /* \"@openzeppelin/contracts@5.4.0/access/Ownable.sol\":2912:3099  function _transferOwnership(address newOwner) internal virtual {... */\n    tag_159:\n        /* \"@openzeppelin/contracts@5.4.0/access/Ownable.sol\":2985:3001  address oldOwner */\n      0x00\n        /* \"@openzeppelin/contracts@5.4.0/access/Ownable.sol\":3004:3010  _owner */\n      0x05\n      0x01\n      swap1\n      sload\n      swap1\n      0x0100\n      exp\n      swap1\n      div\n      0xffffffffffffffffffffffffffffffffffffffff\n      and\n        /* \"@openzeppelin/contracts@5.4.0/access/Ownable.sol\":2985:3010  address oldOwner = _owner */\n      swap1\n      pop\n        /* \"@openzeppelin/contracts@5.4.0/access/Ownable.sol\":3029:3037  newOwner */\n      dup2\n        /* \"@openzeppelin/contracts@5.4.0/access/Ownable.sol\":3020:3026  _owner */\n      0x05\n      0x01\n        /* \"@openzeppelin/contracts@5.4.0/access/Ownable.sol\":3020:3037  _owner = newOwner */\n      0x0100\n      exp\n      dup2\n      sload\n      dup2\n      0xffffffffffffffffffffffffffffffffffffffff\n      mul\n      not\n      and\n      swap1\n      dup4\n      0xffffffffffffffffffffffffffffffffffffffff\n      and\n      mul\n      or\n      swap1\n      sstore\n      pop\n        /* \"@openzeppelin/contracts@5.4.0/access/Ownable.sol\":3083:3091  newOwner */\n      dup2\n        /* \"@openzeppelin/contracts@5.4.0/access/Ownable.sol\":3052:3092  OwnershipTransferred(oldOwner, newOwner) */\n      0xffffffffffffffffffffffffffffffffffffffff\n      and\n        /* \"@openzeppelin/contracts@5.4.0/access/Ownable.sol\":3073:3081  oldOwner */\n      dup2\n        /* \"@openzeppelin/contracts@5.4.0/access/Ownable.sol\":3052:3092  OwnershipTransferred(oldOwner, newOwner) */\n      0xffffffffffffffffffffffffffffffffffffffff\n      and\n      0x8be0079c531659141344cd1fd0a4f28419497f9722a3daafe3b4186f6b6457e0\n      mload(0x40)\n      mload(0x40)\n      dup1\n      swap2\n      sub\n      swap1\n      log3\n        /* \"@openzeppelin/contracts@5.4.0/access/Ownable.sol\":2975:3099  {... */\n      pop\n        /* \"@openzeppelin/contracts@5.4.0/access/Ownable.sol\":2912:3099  function _transferOwnership(address newOwner) internal virtual {... */\n      pop\n      jump\t// out\n        /* \"@openzeppelin/contracts@5.4.0/utils/Pausable.sol\":2339:2454  function _pause() internal virtual whenNotPaused {... */\n    tag_168:\n        /* \"@openzeppelin/contracts@5.4.0/utils/Pausable.sol\":1350:1369  _requireNotPaused() */\n      tag_238\n        /* \"@openzeppelin/contracts@5.4.0/utils/Pausable.sol\":1350:1367  _requireNotPaused */\n      tag_239\n        /* \"@openzeppelin/contracts@5.4.0/utils/Pausable.sol\":1350:1369  _requireNotPaused() */\n      jump\t// in\n    tag_238:\n        /* \"@openzeppelin/contracts@5.4.0/utils/Pausable.sol\":2408:2412  true */\n      0x01\n        /* \"@openzeppelin/contracts@5.4.0/utils/Pausable.sol\":2398:2405  _paused */\n      0x05\n      0x00\n        /* \"@openzeppelin/contracts@5.4.0/utils/Pausable.sol\":2398:2412  _paused = true */\n      0x0100\n      exp\n      dup2\n      sload\n      dup2\n      0xff\n      mul\n      not\n      and\n      swap1\n      dup4\n      iszero\n      iszero\n      mul\n      or\n      swap1\n      sstore\n      pop\n        /* \"@openzeppelin/contracts@5.4.0/utils/Pausable.sol\":2427:2447  Paused(_msgSender()) */\n      0x62e78cea01bee320cd4e420270b5ea74000d11b0c9f74754ebdbfc544b05a258\n        /* \"@openzeppelin/contracts@5.4.0/utils/Pausable.sol\":2434:2446  _msgSender() */\n      tag_241\n        /* \"@openzeppelin/contracts@5.4.0/utils/Pausable.sol\":2434:2444  _msgSender */\n      tag_131\n        /* \"@openzeppelin/contracts@5.4.0/utils/Pausable.sol\":2434:2446  _msgSender() */\n      jump\t// in\n    tag_241:\n        /* \"@openzeppelin/contracts@5.4.0/utils/Pausable.sol\":2427:2447  Paused(_msgSender()) */\n      mload(0x40)\n      tag_242\n      swap2\n      swap1\n      tag_73\n      jump\t// in\n    tag_242:\n      mload(0x40)\n      dup1\n      swap2\n      sub\n      swap1\n      log1\n        /* \"@openzeppelin/contracts@5.4.0/utils/Pausable.sol\":2339:2454  function _pause() internal virtual whenNotPaused {... */\n      jump\t// out\n        /* \"@openzeppelin/contracts@5.4.0/token/ERC20/ERC20.sol\":9605:10037  function _approve(address owner, address spender, uint256 value, bool emitEvent) internal virtual {... */\n    tag_203:\n        /* \"@openzeppelin/contracts@5.4.0/token/ERC20/ERC20.sol\":9734:9735  0 */\n      0x00\n        /* \"@openzeppelin/contracts@5.4.0/token/ERC20/ERC20.sol\":9717:9736  owner == address(0) */\n      0xffffffffffffffffffffffffffffffffffffffff\n      and\n        /* \"@openzeppelin/contracts@5.4.0/token/ERC20/ERC20.sol\":9717:9722  owner */\n      dup5\n        /* \"@openzeppelin/contracts@5.4.0/token/ERC20/ERC20.sol\":9717:9736  owner == address(0) */\n      0xffffffffffffffffffffffffffffffffffffffff\n      and\n      sub\n        /* \"@openzeppelin/contracts@5.4.0/token/ERC20/ERC20.sol\":9713:9802  if (owner == address(0)) {... */\n      tag_244\n      jumpi\n        /* \"@openzeppelin/contracts@5.4.0/token/ERC20/ERC20.sol\":9788:9789  0 */\n      0x00\n        /* \"@openzeppelin/contracts@5.4.0/token/ERC20/ERC20.sol\":9759:9791  ERC20InvalidApprover(address(0)) */\n      mload(0x40)\n      0xe602df0500000000000000000000000000000000000000000000000000000000\n      dup2\n      mstore\n      0x04\n      add\n      tag_245\n      swap2\n      swap1\n      tag_73\n      jump\t// in\n    tag_245:\n      mload(0x40)\n      dup1\n      swap2\n      sub\n      swap1\n      revert\n        /* \"@openzeppelin/contracts@5.4.0/token/ERC20/ERC20.sol\":9713:9802  if (owner == address(0)) {... */\n    tag_244:\n        /* \"@openzeppelin/contracts@5.4.0/token/ERC20/ERC20.sol\":9834:9835  0 */\n      0x00\n        /* \"@openzeppelin/contracts@5.4.0/token/ERC20/ERC20.sol\":9815:9836  spender == address(0) */\n      0xffffffffffffffffffffffffffffffffffffffff\n      and\n        /* \"@openzeppelin/contracts@5.4.0/token/ERC20/ERC20.sol\":9815:9822  spender */\n      dup4\n        /* \"@openzeppelin/contracts@5.4.0/token/ERC20/ERC20.sol\":9815:9836  spender == address(0) */\n      0xffffffffffffffffffffffffffffffffffffffff\n      and\n      sub\n        /* \"@openzeppelin/contracts@5.4.0/token/ERC20/ERC20.sol\":9811:9901  if (spender == address(0)) {... */\n      tag_246\n      jumpi\n        /* \"@openzeppelin/contracts@5.4.0/token/ERC20/ERC20.sol\":9887:9888  0 */\n      0x00\n        /* \"@openzeppelin/contracts@5.4.0/token/ERC20/ERC20.sol\":9859:9890  ERC20InvalidSpender(address(0)) */\n      mload(0x40)\n      0x94280d6200000000000000000000000000000000000000000000000000000000\n      dup2\n      mstore\n      0x04\n      add\n      tag_247\n      swap2\n      swap1\n      tag_73\n      jump\t// in\n    tag_247:\n      mload(0x40)\n      dup1\n      swap2\n      sub\n      swap1\n      revert\n        /* \"@openzeppelin/contracts@5.4.0/token/ERC20/ERC20.sol\":9811:9901  if (spender == address(0)) {... */\n    tag_246:\n        /* \"@openzeppelin/contracts@5.4.0/token/ERC20/ERC20.sol\":9940:9945  value */\n      dup2\n        /* \"@openzeppelin/contracts@5.4.0/token/ERC20/ERC20.sol\":9910:9921  _allowances */\n      0x01\n        /* \"@openzeppelin/contracts@5.4.0/token/ERC20/ERC20.sol\":9910:9928  _allowances[owner] */\n      0x00\n        /* \"@openzeppelin/contracts@5.4.0/token/ERC20/ERC20.sol\":9922:9927  owner */\n      dup7\n        /* \"@openzeppelin/contracts@5.4.0/token/ERC20/ERC20.sol\":9910:9928  _allowances[owner] */\n      0xffffffffffffffffffffffffffffffffffffffff\n      and\n      0xffffffffffffffffffffffffffffffffffffffff\n      and\n      dup2\n      mstore\n      0x20\n      add\n      swap1\n      dup2\n      mstore\n      0x20\n      add\n      0x00\n      keccak256\n        /* \"@openzeppelin/contracts@5.4.0/token/ERC20/ERC20.sol\":9910:9937  _allowances[owner][spender] */\n      0x00\n        /* \"@openzeppelin/contracts@5.4.0/token/ERC20/ERC20.sol\":9929:9936  spender */\n      dup6\n        /* \"@openzeppelin/contracts@5.4.0/token/ERC20/ERC20.sol\":9910:9937  _allowances[owner][spender] */\n      0xffffffffffffffffffffffffffffffffffffffff\n      and\n      0xffffffffffffffffffffffffffffffffffffffff\n      and\n      dup2\n      mstore\n      0x20\n      add\n      swap1\n      dup2\n      mstore\n      0x20\n      add\n      0x00\n      keccak256\n        /* \"@openzeppelin/contracts@5.4.0/token/ERC20/ERC20.sol\":9910:9945  _allowances[owner][spender] = value */\n      dup2\n      swap1\n      sstore\n      pop\n        /* \"@openzeppelin/contracts@5.4.0/token/ERC20/ERC20.sol\":9959:9968  emitEvent */\n      dup1\n        /* \"@openzeppelin/contracts@5.4.0/token/ERC20/ERC20.sol\":9955:10031  if (emitEvent) {... */\n      iszero\n      tag_248\n      jumpi\n        /* \"@openzeppelin/contracts@5.4.0/token/ERC20/ERC20.sol\":10005:10012  spender */\n      dup3\n        /* \"@openzeppelin/contracts@5.4.0/token/ERC20/ERC20.sol\":9989:10020  Approval(owner, spender, value) */\n      0xffffffffffffffffffffffffffffffffffffffff\n      and\n        /* \"@openzeppelin/contracts@5.4.0/token/ERC20/ERC20.sol\":9998:10003  owner */\n      dup5\n        /* \"@openzeppelin/contracts@5.4.0/token/ERC20/ERC20.sol\":9989:10020  Approval(owner, spender, value) */\n      0xffffffffffffffffffffffffffffffffffffffff\n      and\n      0x8c5be1e5ebec7d5bd14f71427d1e84f3dd0314c0f7b2291e5b200ac8c7c3b925\n        /* \"@openzeppelin/contracts@5.4.0/token/ERC20/ERC20.sol\":10014:10019  value */\n      dup5\n        /* \"@openzeppelin/contracts@5.4.0/token/ERC20/ERC20.sol\":9989:10020  Approval(owner, spender, value) */\n      mload(0x40)\n      tag_249\n      swap2\n      swap1\n      tag_45\n      jump\t// in\n    tag_249:\n      mload(0x40)\n      dup1\n      swap2\n      sub\n      swap1\n      log3\n        /* \"@openzeppelin/contracts@5.4.0/token/ERC20/ERC20.sol\":9955:10031  if (emitEvent) {... */\n    tag_248:\n        /* \"@openzeppelin/contracts@5.4.0/token/ERC20/ERC20.sol\":9605:10037  function _approve(address owner, address spender, uint256 value, bool emitEvent) internal virtual {... */\n      pop\n      pop\n      pop\n      pop\n      jump\t// out\n        /* \"@openzeppelin/contracts@5.4.0/token/ERC20/extensions/ERC20Pausable.sol\":1113:1258  function _update(address from, address to, uint256 value) internal virtual override whenNotPaused {... */\n    tag_219:\n        /* \"@openzeppelin/contracts@5.4.0/utils/Pausable.sol\":1350:1369  _requireNotPaused() */\n      tag_251\n        /* \"@openzeppelin/contracts@5.4.0/utils/Pausable.sol\":1350:1367  _requireNotPaused */\n      tag_239\n        /* \"@openzeppelin/contracts@5.4.0/utils/Pausable.sol\":1350:1369  _requireNotPaused() */\n      jump\t// in\n    tag_251:\n        /* \"@openzeppelin/contracts@5.4.0/token/ERC20/extensions/ERC20Pausable.sol\":1221:1251  super._update(from, to, value) */\n      tag_253\n        /* \"@openzeppelin/contracts@5.4.0/token/ERC20/extensions/ERC20Pausable.sol\":1235:1239  from */\n      dup4\n        /* \"@openzeppelin/contracts@5.4.0/token/ERC20/extensions/ERC20Pausable.sol\":1241:1243  to */\n      dup4\n        /* \"@openzeppelin/contracts@5.4.0/token/ERC20/extensions/ERC20Pausable.sol\":1245:1250  value */\n      dup4\n        /* \"@openzeppelin/contracts@5.4.0/token/ERC20/extensions/ERC20Pausable.sol\":1221:1234  super._update */\n      tag_254\n        /* \"@openzeppelin/contracts@5.4.0/token/ERC20/extensions/ERC20Pausable.sol\":1221:1251  super._update(from, to, value) */\n      jump\t// in\n    tag_253:\n        /* \"@openzeppelin/contracts@5.4.0/token/ERC20/extensions/ERC20Pausable.sol\":1113:1258  function _update(address from, address to, uint256 value) internal virtual override whenNotPaused {... */\n      pop\n      pop\n      pop\n      jump\t// out\n        /* \"@openzeppelin/contracts@5.4.0/utils/Pausable.sol\":2078:2204  function _requirePaused() internal view virtual {... */\n    tag_232:\n        /* \"@openzeppelin/contracts@5.4.0/utils/Pausable.sol\":2141:2149  paused() */\n      tag_256\n        /* \"@openzeppelin/contracts@5.4.0/utils/Pausable.sol\":2141:2147  paused */\n      tag_68\n        /* \"@openzeppelin/contracts@5.4.0/utils/Pausable.sol\":2141:2149  paused() */\n      jump\t// in\n    tag_256:\n        /* \"@openzeppelin/contracts@5.4.0/utils/Pausable.sol\":2136:2198  if (!paused()) {... */\n      tag_257\n      jumpi\n        /* \"@openzeppelin/contracts@5.4.0/utils/Pausable.sol\":2172:2187  ExpectedPause() */\n      mload(0x40)\n      0x8dfc202b00000000000000000000000000000000000000000000000000000000\n      dup2\n      mstore\n      0x04\n      add\n      mload(0x40)\n      dup1\n      swap2\n      sub\n      swap1\n      revert\n        /* \"@openzeppelin/contracts@5.4.0/utils/Pausable.sol\":2136:2198  if (!paused()) {... */\n    tag_257:\n        /* \"@openzeppelin/contracts@5.4.0/utils/Pausable.sol\":2078:2204  function _requirePaused() internal view virtual {... */\n      jump\t// out\n        /* \"@openzeppelin/contracts@5.4.0/utils/Pausable.sol\":1878:2006  function _requireNotPaused() internal view virtual {... */\n    tag_239:\n        /* \"@openzeppelin/contracts@5.4.0/utils/Pausable.sol\":1943:1951  paused() */\n      tag_259\n        /* \"@openzeppelin/contracts@5.4.0/utils/Pausable.sol\":1943:1949  paused */\n      tag_68\n        /* \"@openzeppelin/contracts@5.4.0/utils/Pausable.sol\":1943:1951  paused() */\n      jump\t// in\n    tag_259:\n        /* \"@openzeppelin/contracts@5.4.0/utils/Pausable.sol\":1939:2000  if (paused()) {... */\n      iszero\n      tag_260\n      jumpi\n        /* \"@openzeppelin/contracts@5.4.0/utils/Pausable.sol\":1974:1989  EnforcedPause() */\n      mload(0x40)\n      0xd93c066500000000000000000000000000000000000000000000000000000000\n      dup2\n      mstore\n      0x04\n      add\n      mload(0x40)\n      dup1\n      swap2\n      sub\n      swap1\n      revert\n        /* \"@openzeppelin/contracts@5.4.0/utils/Pausable.sol\":1939:2000  if (paused()) {... */\n    tag_260:\n        /* \"@openzeppelin/contracts@5.4.0/utils/Pausable.sol\":1878:2006  function _requireNotPaused() internal view virtual {... */\n      jump\t// out\n        /* \"@openzeppelin/contracts@5.4.0/token/ERC20/ERC20.sol\":5912:7019  function _update(address from, address to, uint256 value) internal virtual {... */\n    tag_254:\n        /* \"@openzeppelin/contracts@5.4.0/token/ERC20/ERC20.sol\":6017:6018  0 */\n      0x00\n        /* \"@openzeppelin/contracts@5.4.0/token/ERC20/ERC20.sol\":6001:6019  from == address(0) */\n      0xffffffffffffffffffffffffffffffffffffffff\n      and\n        /* \"@openzeppelin/contracts@5.4.0/token/ERC20/ERC20.sol\":6001:6005  from */\n      dup4\n        /* \"@openzeppelin/contracts@5.4.0/token/ERC20/ERC20.sol\":6001:6019  from == address(0) */\n      0xffffffffffffffffffffffffffffffffffffffff\n      and\n      sub\n        /* \"@openzeppelin/contracts@5.4.0/token/ERC20/ERC20.sol\":5997:6537  if (from == address(0)) {... */\n      tag_262\n      jumpi\n        /* \"@openzeppelin/contracts@5.4.0/token/ERC20/ERC20.sol\":6153:6158  value */\n      dup1\n        /* \"@openzeppelin/contracts@5.4.0/token/ERC20/ERC20.sol\":6137:6149  _totalSupply */\n      0x02\n      0x00\n        /* \"@openzeppelin/contracts@5.4.0/token/ERC20/ERC20.sol\":6137:6158  _totalSupply += value */\n      dup3\n      dup3\n      sload\n      tag_263\n      swap2\n      swap1\n      tag_264\n      jump\t// in\n    tag_263:\n      swap3\n      pop\n      pop\n      dup2\n      swap1\n      sstore\n      pop\n        /* \"@openzeppelin/contracts@5.4.0/token/ERC20/ERC20.sol\":5997:6537  if (from == address(0)) {... */\n      jump(tag_265)\n    tag_262:\n        /* \"@openzeppelin/contracts@5.4.0/token/ERC20/ERC20.sol\":6189:6208  uint256 fromBalance */\n      0x00\n        /* \"@openzeppelin/contracts@5.4.0/token/ERC20/ERC20.sol\":6211:6220  _balances */\n      0x00\n        /* \"@openzeppelin/contracts@5.4.0/token/ERC20/ERC20.sol\":6211:6226  _balances[from] */\n      0x00\n        /* \"@openzeppelin/contracts@5.4.0/token/ERC20/ERC20.sol\":6221:6225  from */\n      dup6\n        /* \"@openzeppelin/contracts@5.4.0/token/ERC20/ERC20.sol\":6211:6226  _balances[from] */\n      0xffffffffffffffffffffffffffffffffffffffff\n      and\n      0xffffffffffffffffffffffffffffffffffffffff\n      and\n      dup2\n      mstore\n      0x20\n      add\n      swap1\n      dup2\n      mstore\n      0x20\n      add\n      0x00\n      keccak256\n      sload\n        /* \"@openzeppelin/contracts@5.4.0/token/ERC20/ERC20.sol\":6189:6226  uint256 fromBalance = _balances[from] */\n      swap1\n      pop\n        /* \"@openzeppelin/contracts@5.4.0/token/ERC20/ERC20.sol\":6258:6263  value */\n      dup2\n        /* \"@openzeppelin/contracts@5.4.0/token/ERC20/ERC20.sol\":6244:6255  fromBalance */\n      dup2\n        /* \"@openzeppelin/contracts@5.4.0/token/ERC20/ERC20.sol\":6244:6263  fromBalance < value */\n      lt\n        /* \"@openzeppelin/contracts@5.4.0/token/ERC20/ERC20.sol\":6240:6355  if (fromBalance < value) {... */\n      iszero\n      tag_266\n      jumpi\n        /* \"@openzeppelin/contracts@5.4.0/token/ERC20/ERC20.sol\":6315:6319  from */\n      dup4\n        /* \"@openzeppelin/contracts@5.4.0/token/ERC20/ERC20.sol\":6321:6332  fromBalance */\n      dup2\n        /* \"@openzeppelin/contracts@5.4.0/token/ERC20/ERC20.sol\":6334:6339  value */\n      dup4\n        /* \"@openzeppelin/contracts@5.4.0/token/ERC20/ERC20.sol\":6290:6340  ERC20InsufficientBalance(from, fromBalance, value) */\n      mload(0x40)\n      0xe450d38c00000000000000000000000000000000000000000000000000000000\n      dup2\n      mstore\n      0x04\n      add\n      tag_267\n      swap4\n      swap3\n      swap2\n      swap1\n      tag_209\n      jump\t// in\n    tag_267:\n      mload(0x40)\n      dup1\n      swap2\n      sub\n      swap1\n      revert\n        /* \"@openzeppelin/contracts@5.4.0/token/ERC20/ERC20.sol\":6240:6355  if (fromBalance < value) {... */\n    tag_266:\n        /* \"@openzeppelin/contracts@5.4.0/token/ERC20/ERC20.sol\":6507:6512  value */\n      dup2\n        /* \"@openzeppelin/contracts@5.4.0/token/ERC20/ERC20.sol\":6493:6504  fromBalance */\n      dup2\n        /* \"@openzeppelin/contracts@5.4.0/token/ERC20/ERC20.sol\":6493:6512  fromBalance - value */\n      sub\n        /* \"@openzeppelin/contracts@5.4.0/token/ERC20/ERC20.sol\":6475:6484  _balances */\n      0x00\n        /* \"@openzeppelin/contracts@5.4.0/token/ERC20/ERC20.sol\":6475:6490  _balances[from] */\n      0x00\n        /* \"@openzeppelin/contracts@5.4.0/token/ERC20/ERC20.sol\":6485:6489  from */\n      dup7\n        /* \"@openzeppelin/contracts@5.4.0/token/ERC20/ERC20.sol\":6475:6490  _balances[from] */\n      0xffffffffffffffffffffffffffffffffffffffff\n      and\n      0xffffffffffffffffffffffffffffffffffffffff\n      and\n      dup2\n      mstore\n      0x20\n      add\n      swap1\n      dup2\n      mstore\n      0x20\n      add\n      0x00\n      keccak256\n        /* \"@openzeppelin/contracts@5.4.0/token/ERC20/ERC20.sol\":6475:6512  _balances[from] = fromBalance - value */\n      dup2\n      swap1\n      sstore\n      pop\n        /* \"@openzeppelin/contracts@5.4.0/token/ERC20/ERC20.sol\":6175:6537  {... */\n      pop\n        /* \"@openzeppelin/contracts@5.4.0/token/ERC20/ERC20.sol\":5997:6537  if (from == address(0)) {... */\n    tag_265:\n        /* \"@openzeppelin/contracts@5.4.0/token/ERC20/ERC20.sol\":6565:6566  0 */\n      0x00\n        /* \"@openzeppelin/contracts@5.4.0/token/ERC20/ERC20.sol\":6551:6567  to == address(0) */\n      0xffffffffffffffffffffffffffffffffffffffff\n      and\n        /* \"@openzeppelin/contracts@5.4.0/token/ERC20/ERC20.sol\":6551:6553  to */\n      dup3\n        /* \"@openzeppelin/contracts@5.4.0/token/ERC20/ERC20.sol\":6551:6567  to == address(0) */\n      0xffffffffffffffffffffffffffffffffffffffff\n      and\n      sub\n        /* \"@openzeppelin/contracts@5.4.0/token/ERC20/ERC20.sol\":6547:6972  if (to == address(0)) {... */\n      tag_268\n      jumpi\n        /* \"@openzeppelin/contracts@5.4.0/token/ERC20/ERC20.sol\":6730:6735  value */\n      dup1\n        /* \"@openzeppelin/contracts@5.4.0/token/ERC20/ERC20.sol\":6714:6726  _totalSupply */\n      0x02\n      0x00\n        /* \"@openzeppelin/contracts@5.4.0/token/ERC20/ERC20.sol\":6714:6735  _totalSupply -= value */\n      dup3\n      dup3\n      sload\n      sub\n      swap3\n      pop\n      pop\n      dup2\n      swap1\n      sstore\n      pop\n        /* \"@openzeppelin/contracts@5.4.0/token/ERC20/ERC20.sol\":6547:6972  if (to == address(0)) {... */\n      jump(tag_269)\n    tag_268:\n        /* \"@openzeppelin/contracts@5.4.0/token/ERC20/ERC20.sol\":6942:6947  value */\n      dup1\n        /* \"@openzeppelin/contracts@5.4.0/token/ERC20/ERC20.sol\":6925:6934  _balances */\n      0x00\n        /* \"@openzeppelin/contracts@5.4.0/token/ERC20/ERC20.sol\":6925:6938  _balances[to] */\n      0x00\n        /* \"@openzeppelin/contracts@5.4.0/token/ERC20/ERC20.sol\":6935:6937  to */\n      dup5\n        /* \"@openzeppelin/contracts@5.4.0/token/ERC20/ERC20.sol\":6925:6938  _balances[to] */\n      0xffffffffffffffffffffffffffffffffffffffff\n      and\n      0xffffffffffffffffffffffffffffffffffffffff\n      and\n      dup2\n      mstore\n      0x20\n      add\n      swap1\n      dup2\n      mstore\n      0x20\n      add\n      0x00\n      keccak256\n      0x00\n        /* \"@openzeppelin/contracts@5.4.0/token/ERC20/ERC20.sol\":6925:6947  _balances[to] += value */\n      dup3\n      dup3\n      sload\n      add\n      swap3\n      pop\n      pop\n      dup2\n      swap1\n      sstore\n      pop\n        /* \"@openzeppelin/contracts@5.4.0/token/ERC20/ERC20.sol\":6547:6972  if (to == address(0)) {... */\n    tag_269:\n        /* \"@openzeppelin/contracts@5.4.0/token/ERC20/ERC20.sol\":7002:7004  to */\n      dup2\n        /* \"@openzeppelin/contracts@5.4.0/token/ERC20/ERC20.sol\":6987:7012  Transfer(from, to, value) */\n      0xffffffffffffffffffffffffffffffffffffffff\n      and\n        /* \"@openzeppelin/contracts@5.4.0/token/ERC20/ERC20.sol\":6996:7000  from */\n      dup4\n        /* \"@openzeppelin/contracts@5.4.0/token/ERC20/ERC20.sol\":6987:7012  Transfer(from, to, value) */\n      0xffffffffffffffffffffffffffffffffffffffff\n      and\n      0xddf252ad1be2c89b69c2b068fc378daa952ba7f163c4a11628f55a4df523b3ef\n        /* \"@openzeppelin/contracts@5.4.0/token/ERC20/ERC20.sol\":7006:7011  value */\n      dup4\n        /* \"@openzeppelin/contracts@5.4.0/token/ERC20/ERC20.sol\":6987:7012  Transfer(from, to, value) */\n      mload(0x40)\n      tag_270\n      swap2\n      swap1\n      tag_45\n      jump\t// in\n    tag_270:\n      mload(0x40)\n      dup1\n      swap2\n      sub\n      swap1\n      log3\n        /* \"@openzeppelin/contracts@5.4.0/token/ERC20/ERC20.sol\":5912:7019  function _update(address from, address to, uint256 value) internal virtual {... */\n      pop\n      pop\n      pop\n      jump\t// out\n        /* \"#utility.yul\":7:106   */\n    tag_271:\n        /* \"#utility.yul\":59:65   */\n      0x00\n        /* \"#utility.yul\":93:98   */\n      dup2\n        /* \"#utility.yul\":87:99   */\n      mload\n        /* \"#utility.yul\":77:99   */\n      swap1\n      pop\n        /* \"#utility.yul\":7:106   */\n      swap2\n      swap1\n      pop\n      jump\t// out\n        /* \"#utility.yul\":112:281   */\n    tag_272:\n        /* \"#utility.yul\":196:207   */\n      0x00\n        /* \"#utility.yul\":230:236   */\n      dup3\n        /* \"#utility.yul\":225:228   */\n      dup3\n        /* \"#utility.yul\":218:237   */\n      mstore\n        /* \"#utility.yul\":270:274   */\n      0x20\n        /* \"#utility.yul\":265:268   */\n      dup3\n        /* \"#utility.yul\":261:275   */\n      add\n        /* \"#utility.yul\":246:275   */\n      swap1\n      pop\n        /* \"#utility.yul\":112:281   */\n      swap3\n      swap2\n      pop\n      pop\n      jump\t// out\n        /* \"#utility.yul\":287:426   */\n    tag_273:\n        /* \"#utility.yul\":376:382   */\n      dup3\n        /* \"#utility.yul\":371:374   */\n      dup2\n        /* \"#utility.yul\":366:369   */\n      dup4\n        /* \"#utility.yul\":360:383   */\n      mcopy\n        /* \"#utility.yul\":417:418   */\n      0x00\n        /* \"#utility.yul\":408:414   */\n      dup4\n        /* \"#utility.yul\":403:406   */\n      dup4\n        /* \"#utility.yul\":399:415   */\n      add\n        /* \"#utility.yul\":392:419   */\n      mstore\n        /* \"#utility.yul\":287:426   */\n      pop\n      pop\n      pop\n      jump\t// out\n        /* \"#utility.yul\":432:534   */\n    tag_274:\n        /* \"#utility.yul\":473:479   */\n      0x00\n        /* \"#utility.yul\":524:526   */\n      0x1f\n        /* \"#utility.yul\":520:527   */\n      not\n        /* \"#utility.yul\":515:517   */\n      0x1f\n        /* \"#utility.yul\":508:513   */\n      dup4\n        /* \"#utility.yul\":504:518   */\n      add\n        /* \"#utility.yul\":500:528   */\n      and\n        /* \"#utility.yul\":490:528   */\n      swap1\n      pop\n        /* \"#utility.yul\":432:534   */\n      swap2\n      swap1\n      pop\n      jump\t// out\n        /* \"#utility.yul\":540:917   */\n    tag_275:\n        /* \"#utility.yul\":628:631   */\n      0x00\n        /* \"#utility.yul\":656:695   */\n      tag_303\n        /* \"#utility.yul\":689:694   */\n      dup3\n        /* \"#utility.yul\":656:695   */\n      tag_271\n      jump\t// in\n    tag_303:\n        /* \"#utility.yul\":711:782   */\n      tag_304\n        /* \"#utility.yul\":775:781   */\n      dup2\n        /* \"#utility.yul\":770:773   */\n      dup6\n        /* \"#utility.yul\":711:782   */\n      tag_272\n      jump\t// in\n    tag_304:\n        /* \"#utility.yul\":704:782   */\n      swap4\n      pop\n        /* \"#utility.yul\":791:856   */\n      tag_305\n        /* \"#utility.yul\":849:855   */\n      dup2\n        /* \"#utility.yul\":844:847   */\n      dup6\n        /* \"#utility.yul\":837:841   */\n      0x20\n        /* \"#utility.yul\":830:835   */\n      dup7\n        /* \"#utility.yul\":826:842   */\n      add\n        /* \"#utility.yul\":791:856   */\n      tag_273\n      jump\t// in\n    tag_305:\n        /* \"#utility.yul\":881:910   */\n      tag_306\n        /* \"#utility.yul\":903:909   */\n      dup2\n        /* \"#utility.yul\":881:910   */\n      tag_274\n      jump\t// in\n    tag_306:\n        /* \"#utility.yul\":876:879   */\n      dup5\n        /* \"#utility.yul\":872:911   */\n      add\n        /* \"#utility.yul\":865:911   */\n      swap2\n      pop\n        /* \"#utility.yul\":632:917   */\n      pop\n        /* \"#utility.yul\":540:917   */\n      swap3\n      swap2\n      pop\n      pop\n      jump\t// out\n        /* \"#utility.yul\":923:1236   */\n    tag_35:\n        /* \"#utility.yul\":1036:1040   */\n      0x00\n        /* \"#utility.yul\":1074:1076   */\n      0x20\n        /* \"#utility.yul\":1063:1072   */\n      dup3\n        /* \"#utility.yul\":1059:1077   */\n      add\n        /* \"#utility.yul\":1051:1077   */\n      swap1\n      pop\n        /* \"#utility.yul\":1123:1132   */\n      dup2\n        /* \"#utility.yul\":1117:1121   */\n      dup2\n        /* \"#utility.yul\":1113:1133   */\n      sub\n        /* \"#utility.yul\":1109:1110   */\n      0x00\n        /* \"#utility.yul\":1098:1107   */\n      dup4\n        /* \"#utility.yul\":1094:1111   */\n      add\n        /* \"#utility.yul\":1087:1134   */\n      mstore\n        /* \"#utility.yul\":1151:1229   */\n      tag_308\n        /* \"#utility.yul\":1224:1228   */\n      dup2\n        /* \"#utility.yul\":1215:1221   */\n      dup5\n        /* \"#utility.yul\":1151:1229   */\n      tag_275\n      jump\t// in\n    tag_308:\n        /* \"#utility.yul\":1143:1229   */\n      swap1\n      pop\n        /* \"#utility.yul\":923:1236   */\n      swap3\n      swap2\n      pop\n      pop\n      jump\t// out\n        /* \"#utility.yul\":1323:1440   */\n    tag_277:\n        /* \"#utility.yul\":1432:1433   */\n      0x00\n        /* \"#utility.yul\":1429:1430   */\n      0x00\n        /* \"#utility.yul\":1422:1434   */\n      revert\n        /* \"#utility.yul\":1569:1695   */\n    tag_279:\n        /* \"#utility.yul\":1606:1613   */\n      0x00\n        /* \"#utility.yul\":1646:1688   */\n      0xffffffffffffffffffffffffffffffffffffffff\n        /* \"#utility.yul\":1639:1644   */\n      dup3\n        /* \"#utility.yul\":1635:1689   */\n      and\n        /* \"#utility.yul\":1624:1689   */\n      swap1\n      pop\n        /* \"#utility.yul\":1569:1695   */\n      swap2\n      swap1\n      pop\n      jump\t// out\n        /* \"#utility.yul\":1701:1797   */\n    tag_280:\n        /* \"#utility.yul\":1738:1745   */\n      0x00\n        /* \"#utility.yul\":1767:1791   */\n      tag_314\n        /* \"#utility.yul\":1785:1790   */\n      dup3\n        /* \"#utility.yul\":1767:1791   */\n      tag_279\n      jump\t// in\n    tag_314:\n        /* \"#utility.yul\":1756:1791   */\n      swap1\n      pop\n        /* \"#utility.yul\":1701:1797   */\n      swap2\n      swap1\n      pop\n      jump\t// out\n        /* \"#utility.yul\":1803:1925   */\n    tag_281:\n        /* \"#utility.yul\":1876:1900   */\n      tag_316\n        /* \"#utility.yul\":1894:1899   */\n      dup2\n        /* \"#utility.yul\":1876:1900   */\n      tag_280\n      jump\t// in\n    tag_316:\n        /* \"#utility.yul\":1869:1874   */\n      dup2\n        /* \"#utility.yul\":1866:1901   */\n      eq\n        /* \"#utility.yul\":1856:1919   */\n      tag_317\n      jumpi\n        /* \"#utility.yul\":1915:1916   */\n      0x00\n        /* \"#utility.yul\":1912:1913   */\n      0x00\n        /* \"#utility.yul\":1905:1917   */\n      revert\n        /* \"#utility.yul\":1856:1919   */\n    tag_317:\n        /* \"#utility.yul\":1803:1925   */\n      pop\n      jump\t// out\n        /* \"#utility.yul\":1931:2070   */\n    tag_282:\n        /* \"#utility.yul\":1977:1982   */\n      0x00\n        /* \"#utility.yul\":2015:2021   */\n      dup2\n        /* \"#utility.yul\":2002:2022   */\n      calldataload\n        /* \"#utility.yul\":1993:2022   */\n      swap1\n      pop\n        /* \"#utility.yul\":2031:2064   */\n      tag_319\n        /* \"#utility.yul\":2058:2063   */\n      dup2\n        /* \"#utility.yul\":2031:2064   */\n      tag_281\n      jump\t// in\n    tag_319:\n        /* \"#utility.yul\":1931:2070   */\n      swap3\n      swap2\n      pop\n      pop\n      jump\t// out\n        /* \"#utility.yul\":2076:2153   */\n    tag_283:\n        /* \"#utility.yul\":2113:2120   */\n      0x00\n        /* \"#utility.yul\":2142:2147   */\n      dup2\n        /* \"#utility.yul\":2131:2147   */\n      swap1\n      pop\n        /* \"#utility.yul\":2076:2153   */\n      swap2\n      swap1\n      pop\n      jump\t// out\n        /* \"#utility.yul\":2159:2281   */\n    tag_284:\n        /* \"#utility.yul\":2232:2256   */\n      tag_322\n        /* \"#utility.yul\":2250:2255   */\n      dup2\n        /* \"#utility.yul\":2232:2256   */\n      tag_283\n      jump\t// in\n    tag_322:\n        /* \"#utility.yul\":2225:2230   */\n      dup2\n        /* \"#utility.yul\":2222:2257   */\n      eq\n        /* \"#utility.yul\":2212:2275   */\n      tag_323\n      jumpi\n        /* \"#utility.yul\":2271:2272   */\n      0x00\n        /* \"#utility.yul\":2268:2269   */\n      0x00\n        /* \"#utility.yul\":2261:2273   */\n      revert\n        /* \"#utility.yul\":2212:2275   */\n    tag_323:\n        /* \"#utility.yul\":2159:2281   */\n      pop\n      jump\t// out\n        /* \"#utility.yul\":2287:2426   */\n    tag_285:\n        /* \"#utility.yul\":2333:2338   */\n      0x00\n        /* \"#utility.yul\":2371:2377   */\n      dup2\n        /* \"#utility.yul\":2358:2378   */\n      calldataload\n        /* \"#utility.yul\":2349:2378   */\n      swap1\n      pop\n        /* \"#utility.yul\":2387:2420   */\n      tag_325\n        /* \"#utility.yul\":2414:2419   */\n      dup2\n        /* \"#utility.yul\":2387:2420   */\n      tag_284\n      jump\t// in\n    tag_325:\n        /* \"#utility.yul\":2287:2426   */\n      swap3\n      swap2\n      pop\n      pop\n      jump\t// out\n        /* \"#utility.yul\":2432:2906   */\n    tag_38:\n        /* \"#utility.yul\":2500:2506   */\n      0x00\n        /* \"#utility.yul\":2508:2514   */\n      0x00\n        /* \"#utility.yul\":2557:2559   */\n      0x40\n        /* \"#utility.yul\":2545:2554   */\n      dup4\n        /* \"#utility.yul\":2536:2543   */\n      dup6\n        /* \"#utility.yul\":2532:2555   */\n      sub\n        /* \"#utility.yul\":2528:2560   */\n      slt\n        /* \"#utility.yul\":2525:2644   */\n      iszero\n      tag_327\n      jumpi\n        /* \"#utility.yul\":2563:2642   */\n      tag_328\n      tag_277\n      jump\t// in\n    tag_328:\n        /* \"#utility.yul\":2525:2644   */\n    tag_327:\n        /* \"#utility.yul\":2683:2684   */\n      0x00\n        /* \"#utility.yul\":2708:2761   */\n      tag_329\n        /* \"#utility.yul\":2753:2760   */\n      dup6\n        /* \"#utility.yul\":2744:2750   */\n      dup3\n        /* \"#utility.yul\":2733:2742   */\n      dup7\n        /* \"#utility.yul\":2729:2751   */\n      add\n        /* \"#utility.yul\":2708:2761   */\n      tag_282\n      jump\t// in\n    tag_329:\n        /* \"#utility.yul\":2698:2761   */\n      swap3\n      pop\n        /* \"#utility.yul\":2654:2771   */\n      pop\n        /* \"#utility.yul\":2810:2812   */\n      0x20\n        /* \"#utility.yul\":2836:2889   */\n      tag_330\n        /* \"#utility.yul\":2881:2888   */\n      dup6\n        /* \"#utility.yul\":2872:2878   */\n      dup3\n        /* \"#utility.yul\":2861:2870   */\n      dup7\n        /* \"#utility.yul\":2857:2879   */\n      add\n        /* \"#utility.yul\":2836:2889   */\n      tag_285\n      jump\t// in\n    tag_330:\n        /* \"#utility.yul\":2826:2889   */\n      swap2\n      pop\n        /* \"#utility.yul\":2781:2899   */\n      pop\n        /* \"#utility.yul\":2432:2906   */\n      swap3\n      pop\n      swap3\n      swap1\n      pop\n      jump\t// out\n        /* \"#utility.yul\":2912:3002   */\n    tag_286:\n        /* \"#utility.yul\":2946:2953   */\n      0x00\n        /* \"#utility.yul\":2989:2994   */\n      dup2\n        /* \"#utility.yul\":2982:2995   */\n      iszero\n        /* \"#utility.yul\":2975:2996   */\n      iszero\n        /* \"#utility.yul\":2964:2996   */\n      swap1\n      pop\n        /* \"#utility.yul\":2912:3002   */\n      swap2\n      swap1\n      pop\n      jump\t// out\n        /* \"#utility.yul\":3008:3117   */\n    tag_287:\n        /* \"#utility.yul\":3089:3110   */\n      tag_333\n        /* \"#utility.yul\":3104:3109   */\n      dup2\n        /* \"#utility.yul\":3089:3110   */\n      tag_286\n      jump\t// in\n    tag_333:\n        /* \"#utility.yul\":3084:3087   */\n      dup3\n        /* \"#utility.yul\":3077:3111   */\n      mstore\n        /* \"#utility.yul\":3008:3117   */\n      pop\n      pop\n      jump\t// out\n        /* \"#utility.yul\":3123:3333   */\n    tag_41:\n        /* \"#utility.yul\":3210:3214   */\n      0x00\n        /* \"#utility.yul\":3248:3250   */\n      0x20\n        /* \"#utility.yul\":3237:3246   */\n      dup3\n        /* \"#utility.yul\":3233:3251   */\n      add\n        /* \"#utility.yul\":3225:3251   */\n      swap1\n      pop\n        /* \"#utility.yul\":3261:3326   */\n      tag_335\n        /* \"#utility.yul\":3323:3324   */\n      0x00\n        /* \"#utility.yul\":3312:3321   */\n      dup4\n        /* \"#utility.yul\":3308:3325   */\n      add\n        /* \"#utility.yul\":3299:3305   */\n      dup5\n        /* \"#utility.yul\":3261:3326   */\n      tag_287\n      jump\t// in\n    tag_335:\n        /* \"#utility.yul\":3123:3333   */\n      swap3\n      swap2\n      pop\n      pop\n      jump\t// out\n        /* \"#utility.yul\":3339:3457   */\n    tag_288:\n        /* \"#utility.yul\":3426:3450   */\n      tag_337\n        /* \"#utility.yul\":3444:3449   */\n      dup2\n        /* \"#utility.yul\":3426:3450   */\n      tag_283\n      jump\t// in\n    tag_337:\n        /* \"#utility.yul\":3421:3424   */\n      dup3\n        /* \"#utility.yul\":3414:3451   */\n      mstore\n        /* \"#utility.yul\":3339:3457   */\n      pop\n      pop\n      jump\t// out\n        /* \"#utility.yul\":3463:3685   */\n    tag_45:\n        /* \"#utility.yul\":3556:3560   */\n      0x00\n        /* \"#utility.yul\":3594:3596   */\n      0x20\n        /* \"#utility.yul\":3583:3592   */\n      dup3\n        /* \"#utility.yul\":3579:3597   */\n      add\n        /* \"#utility.yul\":3571:3597   */\n      swap1\n      pop\n        /* \"#utility.yul\":3607:3678   */\n      tag_339\n        /* \"#utility.yul\":3675:3676   */\n      0x00\n        /* \"#utility.yul\":3664:3673   */\n      dup4\n        /* \"#utility.yul\":3660:3677   */\n      add\n        /* \"#utility.yul\":3651:3657   */\n      dup5\n        /* \"#utility.yul\":3607:3678   */\n      tag_288\n      jump\t// in\n    tag_339:\n        /* \"#utility.yul\":3463:3685   */\n      swap3\n      swap2\n      pop\n      pop\n      jump\t// out\n        /* \"#utility.yul\":3691:4310   */\n    tag_48:\n        /* \"#utility.yul\":3768:3774   */\n      0x00\n        /* \"#utility.yul\":3776:3782   */\n      0x00\n        /* \"#utility.yul\":3784:3790   */\n      0x00\n        /* \"#utility.yul\":3833:3835   */\n      0x60\n        /* \"#utility.yul\":3821:3830   */\n      dup5\n        /* \"#utility.yul\":3812:3819   */\n      dup7\n        /* \"#utility.yul\":3808:3831   */\n      sub\n        /* \"#utility.yul\":3804:3836   */\n      slt\n        /* \"#utility.yul\":3801:3920   */\n      iszero\n      tag_341\n      jumpi\n        /* \"#utility.yul\":3839:3918   */\n      tag_342\n      tag_277\n      jump\t// in\n    tag_342:\n        /* \"#utility.yul\":3801:3920   */\n    tag_341:\n        /* \"#utility.yul\":3959:3960   */\n      0x00\n        /* \"#utility.yul\":3984:4037   */\n      tag_343\n        /* \"#utility.yul\":4029:4036   */\n      dup7\n        /* \"#utility.yul\":4020:4026   */\n      dup3\n        /* \"#utility.yul\":4009:4018   */\n      dup8\n        /* \"#utility.yul\":4005:4027   */\n      add\n        /* \"#utility.yul\":3984:4037   */\n      tag_282\n      jump\t// in\n    tag_343:\n        /* \"#utility.yul\":3974:4037   */\n      swap4\n      pop\n        /* \"#utility.yul\":3930:4047   */\n      pop\n        /* \"#utility.yul\":4086:4088   */\n      0x20\n        /* \"#utility.yul\":4112:4165   */\n      tag_344\n        /* \"#utility.yul\":4157:4164   */\n      dup7\n        /* \"#utility.yul\":4148:4154   */\n      dup3\n        /* \"#utility.yul\":4137:4146   */\n      dup8\n        /* \"#utility.yul\":4133:4155   */\n      add\n        /* \"#utility.yul\":4112:4165   */\n      tag_282\n      jump\t// in\n    tag_344:\n        /* \"#utility.yul\":4102:4165   */\n      swap3\n      pop\n        /* \"#utility.yul\":4057:4175   */\n      pop\n        /* \"#utility.yul\":4214:4216   */\n      0x40\n        /* \"#utility.yul\":4240:4293   */\n      tag_345\n        /* \"#utility.yul\":4285:4292   */\n      dup7\n        /* \"#utility.yul\":4276:4282   */\n      dup3\n        /* \"#utility.yul\":4265:4274   */\n      dup8\n        /* \"#utility.yul\":4261:4283   */\n      add\n        /* \"#utility.yul\":4240:4293   */\n      tag_285\n      jump\t// in\n    tag_345:\n        /* \"#utility.yul\":4230:4293   */\n      swap2\n      pop\n        /* \"#utility.yul\":4185:4303   */\n      pop\n        /* \"#utility.yul\":3691:4310   */\n      swap3\n      pop\n      swap3\n      pop\n      swap3\n      jump\t// out\n        /* \"#utility.yul\":4316:4402   */\n    tag_289:\n        /* \"#utility.yul\":4351:4358   */\n      0x00\n        /* \"#utility.yul\":4391:4395   */\n      0xff\n        /* \"#utility.yul\":4384:4389   */\n      dup3\n        /* \"#utility.yul\":4380:4396   */\n      and\n        /* \"#utility.yul\":4369:4396   */\n      swap1\n      pop\n        /* \"#utility.yul\":4316:4402   */\n      swap2\n      swap1\n      pop\n      jump\t// out\n        /* \"#utility.yul\":4408:4520   */\n    tag_290:\n        /* \"#utility.yul\":4491:4513   */\n      tag_348\n        /* \"#utility.yul\":4507:4512   */\n      dup2\n        /* \"#utility.yul\":4491:4513   */\n      tag_289\n      jump\t// in\n    tag_348:\n        /* \"#utility.yul\":4486:4489   */\n      dup3\n        /* \"#utility.yul\":4479:4514   */\n      mstore\n        /* \"#utility.yul\":4408:4520   */\n      pop\n      pop\n      jump\t// out\n        /* \"#utility.yul\":4526:4740   */\n    tag_54:\n        /* \"#utility.yul\":4615:4619   */\n      0x00\n        /* \"#utility.yul\":4653:4655   */\n      0x20\n        /* \"#utility.yul\":4642:4651   */\n      dup3\n        /* \"#utility.yul\":4638:4656   */\n      add\n        /* \"#utility.yul\":4630:4656   */\n      swap1\n      pop\n        /* \"#utility.yul\":4666:4733   */\n      tag_350\n        /* \"#utility.yul\":4730:4731   */\n      0x00\n        /* \"#utility.yul\":4719:4728   */\n      dup4\n        /* \"#utility.yul\":4715:4732   */\n      add\n        /* \"#utility.yul\":4706:4712   */\n      dup5\n        /* \"#utility.yul\":4666:4733   */\n      tag_290\n      jump\t// in\n    tag_350:\n        /* \"#utility.yul\":4526:4740   */\n      swap3\n      swap2\n      pop\n      pop\n      jump\t// out\n        /* \"#utility.yul\":4746:5075   */\n    tag_57:\n        /* \"#utility.yul\":4805:4811   */\n      0x00\n        /* \"#utility.yul\":4854:4856   */\n      0x20\n        /* \"#utility.yul\":4842:4851   */\n      dup3\n        /* \"#utility.yul\":4833:4840   */\n      dup5\n        /* \"#utility.yul\":4829:4852   */\n      sub\n        /* \"#utility.yul\":4825:4857   */\n      slt\n        /* \"#utility.yul\":4822:4941   */\n      iszero\n      tag_352\n      jumpi\n        /* \"#utility.yul\":4860:4939   */\n      tag_353\n      tag_277\n      jump\t// in\n    tag_353:\n        /* \"#utility.yul\":4822:4941   */\n    tag_352:\n        /* \"#utility.yul\":4980:4981   */\n      0x00\n        /* \"#utility.yul\":5005:5058   */\n      tag_354\n        /* \"#utility.yul\":5050:5057   */\n      dup5\n        /* \"#utility.yul\":5041:5047   */\n      dup3\n        /* \"#utility.yul\":5030:5039   */\n      dup6\n        /* \"#utility.yul\":5026:5048   */\n      add\n        /* \"#utility.yul\":5005:5058   */\n      tag_282\n      jump\t// in\n    tag_354:\n        /* \"#utility.yul\":4995:5058   */\n      swap2\n      pop\n        /* \"#utility.yul\":4951:5068   */\n      pop\n        /* \"#utility.yul\":4746:5075   */\n      swap3\n      swap2\n      pop\n      pop\n      jump\t// out\n        /* \"#utility.yul\":5081:5410   */\n    tag_64:\n        /* \"#utility.yul\":5140:5146   */\n      0x00\n        /* \"#utility.yul\":5189:5191   */\n      0x20\n        /* \"#utility.yul\":5177:5186   */\n      dup3\n        /* \"#utility.yul\":5168:5175   */\n      dup5\n        /* \"#utility.yul\":5164:5187   */\n      sub\n        /* \"#utility.yul\":5160:5192   */\n      slt\n        /* \"#utility.yul\":5157:5276   */\n      iszero\n      tag_356\n      jumpi\n        /* \"#utility.yul\":5195:5274   */\n      tag_357\n      tag_277\n      jump\t// in\n    tag_357:\n        /* \"#utility.yul\":5157:5276   */\n    tag_356:\n        /* \"#utility.yul\":5315:5316   */\n      0x00\n        /* \"#utility.yul\":5340:5393   */\n      tag_358\n        /* \"#utility.yul\":5385:5392   */\n      dup5\n        /* \"#utility.yul\":5376:5382   */\n      dup3\n        /* \"#utility.yul\":5365:5374   */\n      dup6\n        /* \"#utility.yul\":5361:5383   */\n      add\n        /* \"#utility.yul\":5340:5393   */\n      tag_285\n      jump\t// in\n    tag_358:\n        /* \"#utility.yul\":5330:5393   */\n      swap2\n      pop\n        /* \"#utility.yul\":5286:5403   */\n      pop\n        /* \"#utility.yul\":5081:5410   */\n      swap3\n      swap2\n      pop\n      pop\n      jump\t// out\n        /* \"#utility.yul\":5416:5534   */\n    tag_291:\n        /* \"#utility.yul\":5503:5527   */\n      tag_360\n        /* \"#utility.yul\":5521:5526   */\n      dup2\n        /* \"#utility.yul\":5503:5527   */\n      tag_280\n      jump\t// in\n    tag_360:\n        /* \"#utility.yul\":5498:5501   */\n      dup3\n        /* \"#utility.yul\":5491:5528   */\n      mstore\n        /* \"#utility.yul\":5416:5534   */\n      pop\n      pop\n      jump\t// out\n        /* \"#utility.yul\":5540:5762   */\n    tag_73:\n        /* \"#utility.yul\":5633:5637   */\n      0x00\n        /* \"#utility.yul\":5671:5673   */\n      0x20\n        /* \"#utility.yul\":5660:5669   */\n      dup3\n        /* \"#utility.yul\":5656:5674   */\n      add\n        /* \"#utility.yul\":5648:5674   */\n      swap1\n      pop\n        /* \"#utility.yul\":5684:5755   */\n      tag_362\n        /* \"#utility.yul\":5752:5753   */\n      0x00\n        /* \"#utility.yul\":5741:5750   */\n      dup4\n        /* \"#utility.yul\":5737:5754   */\n      add\n        /* \"#utility.yul\":5728:5734   */\n      dup5\n        /* \"#utility.yul\":5684:5755   */\n      tag_291\n      jump\t// in\n    tag_362:\n        /* \"#utility.yul\":5540:5762   */\n      swap3\n      swap2\n      pop\n      pop\n      jump\t// out\n        /* \"#utility.yul\":5768:5884   */\n    tag_292:\n        /* \"#utility.yul\":5838:5859   */\n      tag_364\n        /* \"#utility.yul\":5853:5858   */\n      dup2\n        /* \"#utility.yul\":5838:5859   */\n      tag_286\n      jump\t// in\n    tag_364:\n        /* \"#utility.yul\":5831:5836   */\n      dup2\n        /* \"#utility.yul\":5828:5860   */\n      eq\n        /* \"#utility.yul\":5818:5878   */\n      tag_365\n      jumpi\n        /* \"#utility.yul\":5874:5875   */\n      0x00\n        /* \"#utility.yul\":5871:5872   */\n      0x00\n        /* \"#utility.yul\":5864:5876   */\n      revert\n        /* \"#utility.yul\":5818:5878   */\n    tag_365:\n        /* \"#utility.yul\":5768:5884   */\n      pop\n      jump\t// out\n        /* \"#utility.yul\":5890:6023   */\n    tag_293:\n        /* \"#utility.yul\":5933:5938   */\n      0x00\n        /* \"#utility.yul\":5971:5977   */\n      dup2\n        /* \"#utility.yul\":5958:5978   */\n      calldataload\n        /* \"#utility.yul\":5949:5978   */\n      swap1\n      pop\n        /* \"#utility.yul\":5987:6017   */\n      tag_367\n        /* \"#utility.yul\":6011:6016   */\n      dup2\n        /* \"#utility.yul\":5987:6017   */\n      tag_292\n      jump\t// in\n    tag_367:\n        /* \"#utility.yul\":5890:6023   */\n      swap3\n      swap2\n      pop\n      pop\n      jump\t// out\n        /* \"#utility.yul\":6029:6497   */\n    tag_82:\n        /* \"#utility.yul\":6094:6100   */\n      0x00\n        /* \"#utility.yul\":6102:6108   */\n      0x00\n        /* \"#utility.yul\":6151:6153   */\n      0x40\n        /* \"#utility.yul\":6139:6148   */\n      dup4\n        /* \"#utility.yul\":6130:6137   */\n      dup6\n        /* \"#utility.yul\":6126:6149   */\n      sub\n        /* \"#utility.yul\":6122:6154   */\n      slt\n        /* \"#utility.yul\":6119:6238   */\n      iszero\n      tag_369\n      jumpi\n        /* \"#utility.yul\":6157:6236   */\n      tag_370\n      tag_277\n      jump\t// in\n    tag_370:\n        /* \"#utility.yul\":6119:6238   */\n    tag_369:\n        /* \"#utility.yul\":6277:6278   */\n      0x00\n        /* \"#utility.yul\":6302:6355   */\n      tag_371\n        /* \"#utility.yul\":6347:6354   */\n      dup6\n        /* \"#utility.yul\":6338:6344   */\n      dup3\n        /* \"#utility.yul\":6327:6336   */\n      dup7\n        /* \"#utility.yul\":6323:6345   */\n      add\n        /* \"#utility.yul\":6302:6355   */\n      tag_282\n      jump\t// in\n    tag_371:\n        /* \"#utility.yul\":6292:6355   */\n      swap3\n      pop\n        /* \"#utility.yul\":6248:6365   */\n      pop\n        /* \"#utility.yul\":6404:6406   */\n      0x20\n        /* \"#utility.yul\":6430:6480   */\n      tag_372\n        /* \"#utility.yul\":6472:6479   */\n      dup6\n        /* \"#utility.yul\":6463:6469   */\n      dup3\n        /* \"#utility.yul\":6452:6461   */\n      dup7\n        /* \"#utility.yul\":6448:6470   */\n      add\n        /* \"#utility.yul\":6430:6480   */\n      tag_293\n      jump\t// in\n    tag_372:\n        /* \"#utility.yul\":6420:6480   */\n      swap2\n      pop\n        /* \"#utility.yul\":6375:6490   */\n      pop\n        /* \"#utility.yul\":6029:6497   */\n      swap3\n      pop\n      swap3\n      swap1\n      pop\n      jump\t// out\n        /* \"#utility.yul\":6503:6977   */\n    tag_113:\n        /* \"#utility.yul\":6571:6577   */\n      0x00\n        /* \"#utility.yul\":6579:6585   */\n      0x00\n        /* \"#utility.yul\":6628:6630   */\n      0x40\n        /* \"#utility.yul\":6616:6625   */\n      dup4\n        /* \"#utility.yul\":6607:6614   */\n      dup6\n        /* \"#utility.yul\":6603:6626   */\n      sub\n        /* \"#utility.yul\":6599:6631   */\n      slt\n        /* \"#utility.yul\":6596:6715   */\n      iszero\n      tag_374\n      jumpi\n        /* \"#utility.yul\":6634:6713   */\n      tag_375\n      tag_277\n      jump\t// in\n    tag_375:\n        /* \"#utility.yul\":6596:6715   */\n    tag_374:\n        /* \"#utility.yul\":6754:6755   */\n      0x00\n        /* \"#utility.yul\":6779:6832   */\n      tag_376\n        /* \"#utility.yul\":6824:6831   */\n      dup6\n        /* \"#utility.yul\":6815:6821   */\n      dup3\n        /* \"#utility.yul\":6804:6813   */\n      dup7\n        /* \"#utility.yul\":6800:6822   */\n      add\n        /* \"#utility.yul\":6779:6832   */\n      tag_282\n      jump\t// in\n    tag_376:\n        /* \"#utility.yul\":6769:6832   */\n      swap3\n      pop\n        /* \"#utility.yul\":6725:6842   */\n      pop\n        /* \"#utility.yul\":6881:6883   */\n      0x20\n        /* \"#utility.yul\":6907:6960   */\n      tag_377\n        /* \"#utility.yul\":6952:6959   */\n      dup6\n        /* \"#utility.yul\":6943:6949   */\n      dup3\n        /* \"#utility.yul\":6932:6941   */\n      dup7\n        /* \"#utility.yul\":6928:6950   */\n      add\n        /* \"#utility.yul\":6907:6960   */\n      tag_282\n      jump\t// in\n    tag_377:\n        /* \"#utility.yul\":6897:6960   */\n      swap2\n      pop\n        /* \"#utility.yul\":6852:6970   */\n      pop\n        /* \"#utility.yul\":6503:6977   */\n      swap3\n      pop\n      swap3\n      swap1\n      pop\n      jump\t// out\n        /* \"#utility.yul\":6983:7163   */\n    tag_294:\n        /* \"#utility.yul\":7031:7108   */\n      0x4e487b7100000000000000000000000000000000000000000000000000000000\n        /* \"#utility.yul\":7028:7029   */\n      0x00\n        /* \"#utility.yul\":7021:7109   */\n      mstore\n        /* \"#utility.yul\":7128:7132   */\n      0x22\n        /* \"#utility.yul\":7125:7126   */\n      0x04\n        /* \"#utility.yul\":7118:7133   */\n      mstore\n        /* \"#utility.yul\":7152:7156   */\n      0x24\n        /* \"#utility.yul\":7149:7150   */\n      0x00\n        /* \"#utility.yul\":7142:7157   */\n      revert\n        /* \"#utility.yul\":7169:7489   */\n    tag_124:\n        /* \"#utility.yul\":7213:7219   */\n      0x00\n        /* \"#utility.yul\":7250:7251   */\n      0x02\n        /* \"#utility.yul\":7244:7248   */\n      dup3\n        /* \"#utility.yul\":7240:7252   */\n      div\n        /* \"#utility.yul\":7230:7252   */\n      swap1\n      pop\n        /* \"#utility.yul\":7297:7298   */\n      0x01\n        /* \"#utility.yul\":7291:7295   */\n      dup3\n        /* \"#utility.yul\":7287:7299   */\n      and\n        /* \"#utility.yul\":7318:7336   */\n      dup1\n        /* \"#utility.yul\":7308:7389   */\n      tag_380\n      jumpi\n        /* \"#utility.yul\":7374:7378   */\n      0x7f\n        /* \"#utility.yul\":7366:7372   */\n      dup3\n        /* \"#utility.yul\":7362:7379   */\n      and\n        /* \"#utility.yul\":7352:7379   */\n      swap2\n      pop\n        /* \"#utility.yul\":7308:7389   */\n    tag_380:\n        /* \"#utility.yul\":7436:7438   */\n      0x20\n        /* \"#utility.yul\":7428:7434   */\n      dup3\n        /* \"#utility.yul\":7425:7439   */\n      lt\n        /* \"#utility.yul\":7405:7423   */\n      dup2\n        /* \"#utility.yul\":7402:7440   */\n      sub\n        /* \"#utility.yul\":7399:7483   */\n      tag_381\n      jumpi\n        /* \"#utility.yul\":7455:7473   */\n      tag_382\n      tag_294\n      jump\t// in\n    tag_382:\n        /* \"#utility.yul\":7399:7483   */\n    tag_381:\n        /* \"#utility.yul\":7220:7489   */\n      pop\n        /* \"#utility.yul\":7169:7489   */\n      swap2\n      swap1\n      pop\n      jump\t// out\n        /* \"#utility.yul\":7495:7675   */\n    tag_295:\n        /* \"#utility.yul\":7543:7620   */\n      0x4e487b7100000000000000000000000000000000000000000000000000000000\n        /* \"#utility.yul\":7540:7541   */\n      0x00\n        /* \"#utility.yul\":7533:7621   */\n      mstore\n        /* \"#utility.yul\":7640:7644   */\n      0x11\n        /* \"#utility.yul\":7637:7638   */\n      0x04\n        /* \"#utility.yul\":7630:7645   */\n      mstore\n        /* \"#utility.yul\":7664:7668   */\n      0x24\n        /* \"#utility.yul\":7661:7662   */\n      0x00\n        /* \"#utility.yul\":7654:7669   */\n      revert\n        /* \"#utility.yul\":7681:8091   */\n    tag_150:\n        /* \"#utility.yul\":7721:7728   */\n      0x00\n        /* \"#utility.yul\":7744:7764   */\n      tag_385\n        /* \"#utility.yul\":7762:7763   */\n      dup3\n        /* \"#utility.yul\":7744:7764   */\n      tag_283\n      jump\t// in\n    tag_385:\n        /* \"#utility.yul\":7739:7764   */\n      swap2\n      pop\n        /* \"#utility.yul\":7778:7798   */\n      tag_386\n        /* \"#utility.yul\":7796:7797   */\n      dup4\n        /* \"#utility.yul\":7778:7798   */\n      tag_283\n      jump\t// in\n    tag_386:\n        /* \"#utility.yul\":7773:7798   */\n      swap3\n      pop\n        /* \"#utility.yul\":7833:7834   */\n      dup3\n        /* \"#utility.yul\":7830:7831   */\n      dup3\n        /* \"#utility.yul\":7826:7835   */\n      mul\n        /* \"#utility.yul\":7855:7885   */\n      tag_387\n        /* \"#utility.yul\":7873:7884   */\n      dup2\n        /* \"#utility.yul\":7855:7885   */\n      tag_283\n      jump\t// in\n    tag_387:\n        /* \"#utility.yul\":7844:7885   */\n      swap2\n      pop\n        /* \"#utility.yul\":8034:8035   */\n      dup3\n        /* \"#utility.yul\":8025:8032   */\n      dup3\n        /* \"#utility.yul\":8021:8036   */\n      div\n        /* \"#utility.yul\":8018:8019   */\n      dup5\n        /* \"#utility.yul\":8015:8037   */\n      eq\n        /* \"#utility.yul\":7995:7996   */\n      dup4\n        /* \"#utility.yul\":7988:7997   */\n      iszero\n        /* \"#utility.yul\":7968:8051   */\n      or\n        /* \"#utility.yul\":7945:8084   */\n      tag_388\n      jumpi\n        /* \"#utility.yul\":8064:8082   */\n      tag_389\n      tag_295\n      jump\t// in\n    tag_389:\n        /* \"#utility.yul\":7945:8084   */\n    tag_388:\n        /* \"#utility.yul\":7729:8091   */\n      pop\n        /* \"#utility.yul\":7681:8091   */\n      swap3\n      swap2\n      pop\n      pop\n      jump\t// out\n        /* \"#utility.yul\":8097:8277   */\n    tag_296:\n        /* \"#utility.yul\":8145:8222   */\n      0x4e487b7100000000000000000000000000000000000000000000000000000000\n        /* \"#utility.yul\":8142:8143   */\n      0x00\n        /* \"#utility.yul\":8135:8223   */\n      mstore\n        /* \"#utility.yul\":8242:8246   */\n      0x12\n        /* \"#utility.yul\":8239:8240   */\n      0x04\n        /* \"#utility.yul\":8232:8247   */\n      mstore\n        /* \"#utility.yul\":8266:8270   */\n      0x24\n        /* \"#utility.yul\":8263:8264   */\n      0x00\n        /* \"#utility.yul\":8256:8271   */\n      revert\n        /* \"#utility.yul\":8283:8468   */\n    tag_152:\n        /* \"#utility.yul\":8323:8324   */\n      0x00\n        /* \"#utility.yul\":8340:8360   */\n      tag_392\n        /* \"#utility.yul\":8358:8359   */\n      dup3\n        /* \"#utility.yul\":8340:8360   */\n      tag_283\n      jump\t// in\n    tag_392:\n        /* \"#utility.yul\":8335:8360   */\n      swap2\n      pop\n        /* \"#utility.yul\":8374:8394   */\n      tag_393\n        /* \"#utility.yul\":8392:8393   */\n      dup4\n        /* \"#utility.yul\":8374:8394   */\n      tag_283\n      jump\t// in\n    tag_393:\n        /* \"#utility.yul\":8369:8394   */\n      swap3\n      pop\n        /* \"#utility.yul\":8413:8414   */\n      dup3\n        /* \"#utility.yul\":8403:8438   */\n      tag_394\n      jumpi\n        /* \"#utility.yul\":8418:8436   */\n      tag_395\n      tag_296\n      jump\t// in\n    tag_395:\n        /* \"#utility.yul\":8403:8438   */\n    tag_394:\n        /* \"#utility.yul\":8460:8461   */\n      dup3\n        /* \"#utility.yul\":8457:8458   */\n      dup3\n        /* \"#utility.yul\":8453:8462   */\n      div\n        /* \"#utility.yul\":8448:8462   */\n      swap1\n      pop\n        /* \"#utility.yul\":8283:8468   */\n      swap3\n      swap2\n      pop\n      pop\n      jump\t// out\n        /* \"#utility.yul\":8474:8806   */\n    tag_186:\n        /* \"#utility.yul\":8595:8599   */\n      0x00\n        /* \"#utility.yul\":8633:8635   */\n      0x40\n        /* \"#utility.yul\":8622:8631   */\n      dup3\n        /* \"#utility.yul\":8618:8636   */\n      add\n        /* \"#utility.yul\":8610:8636   */\n      swap1\n      pop\n        /* \"#utility.yul\":8646:8717   */\n      tag_397\n        /* \"#utility.yul\":8714:8715   */\n      0x00\n        /* \"#utility.yul\":8703:8712   */\n      dup4\n        /* \"#utility.yul\":8699:8716   */\n      add\n        /* \"#utility.yul\":8690:8696   */\n      dup6\n        /* \"#utility.yul\":8646:8717   */\n      tag_288\n      jump\t// in\n    tag_397:\n        /* \"#utility.yul\":8727:8799   */\n      tag_398\n        /* \"#utility.yul\":8795:8797   */\n      0x20\n        /* \"#utility.yul\":8784:8793   */\n      dup4\n        /* \"#utility.yul\":8780:8798   */\n      add\n        /* \"#utility.yul\":8771:8777   */\n      dup5\n        /* \"#utility.yul\":8727:8799   */\n      tag_288\n      jump\t// in\n    tag_398:\n        /* \"#utility.yul\":8474:8806   */\n      swap4\n      swap3\n      pop\n      pop\n      pop\n      jump\t// out\n        /* \"#utility.yul\":8812:9254   */\n    tag_209:\n        /* \"#utility.yul\":8961:8965   */\n      0x00\n        /* \"#utility.yul\":8999:9001   */\n      0x60\n        /* \"#utility.yul\":8988:8997   */\n      dup3\n        /* \"#utility.yul\":8984:9002   */\n      add\n        /* \"#utility.yul\":8976:9002   */\n      swap1\n      pop\n        /* \"#utility.yul\":9012:9083   */\n      tag_400\n        /* \"#utility.yul\":9080:9081   */\n      0x00\n        /* \"#utility.yul\":9069:9078   */\n      dup4\n        /* \"#utility.yul\":9065:9082   */\n      add\n        /* \"#utility.yul\":9056:9062   */\n      dup7\n        /* \"#utility.yul\":9012:9083   */\n      tag_291\n      jump\t// in\n    tag_400:\n        /* \"#utility.yul\":9093:9165   */\n      tag_401\n        /* \"#utility.yul\":9161:9163   */\n      0x20\n        /* \"#utility.yul\":9150:9159   */\n      dup4\n        /* \"#utility.yul\":9146:9164   */\n      add\n        /* \"#utility.yul\":9137:9143   */\n      dup6\n        /* \"#utility.yul\":9093:9165   */\n      tag_288\n      jump\t// in\n    tag_401:\n        /* \"#utility.yul\":9175:9247   */\n      tag_402\n        /* \"#utility.yul\":9243:9245   */\n      0x40\n        /* \"#utility.yul\":9232:9241   */\n      dup4\n        /* \"#utility.yul\":9228:9246   */\n      add\n        /* \"#utility.yul\":9219:9225   */\n      dup5\n        /* \"#utility.yul\":9175:9247   */\n      tag_288\n      jump\t// in\n    tag_402:\n        /* \"#utility.yul\":8812:9254   */\n      swap5\n      swap4\n      pop\n      pop\n      pop\n      pop\n      jump\t// out\n        /* \"#utility.yul\":9260:9454   */\n    tag_221:\n        /* \"#utility.yul\":9300:9304   */\n      0x00\n        /* \"#utility.yul\":9320:9340   */\n      tag_404\n        /* \"#utility.yul\":9338:9339   */\n      dup3\n        /* \"#utility.yul\":9320:9340   */\n      tag_283\n      jump\t// in\n    tag_404:\n        /* \"#utility.yul\":9315:9340   */\n      swap2\n      pop\n        /* \"#utility.yul\":9354:9374   */\n      tag_405\n        /* \"#utility.yul\":9372:9373   */\n      dup4\n        /* \"#utility.yul\":9354:9374   */\n      tag_283\n      jump\t// in\n    tag_405:\n        /* \"#utility.yul\":9349:9374   */\n      swap3\n      pop\n        /* \"#utility.yul\":9398:9399   */\n      dup3\n        /* \"#utility.yul\":9395:9396   */\n      dup3\n        /* \"#utility.yul\":9391:9400   */\n      sub\n        /* \"#utility.yul\":9383:9400   */\n      swap1\n      pop\n        /* \"#utility.yul\":9422:9423   */\n      dup2\n        /* \"#utility.yul\":9416:9420   */\n      dup2\n        /* \"#utility.yul\":9413:9424   */\n      gt\n        /* \"#utility.yul\":9410:9447   */\n      iszero\n      tag_406\n      jumpi\n        /* \"#utility.yul\":9427:9445   */\n      tag_407\n      tag_295\n      jump\t// in\n    tag_407:\n        /* \"#utility.yul\":9410:9447   */\n    tag_406:\n        /* \"#utility.yul\":9260:9454   */\n      swap3\n      swap2\n      pop\n      pop\n      jump\t// out\n        /* \"#utility.yul\":9460:9651   */\n    tag_264:\n        /* \"#utility.yul\":9500:9503   */\n      0x00\n        /* \"#utility.yul\":9519:9539   */\n      tag_409\n        /* \"#utility.yul\":9537:9538   */\n      dup3\n        /* \"#utility.yul\":9519:9539   */\n      tag_283\n      jump\t// in\n    tag_409:\n        /* \"#utility.yul\":9514:9539   */\n      swap2\n      pop\n        /* \"#utility.yul\":9553:9573   */\n      tag_410\n        /* \"#utility.yul\":9571:9572   */\n      dup4\n        /* \"#utility.yul\":9553:9573   */\n      tag_283\n      jump\t// in\n    tag_410:\n        /* \"#utility.yul\":9548:9573   */\n      swap3\n      pop\n        /* \"#utility.yul\":9596:9597   */\n      dup3\n        /* \"#utility.yul\":9593:9594   */\n      dup3\n        /* \"#utility.yul\":9589:9598   */\n      add\n        /* \"#utility.yul\":9582:9598   */\n      swap1\n      pop\n        /* \"#utility.yul\":9617:9620   */\n      dup1\n        /* \"#utility.yul\":9614:9615   */\n      dup3\n        /* \"#utility.yul\":9611:9621   */\n      gt\n        /* \"#utility.yul\":9608:9644   */\n      iszero\n      tag_411\n      jumpi\n        /* \"#utility.yul\":9624:9642   */\n      tag_412\n      tag_295\n      jump\t// in\n    tag_412:\n        /* \"#utility.yul\":9608:9644   */\n    tag_411:\n        /* \"#utility.yul\":9460:9651   */\n      swap3\n      swap2\n      pop\n      pop\n      jump\t// out\n\n    auxdata: 0xa2646970667358221220ce3efa2bb519c0daf5a6b7beb365e06dc3c093a9fa7b1babc1b5000f6fb2787264736f6c634300081e0033\n}\n",
				"bytecode": {
					"linkReferences": {},
					"object": "608060405234801561000f575f5ffd5b50604051612be6380380612be683398181016040528101906100319190610aac565b33848481600390816100439190610d4f565b5080600490816100539190610d4f565b5050505f73ffffffffffffffffffffffffffffffffffffffff168173ffffffffffffffffffffffffffffffffffffffff16036100c6575f6040517f1e4fbdf70000000000000000000000000000000000000000000000000000000081526004016100bd9190610e2d565b60405180910390fd5b6100d5816103d860201b60201c565b505f73ffffffffffffffffffffffffffffffffffffffff168273ffffffffffffffffffffffffffffffffffffffff160361013b576040517fcfe2ea6300000000000000000000000000000000000000000000000000000000815260040160405180910390fd5b60c8811115610176576040517f5ba09ae000000000000000000000000000000000000000000000000000000000815260040160405180910390fd5b8160065f6101000a81548173ffffffffffffffffffffffffffffffffffffffff021916908373ffffffffffffffffffffffffffffffffffffffff16021790555080600781905550600160085f3373ffffffffffffffffffffffffffffffffffffffff1673ffffffffffffffffffffffffffffffffffffffff1681526020019081526020015f205f6101000a81548160ff021916908315150217905550600160085f8473ffffffffffffffffffffffffffffffffffffffff1673ffffffffffffffffffffffffffffffffffffffff1681526020019081526020015f205f6101000a81548160ff02191690831515021790555061029e3361027961049d60201b60201c565b600a6102859190610fae565b620f42406102939190610ff8565b6104a560201b60201c565b8173ffffffffffffffffffffffffffffffffffffffff165f73ffffffffffffffffffffffffffffffffffffffff167f4ab5be82436d353e61ca18726e984e561f5c1cc7c6d38b29d2553c790434705a60405160405180910390a37f2211abb4bbc4d80b7505c31b54d01d15ac6e33a42c59540d309d89daf759063a5f82604051610329929190611081565b60405180910390a13373ffffffffffffffffffffffffffffffffffffffff167f69e34a174b4a0cce59950c4c852317e9797bdcae125fbf8b5dd8b4311384412f600160405161037891906110c2565b60405180910390a28173ffffffffffffffffffffffffffffffffffffffff167f69e34a174b4a0cce59950c4c852317e9797bdcae125fbf8b5dd8b4311384412f60016040516103c791906110c2565b60405180910390a2505050506111ec565b5f600560019054906101000a900473ffffffffffffffffffffffffffffffffffffffff16905081600560016101000a81548173ffffffffffffffffffffffffffffffffffffffff021916908373ffffffffffffffffffffffffffffffffffffffff1602179055508173ffffffffffffffffffffffffffffffffffffffff168173ffffffffffffffffffffffffffffffffffffffff167f8be0079c531659141344cd1fd0a4f28419497f9722a3daafe3b4186f6b6457e060405160405180910390a35050565b5f6012905090565b5f73ffffffffffffffffffffffffffffffffffffffff168273ffffffffffffffffffffffffffffffffffffffff1603610515575f6040517fec442f0500000000000000000000000000000000000000000000000000000000815260040161050c9190610e2d565b60405180910390fd5b6105265f838361052a60201b60201c565b5050565b5f73ffffffffffffffffffffffffffffffffffffffff168373ffffffffffffffffffffffffffffffffffffffff161415801561059257505f73ffffffffffffffffffffffffffffffffffffffff168273ffffffffffffffffffffffffffffffffffffffff1614155b15610622575f6007541115610621575f6064600754836105b29190610ff8565b6105bc9190611108565b90505f81111561061f576105f88460065f9054906101000a900473ffffffffffffffffffffffffffffffffffffffff168361063960201b60201c565b5f81836106059190611138565b905061061885858361063960201b60201c565b5050610634565b505b5b61063383838361063960201b60201c565b5b505050565b61064761065d60201b60201c565b6106588383836106a460201b60201c565b505050565b61066b6108bd60201b60201c565b156106a2576040517fd93c066500000000000000000000000000000000000000000000000000000000815260040160405180910390fd5b565b5f73ffffffffffffffffffffffffffffffffffffffff168373ffffffffffffffffffffffffffffffffffffffff16036106f4578060025f8282546106e8919061116b565b925050819055506107c2565b5f5f5f8573ffffffffffffffffffffffffffffffffffffffff1673ffffffffffffffffffffffffffffffffffffffff1681526020019081526020015f205490508181101561077d578381836040517fe450d38c0000000000000000000000000000000000000000000000000000000081526004016107749392919061119e565b60405180910390fd5b8181035f5f8673ffffffffffffffffffffffffffffffffffffffff1673ffffffffffffffffffffffffffffffffffffffff1681526020019081526020015f2081905550505b5f73ffffffffffffffffffffffffffffffffffffffff168273ffffffffffffffffffffffffffffffffffffffff1603610809578060025f8282540392505081905550610853565b805f5f8473ffffffffffffffffffffffffffffffffffffffff1673ffffffffffffffffffffffffffffffffffffffff1681526020019081526020015f205f82825401925050819055505b8173ffffffffffffffffffffffffffffffffffffffff168373ffffffffffffffffffffffffffffffffffffffff167fddf252ad1be2c89b69c2b068fc378daa952ba7f163c4a11628f55a4df523b3ef836040516108b091906111d3565b60405180910390a3505050565b5f60055f9054906101000a900460ff16905090565b5f604051905090565b5f5ffd5b5f5ffd5b5f5ffd5b5f5ffd5b5f601f19601f8301169050919050565b7f4e487b71000000000000000000000000000000000000000000000000000000005f52604160045260245ffd5b610931826108eb565b810181811067ffffffffffffffff821117156109505761094f6108fb565b5b80604052505050565b5f6109626108d2565b905061096e8282610928565b919050565b5f67ffffffffffffffff82111561098d5761098c6108fb565b5b610996826108eb565b9050602081019050919050565b8281835e5f83830152505050565b5f6109c36109be84610973565b610959565b9050828152602081018484840111156109df576109de6108e7565b5b6109ea8482856109a3565b509392505050565b5f82601f830112610a0657610a056108e3565b5b8151610a168482602086016109b1565b91505092915050565b5f73ffffffffffffffffffffffffffffffffffffffff82169050919050565b5f610a4882610a1f565b9050919050565b610a5881610a3e565b8114610a62575f5ffd5b50565b5f81519050610a7381610a4f565b92915050565b5f819050919050565b610a8b81610a79565b8114610a95575f5ffd5b50565b5f81519050610aa681610a82565b92915050565b5f5f5f5f60808587031215610ac457610ac36108db565b5b5f85015167ffffffffffffffff811115610ae157610ae06108df565b5b610aed878288016109f2565b945050602085015167ffffffffffffffff811115610b0e57610b0d6108df565b5b610b1a878288016109f2565b9350506040610b2b87828801610a65565b9250506060610b3c87828801610a98565b91505092959194509250565b5f81519050919050565b7f4e487b71000000000000000000000000000000000000000000000000000000005f52602260045260245ffd5b5f6002820490506001821680610b9657607f821691505b602082108103610ba957610ba8610b52565b5b50919050565b5f819050815f5260205f209050919050565b5f6020601f8301049050919050565b5f82821b905092915050565b5f60088302610c0b7fffffffffffffffffffffffffffffffffffffffffffffffffffffffffffffffff82610bd0565b610c158683610bd0565b95508019841693508086168417925050509392505050565b5f819050919050565b5f610c50610c4b610c4684610a79565b610c2d565b610a79565b9050919050565b5f819050919050565b610c6983610c36565b610c7d610c7582610c57565b848454610bdc565b825550505050565b5f5f905090565b610c94610c85565b610c9f818484610c60565b505050565b5b81811015610cc257610cb75f82610c8c565b600181019050610ca5565b5050565b601f821115610d0757610cd881610baf565b610ce184610bc1565b81016020851015610cf0578190505b610d04610cfc85610bc1565b830182610ca4565b50505b505050565b5f82821c905092915050565b5f610d275f1984600802610d0c565b1980831691505092915050565b5f610d3f8383610d18565b9150826002028217905092915050565b610d5882610b48565b67ffffffffffffffff811115610d7157610d706108fb565b5b610d7b8254610b7f565b610d86828285610cc6565b5f60209050601f831160018114610db7575f8415610da5578287015190505b610daf8582610d34565b865550610e16565b601f198416610dc586610baf565b5f5b82811015610dec57848901518255600182019150602085019450602081019050610dc7565b86831015610e095784890151610e05601f891682610d18565b8355505b6001600288020188555050505b505050505050565b610e2781610a3e565b82525050565b5f602082019050610e405f830184610e1e565b92915050565b7f4e487b71000000000000000000000000000000000000000000000000000000005f52601160045260245ffd5b5f8160011c9050919050565b5f5f8291508390505b6001851115610ec857808604811115610ea457610ea3610e46565b5b6001851615610eb35780820291505b8081029050610ec185610e73565b9450610e88565b94509492505050565b5f82610ee05760019050610f9b565b81610eed575f9050610f9b565b8160018114610f035760028114610f0d57610f3c565b6001915050610f9b565b60ff841115610f1f57610f1e610e46565b5b8360020a915084821115610f3657610f35610e46565b5b50610f9b565b5060208310610133831016604e8410600b8410161715610f715782820a905083811115610f6c57610f6b610e46565b5b610f9b565b610f7e8484846001610e7f565b92509050818404811115610f9557610f94610e46565b5b81810290505b9392505050565b5f60ff82169050919050565b5f610fb882610a79565b9150610fc383610fa2565b9250610ff07fffffffffffffffffffffffffffffffffffffffffffffffffffffffffffffffff8484610ed1565b905092915050565b5f61100282610a79565b915061100d83610a79565b925082820261101b81610a79565b9150828204841483151761103257611031610e46565b5b5092915050565b5f819050919050565b5f61105c61105761105284611039565b610c2d565b610a79565b9050919050565b61106c81611042565b82525050565b61107b81610a79565b82525050565b5f6040820190506110945f830185611063565b6110a16020830184611072565b9392505050565b5f8115159050919050565b6110bc816110a8565b82525050565b5f6020820190506110d55f8301846110b3565b92915050565b7f4e487b71000000000000000000000000000000000000000000000000000000005f52601260045260245ffd5b5f61111282610a79565b915061111d83610a79565b92508261112d5761112c6110db565b5b828204905092915050565b5f61114282610a79565b915061114d83610a79565b925082820390508181111561116557611164610e46565b5b92915050565b5f61117582610a79565b915061118083610a79565b925082820190508082111561119857611197610e46565b5b92915050565b5f6060820190506111b15f830186610e1e565b6111be6020830185611072565b6111cb6040830184611072565b949350505050565b5f6020820190506111e65f830184611072565b92915050565b6119ed806111f95f395ff3fe608060405234801561000f575f5ffd5b5060043610610171575f3560e01c8063751fd179116100dc578063a071dcf411610095578063c4081a4c1161006f578063c4081a4c14610419578063dd62ed3e14610435578063f0f4426014610465578063f2fde38b1461048157610171565b8063a071dcf4146103ad578063a9059cbb146103cb578063bc063e1a146103fb57610171565b8063751fd1791461030f5780638456cb591461032b5780638da5cb5b14610335578063928286711461035357806395d89b411461037157806399f3bc9a1461038f57610171565b80633f4ba83a1161012e5780633f4ba83a1461025f578063483a9310146102695780635c975abb1461029957806361d027b3146102b757806370a08231146102d5578063715018a61461030557610171565b806306fdde0314610175578063095ea7b31461019357806318160ddd146101c357806323b872dd146101e1578063313ce567146102115780633f4218e01461022f575b5f5ffd5b61017d61049d565b60405161018a91906114db565b60405180910390f35b6101ad60048036038101906101a8919061158c565b61052d565b6040516101ba91906115e4565b60405180910390f35b6101cb61054f565b6040516101d8919061160c565b60405180910390f35b6101fb60048036038101906101f69190611625565b610558565b60405161020891906115e4565b60405180910390f35b610219610586565b6040516102269190611690565b60405180910390f35b610249600480360381019061024491906116a9565b61058e565b60405161025691906115e4565b60405180910390f35b6102676105ab565b005b610283600480360381019061027e91906116d4565b6105bd565b604051610290919061160c565b60405180910390f35b6102a16105df565b6040516102ae91906115e4565b60405180910390f35b6102bf6105f4565b6040516102cc919061170e565b60405180910390f35b6102ef60048036038101906102ea91906116a9565b610619565b6040516102fc919061160c565b60405180910390f35b61030d61065e565b005b61032960048036038101906103249190611751565b610671565b005b61033361071f565b005b61033d610731565b60405161034a919061170e565b60405180910390f35b61035b61075a565b604051610368919061160c565b60405180910390f35b610379610762565b60405161038691906114db565b60405180910390f35b6103976107f2565b6040516103a4919061160c565b60405180910390f35b6103b56107fb565b6040516103c2919061160c565b60405180910390f35b6103e560048036038101906103e0919061158c565b610801565b6040516103f291906115e4565b60405180910390f35b610403610823565b604051610410919061160c565b60405180910390f35b610433600480360381019061042e91906116d4565b610828565b005b61044f600480360381019061044a919061178f565b6108b6565b60405161045c919061160c565b60405180910390f35b61047f600480360381019061047a91906116a9565b610938565b005b61049b600480360381019061049691906116a9565b610bae565b005b6060600380546104ac906117fa565b80601f01602080910402602001604051908101604052809291908181526020018280546104d8906117fa565b80156105235780601f106104fa57610100808354040283529160200191610523565b820191905f5260205f20905b81548152906001019060200180831161050657829003601f168201915b5050505050905090565b5f5f610537610c32565b9050610544818585610c39565b600191505092915050565b5f600254905090565b5f5f610562610c32565b905061056f858285610c4b565b61057a858585610cde565b60019150509392505050565b5f6012905090565b6008602052805f5260405f205f915054906101000a900460ff1681565b6105b3610ddb565b6105bb610e62565b565b5f60c8600754836105ce9190611857565b6105d891906118c5565b9050919050565b5f60055f9054906101000a900460ff16905090565b60065f9054906101000a900473ffffffffffffffffffffffffffffffffffffffff1681565b5f5f5f8373ffffffffffffffffffffffffffffffffffffffff1673ffffffffffffffffffffffffffffffffffffffff1681526020019081526020015f20549050919050565b610666610ddb565b61066f5f610ec3565b565b610679610ddb565b8060085f8473ffffffffffffffffffffffffffffffffffffffff1673ffffffffffffffffffffffffffffffffffffffff1681526020019081526020015f205f6101000a81548160ff0219169083151502179055508173ffffffffffffffffffffffffffffffffffffffff167f69e34a174b4a0cce59950c4c852317e9797bdcae125fbf8b5dd8b4311384412f8260405161071391906115e4565b60405180910390a25050565b610727610ddb565b61072f610f88565b565b5f600560019054906101000a900473ffffffffffffffffffffffffffffffffffffffff16905090565b5f60c8905090565b606060048054610771906117fa565b80601f016020809104026020016040519081016040528092919081815260200182805461079d906117fa565b80156107e85780601f106107bf576101008083540402835291602001916107e8565b820191905f5260205f20905b8154815290600101906020018083116107cb57829003601f168201915b5050505050905090565b5f600754905090565b60075481565b5f5f61080b610c32565b9050610818818585610cde565b600191505092915050565b60c881565b610830610ddb565b61271081111561086c576040517f5ba09ae000000000000000000000000000000000000000000000000000000000815260040160405180910390fd5b5f6007549050816007819055507f2211abb4bbc4d80b7505c31b54d01d15ac6e33a42c59540d309d89daf759063a81836040516108aa9291906118f5565b60405180910390a15050565b5f60015f8473ffffffffffffffffffffffffffffffffffffffff1673ffffffffffffffffffffffffffffffffffffffff1681526020019081526020015f205f8373ffffffffffffffffffffffffffffffffffffffff1673ffffffffffffffffffffffffffffffffffffffff1681526020019081526020015f2054905092915050565b610940610ddb565b5f73ffffffffffffffffffffffffffffffffffffffff168173ffffffffffffffffffffffffffffffffffffffff16036109a5576040517fcfe2ea6300000000000000000000000000000000000000000000000000000000815260040160405180910390fd5b5f60065f9054906101000a900473ffffffffffffffffffffffffffffffffffffffff1690508160065f6101000a81548173ffffffffffffffffffffffffffffffffffffffff021916908373ffffffffffffffffffffffffffffffffffffffff1602179055505f60085f8373ffffffffffffffffffffffffffffffffffffffff1673ffffffffffffffffffffffffffffffffffffffff1681526020019081526020015f205f6101000a81548160ff021916908315150217905550600160085f8473ffffffffffffffffffffffffffffffffffffffff1673ffffffffffffffffffffffffffffffffffffffff1681526020019081526020015f205f6101000a81548160ff0219169083151502179055508173ffffffffffffffffffffffffffffffffffffffff168173ffffffffffffffffffffffffffffffffffffffff167f4ab5be82436d353e61ca18726e984e561f5c1cc7c6d38b29d2553c790434705a60405160405180910390a38073ffffffffffffffffffffffffffffffffffffffff167f69e34a174b4a0cce59950c4c852317e9797bdcae125fbf8b5dd8b4311384412f5f604051610b5391906115e4565b60405180910390a28173ffffffffffffffffffffffffffffffffffffffff167f69e34a174b4a0cce59950c4c852317e9797bdcae125fbf8b5dd8b4311384412f6001604051610ba291906115e4565b60405180910390a25050565b610bb6610ddb565b5f73ffffffffffffffffffffffffffffffffffffffff168173ffffffffffffffffffffffffffffffffffffffff1603610c26575f6040517f1e4fbdf7000000000000000000000000000000000000000000000000000000008152600401610c1d919061170e565b60405180910390fd5b610c2f81610ec3565b50565b5f33905090565b610c468383836001610fea565b505050565b5f610c5684846108b6565b90507fffffffffffffffffffffffffffffffffffffffffffffffffffffffffffffffff811015610cd85781811015610cc9578281836040517ffb8f41b2000000000000000000000000000000000000000000000000000000008152600401610cc09392919061191c565b60405180910390fd5b610cd784848484035f610fea565b5b50505050565b5f73ffffffffffffffffffffffffffffffffffffffff168373ffffffffffffffffffffffffffffffffffffffff1614158015610d4657505f73ffffffffffffffffffffffffffffffffffffffff168273ffffffffffffffffffffffffffffffffffffffff1614155b15610dca575f6007541115610dc9575f606460075483610d669190611857565b610d7091906118c5565b90505f811115610dc757610da68460065f9054906101000a900473ffffffffffffffffffffffffffffffffffffffff16836111b9565b5f8183610db39190611951565b9050610dc08585836111b9565b5050610dd6565b505b5b610dd58383836111b9565b5b505050565b610de3610c32565b73ffffffffffffffffffffffffffffffffffffffff16610e01610731565b73ffffffffffffffffffffffffffffffffffffffff1614610e6057610e24610c32565b6040517f118cdaa7000000000000000000000000000000000000000000000000000000008152600401610e57919061170e565b60405180910390fd5b565b610e6a6111d1565b5f60055f6101000a81548160ff0219169083151502179055507f5db9ee0a495bf2e6ff9c91a7834c1ba4fdd244a5e8aa4e537bd38aeae4b073aa610eac610c32565b604051610eb9919061170e565b60405180910390a1565b5f600560019054906101000a900473ffffffffffffffffffffffffffffffffffffffff16905081600560016101000a81548173ffffffffffffffffffffffffffffffffffffffff021916908373ffffffffffffffffffffffffffffffffffffffff1602179055508173ffffffffffffffffffffffffffffffffffffffff168173ffffffffffffffffffffffffffffffffffffffff167f8be0079c531659141344cd1fd0a4f28419497f9722a3daafe3b4186f6b6457e060405160405180910390a35050565b610f90611211565b600160055f6101000a81548160ff0219169083151502179055507f62e78cea01bee320cd4e420270b5ea74000d11b0c9f74754ebdbfc544b05a258610fd3610c32565b604051610fe0919061170e565b60405180910390a1565b5f73ffffffffffffffffffffffffffffffffffffffff168473ffffffffffffffffffffffffffffffffffffffff160361105a575f6040517fe602df05000000000000000000000000000000000000000000000000000000008152600401611051919061170e565b60405180910390fd5b5f73ffffffffffffffffffffffffffffffffffffffff168373ffffffffffffffffffffffffffffffffffffffff16036110ca575f6040517f94280d620000000000000000000000000000000000000000000000000000000081526004016110c1919061170e565b60405180910390fd5b8160015f8673ffffffffffffffffffffffffffffffffffffffff1673ffffffffffffffffffffffffffffffffffffffff1681526020019081526020015f205f8573ffffffffffffffffffffffffffffffffffffffff1673ffffffffffffffffffffffffffffffffffffffff1681526020019081526020015f208190555080156111b3578273ffffffffffffffffffffffffffffffffffffffff168473ffffffffffffffffffffffffffffffffffffffff167f8c5be1e5ebec7d5bd14f71427d1e84f3dd0314c0f7b2291e5b200ac8c7c3b925846040516111aa919061160c565b60405180910390a35b50505050565b6111c1611211565b6111cc838383611252565b505050565b6111d96105df565b61120f576040517f8dfc202b00000000000000000000000000000000000000000000000000000000815260040160405180910390fd5b565b6112196105df565b15611250576040517fd93c066500000000000000000000000000000000000000000000000000000000815260040160405180910390fd5b565b5f73ffffffffffffffffffffffffffffffffffffffff168373ffffffffffffffffffffffffffffffffffffffff16036112a2578060025f8282546112969190611984565b92505081905550611370565b5f5f5f8573ffffffffffffffffffffffffffffffffffffffff1673ffffffffffffffffffffffffffffffffffffffff1681526020019081526020015f205490508181101561132b578381836040517fe450d38c0000000000000000000000000000000000000000000000000000000081526004016113229392919061191c565b60405180910390fd5b8181035f5f8673ffffffffffffffffffffffffffffffffffffffff1673ffffffffffffffffffffffffffffffffffffffff1681526020019081526020015f2081905550505b5f73ffffffffffffffffffffffffffffffffffffffff168273ffffffffffffffffffffffffffffffffffffffff16036113b7578060025f8282540392505081905550611401565b805f5f8473ffffffffffffffffffffffffffffffffffffffff1673ffffffffffffffffffffffffffffffffffffffff1681526020019081526020015f205f82825401925050819055505b8173ffffffffffffffffffffffffffffffffffffffff168373ffffffffffffffffffffffffffffffffffffffff167fddf252ad1be2c89b69c2b068fc378daa952ba7f163c4a11628f55a4df523b3ef8360405161145e919061160c565b60405180910390a3505050565b5f81519050919050565b5f82825260208201905092915050565b8281835e5f83830152505050565b5f601f19601f8301169050919050565b5f6114ad8261146b565b6114b78185611475565b93506114c7818560208601611485565b6114d081611493565b840191505092915050565b5f6020820190508181035f8301526114f381846114a3565b905092915050565b5f5ffd5b5f73ffffffffffffffffffffffffffffffffffffffff82169050919050565b5f611528826114ff565b9050919050565b6115388161151e565b8114611542575f5ffd5b50565b5f813590506115538161152f565b92915050565b5f819050919050565b61156b81611559565b8114611575575f5ffd5b50565b5f8135905061158681611562565b92915050565b5f5f604083850312156115a2576115a16114fb565b5b5f6115af85828601611545565b92505060206115c085828601611578565b9150509250929050565b5f8115159050919050565b6115de816115ca565b82525050565b5f6020820190506115f75f8301846115d5565b92915050565b61160681611559565b82525050565b5f60208201905061161f5f8301846115fd565b92915050565b5f5f5f6060848603121561163c5761163b6114fb565b5b5f61164986828701611545565b935050602061165a86828701611545565b925050604061166b86828701611578565b9150509250925092565b5f60ff82169050919050565b61168a81611675565b82525050565b5f6020820190506116a35f830184611681565b92915050565b5f602082840312156116be576116bd6114fb565b5b5f6116cb84828501611545565b91505092915050565b5f602082840312156116e9576116e86114fb565b5b5f6116f684828501611578565b91505092915050565b6117088161151e565b82525050565b5f6020820190506117215f8301846116ff565b92915050565b611730816115ca565b811461173a575f5ffd5b50565b5f8135905061174b81611727565b92915050565b5f5f60408385031215611767576117666114fb565b5b5f61177485828601611545565b92505060206117858582860161173d565b9150509250929050565b5f5f604083850312156117a5576117a46114fb565b5b5f6117b285828601611545565b92505060206117c385828601611545565b9150509250929050565b7f4e487b71000000000000000000000000000000000000000000000000000000005f52602260045260245ffd5b5f600282049050600182168061181157607f821691505b602082108103611824576118236117cd565b5b50919050565b7f4e487b71000000000000000000000000000000000000000000000000000000005f52601160045260245ffd5b5f61186182611559565b915061186c83611559565b925082820261187a81611559565b915082820484148315176118915761189061182a565b5b5092915050565b7f4e487b71000000000000000000000000000000000000000000000000000000005f52601260045260245ffd5b5f6118cf82611559565b91506118da83611559565b9250826118ea576118e9611898565b5b828204905092915050565b5f6040820190506119085f8301856115fd565b61191560208301846115fd565b9392505050565b5f60608201905061192f5f8301866116ff565b61193c60208301856115fd565b61194960408301846115fd565b949350505050565b5f61195b82611559565b915061196683611559565b925082820390508181111561197e5761197d61182a565b5b92915050565b5f61198e82611559565b915061199983611559565b92508282019050808211156119b1576119b061182a565b5b9291505056fea2646970667358221220ce3efa2bb519c0daf5a6b7beb365e06dc3c093a9fa7b1babc1b5000f6fb2787264736f6c634300081e0033",
					"opcodes": "PUSH1 0x80 PUSH1 0x40 MSTORE CALLVALUE DUP1 ISZERO PUSH2 0xF JUMPI PUSH0 PUSH0 REVERT JUMPDEST POP PUSH1 0x40 MLOAD PUSH2 0x2BE6 CODESIZE SUB DUP1 PUSH2 0x2BE6 DUP4 CODECOPY DUP2 DUP2 ADD PUSH1 0x40 MSTORE DUP2 ADD SWAP1 PUSH2 0x31 SWAP2 SWAP1 PUSH2 0xAAC JUMP JUMPDEST CALLER DUP5 DUP5 DUP2 PUSH1 0x3 SWAP1 DUP2 PUSH2 0x43 SWAP2 SWAP1 PUSH2 0xD4F JUMP JUMPDEST POP DUP1 PUSH1 0x4 SWAP1 DUP2 PUSH2 0x53 SWAP2 SWAP1 PUSH2 0xD4F JUMP JUMPDEST POP POP POP PUSH0 PUSH20 0xFFFFFFFFFFFFFFFFFFFFFFFFFFFFFFFFFFFFFFFF AND DUP2 PUSH20 0xFFFFFFFFFFFFFFFFFFFFFFFFFFFFFFFFFFFFFFFF AND SUB PUSH2 0xC6 JUMPI PUSH0 PUSH1 0x40 MLOAD PUSH32 0x1E4FBDF700000000000000000000000000000000000000000000000000000000 DUP2 MSTORE PUSH1 0x4 ADD PUSH2 0xBD SWAP2 SWAP1 PUSH2 0xE2D JUMP JUMPDEST PUSH1 0x40 MLOAD DUP1 SWAP2 SUB SWAP1 REVERT JUMPDEST PUSH2 0xD5 DUP2 PUSH2 0x3D8 PUSH1 0x20 SHL PUSH1 0x20 SHR JUMP JUMPDEST POP PUSH0 PUSH20 0xFFFFFFFFFFFFFFFFFFFFFFFFFFFFFFFFFFFFFFFF AND DUP3 PUSH20 0xFFFFFFFFFFFFFFFFFFFFFFFFFFFFFFFFFFFFFFFF AND SUB PUSH2 0x13B JUMPI PUSH1 0x40 MLOAD PUSH32 0xCFE2EA6300000000000000000000000000000000000000000000000000000000 DUP2 MSTORE PUSH1 0x4 ADD PUSH1 0x40 MLOAD DUP1 SWAP2 SUB SWAP1 REVERT JUMPDEST PUSH1 0xC8 DUP2 GT ISZERO PUSH2 0x176 JUMPI PUSH1 0x40 MLOAD PUSH32 0x5BA09AE000000000000000000000000000000000000000000000000000000000 DUP2 MSTORE PUSH1 0x4 ADD PUSH1 0x40 MLOAD DUP1 SWAP2 SUB SWAP1 REVERT JUMPDEST DUP2 PUSH1 0x6 PUSH0 PUSH2 0x100 EXP DUP2 SLOAD DUP2 PUSH20 0xFFFFFFFFFFFFFFFFFFFFFFFFFFFFFFFFFFFFFFFF MUL NOT AND SWAP1 DUP4 PUSH20 0xFFFFFFFFFFFFFFFFFFFFFFFFFFFFFFFFFFFFFFFF AND MUL OR SWAP1 SSTORE POP DUP1 PUSH1 0x7 DUP2 SWAP1 SSTORE POP PUSH1 0x1 PUSH1 0x8 PUSH0 CALLER PUSH20 0xFFFFFFFFFFFFFFFFFFFFFFFFFFFFFFFFFFFFFFFF AND PUSH20 0xFFFFFFFFFFFFFFFFFFFFFFFFFFFFFFFFFFFFFFFF AND DUP2 MSTORE PUSH1 0x20 ADD SWAP1 DUP2 MSTORE PUSH1 0x20 ADD PUSH0 KECCAK256 PUSH0 PUSH2 0x100 EXP DUP2 SLOAD DUP2 PUSH1 0xFF MUL NOT AND SWAP1 DUP4 ISZERO ISZERO MUL OR SWAP1 SSTORE POP PUSH1 0x1 PUSH1 0x8 PUSH0 DUP5 PUSH20 0xFFFFFFFFFFFFFFFFFFFFFFFFFFFFFFFFFFFFFFFF AND PUSH20 0xFFFFFFFFFFFFFFFFFFFFFFFFFFFFFFFFFFFFFFFF AND DUP2 MSTORE PUSH1 0x20 ADD SWAP1 DUP2 MSTORE PUSH1 0x20 ADD PUSH0 KECCAK256 PUSH0 PUSH2 0x100 EXP DUP2 SLOAD DUP2 PUSH1 0xFF MUL NOT AND SWAP1 DUP4 ISZERO ISZERO MUL OR SWAP1 SSTORE POP PUSH2 0x29E CALLER PUSH2 0x279 PUSH2 0x49D PUSH1 0x20 SHL PUSH1 0x20 SHR JUMP JUMPDEST PUSH1 0xA PUSH2 0x285 SWAP2 SWAP1 PUSH2 0xFAE JUMP JUMPDEST PUSH3 0xF4240 PUSH2 0x293 SWAP2 SWAP1 PUSH2 0xFF8 JUMP JUMPDEST PUSH2 0x4A5 PUSH1 0x20 SHL PUSH1 0x20 SHR JUMP JUMPDEST DUP2 PUSH20 0xFFFFFFFFFFFFFFFFFFFFFFFFFFFFFFFFFFFFFFFF AND PUSH0 PUSH20 0xFFFFFFFFFFFFFFFFFFFFFFFFFFFFFFFFFFFFFFFF AND PUSH32 0x4AB5BE82436D353E61CA18726E984E561F5C1CC7C6D38B29D2553C790434705A PUSH1 0x40 MLOAD PUSH1 0x40 MLOAD DUP1 SWAP2 SUB SWAP1 LOG3 PUSH32 0x2211ABB4BBC4D80B7505C31B54D01D15AC6E33A42C59540D309D89DAF759063A PUSH0 DUP3 PUSH1 0x40 MLOAD PUSH2 0x329 SWAP3 SWAP2 SWAP1 PUSH2 0x1081 JUMP JUMPDEST PUSH1 0x40 MLOAD DUP1 SWAP2 SUB SWAP1 LOG1 CALLER PUSH20 0xFFFFFFFFFFFFFFFFFFFFFFFFFFFFFFFFFFFFFFFF AND PUSH32 0x69E34A174B4A0CCE59950C4C852317E9797BDCAE125FBF8B5DD8B4311384412F PUSH1 0x1 PUSH1 0x40 MLOAD PUSH2 0x378 SWAP2 SWAP1 PUSH2 0x10C2 JUMP JUMPDEST PUSH1 0x40 MLOAD DUP1 SWAP2 SUB SWAP1 LOG2 DUP2 PUSH20 0xFFFFFFFFFFFFFFFFFFFFFFFFFFFFFFFFFFFFFFFF AND PUSH32 0x69E34A174B4A0CCE59950C4C852317E9797BDCAE125FBF8B5DD8B4311384412F PUSH1 0x1 PUSH1 0x40 MLOAD PUSH2 0x3C7 SWAP2 SWAP1 PUSH2 0x10C2 JUMP JUMPDEST PUSH1 0x40 MLOAD DUP1 SWAP2 SUB SWAP1 LOG2 POP POP POP POP PUSH2 0x11EC JUMP JUMPDEST PUSH0 PUSH1 0x5 PUSH1 0x1 SWAP1 SLOAD SWAP1 PUSH2 0x100 EXP SWAP1 DIV PUSH20 0xFFFFFFFFFFFFFFFFFFFFFFFFFFFFFFFFFFFFFFFF AND SWAP1 POP DUP2 PUSH1 0x5 PUSH1 0x1 PUSH2 0x100 EXP DUP2 SLOAD DUP2 PUSH20 0xFFFFFFFFFFFFFFFFFFFFFFFFFFFFFFFFFFFFFFFF MUL NOT AND SWAP1 DUP4 PUSH20 0xFFFFFFFFFFFFFFFFFFFFFFFFFFFFFFFFFFFFFFFF AND MUL OR SWAP1 SSTORE POP DUP2 PUSH20 0xFFFFFFFFFFFFFFFFFFFFFFFFFFFFFFFFFFFFFFFF AND DUP2 PUSH20 0xFFFFFFFFFFFFFFFFFFFFFFFFFFFFFFFFFFFFFFFF AND PUSH32 0x8BE0079C531659141344CD1FD0A4F28419497F9722A3DAAFE3B4186F6B6457E0 PUSH1 0x40 MLOAD PUSH1 0x40 MLOAD DUP1 SWAP2 SUB SWAP1 LOG3 POP POP JUMP JUMPDEST PUSH0 PUSH1 0x12 SWAP1 POP SWAP1 JUMP JUMPDEST PUSH0 PUSH20 0xFFFFFFFFFFFFFFFFFFFFFFFFFFFFFFFFFFFFFFFF AND DUP3 PUSH20 0xFFFFFFFFFFFFFFFFFFFFFFFFFFFFFFFFFFFFFFFF AND SUB PUSH2 0x515 JUMPI PUSH0 PUSH1 0x40 MLOAD PUSH32 0xEC442F0500000000000000000000000000000000000000000000000000000000 DUP2 MSTORE PUSH1 0x4 ADD PUSH2 0x50C SWAP2 SWAP1 PUSH2 0xE2D JUMP JUMPDEST PUSH1 0x40 MLOAD DUP1 SWAP2 SUB SWAP1 REVERT JUMPDEST PUSH2 0x526 PUSH0 DUP4 DUP4 PUSH2 0x52A PUSH1 0x20 SHL PUSH1 0x20 SHR JUMP JUMPDEST POP POP JUMP JUMPDEST PUSH0 PUSH20 0xFFFFFFFFFFFFFFFFFFFFFFFFFFFFFFFFFFFFFFFF AND DUP4 PUSH20 0xFFFFFFFFFFFFFFFFFFFFFFFFFFFFFFFFFFFFFFFF AND EQ ISZERO DUP1 ISZERO PUSH2 0x592 JUMPI POP PUSH0 PUSH20 0xFFFFFFFFFFFFFFFFFFFFFFFFFFFFFFFFFFFFFFFF AND DUP3 PUSH20 0xFFFFFFFFFFFFFFFFFFFFFFFFFFFFFFFFFFFFFFFF AND EQ ISZERO JUMPDEST ISZERO PUSH2 0x622 JUMPI PUSH0 PUSH1 0x7 SLOAD GT ISZERO PUSH2 0x621 JUMPI PUSH0 PUSH1 0x64 PUSH1 0x7 SLOAD DUP4 PUSH2 0x5B2 SWAP2 SWAP1 PUSH2 0xFF8 JUMP JUMPDEST PUSH2 0x5BC SWAP2 SWAP1 PUSH2 0x1108 JUMP JUMPDEST SWAP1 POP PUSH0 DUP2 GT ISZERO PUSH2 0x61F JUMPI PUSH2 0x5F8 DUP5 PUSH1 0x6 PUSH0 SWAP1 SLOAD SWAP1 PUSH2 0x100 EXP SWAP1 DIV PUSH20 0xFFFFFFFFFFFFFFFFFFFFFFFFFFFFFFFFFFFFFFFF AND DUP4 PUSH2 0x639 PUSH1 0x20 SHL PUSH1 0x20 SHR JUMP JUMPDEST PUSH0 DUP2 DUP4 PUSH2 0x605 SWAP2 SWAP1 PUSH2 0x1138 JUMP JUMPDEST SWAP1 POP PUSH2 0x618 DUP6 DUP6 DUP4 PUSH2 0x639 PUSH1 0x20 SHL PUSH1 0x20 SHR JUMP JUMPDEST POP POP PUSH2 0x634 JUMP JUMPDEST POP JUMPDEST JUMPDEST PUSH2 0x633 DUP4 DUP4 DUP4 PUSH2 0x639 PUSH1 0x20 SHL PUSH1 0x20 SHR JUMP JUMPDEST JUMPDEST POP POP POP JUMP JUMPDEST PUSH2 0x647 PUSH2 0x65D PUSH1 0x20 SHL PUSH1 0x20 SHR JUMP JUMPDEST PUSH2 0x658 DUP4 DUP4 DUP4 PUSH2 0x6A4 PUSH1 0x20 SHL PUSH1 0x20 SHR JUMP JUMPDEST POP POP POP JUMP JUMPDEST PUSH2 0x66B PUSH2 0x8BD PUSH1 0x20 SHL PUSH1 0x20 SHR JUMP JUMPDEST ISZERO PUSH2 0x6A2 JUMPI PUSH1 0x40 MLOAD PUSH32 0xD93C066500000000000000000000000000000000000000000000000000000000 DUP2 MSTORE PUSH1 0x4 ADD PUSH1 0x40 MLOAD DUP1 SWAP2 SUB SWAP1 REVERT JUMPDEST JUMP JUMPDEST PUSH0 PUSH20 0xFFFFFFFFFFFFFFFFFFFFFFFFFFFFFFFFFFFFFFFF AND DUP4 PUSH20 0xFFFFFFFFFFFFFFFFFFFFFFFFFFFFFFFFFFFFFFFF AND SUB PUSH2 0x6F4 JUMPI DUP1 PUSH1 0x2 PUSH0 DUP3 DUP3 SLOAD PUSH2 0x6E8 SWAP2 SWAP1 PUSH2 0x116B JUMP JUMPDEST SWAP3 POP POP DUP2 SWAP1 SSTORE POP PUSH2 0x7C2 JUMP JUMPDEST PUSH0 PUSH0 PUSH0 DUP6 PUSH20 0xFFFFFFFFFFFFFFFFFFFFFFFFFFFFFFFFFFFFFFFF AND PUSH20 0xFFFFFFFFFFFFFFFFFFFFFFFFFFFFFFFFFFFFFFFF AND DUP2 MSTORE PUSH1 0x20 ADD SWAP1 DUP2 MSTORE PUSH1 0x20 ADD PUSH0 KECCAK256 SLOAD SWAP1 POP DUP2 DUP2 LT ISZERO PUSH2 0x77D JUMPI DUP4 DUP2 DUP4 PUSH1 0x40 MLOAD PUSH32 0xE450D38C00000000000000000000000000000000000000000000000000000000 DUP2 MSTORE PUSH1 0x4 ADD PUSH2 0x774 SWAP4 SWAP3 SWAP2 SWAP1 PUSH2 0x119E JUMP JUMPDEST PUSH1 0x40 MLOAD DUP1 SWAP2 SUB SWAP1 REVERT JUMPDEST DUP2 DUP2 SUB PUSH0 PUSH0 DUP7 PUSH20 0xFFFFFFFFFFFFFFFFFFFFFFFFFFFFFFFFFFFFFFFF AND PUSH20 0xFFFFFFFFFFFFFFFFFFFFFFFFFFFFFFFFFFFFFFFF AND DUP2 MSTORE PUSH1 0x20 ADD SWAP1 DUP2 MSTORE PUSH1 0x20 ADD PUSH0 KECCAK256 DUP2 SWAP1 SSTORE POP POP JUMPDEST PUSH0 PUSH20 0xFFFFFFFFFFFFFFFFFFFFFFFFFFFFFFFFFFFFFFFF AND DUP3 PUSH20 0xFFFFFFFFFFFFFFFFFFFFFFFFFFFFFFFFFFFFFFFF AND SUB PUSH2 0x809 JUMPI DUP1 PUSH1 0x2 PUSH0 DUP3 DUP3 SLOAD SUB SWAP3 POP POP DUP2 SWAP1 SSTORE POP PUSH2 0x853 JUMP JUMPDEST DUP1 PUSH0 PUSH0 DUP5 PUSH20 0xFFFFFFFFFFFFFFFFFFFFFFFFFFFFFFFFFFFFFFFF AND PUSH20 0xFFFFFFFFFFFFFFFFFFFFFFFFFFFFFFFFFFFFFFFF AND DUP2 MSTORE PUSH1 0x20 ADD SWAP1 DUP2 MSTORE PUSH1 0x20 ADD PUSH0 KECCAK256 PUSH0 DUP3 DUP3 SLOAD ADD SWAP3 POP POP DUP2 SWAP1 SSTORE POP JUMPDEST DUP2 PUSH20 0xFFFFFFFFFFFFFFFFFFFFFFFFFFFFFFFFFFFFFFFF AND DUP4 PUSH20 0xFFFFFFFFFFFFFFFFFFFFFFFFFFFFFFFFFFFFFFFF AND PUSH32 0xDDF252AD1BE2C89B69C2B068FC378DAA952BA7F163C4A11628F55A4DF523B3EF DUP4 PUSH1 0x40 MLOAD PUSH2 0x8B0 SWAP2 SWAP1 PUSH2 0x11D3 JUMP JUMPDEST PUSH1 0x40 MLOAD DUP1 SWAP2 SUB SWAP1 LOG3 POP POP POP JUMP JUMPDEST PUSH0 PUSH1 0x5 PUSH0 SWAP1 SLOAD SWAP1 PUSH2 0x100 EXP SWAP1 DIV PUSH1 0xFF AND SWAP1 POP SWAP1 JUMP JUMPDEST PUSH0 PUSH1 0x40 MLOAD SWAP1 POP SWAP1 JUMP JUMPDEST PUSH0 PUSH0 REVERT JUMPDEST PUSH0 PUSH0 REVERT JUMPDEST PUSH0 PUSH0 REVERT JUMPDEST PUSH0 PUSH0 REVERT JUMPDEST PUSH0 PUSH1 0x1F NOT PUSH1 0x1F DUP4 ADD AND SWAP1 POP SWAP2 SWAP1 POP JUMP JUMPDEST PUSH32 0x4E487B7100000000000000000000000000000000000000000000000000000000 PUSH0 MSTORE PUSH1 0x41 PUSH1 0x4 MSTORE PUSH1 0x24 PUSH0 REVERT JUMPDEST PUSH2 0x931 DUP3 PUSH2 0x8EB JUMP JUMPDEST DUP2 ADD DUP2 DUP2 LT PUSH8 0xFFFFFFFFFFFFFFFF DUP3 GT OR ISZERO PUSH2 0x950 JUMPI PUSH2 0x94F PUSH2 0x8FB JUMP JUMPDEST JUMPDEST DUP1 PUSH1 0x40 MSTORE POP POP POP JUMP JUMPDEST PUSH0 PUSH2 0x962 PUSH2 0x8D2 JUMP JUMPDEST SWAP1 POP PUSH2 0x96E DUP3 DUP3 PUSH2 0x928 JUMP JUMPDEST SWAP2 SWAP1 POP JUMP JUMPDEST PUSH0 PUSH8 0xFFFFFFFFFFFFFFFF DUP3 GT ISZERO PUSH2 0x98D JUMPI PUSH2 0x98C PUSH2 0x8FB JUMP JUMPDEST JUMPDEST PUSH2 0x996 DUP3 PUSH2 0x8EB JUMP JUMPDEST SWAP1 POP PUSH1 0x20 DUP2 ADD SWAP1 POP SWAP2 SWAP1 POP JUMP JUMPDEST DUP3 DUP2 DUP4 MCOPY PUSH0 DUP4 DUP4 ADD MSTORE POP POP POP JUMP JUMPDEST PUSH0 PUSH2 0x9C3 PUSH2 0x9BE DUP5 PUSH2 0x973 JUMP JUMPDEST PUSH2 0x959 JUMP JUMPDEST SWAP1 POP DUP3 DUP2 MSTORE PUSH1 0x20 DUP2 ADD DUP5 DUP5 DUP5 ADD GT ISZERO PUSH2 0x9DF JUMPI PUSH2 0x9DE PUSH2 0x8E7 JUMP JUMPDEST JUMPDEST PUSH2 0x9EA DUP5 DUP3 DUP6 PUSH2 0x9A3 JUMP JUMPDEST POP SWAP4 SWAP3 POP POP POP JUMP JUMPDEST PUSH0 DUP3 PUSH1 0x1F DUP4 ADD SLT PUSH2 0xA06 JUMPI PUSH2 0xA05 PUSH2 0x8E3 JUMP JUMPDEST JUMPDEST DUP2 MLOAD PUSH2 0xA16 DUP5 DUP3 PUSH1 0x20 DUP7 ADD PUSH2 0x9B1 JUMP JUMPDEST SWAP2 POP POP SWAP3 SWAP2 POP POP JUMP JUMPDEST PUSH0 PUSH20 0xFFFFFFFFFFFFFFFFFFFFFFFFFFFFFFFFFFFFFFFF DUP3 AND SWAP1 POP SWAP2 SWAP1 POP JUMP JUMPDEST PUSH0 PUSH2 0xA48 DUP3 PUSH2 0xA1F JUMP JUMPDEST SWAP1 POP SWAP2 SWAP1 POP JUMP JUMPDEST PUSH2 0xA58 DUP2 PUSH2 0xA3E JUMP JUMPDEST DUP2 EQ PUSH2 0xA62 JUMPI PUSH0 PUSH0 REVERT JUMPDEST POP JUMP JUMPDEST PUSH0 DUP2 MLOAD SWAP1 POP PUSH2 0xA73 DUP2 PUSH2 0xA4F JUMP JUMPDEST SWAP3 SWAP2 POP POP JUMP JUMPDEST PUSH0 DUP2 SWAP1 POP SWAP2 SWAP1 POP JUMP JUMPDEST PUSH2 0xA8B DUP2 PUSH2 0xA79 JUMP JUMPDEST DUP2 EQ PUSH2 0xA95 JUMPI PUSH0 PUSH0 REVERT JUMPDEST POP JUMP JUMPDEST PUSH0 DUP2 MLOAD SWAP1 POP PUSH2 0xAA6 DUP2 PUSH2 0xA82 JUMP JUMPDEST SWAP3 SWAP2 POP POP JUMP JUMPDEST PUSH0 PUSH0 PUSH0 PUSH0 PUSH1 0x80 DUP6 DUP8 SUB SLT ISZERO PUSH2 0xAC4 JUMPI PUSH2 0xAC3 PUSH2 0x8DB JUMP JUMPDEST JUMPDEST PUSH0 DUP6 ADD MLOAD PUSH8 0xFFFFFFFFFFFFFFFF DUP2 GT ISZERO PUSH2 0xAE1 JUMPI PUSH2 0xAE0 PUSH2 0x8DF JUMP JUMPDEST JUMPDEST PUSH2 0xAED DUP8 DUP3 DUP9 ADD PUSH2 0x9F2 JUMP JUMPDEST SWAP5 POP POP PUSH1 0x20 DUP6 ADD MLOAD PUSH8 0xFFFFFFFFFFFFFFFF DUP2 GT ISZERO PUSH2 0xB0E JUMPI PUSH2 0xB0D PUSH2 0x8DF JUMP JUMPDEST JUMPDEST PUSH2 0xB1A DUP8 DUP3 DUP9 ADD PUSH2 0x9F2 JUMP JUMPDEST SWAP4 POP POP PUSH1 0x40 PUSH2 0xB2B DUP8 DUP3 DUP9 ADD PUSH2 0xA65 JUMP JUMPDEST SWAP3 POP POP PUSH1 0x60 PUSH2 0xB3C DUP8 DUP3 DUP9 ADD PUSH2 0xA98 JUMP JUMPDEST SWAP2 POP POP SWAP3 SWAP6 SWAP2 SWAP5 POP SWAP3 POP JUMP JUMPDEST PUSH0 DUP2 MLOAD SWAP1 POP SWAP2 SWAP1 POP JUMP JUMPDEST PUSH32 0x4E487B7100000000000000000000000000000000000000000000000000000000 PUSH0 MSTORE PUSH1 0x22 PUSH1 0x4 MSTORE PUSH1 0x24 PUSH0 REVERT JUMPDEST PUSH0 PUSH1 0x2 DUP3 DIV SWAP1 POP PUSH1 0x1 DUP3 AND DUP1 PUSH2 0xB96 JUMPI PUSH1 0x7F DUP3 AND SWAP2 POP JUMPDEST PUSH1 0x20 DUP3 LT DUP2 SUB PUSH2 0xBA9 JUMPI PUSH2 0xBA8 PUSH2 0xB52 JUMP JUMPDEST JUMPDEST POP SWAP2 SWAP1 POP JUMP JUMPDEST PUSH0 DUP2 SWAP1 POP DUP2 PUSH0 MSTORE PUSH1 0x20 PUSH0 KECCAK256 SWAP1 POP SWAP2 SWAP1 POP JUMP JUMPDEST PUSH0 PUSH1 0x20 PUSH1 0x1F DUP4 ADD DIV SWAP1 POP SWAP2 SWAP1 POP JUMP JUMPDEST PUSH0 DUP3 DUP3 SHL SWAP1 POP SWAP3 SWAP2 POP POP JUMP JUMPDEST PUSH0 PUSH1 0x8 DUP4 MUL PUSH2 0xC0B PUSH32 0xFFFFFFFFFFFFFFFFFFFFFFFFFFFFFFFFFFFFFFFFFFFFFFFFFFFFFFFFFFFFFFFF DUP3 PUSH2 0xBD0 JUMP JUMPDEST PUSH2 0xC15 DUP7 DUP4 PUSH2 0xBD0 JUMP JUMPDEST SWAP6 POP DUP1 NOT DUP5 AND SWAP4 POP DUP1 DUP7 AND DUP5 OR SWAP3 POP POP POP SWAP4 SWAP3 POP POP POP JUMP JUMPDEST PUSH0 DUP2 SWAP1 POP SWAP2 SWAP1 POP JUMP JUMPDEST PUSH0 PUSH2 0xC50 PUSH2 0xC4B PUSH2 0xC46 DUP5 PUSH2 0xA79 JUMP JUMPDEST PUSH2 0xC2D JUMP JUMPDEST PUSH2 0xA79 JUMP JUMPDEST SWAP1 POP SWAP2 SWAP1 POP JUMP JUMPDEST PUSH0 DUP2 SWAP1 POP SWAP2 SWAP1 POP JUMP JUMPDEST PUSH2 0xC69 DUP4 PUSH2 0xC36 JUMP JUMPDEST PUSH2 0xC7D PUSH2 0xC75 DUP3 PUSH2 0xC57 JUMP JUMPDEST DUP5 DUP5 SLOAD PUSH2 0xBDC JUMP JUMPDEST DUP3 SSTORE POP POP POP POP JUMP JUMPDEST PUSH0 PUSH0 SWAP1 POP SWAP1 JUMP JUMPDEST PUSH2 0xC94 PUSH2 0xC85 JUMP JUMPDEST PUSH2 0xC9F DUP2 DUP5 DUP5 PUSH2 0xC60 JUMP JUMPDEST POP POP POP JUMP JUMPDEST JUMPDEST DUP2 DUP2 LT ISZERO PUSH2 0xCC2 JUMPI PUSH2 0xCB7 PUSH0 DUP3 PUSH2 0xC8C JUMP JUMPDEST PUSH1 0x1 DUP2 ADD SWAP1 POP PUSH2 0xCA5 JUMP JUMPDEST POP POP JUMP JUMPDEST PUSH1 0x1F DUP3 GT ISZERO PUSH2 0xD07 JUMPI PUSH2 0xCD8 DUP2 PUSH2 0xBAF JUMP JUMPDEST PUSH2 0xCE1 DUP5 PUSH2 0xBC1 JUMP JUMPDEST DUP2 ADD PUSH1 0x20 DUP6 LT ISZERO PUSH2 0xCF0 JUMPI DUP2 SWAP1 POP JUMPDEST PUSH2 0xD04 PUSH2 0xCFC DUP6 PUSH2 0xBC1 JUMP JUMPDEST DUP4 ADD DUP3 PUSH2 0xCA4 JUMP JUMPDEST POP POP JUMPDEST POP POP POP JUMP JUMPDEST PUSH0 DUP3 DUP3 SHR SWAP1 POP SWAP3 SWAP2 POP POP JUMP JUMPDEST PUSH0 PUSH2 0xD27 PUSH0 NOT DUP5 PUSH1 0x8 MUL PUSH2 0xD0C JUMP JUMPDEST NOT DUP1 DUP4 AND SWAP2 POP POP SWAP3 SWAP2 POP POP JUMP JUMPDEST PUSH0 PUSH2 0xD3F DUP4 DUP4 PUSH2 0xD18 JUMP JUMPDEST SWAP2 POP DUP3 PUSH1 0x2 MUL DUP3 OR SWAP1 POP SWAP3 SWAP2 POP POP JUMP JUMPDEST PUSH2 0xD58 DUP3 PUSH2 0xB48 JUMP JUMPDEST PUSH8 0xFFFFFFFFFFFFFFFF DUP2 GT ISZERO PUSH2 0xD71 JUMPI PUSH2 0xD70 PUSH2 0x8FB JUMP JUMPDEST JUMPDEST PUSH2 0xD7B DUP3 SLOAD PUSH2 0xB7F JUMP JUMPDEST PUSH2 0xD86 DUP3 DUP3 DUP6 PUSH2 0xCC6 JUMP JUMPDEST PUSH0 PUSH1 0x20 SWAP1 POP PUSH1 0x1F DUP4 GT PUSH1 0x1 DUP2 EQ PUSH2 0xDB7 JUMPI PUSH0 DUP5 ISZERO PUSH2 0xDA5 JUMPI DUP3 DUP8 ADD MLOAD SWAP1 POP JUMPDEST PUSH2 0xDAF DUP6 DUP3 PUSH2 0xD34 JUMP JUMPDEST DUP7 SSTORE POP PUSH2 0xE16 JUMP JUMPDEST PUSH1 0x1F NOT DUP5 AND PUSH2 0xDC5 DUP7 PUSH2 0xBAF JUMP JUMPDEST PUSH0 JUMPDEST DUP3 DUP2 LT ISZERO PUSH2 0xDEC JUMPI DUP5 DUP10 ADD MLOAD DUP3 SSTORE PUSH1 0x1 DUP3 ADD SWAP2 POP PUSH1 0x20 DUP6 ADD SWAP5 POP PUSH1 0x20 DUP2 ADD SWAP1 POP PUSH2 0xDC7 JUMP JUMPDEST DUP7 DUP4 LT ISZERO PUSH2 0xE09 JUMPI DUP5 DUP10 ADD MLOAD PUSH2 0xE05 PUSH1 0x1F DUP10 AND DUP3 PUSH2 0xD18 JUMP JUMPDEST DUP4 SSTORE POP JUMPDEST PUSH1 0x1 PUSH1 0x2 DUP9 MUL ADD DUP9 SSTORE POP POP POP JUMPDEST POP POP POP POP POP POP JUMP JUMPDEST PUSH2 0xE27 DUP2 PUSH2 0xA3E JUMP JUMPDEST DUP3 MSTORE POP POP JUMP JUMPDEST PUSH0 PUSH1 0x20 DUP3 ADD SWAP1 POP PUSH2 0xE40 PUSH0 DUP4 ADD DUP5 PUSH2 0xE1E JUMP JUMPDEST SWAP3 SWAP2 POP POP JUMP JUMPDEST PUSH32 0x4E487B7100000000000000000000000000000000000000000000000000000000 PUSH0 MSTORE PUSH1 0x11 PUSH1 0x4 MSTORE PUSH1 0x24 PUSH0 REVERT JUMPDEST PUSH0 DUP2 PUSH1 0x1 SHR SWAP1 POP SWAP2 SWAP1 POP JUMP JUMPDEST PUSH0 PUSH0 DUP3 SWAP2 POP DUP4 SWAP1 POP JUMPDEST PUSH1 0x1 DUP6 GT ISZERO PUSH2 0xEC8 JUMPI DUP1 DUP7 DIV DUP2 GT ISZERO PUSH2 0xEA4 JUMPI PUSH2 0xEA3 PUSH2 0xE46 JUMP JUMPDEST JUMPDEST PUSH1 0x1 DUP6 AND ISZERO PUSH2 0xEB3 JUMPI DUP1 DUP3 MUL SWAP2 POP JUMPDEST DUP1 DUP2 MUL SWAP1 POP PUSH2 0xEC1 DUP6 PUSH2 0xE73 JUMP JUMPDEST SWAP5 POP PUSH2 0xE88 JUMP JUMPDEST SWAP5 POP SWAP5 SWAP3 POP POP POP JUMP JUMPDEST PUSH0 DUP3 PUSH2 0xEE0 JUMPI PUSH1 0x1 SWAP1 POP PUSH2 0xF9B JUMP JUMPDEST DUP2 PUSH2 0xEED JUMPI PUSH0 SWAP1 POP PUSH2 0xF9B JUMP JUMPDEST DUP2 PUSH1 0x1 DUP2 EQ PUSH2 0xF03 JUMPI PUSH1 0x2 DUP2 EQ PUSH2 0xF0D JUMPI PUSH2 0xF3C JUMP JUMPDEST PUSH1 0x1 SWAP2 POP POP PUSH2 0xF9B JUMP JUMPDEST PUSH1 0xFF DUP5 GT ISZERO PUSH2 0xF1F JUMPI PUSH2 0xF1E PUSH2 0xE46 JUMP JUMPDEST JUMPDEST DUP4 PUSH1 0x2 EXP SWAP2 POP DUP5 DUP3 GT ISZERO PUSH2 0xF36 JUMPI PUSH2 0xF35 PUSH2 0xE46 JUMP JUMPDEST JUMPDEST POP PUSH2 0xF9B JUMP JUMPDEST POP PUSH1 0x20 DUP4 LT PUSH2 0x133 DUP4 LT AND PUSH1 0x4E DUP5 LT PUSH1 0xB DUP5 LT AND OR ISZERO PUSH2 0xF71 JUMPI DUP3 DUP3 EXP SWAP1 POP DUP4 DUP2 GT ISZERO PUSH2 0xF6C JUMPI PUSH2 0xF6B PUSH2 0xE46 JUMP JUMPDEST JUMPDEST PUSH2 0xF9B JUMP JUMPDEST PUSH2 0xF7E DUP5 DUP5 DUP5 PUSH1 0x1 PUSH2 0xE7F JUMP JUMPDEST SWAP3 POP SWAP1 POP DUP2 DUP5 DIV DUP2 GT ISZERO PUSH2 0xF95 JUMPI PUSH2 0xF94 PUSH2 0xE46 JUMP JUMPDEST JUMPDEST DUP2 DUP2 MUL SWAP1 POP JUMPDEST SWAP4 SWAP3 POP POP POP JUMP JUMPDEST PUSH0 PUSH1 0xFF DUP3 AND SWAP1 POP SWAP2 SWAP1 POP JUMP JUMPDEST PUSH0 PUSH2 0xFB8 DUP3 PUSH2 0xA79 JUMP JUMPDEST SWAP2 POP PUSH2 0xFC3 DUP4 PUSH2 0xFA2 JUMP JUMPDEST SWAP3 POP PUSH2 0xFF0 PUSH32 0xFFFFFFFFFFFFFFFFFFFFFFFFFFFFFFFFFFFFFFFFFFFFFFFFFFFFFFFFFFFFFFFF DUP5 DUP5 PUSH2 0xED1 JUMP JUMPDEST SWAP1 POP SWAP3 SWAP2 POP POP JUMP JUMPDEST PUSH0 PUSH2 0x1002 DUP3 PUSH2 0xA79 JUMP JUMPDEST SWAP2 POP PUSH2 0x100D DUP4 PUSH2 0xA79 JUMP JUMPDEST SWAP3 POP DUP3 DUP3 MUL PUSH2 0x101B DUP2 PUSH2 0xA79 JUMP JUMPDEST SWAP2 POP DUP3 DUP3 DIV DUP5 EQ DUP4 ISZERO OR PUSH2 0x1032 JUMPI PUSH2 0x1031 PUSH2 0xE46 JUMP JUMPDEST JUMPDEST POP SWAP3 SWAP2 POP POP JUMP JUMPDEST PUSH0 DUP2 SWAP1 POP SWAP2 SWAP1 POP JUMP JUMPDEST PUSH0 PUSH2 0x105C PUSH2 0x1057 PUSH2 0x1052 DUP5 PUSH2 0x1039 JUMP JUMPDEST PUSH2 0xC2D JUMP JUMPDEST PUSH2 0xA79 JUMP JUMPDEST SWAP1 POP SWAP2 SWAP1 POP JUMP JUMPDEST PUSH2 0x106C DUP2 PUSH2 0x1042 JUMP JUMPDEST DUP3 MSTORE POP POP JUMP JUMPDEST PUSH2 0x107B DUP2 PUSH2 0xA79 JUMP JUMPDEST DUP3 MSTORE POP POP JUMP JUMPDEST PUSH0 PUSH1 0x40 DUP3 ADD SWAP1 POP PUSH2 0x1094 PUSH0 DUP4 ADD DUP6 PUSH2 0x1063 JUMP JUMPDEST PUSH2 0x10A1 PUSH1 0x20 DUP4 ADD DUP5 PUSH2 0x1072 JUMP JUMPDEST SWAP4 SWAP3 POP POP POP JUMP JUMPDEST PUSH0 DUP2 ISZERO ISZERO SWAP1 POP SWAP2 SWAP1 POP JUMP JUMPDEST PUSH2 0x10BC DUP2 PUSH2 0x10A8 JUMP JUMPDEST DUP3 MSTORE POP POP JUMP JUMPDEST PUSH0 PUSH1 0x20 DUP3 ADD SWAP1 POP PUSH2 0x10D5 PUSH0 DUP4 ADD DUP5 PUSH2 0x10B3 JUMP JUMPDEST SWAP3 SWAP2 POP POP JUMP JUMPDEST PUSH32 0x4E487B7100000000000000000000000000000000000000000000000000000000 PUSH0 MSTORE PUSH1 0x12 PUSH1 0x4 MSTORE PUSH1 0x24 PUSH0 REVERT JUMPDEST PUSH0 PUSH2 0x1112 DUP3 PUSH2 0xA79 JUMP JUMPDEST SWAP2 POP PUSH2 0x111D DUP4 PUSH2 0xA79 JUMP JUMPDEST SWAP3 POP DUP3 PUSH2 0x112D JUMPI PUSH2 0x112C PUSH2 0x10DB JUMP JUMPDEST JUMPDEST DUP3 DUP3 DIV SWAP1 POP SWAP3 SWAP2 POP POP JUMP JUMPDEST PUSH0 PUSH2 0x1142 DUP3 PUSH2 0xA79 JUMP JUMPDEST SWAP2 POP PUSH2 0x114D DUP4 PUSH2 0xA79 JUMP JUMPDEST SWAP3 POP DUP3 DUP3 SUB SWAP1 POP DUP2 DUP2 GT ISZERO PUSH2 0x1165 JUMPI PUSH2 0x1164 PUSH2 0xE46 JUMP JUMPDEST JUMPDEST SWAP3 SWAP2 POP POP JUMP JUMPDEST PUSH0 PUSH2 0x1175 DUP3 PUSH2 0xA79 JUMP JUMPDEST SWAP2 POP PUSH2 0x1180 DUP4 PUSH2 0xA79 JUMP JUMPDEST SWAP3 POP DUP3 DUP3 ADD SWAP1 POP DUP1 DUP3 GT ISZERO PUSH2 0x1198 JUMPI PUSH2 0x1197 PUSH2 0xE46 JUMP JUMPDEST JUMPDEST SWAP3 SWAP2 POP POP JUMP JUMPDEST PUSH0 PUSH1 0x60 DUP3 ADD SWAP1 POP PUSH2 0x11B1 PUSH0 DUP4 ADD DUP7 PUSH2 0xE1E JUMP JUMPDEST PUSH2 0x11BE PUSH1 0x20 DUP4 ADD DUP6 PUSH2 0x1072 JUMP JUMPDEST PUSH2 0x11CB PUSH1 0x40 DUP4 ADD DUP5 PUSH2 0x1072 JUMP JUMPDEST SWAP5 SWAP4 POP POP POP POP JUMP JUMPDEST PUSH0 PUSH1 0x20 DUP3 ADD SWAP1 POP PUSH2 0x11E6 PUSH0 DUP4 ADD DUP5 PUSH2 0x1072 JUMP JUMPDEST SWAP3 SWAP2 POP POP JUMP JUMPDEST PUSH2 0x19ED DUP1 PUSH2 0x11F9 PUSH0 CODECOPY PUSH0 RETURN INVALID PUSH1 0x80 PUSH1 0x40 MSTORE CALLVALUE DUP1 ISZERO PUSH2 0xF JUMPI PUSH0 PUSH0 REVERT JUMPDEST POP PUSH1 0x4 CALLDATASIZE LT PUSH2 0x171 JUMPI PUSH0 CALLDATALOAD PUSH1 0xE0 SHR DUP1 PUSH4 0x751FD179 GT PUSH2 0xDC JUMPI DUP1 PUSH4 0xA071DCF4 GT PUSH2 0x95 JUMPI DUP1 PUSH4 0xC4081A4C GT PUSH2 0x6F JUMPI DUP1 PUSH4 0xC4081A4C EQ PUSH2 0x419 JUMPI DUP1 PUSH4 0xDD62ED3E EQ PUSH2 0x435 JUMPI DUP1 PUSH4 0xF0F44260 EQ PUSH2 0x465 JUMPI DUP1 PUSH4 0xF2FDE38B EQ PUSH2 0x481 JUMPI PUSH2 0x171 JUMP JUMPDEST DUP1 PUSH4 0xA071DCF4 EQ PUSH2 0x3AD JUMPI DUP1 PUSH4 0xA9059CBB EQ PUSH2 0x3CB JUMPI DUP1 PUSH4 0xBC063E1A EQ PUSH2 0x3FB JUMPI PUSH2 0x171 JUMP JUMPDEST DUP1 PUSH4 0x751FD179 EQ PUSH2 0x30F JUMPI DUP1 PUSH4 0x8456CB59 EQ PUSH2 0x32B JUMPI DUP1 PUSH4 0x8DA5CB5B EQ PUSH2 0x335 JUMPI DUP1 PUSH4 0x92828671 EQ PUSH2 0x353 JUMPI DUP1 PUSH4 0x95D89B41 EQ PUSH2 0x371 JUMPI DUP1 PUSH4 0x99F3BC9A EQ PUSH2 0x38F JUMPI PUSH2 0x171 JUMP JUMPDEST DUP1 PUSH4 0x3F4BA83A GT PUSH2 0x12E JUMPI DUP1 PUSH4 0x3F4BA83A EQ PUSH2 0x25F JUMPI DUP1 PUSH4 0x483A9310 EQ PUSH2 0x269 JUMPI DUP1 PUSH4 0x5C975ABB EQ PUSH2 0x299 JUMPI DUP1 PUSH4 0x61D027B3 EQ PUSH2 0x2B7 JUMPI DUP1 PUSH4 0x70A08231 EQ PUSH2 0x2D5 JUMPI DUP1 PUSH4 0x715018A6 EQ PUSH2 0x305 JUMPI PUSH2 0x171 JUMP JUMPDEST DUP1 PUSH4 0x6FDDE03 EQ PUSH2 0x175 JUMPI DUP1 PUSH4 0x95EA7B3 EQ PUSH2 0x193 JUMPI DUP1 PUSH4 0x18160DDD EQ PUSH2 0x1C3 JUMPI DUP1 PUSH4 0x23B872DD EQ PUSH2 0x1E1 JUMPI DUP1 PUSH4 0x313CE567 EQ PUSH2 0x211 JUMPI DUP1 PUSH4 0x3F4218E0 EQ PUSH2 0x22F JUMPI JUMPDEST PUSH0 PUSH0 REVERT JUMPDEST PUSH2 0x17D PUSH2 0x49D JUMP JUMPDEST PUSH1 0x40 MLOAD PUSH2 0x18A SWAP2 SWAP1 PUSH2 0x14DB JUMP JUMPDEST PUSH1 0x40 MLOAD DUP1 SWAP2 SUB SWAP1 RETURN JUMPDEST PUSH2 0x1AD PUSH1 0x4 DUP1 CALLDATASIZE SUB DUP2 ADD SWAP1 PUSH2 0x1A8 SWAP2 SWAP1 PUSH2 0x158C JUMP JUMPDEST PUSH2 0x52D JUMP JUMPDEST PUSH1 0x40 MLOAD PUSH2 0x1BA SWAP2 SWAP1 PUSH2 0x15E4 JUMP JUMPDEST PUSH1 0x40 MLOAD DUP1 SWAP2 SUB SWAP1 RETURN JUMPDEST PUSH2 0x1CB PUSH2 0x54F JUMP JUMPDEST PUSH1 0x40 MLOAD PUSH2 0x1D8 SWAP2 SWAP1 PUSH2 0x160C JUMP JUMPDEST PUSH1 0x40 MLOAD DUP1 SWAP2 SUB SWAP1 RETURN JUMPDEST PUSH2 0x1FB PUSH1 0x4 DUP1 CALLDATASIZE SUB DUP2 ADD SWAP1 PUSH2 0x1F6 SWAP2 SWAP1 PUSH2 0x1625 JUMP JUMPDEST PUSH2 0x558 JUMP JUMPDEST PUSH1 0x40 MLOAD PUSH2 0x208 SWAP2 SWAP1 PUSH2 0x15E4 JUMP JUMPDEST PUSH1 0x40 MLOAD DUP1 SWAP2 SUB SWAP1 RETURN JUMPDEST PUSH2 0x219 PUSH2 0x586 JUMP JUMPDEST PUSH1 0x40 MLOAD PUSH2 0x226 SWAP2 SWAP1 PUSH2 0x1690 JUMP JUMPDEST PUSH1 0x40 MLOAD DUP1 SWAP2 SUB SWAP1 RETURN JUMPDEST PUSH2 0x249 PUSH1 0x4 DUP1 CALLDATASIZE SUB DUP2 ADD SWAP1 PUSH2 0x244 SWAP2 SWAP1 PUSH2 0x16A9 JUMP JUMPDEST PUSH2 0x58E JUMP JUMPDEST PUSH1 0x40 MLOAD PUSH2 0x256 SWAP2 SWAP1 PUSH2 0x15E4 JUMP JUMPDEST PUSH1 0x40 MLOAD DUP1 SWAP2 SUB SWAP1 RETURN JUMPDEST PUSH2 0x267 PUSH2 0x5AB JUMP JUMPDEST STOP JUMPDEST PUSH2 0x283 PUSH1 0x4 DUP1 CALLDATASIZE SUB DUP2 ADD SWAP1 PUSH2 0x27E SWAP2 SWAP1 PUSH2 0x16D4 JUMP JUMPDEST PUSH2 0x5BD JUMP JUMPDEST PUSH1 0x40 MLOAD PUSH2 0x290 SWAP2 SWAP1 PUSH2 0x160C JUMP JUMPDEST PUSH1 0x40 MLOAD DUP1 SWAP2 SUB SWAP1 RETURN JUMPDEST PUSH2 0x2A1 PUSH2 0x5DF JUMP JUMPDEST PUSH1 0x40 MLOAD PUSH2 0x2AE SWAP2 SWAP1 PUSH2 0x15E4 JUMP JUMPDEST PUSH1 0x40 MLOAD DUP1 SWAP2 SUB SWAP1 RETURN JUMPDEST PUSH2 0x2BF PUSH2 0x5F4 JUMP JUMPDEST PUSH1 0x40 MLOAD PUSH2 0x2CC SWAP2 SWAP1 PUSH2 0x170E JUMP JUMPDEST PUSH1 0x40 MLOAD DUP1 SWAP2 SUB SWAP1 RETURN JUMPDEST PUSH2 0x2EF PUSH1 0x4 DUP1 CALLDATASIZE SUB DUP2 ADD SWAP1 PUSH2 0x2EA SWAP2 SWAP1 PUSH2 0x16A9 JUMP JUMPDEST PUSH2 0x619 JUMP JUMPDEST PUSH1 0x40 MLOAD PUSH2 0x2FC SWAP2 SWAP1 PUSH2 0x160C JUMP JUMPDEST PUSH1 0x40 MLOAD DUP1 SWAP2 SUB SWAP1 RETURN JUMPDEST PUSH2 0x30D PUSH2 0x65E JUMP JUMPDEST STOP JUMPDEST PUSH2 0x329 PUSH1 0x4 DUP1 CALLDATASIZE SUB DUP2 ADD SWAP1 PUSH2 0x324 SWAP2 SWAP1 PUSH2 0x1751 JUMP JUMPDEST PUSH2 0x671 JUMP JUMPDEST STOP JUMPDEST PUSH2 0x333 PUSH2 0x71F JUMP JUMPDEST STOP JUMPDEST PUSH2 0x33D PUSH2 0x731 JUMP JUMPDEST PUSH1 0x40 MLOAD PUSH2 0x34A SWAP2 SWAP1 PUSH2 0x170E JUMP JUMPDEST PUSH1 0x40 MLOAD DUP1 SWAP2 SUB SWAP1 RETURN JUMPDEST PUSH2 0x35B PUSH2 0x75A JUMP JUMPDEST PUSH1 0x40 MLOAD PUSH2 0x368 SWAP2 SWAP1 PUSH2 0x160C JUMP JUMPDEST PUSH1 0x40 MLOAD DUP1 SWAP2 SUB SWAP1 RETURN JUMPDEST PUSH2 0x379 PUSH2 0x762 JUMP JUMPDEST PUSH1 0x40 MLOAD PUSH2 0x386 SWAP2 SWAP1 PUSH2 0x14DB JUMP JUMPDEST PUSH1 0x40 MLOAD DUP1 SWAP2 SUB SWAP1 RETURN JUMPDEST PUSH2 0x397 PUSH2 0x7F2 JUMP JUMPDEST PUSH1 0x40 MLOAD PUSH2 0x3A4 SWAP2 SWAP1 PUSH2 0x160C JUMP JUMPDEST PUSH1 0x40 MLOAD DUP1 SWAP2 SUB SWAP1 RETURN JUMPDEST PUSH2 0x3B5 PUSH2 0x7FB JUMP JUMPDEST PUSH1 0x40 MLOAD PUSH2 0x3C2 SWAP2 SWAP1 PUSH2 0x160C JUMP JUMPDEST PUSH1 0x40 MLOAD DUP1 SWAP2 SUB SWAP1 RETURN JUMPDEST PUSH2 0x3E5 PUSH1 0x4 DUP1 CALLDATASIZE SUB DUP2 ADD SWAP1 PUSH2 0x3E0 SWAP2 SWAP1 PUSH2 0x158C JUMP JUMPDEST PUSH2 0x801 JUMP JUMPDEST PUSH1 0x40 MLOAD PUSH2 0x3F2 SWAP2 SWAP1 PUSH2 0x15E4 JUMP JUMPDEST PUSH1 0x40 MLOAD DUP1 SWAP2 SUB SWAP1 RETURN JUMPDEST PUSH2 0x403 PUSH2 0x823 JUMP JUMPDEST PUSH1 0x40 MLOAD PUSH2 0x410 SWAP2 SWAP1 PUSH2 0x160C JUMP JUMPDEST PUSH1 0x40 MLOAD DUP1 SWAP2 SUB SWAP1 RETURN JUMPDEST PUSH2 0x433 PUSH1 0x4 DUP1 CALLDATASIZE SUB DUP2 ADD SWAP1 PUSH2 0x42E SWAP2 SWAP1 PUSH2 0x16D4 JUMP JUMPDEST PUSH2 0x828 JUMP JUMPDEST STOP JUMPDEST PUSH2 0x44F PUSH1 0x4 DUP1 CALLDATASIZE SUB DUP2 ADD SWAP1 PUSH2 0x44A SWAP2 SWAP1 PUSH2 0x178F JUMP JUMPDEST PUSH2 0x8B6 JUMP JUMPDEST PUSH1 0x40 MLOAD PUSH2 0x45C SWAP2 SWAP1 PUSH2 0x160C JUMP JUMPDEST PUSH1 0x40 MLOAD DUP1 SWAP2 SUB SWAP1 RETURN JUMPDEST PUSH2 0x47F PUSH1 0x4 DUP1 CALLDATASIZE SUB DUP2 ADD SWAP1 PUSH2 0x47A SWAP2 SWAP1 PUSH2 0x16A9 JUMP JUMPDEST PUSH2 0x938 JUMP JUMPDEST STOP JUMPDEST PUSH2 0x49B PUSH1 0x4 DUP1 CALLDATASIZE SUB DUP2 ADD SWAP1 PUSH2 0x496 SWAP2 SWAP1 PUSH2 0x16A9 JUMP JUMPDEST PUSH2 0xBAE JUMP JUMPDEST STOP JUMPDEST PUSH1 0x60 PUSH1 0x3 DUP1 SLOAD PUSH2 0x4AC SWAP1 PUSH2 0x17FA JUMP JUMPDEST DUP1 PUSH1 0x1F ADD PUSH1 0x20 DUP1 SWAP2 DIV MUL PUSH1 0x20 ADD PUSH1 0x40 MLOAD SWAP1 DUP2 ADD PUSH1 0x40 MSTORE DUP1 SWAP3 SWAP2 SWAP1 DUP2 DUP2 MSTORE PUSH1 0x20 ADD DUP3 DUP1 SLOAD PUSH2 0x4D8 SWAP1 PUSH2 0x17FA JUMP JUMPDEST DUP1 ISZERO PUSH2 0x523 JUMPI DUP1 PUSH1 0x1F LT PUSH2 0x4FA JUMPI PUSH2 0x100 DUP1 DUP4 SLOAD DIV MUL DUP4 MSTORE SWAP2 PUSH1 0x20 ADD SWAP2 PUSH2 0x523 JUMP JUMPDEST DUP3 ADD SWAP2 SWAP1 PUSH0 MSTORE PUSH1 0x20 PUSH0 KECCAK256 SWAP1 JUMPDEST DUP2 SLOAD DUP2 MSTORE SWAP1 PUSH1 0x1 ADD SWAP1 PUSH1 0x20 ADD DUP1 DUP4 GT PUSH2 0x506 JUMPI DUP3 SWAP1 SUB PUSH1 0x1F AND DUP3 ADD SWAP2 JUMPDEST POP POP POP POP POP SWAP1 POP SWAP1 JUMP JUMPDEST PUSH0 PUSH0 PUSH2 0x537 PUSH2 0xC32 JUMP JUMPDEST SWAP1 POP PUSH2 0x544 DUP2 DUP6 DUP6 PUSH2 0xC39 JUMP JUMPDEST PUSH1 0x1 SWAP2 POP POP SWAP3 SWAP2 POP POP JUMP JUMPDEST PUSH0 PUSH1 0x2 SLOAD SWAP1 POP SWAP1 JUMP JUMPDEST PUSH0 PUSH0 PUSH2 0x562 PUSH2 0xC32 JUMP JUMPDEST SWAP1 POP PUSH2 0x56F DUP6 DUP3 DUP6 PUSH2 0xC4B JUMP JUMPDEST PUSH2 0x57A DUP6 DUP6 DUP6 PUSH2 0xCDE JUMP JUMPDEST PUSH1 0x1 SWAP2 POP POP SWAP4 SWAP3 POP POP POP JUMP JUMPDEST PUSH0 PUSH1 0x12 SWAP1 POP SWAP1 JUMP JUMPDEST PUSH1 0x8 PUSH1 0x20 MSTORE DUP1 PUSH0 MSTORE PUSH1 0x40 PUSH0 KECCAK256 PUSH0 SWAP2 POP SLOAD SWAP1 PUSH2 0x100 EXP SWAP1 DIV PUSH1 0xFF AND DUP2 JUMP JUMPDEST PUSH2 0x5B3 PUSH2 0xDDB JUMP JUMPDEST PUSH2 0x5BB PUSH2 0xE62 JUMP JUMPDEST JUMP JUMPDEST PUSH0 PUSH1 0xC8 PUSH1 0x7 SLOAD DUP4 PUSH2 0x5CE SWAP2 SWAP1 PUSH2 0x1857 JUMP JUMPDEST PUSH2 0x5D8 SWAP2 SWAP1 PUSH2 0x18C5 JUMP JUMPDEST SWAP1 POP SWAP2 SWAP1 POP JUMP JUMPDEST PUSH0 PUSH1 0x5 PUSH0 SWAP1 SLOAD SWAP1 PUSH2 0x100 EXP SWAP1 DIV PUSH1 0xFF AND SWAP1 POP SWAP1 JUMP JUMPDEST PUSH1 0x6 PUSH0 SWAP1 SLOAD SWAP1 PUSH2 0x100 EXP SWAP1 DIV PUSH20 0xFFFFFFFFFFFFFFFFFFFFFFFFFFFFFFFFFFFFFFFF AND DUP2 JUMP JUMPDEST PUSH0 PUSH0 PUSH0 DUP4 PUSH20 0xFFFFFFFFFFFFFFFFFFFFFFFFFFFFFFFFFFFFFFFF AND PUSH20 0xFFFFFFFFFFFFFFFFFFFFFFFFFFFFFFFFFFFFFFFF AND DUP2 MSTORE PUSH1 0x20 ADD SWAP1 DUP2 MSTORE PUSH1 0x20 ADD PUSH0 KECCAK256 SLOAD SWAP1 POP SWAP2 SWAP1 POP JUMP JUMPDEST PUSH2 0x666 PUSH2 0xDDB JUMP JUMPDEST PUSH2 0x66F PUSH0 PUSH2 0xEC3 JUMP JUMPDEST JUMP JUMPDEST PUSH2 0x679 PUSH2 0xDDB JUMP JUMPDEST DUP1 PUSH1 0x8 PUSH0 DUP5 PUSH20 0xFFFFFFFFFFFFFFFFFFFFFFFFFFFFFFFFFFFFFFFF AND PUSH20 0xFFFFFFFFFFFFFFFFFFFFFFFFFFFFFFFFFFFFFFFF AND DUP2 MSTORE PUSH1 0x20 ADD SWAP1 DUP2 MSTORE PUSH1 0x20 ADD PUSH0 KECCAK256 PUSH0 PUSH2 0x100 EXP DUP2 SLOAD DUP2 PUSH1 0xFF MUL NOT AND SWAP1 DUP4 ISZERO ISZERO MUL OR SWAP1 SSTORE POP DUP2 PUSH20 0xFFFFFFFFFFFFFFFFFFFFFFFFFFFFFFFFFFFFFFFF AND PUSH32 0x69E34A174B4A0CCE59950C4C852317E9797BDCAE125FBF8B5DD8B4311384412F DUP3 PUSH1 0x40 MLOAD PUSH2 0x713 SWAP2 SWAP1 PUSH2 0x15E4 JUMP JUMPDEST PUSH1 0x40 MLOAD DUP1 SWAP2 SUB SWAP1 LOG2 POP POP JUMP JUMPDEST PUSH2 0x727 PUSH2 0xDDB JUMP JUMPDEST PUSH2 0x72F PUSH2 0xF88 JUMP JUMPDEST JUMP JUMPDEST PUSH0 PUSH1 0x5 PUSH1 0x1 SWAP1 SLOAD SWAP1 PUSH2 0x100 EXP SWAP1 DIV PUSH20 0xFFFFFFFFFFFFFFFFFFFFFFFFFFFFFFFFFFFFFFFF AND SWAP1 POP SWAP1 JUMP JUMPDEST PUSH0 PUSH1 0xC8 SWAP1 POP SWAP1 JUMP JUMPDEST PUSH1 0x60 PUSH1 0x4 DUP1 SLOAD PUSH2 0x771 SWAP1 PUSH2 0x17FA JUMP JUMPDEST DUP1 PUSH1 0x1F ADD PUSH1 0x20 DUP1 SWAP2 DIV MUL PUSH1 0x20 ADD PUSH1 0x40 MLOAD SWAP1 DUP2 ADD PUSH1 0x40 MSTORE DUP1 SWAP3 SWAP2 SWAP1 DUP2 DUP2 MSTORE PUSH1 0x20 ADD DUP3 DUP1 SLOAD PUSH2 0x79D SWAP1 PUSH2 0x17FA JUMP JUMPDEST DUP1 ISZERO PUSH2 0x7E8 JUMPI DUP1 PUSH1 0x1F LT PUSH2 0x7BF JUMPI PUSH2 0x100 DUP1 DUP4 SLOAD DIV MUL DUP4 MSTORE SWAP2 PUSH1 0x20 ADD SWAP2 PUSH2 0x7E8 JUMP JUMPDEST DUP3 ADD SWAP2 SWAP1 PUSH0 MSTORE PUSH1 0x20 PUSH0 KECCAK256 SWAP1 JUMPDEST DUP2 SLOAD DUP2 MSTORE SWAP1 PUSH1 0x1 ADD SWAP1 PUSH1 0x20 ADD DUP1 DUP4 GT PUSH2 0x7CB JUMPI DUP3 SWAP1 SUB PUSH1 0x1F AND DUP3 ADD SWAP2 JUMPDEST POP POP POP POP POP SWAP1 POP SWAP1 JUMP JUMPDEST PUSH0 PUSH1 0x7 SLOAD SWAP1 POP SWAP1 JUMP JUMPDEST PUSH1 0x7 SLOAD DUP2 JUMP JUMPDEST PUSH0 PUSH0 PUSH2 0x80B PUSH2 0xC32 JUMP JUMPDEST SWAP1 POP PUSH2 0x818 DUP2 DUP6 DUP6 PUSH2 0xCDE JUMP JUMPDEST PUSH1 0x1 SWAP2 POP POP SWAP3 SWAP2 POP POP JUMP JUMPDEST PUSH1 0xC8 DUP2 JUMP JUMPDEST PUSH2 0x830 PUSH2 0xDDB JUMP JUMPDEST PUSH2 0x2710 DUP2 GT ISZERO PUSH2 0x86C JUMPI PUSH1 0x40 MLOAD PUSH32 0x5BA09AE000000000000000000000000000000000000000000000000000000000 DUP2 MSTORE PUSH1 0x4 ADD PUSH1 0x40 MLOAD DUP1 SWAP2 SUB SWAP1 REVERT JUMPDEST PUSH0 PUSH1 0x7 SLOAD SWAP1 POP DUP2 PUSH1 0x7 DUP2 SWAP1 SSTORE POP PUSH32 0x2211ABB4BBC4D80B7505C31B54D01D15AC6E33A42C59540D309D89DAF759063A DUP2 DUP4 PUSH1 0x40 MLOAD PUSH2 0x8AA SWAP3 SWAP2 SWAP1 PUSH2 0x18F5 JUMP JUMPDEST PUSH1 0x40 MLOAD DUP1 SWAP2 SUB SWAP1 LOG1 POP POP JUMP JUMPDEST PUSH0 PUSH1 0x1 PUSH0 DUP5 PUSH20 0xFFFFFFFFFFFFFFFFFFFFFFFFFFFFFFFFFFFFFFFF AND PUSH20 0xFFFFFFFFFFFFFFFFFFFFFFFFFFFFFFFFFFFFFFFF AND DUP2 MSTORE PUSH1 0x20 ADD SWAP1 DUP2 MSTORE PUSH1 0x20 ADD PUSH0 KECCAK256 PUSH0 DUP4 PUSH20 0xFFFFFFFFFFFFFFFFFFFFFFFFFFFFFFFFFFFFFFFF AND PUSH20 0xFFFFFFFFFFFFFFFFFFFFFFFFFFFFFFFFFFFFFFFF AND DUP2 MSTORE PUSH1 0x20 ADD SWAP1 DUP2 MSTORE PUSH1 0x20 ADD PUSH0 KECCAK256 SLOAD SWAP1 POP SWAP3 SWAP2 POP POP JUMP JUMPDEST PUSH2 0x940 PUSH2 0xDDB JUMP JUMPDEST PUSH0 PUSH20 0xFFFFFFFFFFFFFFFFFFFFFFFFFFFFFFFFFFFFFFFF AND DUP2 PUSH20 0xFFFFFFFFFFFFFFFFFFFFFFFFFFFFFFFFFFFFFFFF AND SUB PUSH2 0x9A5 JUMPI PUSH1 0x40 MLOAD PUSH32 0xCFE2EA6300000000000000000000000000000000000000000000000000000000 DUP2 MSTORE PUSH1 0x4 ADD PUSH1 0x40 MLOAD DUP1 SWAP2 SUB SWAP1 REVERT JUMPDEST PUSH0 PUSH1 0x6 PUSH0 SWAP1 SLOAD SWAP1 PUSH2 0x100 EXP SWAP1 DIV PUSH20 0xFFFFFFFFFFFFFFFFFFFFFFFFFFFFFFFFFFFFFFFF AND SWAP1 POP DUP2 PUSH1 0x6 PUSH0 PUSH2 0x100 EXP DUP2 SLOAD DUP2 PUSH20 0xFFFFFFFFFFFFFFFFFFFFFFFFFFFFFFFFFFFFFFFF MUL NOT AND SWAP1 DUP4 PUSH20 0xFFFFFFFFFFFFFFFFFFFFFFFFFFFFFFFFFFFFFFFF AND MUL OR SWAP1 SSTORE POP PUSH0 PUSH1 0x8 PUSH0 DUP4 PUSH20 0xFFFFFFFFFFFFFFFFFFFFFFFFFFFFFFFFFFFFFFFF AND PUSH20 0xFFFFFFFFFFFFFFFFFFFFFFFFFFFFFFFFFFFFFFFF AND DUP2 MSTORE PUSH1 0x20 ADD SWAP1 DUP2 MSTORE PUSH1 0x20 ADD PUSH0 KECCAK256 PUSH0 PUSH2 0x100 EXP DUP2 SLOAD DUP2 PUSH1 0xFF MUL NOT AND SWAP1 DUP4 ISZERO ISZERO MUL OR SWAP1 SSTORE POP PUSH1 0x1 PUSH1 0x8 PUSH0 DUP5 PUSH20 0xFFFFFFFFFFFFFFFFFFFFFFFFFFFFFFFFFFFFFFFF AND PUSH20 0xFFFFFFFFFFFFFFFFFFFFFFFFFFFFFFFFFFFFFFFF AND DUP2 MSTORE PUSH1 0x20 ADD SWAP1 DUP2 MSTORE PUSH1 0x20 ADD PUSH0 KECCAK256 PUSH0 PUSH2 0x100 EXP DUP2 SLOAD DUP2 PUSH1 0xFF MUL NOT AND SWAP1 DUP4 ISZERO ISZERO MUL OR SWAP1 SSTORE POP DUP2 PUSH20 0xFFFFFFFFFFFFFFFFFFFFFFFFFFFFFFFFFFFFFFFF AND DUP2 PUSH20 0xFFFFFFFFFFFFFFFFFFFFFFFFFFFFFFFFFFFFFFFF AND PUSH32 0x4AB5BE82436D353E61CA18726E984E561F5C1CC7C6D38B29D2553C790434705A PUSH1 0x40 MLOAD PUSH1 0x40 MLOAD DUP1 SWAP2 SUB SWAP1 LOG3 DUP1 PUSH20 0xFFFFFFFFFFFFFFFFFFFFFFFFFFFFFFFFFFFFFFFF AND PUSH32 0x69E34A174B4A0CCE59950C4C852317E9797BDCAE125FBF8B5DD8B4311384412F PUSH0 PUSH1 0x40 MLOAD PUSH2 0xB53 SWAP2 SWAP1 PUSH2 0x15E4 JUMP JUMPDEST PUSH1 0x40 MLOAD DUP1 SWAP2 SUB SWAP1 LOG2 DUP2 PUSH20 0xFFFFFFFFFFFFFFFFFFFFFFFFFFFFFFFFFFFFFFFF AND PUSH32 0x69E34A174B4A0CCE59950C4C852317E9797BDCAE125FBF8B5DD8B4311384412F PUSH1 0x1 PUSH1 0x40 MLOAD PUSH2 0xBA2 SWAP2 SWAP1 PUSH2 0x15E4 JUMP JUMPDEST PUSH1 0x40 MLOAD DUP1 SWAP2 SUB SWAP1 LOG2 POP POP JUMP JUMPDEST PUSH2 0xBB6 PUSH2 0xDDB JUMP JUMPDEST PUSH0 PUSH20 0xFFFFFFFFFFFFFFFFFFFFFFFFFFFFFFFFFFFFFFFF AND DUP2 PUSH20 0xFFFFFFFFFFFFFFFFFFFFFFFFFFFFFFFFFFFFFFFF AND SUB PUSH2 0xC26 JUMPI PUSH0 PUSH1 0x40 MLOAD PUSH32 0x1E4FBDF700000000000000000000000000000000000000000000000000000000 DUP2 MSTORE PUSH1 0x4 ADD PUSH2 0xC1D SWAP2 SWAP1 PUSH2 0x170E JUMP JUMPDEST PUSH1 0x40 MLOAD DUP1 SWAP2 SUB SWAP1 REVERT JUMPDEST PUSH2 0xC2F DUP2 PUSH2 0xEC3 JUMP JUMPDEST POP JUMP JUMPDEST PUSH0 CALLER SWAP1 POP SWAP1 JUMP JUMPDEST PUSH2 0xC46 DUP4 DUP4 DUP4 PUSH1 0x1 PUSH2 0xFEA JUMP JUMPDEST POP POP POP JUMP JUMPDEST PUSH0 PUSH2 0xC56 DUP5 DUP5 PUSH2 0x8B6 JUMP JUMPDEST SWAP1 POP PUSH32 0xFFFFFFFFFFFFFFFFFFFFFFFFFFFFFFFFFFFFFFFFFFFFFFFFFFFFFFFFFFFFFFFF DUP2 LT ISZERO PUSH2 0xCD8 JUMPI DUP2 DUP2 LT ISZERO PUSH2 0xCC9 JUMPI DUP3 DUP2 DUP4 PUSH1 0x40 MLOAD PUSH32 0xFB8F41B200000000000000000000000000000000000000000000000000000000 DUP2 MSTORE PUSH1 0x4 ADD PUSH2 0xCC0 SWAP4 SWAP3 SWAP2 SWAP1 PUSH2 0x191C JUMP JUMPDEST PUSH1 0x40 MLOAD DUP1 SWAP2 SUB SWAP1 REVERT JUMPDEST PUSH2 0xCD7 DUP5 DUP5 DUP5 DUP5 SUB PUSH0 PUSH2 0xFEA JUMP JUMPDEST JUMPDEST POP POP POP POP JUMP JUMPDEST PUSH0 PUSH20 0xFFFFFFFFFFFFFFFFFFFFFFFFFFFFFFFFFFFFFFFF AND DUP4 PUSH20 0xFFFFFFFFFFFFFFFFFFFFFFFFFFFFFFFFFFFFFFFF AND EQ ISZERO DUP1 ISZERO PUSH2 0xD46 JUMPI POP PUSH0 PUSH20 0xFFFFFFFFFFFFFFFFFFFFFFFFFFFFFFFFFFFFFFFF AND DUP3 PUSH20 0xFFFFFFFFFFFFFFFFFFFFFFFFFFFFFFFFFFFFFFFF AND EQ ISZERO JUMPDEST ISZERO PUSH2 0xDCA JUMPI PUSH0 PUSH1 0x7 SLOAD GT ISZERO PUSH2 0xDC9 JUMPI PUSH0 PUSH1 0x64 PUSH1 0x7 SLOAD DUP4 PUSH2 0xD66 SWAP2 SWAP1 PUSH2 0x1857 JUMP JUMPDEST PUSH2 0xD70 SWAP2 SWAP1 PUSH2 0x18C5 JUMP JUMPDEST SWAP1 POP PUSH0 DUP2 GT ISZERO PUSH2 0xDC7 JUMPI PUSH2 0xDA6 DUP5 PUSH1 0x6 PUSH0 SWAP1 SLOAD SWAP1 PUSH2 0x100 EXP SWAP1 DIV PUSH20 0xFFFFFFFFFFFFFFFFFFFFFFFFFFFFFFFFFFFFFFFF AND DUP4 PUSH2 0x11B9 JUMP JUMPDEST PUSH0 DUP2 DUP4 PUSH2 0xDB3 SWAP2 SWAP1 PUSH2 0x1951 JUMP JUMPDEST SWAP1 POP PUSH2 0xDC0 DUP6 DUP6 DUP4 PUSH2 0x11B9 JUMP JUMPDEST POP POP PUSH2 0xDD6 JUMP JUMPDEST POP JUMPDEST JUMPDEST PUSH2 0xDD5 DUP4 DUP4 DUP4 PUSH2 0x11B9 JUMP JUMPDEST JUMPDEST POP POP POP JUMP JUMPDEST PUSH2 0xDE3 PUSH2 0xC32 JUMP JUMPDEST PUSH20 0xFFFFFFFFFFFFFFFFFFFFFFFFFFFFFFFFFFFFFFFF AND PUSH2 0xE01 PUSH2 0x731 JUMP JUMPDEST PUSH20 0xFFFFFFFFFFFFFFFFFFFFFFFFFFFFFFFFFFFFFFFF AND EQ PUSH2 0xE60 JUMPI PUSH2 0xE24 PUSH2 0xC32 JUMP JUMPDEST PUSH1 0x40 MLOAD PUSH32 0x118CDAA700000000000000000000000000000000000000000000000000000000 DUP2 MSTORE PUSH1 0x4 ADD PUSH2 0xE57 SWAP2 SWAP1 PUSH2 0x170E JUMP JUMPDEST PUSH1 0x40 MLOAD DUP1 SWAP2 SUB SWAP1 REVERT JUMPDEST JUMP JUMPDEST PUSH2 0xE6A PUSH2 0x11D1 JUMP JUMPDEST PUSH0 PUSH1 0x5 PUSH0 PUSH2 0x100 EXP DUP2 SLOAD DUP2 PUSH1 0xFF MUL NOT AND SWAP1 DUP4 ISZERO ISZERO MUL OR SWAP1 SSTORE POP PUSH32 0x5DB9EE0A495BF2E6FF9C91A7834C1BA4FDD244A5E8AA4E537BD38AEAE4B073AA PUSH2 0xEAC PUSH2 0xC32 JUMP JUMPDEST PUSH1 0x40 MLOAD PUSH2 0xEB9 SWAP2 SWAP1 PUSH2 0x170E JUMP JUMPDEST PUSH1 0x40 MLOAD DUP1 SWAP2 SUB SWAP1 LOG1 JUMP JUMPDEST PUSH0 PUSH1 0x5 PUSH1 0x1 SWAP1 SLOAD SWAP1 PUSH2 0x100 EXP SWAP1 DIV PUSH20 0xFFFFFFFFFFFFFFFFFFFFFFFFFFFFFFFFFFFFFFFF AND SWAP1 POP DUP2 PUSH1 0x5 PUSH1 0x1 PUSH2 0x100 EXP DUP2 SLOAD DUP2 PUSH20 0xFFFFFFFFFFFFFFFFFFFFFFFFFFFFFFFFFFFFFFFF MUL NOT AND SWAP1 DUP4 PUSH20 0xFFFFFFFFFFFFFFFFFFFFFFFFFFFFFFFFFFFFFFFF AND MUL OR SWAP1 SSTORE POP DUP2 PUSH20 0xFFFFFFFFFFFFFFFFFFFFFFFFFFFFFFFFFFFFFFFF AND DUP2 PUSH20 0xFFFFFFFFFFFFFFFFFFFFFFFFFFFFFFFFFFFFFFFF AND PUSH32 0x8BE0079C531659141344CD1FD0A4F28419497F9722A3DAAFE3B4186F6B6457E0 PUSH1 0x40 MLOAD PUSH1 0x40 MLOAD DUP1 SWAP2 SUB SWAP1 LOG3 POP POP JUMP JUMPDEST PUSH2 0xF90 PUSH2 0x1211 JUMP JUMPDEST PUSH1 0x1 PUSH1 0x5 PUSH0 PUSH2 0x100 EXP DUP2 SLOAD DUP2 PUSH1 0xFF MUL NOT AND SWAP1 DUP4 ISZERO ISZERO MUL OR SWAP1 SSTORE POP PUSH32 0x62E78CEA01BEE320CD4E420270B5EA74000D11B0C9F74754EBDBFC544B05A258 PUSH2 0xFD3 PUSH2 0xC32 JUMP JUMPDEST PUSH1 0x40 MLOAD PUSH2 0xFE0 SWAP2 SWAP1 PUSH2 0x170E JUMP JUMPDEST PUSH1 0x40 MLOAD DUP1 SWAP2 SUB SWAP1 LOG1 JUMP JUMPDEST PUSH0 PUSH20 0xFFFFFFFFFFFFFFFFFFFFFFFFFFFFFFFFFFFFFFFF AND DUP5 PUSH20 0xFFFFFFFFFFFFFFFFFFFFFFFFFFFFFFFFFFFFFFFF AND SUB PUSH2 0x105A JUMPI PUSH0 PUSH1 0x40 MLOAD PUSH32 0xE602DF0500000000000000000000000000000000000000000000000000000000 DUP2 MSTORE PUSH1 0x4 ADD PUSH2 0x1051 SWAP2 SWAP1 PUSH2 0x170E JUMP JUMPDEST PUSH1 0x40 MLOAD DUP1 SWAP2 SUB SWAP1 REVERT JUMPDEST PUSH0 PUSH20 0xFFFFFFFFFFFFFFFFFFFFFFFFFFFFFFFFFFFFFFFF AND DUP4 PUSH20 0xFFFFFFFFFFFFFFFFFFFFFFFFFFFFFFFFFFFFFFFF AND SUB PUSH2 0x10CA JUMPI PUSH0 PUSH1 0x40 MLOAD PUSH32 0x94280D6200000000000000000000000000000000000000000000000000000000 DUP2 MSTORE PUSH1 0x4 ADD PUSH2 0x10C1 SWAP2 SWAP1 PUSH2 0x170E JUMP JUMPDEST PUSH1 0x40 MLOAD DUP1 SWAP2 SUB SWAP1 REVERT JUMPDEST DUP2 PUSH1 0x1 PUSH0 DUP7 PUSH20 0xFFFFFFFFFFFFFFFFFFFFFFFFFFFFFFFFFFFFFFFF AND PUSH20 0xFFFFFFFFFFFFFFFFFFFFFFFFFFFFFFFFFFFFFFFF AND DUP2 MSTORE PUSH1 0x20 ADD SWAP1 DUP2 MSTORE PUSH1 0x20 ADD PUSH0 KECCAK256 PUSH0 DUP6 PUSH20 0xFFFFFFFFFFFFFFFFFFFFFFFFFFFFFFFFFFFFFFFF AND PUSH20 0xFFFFFFFFFFFFFFFFFFFFFFFFFFFFFFFFFFFFFFFF AND DUP2 MSTORE PUSH1 0x20 ADD SWAP1 DUP2 MSTORE PUSH1 0x20 ADD PUSH0 KECCAK256 DUP2 SWAP1 SSTORE POP DUP1 ISZERO PUSH2 0x11B3 JUMPI DUP3 PUSH20 0xFFFFFFFFFFFFFFFFFFFFFFFFFFFFFFFFFFFFFFFF AND DUP5 PUSH20 0xFFFFFFFFFFFFFFFFFFFFFFFFFFFFFFFFFFFFFFFF AND PUSH32 0x8C5BE1E5EBEC7D5BD14F71427D1E84F3DD0314C0F7B2291E5B200AC8C7C3B925 DUP5 PUSH1 0x40 MLOAD PUSH2 0x11AA SWAP2 SWAP1 PUSH2 0x160C JUMP JUMPDEST PUSH1 0x40 MLOAD DUP1 SWAP2 SUB SWAP1 LOG3 JUMPDEST POP POP POP POP JUMP JUMPDEST PUSH2 0x11C1 PUSH2 0x1211 JUMP JUMPDEST PUSH2 0x11CC DUP4 DUP4 DUP4 PUSH2 0x1252 JUMP JUMPDEST POP POP POP JUMP JUMPDEST PUSH2 0x11D9 PUSH2 0x5DF JUMP JUMPDEST PUSH2 0x120F JUMPI PUSH1 0x40 MLOAD PUSH32 0x8DFC202B00000000000000000000000000000000000000000000000000000000 DUP2 MSTORE PUSH1 0x4 ADD PUSH1 0x40 MLOAD DUP1 SWAP2 SUB SWAP1 REVERT JUMPDEST JUMP JUMPDEST PUSH2 0x1219 PUSH2 0x5DF JUMP JUMPDEST ISZERO PUSH2 0x1250 JUMPI PUSH1 0x40 MLOAD PUSH32 0xD93C066500000000000000000000000000000000000000000000000000000000 DUP2 MSTORE PUSH1 0x4 ADD PUSH1 0x40 MLOAD DUP1 SWAP2 SUB SWAP1 REVERT JUMPDEST JUMP JUMPDEST PUSH0 PUSH20 0xFFFFFFFFFFFFFFFFFFFFFFFFFFFFFFFFFFFFFFFF AND DUP4 PUSH20 0xFFFFFFFFFFFFFFFFFFFFFFFFFFFFFFFFFFFFFFFF AND SUB PUSH2 0x12A2 JUMPI DUP1 PUSH1 0x2 PUSH0 DUP3 DUP3 SLOAD PUSH2 0x1296 SWAP2 SWAP1 PUSH2 0x1984 JUMP JUMPDEST SWAP3 POP POP DUP2 SWAP1 SSTORE POP PUSH2 0x1370 JUMP JUMPDEST PUSH0 PUSH0 PUSH0 DUP6 PUSH20 0xFFFFFFFFFFFFFFFFFFFFFFFFFFFFFFFFFFFFFFFF AND PUSH20 0xFFFFFFFFFFFFFFFFFFFFFFFFFFFFFFFFFFFFFFFF AND DUP2 MSTORE PUSH1 0x20 ADD SWAP1 DUP2 MSTORE PUSH1 0x20 ADD PUSH0 KECCAK256 SLOAD SWAP1 POP DUP2 DUP2 LT ISZERO PUSH2 0x132B JUMPI DUP4 DUP2 DUP4 PUSH1 0x40 MLOAD PUSH32 0xE450D38C00000000000000000000000000000000000000000000000000000000 DUP2 MSTORE PUSH1 0x4 ADD PUSH2 0x1322 SWAP4 SWAP3 SWAP2 SWAP1 PUSH2 0x191C JUMP JUMPDEST PUSH1 0x40 MLOAD DUP1 SWAP2 SUB SWAP1 REVERT JUMPDEST DUP2 DUP2 SUB PUSH0 PUSH0 DUP7 PUSH20 0xFFFFFFFFFFFFFFFFFFFFFFFFFFFFFFFFFFFFFFFF AND PUSH20 0xFFFFFFFFFFFFFFFFFFFFFFFFFFFFFFFFFFFFFFFF AND DUP2 MSTORE PUSH1 0x20 ADD SWAP1 DUP2 MSTORE PUSH1 0x20 ADD PUSH0 KECCAK256 DUP2 SWAP1 SSTORE POP POP JUMPDEST PUSH0 PUSH20 0xFFFFFFFFFFFFFFFFFFFFFFFFFFFFFFFFFFFFFFFF AND DUP3 PUSH20 0xFFFFFFFFFFFFFFFFFFFFFFFFFFFFFFFFFFFFFFFF AND SUB PUSH2 0x13B7 JUMPI DUP1 PUSH1 0x2 PUSH0 DUP3 DUP3 SLOAD SUB SWAP3 POP POP DUP2 SWAP1 SSTORE POP PUSH2 0x1401 JUMP JUMPDEST DUP1 PUSH0 PUSH0 DUP5 PUSH20 0xFFFFFFFFFFFFFFFFFFFFFFFFFFFFFFFFFFFFFFFF AND PUSH20 0xFFFFFFFFFFFFFFFFFFFFFFFFFFFFFFFFFFFFFFFF AND DUP2 MSTORE PUSH1 0x20 ADD SWAP1 DUP2 MSTORE PUSH1 0x20 ADD PUSH0 KECCAK256 PUSH0 DUP3 DUP3 SLOAD ADD SWAP3 POP POP DUP2 SWAP1 SSTORE POP JUMPDEST DUP2 PUSH20 0xFFFFFFFFFFFFFFFFFFFFFFFFFFFFFFFFFFFFFFFF AND DUP4 PUSH20 0xFFFFFFFFFFFFFFFFFFFFFFFFFFFFFFFFFFFFFFFF AND PUSH32 0xDDF252AD1BE2C89B69C2B068FC378DAA952BA7F163C4A11628F55A4DF523B3EF DUP4 PUSH1 0x40 MLOAD PUSH2 0x145E SWAP2 SWAP1 PUSH2 0x160C JUMP JUMPDEST PUSH1 0x40 MLOAD DUP1 SWAP2 SUB SWAP1 LOG3 POP POP POP JUMP JUMPDEST PUSH0 DUP2 MLOAD SWAP1 POP SWAP2 SWAP1 POP JUMP JUMPDEST PUSH0 DUP3 DUP3 MSTORE PUSH1 0x20 DUP3 ADD SWAP1 POP SWAP3 SWAP2 POP POP JUMP JUMPDEST DUP3 DUP2 DUP4 MCOPY PUSH0 DUP4 DUP4 ADD MSTORE POP POP POP JUMP JUMPDEST PUSH0 PUSH1 0x1F NOT PUSH1 0x1F DUP4 ADD AND SWAP1 POP SWAP2 SWAP1 POP JUMP JUMPDEST PUSH0 PUSH2 0x14AD DUP3 PUSH2 0x146B JUMP JUMPDEST PUSH2 0x14B7 DUP2 DUP6 PUSH2 0x1475 JUMP JUMPDEST SWAP4 POP PUSH2 0x14C7 DUP2 DUP6 PUSH1 0x20 DUP7 ADD PUSH2 0x1485 JUMP JUMPDEST PUSH2 0x14D0 DUP2 PUSH2 0x1493 JUMP JUMPDEST DUP5 ADD SWAP2 POP POP SWAP3 SWAP2 POP POP JUMP JUMPDEST PUSH0 PUSH1 0x20 DUP3 ADD SWAP1 POP DUP2 DUP2 SUB PUSH0 DUP4 ADD MSTORE PUSH2 0x14F3 DUP2 DUP5 PUSH2 0x14A3 JUMP JUMPDEST SWAP1 POP SWAP3 SWAP2 POP POP JUMP JUMPDEST PUSH0 PUSH0 REVERT JUMPDEST PUSH0 PUSH20 0xFFFFFFFFFFFFFFFFFFFFFFFFFFFFFFFFFFFFFFFF DUP3 AND SWAP1 POP SWAP2 SWAP1 POP JUMP JUMPDEST PUSH0 PUSH2 0x1528 DUP3 PUSH2 0x14FF JUMP JUMPDEST SWAP1 POP SWAP2 SWAP1 POP JUMP JUMPDEST PUSH2 0x1538 DUP2 PUSH2 0x151E JUMP JUMPDEST DUP2 EQ PUSH2 0x1542 JUMPI PUSH0 PUSH0 REVERT JUMPDEST POP JUMP JUMPDEST PUSH0 DUP2 CALLDATALOAD SWAP1 POP PUSH2 0x1553 DUP2 PUSH2 0x152F JUMP JUMPDEST SWAP3 SWAP2 POP POP JUMP JUMPDEST PUSH0 DUP2 SWAP1 POP SWAP2 SWAP1 POP JUMP JUMPDEST PUSH2 0x156B DUP2 PUSH2 0x1559 JUMP JUMPDEST DUP2 EQ PUSH2 0x1575 JUMPI PUSH0 PUSH0 REVERT JUMPDEST POP JUMP JUMPDEST PUSH0 DUP2 CALLDATALOAD SWAP1 POP PUSH2 0x1586 DUP2 PUSH2 0x1562 JUMP JUMPDEST SWAP3 SWAP2 POP POP JUMP JUMPDEST PUSH0 PUSH0 PUSH1 0x40 DUP4 DUP6 SUB SLT ISZERO PUSH2 0x15A2 JUMPI PUSH2 0x15A1 PUSH2 0x14FB JUMP JUMPDEST JUMPDEST PUSH0 PUSH2 0x15AF DUP6 DUP3 DUP7 ADD PUSH2 0x1545 JUMP JUMPDEST SWAP3 POP POP PUSH1 0x20 PUSH2 0x15C0 DUP6 DUP3 DUP7 ADD PUSH2 0x1578 JUMP JUMPDEST SWAP2 POP POP SWAP3 POP SWAP3 SWAP1 POP JUMP JUMPDEST PUSH0 DUP2 ISZERO ISZERO SWAP1 POP SWAP2 SWAP1 POP JUMP JUMPDEST PUSH2 0x15DE DUP2 PUSH2 0x15CA JUMP JUMPDEST DUP3 MSTORE POP POP JUMP JUMPDEST PUSH0 PUSH1 0x20 DUP3 ADD SWAP1 POP PUSH2 0x15F7 PUSH0 DUP4 ADD DUP5 PUSH2 0x15D5 JUMP JUMPDEST SWAP3 SWAP2 POP POP JUMP JUMPDEST PUSH2 0x1606 DUP2 PUSH2 0x1559 JUMP JUMPDEST DUP3 MSTORE POP POP JUMP JUMPDEST PUSH0 PUSH1 0x20 DUP3 ADD SWAP1 POP PUSH2 0x161F PUSH0 DUP4 ADD DUP5 PUSH2 0x15FD JUMP JUMPDEST SWAP3 SWAP2 POP POP JUMP JUMPDEST PUSH0 PUSH0 PUSH0 PUSH1 0x60 DUP5 DUP7 SUB SLT ISZERO PUSH2 0x163C JUMPI PUSH2 0x163B PUSH2 0x14FB JUMP JUMPDEST JUMPDEST PUSH0 PUSH2 0x1649 DUP7 DUP3 DUP8 ADD PUSH2 0x1545 JUMP JUMPDEST SWAP4 POP POP PUSH1 0x20 PUSH2 0x165A DUP7 DUP3 DUP8 ADD PUSH2 0x1545 JUMP JUMPDEST SWAP3 POP POP PUSH1 0x40 PUSH2 0x166B DUP7 DUP3 DUP8 ADD PUSH2 0x1578 JUMP JUMPDEST SWAP2 POP POP SWAP3 POP SWAP3 POP SWAP3 JUMP JUMPDEST PUSH0 PUSH1 0xFF DUP3 AND SWAP1 POP SWAP2 SWAP1 POP JUMP JUMPDEST PUSH2 0x168A DUP2 PUSH2 0x1675 JUMP JUMPDEST DUP3 MSTORE POP POP JUMP JUMPDEST PUSH0 PUSH1 0x20 DUP3 ADD SWAP1 POP PUSH2 0x16A3 PUSH0 DUP4 ADD DUP5 PUSH2 0x1681 JUMP JUMPDEST SWAP3 SWAP2 POP POP JUMP JUMPDEST PUSH0 PUSH1 0x20 DUP3 DUP5 SUB SLT ISZERO PUSH2 0x16BE JUMPI PUSH2 0x16BD PUSH2 0x14FB JUMP JUMPDEST JUMPDEST PUSH0 PUSH2 0x16CB DUP5 DUP3 DUP6 ADD PUSH2 0x1545 JUMP JUMPDEST SWAP2 POP POP SWAP3 SWAP2 POP POP JUMP JUMPDEST PUSH0 PUSH1 0x20 DUP3 DUP5 SUB SLT ISZERO PUSH2 0x16E9 JUMPI PUSH2 0x16E8 PUSH2 0x14FB JUMP JUMPDEST JUMPDEST PUSH0 PUSH2 0x16F6 DUP5 DUP3 DUP6 ADD PUSH2 0x1578 JUMP JUMPDEST SWAP2 POP POP SWAP3 SWAP2 POP POP JUMP JUMPDEST PUSH2 0x1708 DUP2 PUSH2 0x151E JUMP JUMPDEST DUP3 MSTORE POP POP JUMP JUMPDEST PUSH0 PUSH1 0x20 DUP3 ADD SWAP1 POP PUSH2 0x1721 PUSH0 DUP4 ADD DUP5 PUSH2 0x16FF JUMP JUMPDEST SWAP3 SWAP2 POP POP JUMP JUMPDEST PUSH2 0x1730 DUP2 PUSH2 0x15CA JUMP JUMPDEST DUP2 EQ PUSH2 0x173A JUMPI PUSH0 PUSH0 REVERT JUMPDEST POP JUMP JUMPDEST PUSH0 DUP2 CALLDATALOAD SWAP1 POP PUSH2 0x174B DUP2 PUSH2 0x1727 JUMP JUMPDEST SWAP3 SWAP2 POP POP JUMP JUMPDEST PUSH0 PUSH0 PUSH1 0x40 DUP4 DUP6 SUB SLT ISZERO PUSH2 0x1767 JUMPI PUSH2 0x1766 PUSH2 0x14FB JUMP JUMPDEST JUMPDEST PUSH0 PUSH2 0x1774 DUP6 DUP3 DUP7 ADD PUSH2 0x1545 JUMP JUMPDEST SWAP3 POP POP PUSH1 0x20 PUSH2 0x1785 DUP6 DUP3 DUP7 ADD PUSH2 0x173D JUMP JUMPDEST SWAP2 POP POP SWAP3 POP SWAP3 SWAP1 POP JUMP JUMPDEST PUSH0 PUSH0 PUSH1 0x40 DUP4 DUP6 SUB SLT ISZERO PUSH2 0x17A5 JUMPI PUSH2 0x17A4 PUSH2 0x14FB JUMP JUMPDEST JUMPDEST PUSH0 PUSH2 0x17B2 DUP6 DUP3 DUP7 ADD PUSH2 0x1545 JUMP JUMPDEST SWAP3 POP POP PUSH1 0x20 PUSH2 0x17C3 DUP6 DUP3 DUP7 ADD PUSH2 0x1545 JUMP JUMPDEST SWAP2 POP POP SWAP3 POP SWAP3 SWAP1 POP JUMP JUMPDEST PUSH32 0x4E487B7100000000000000000000000000000000000000000000000000000000 PUSH0 MSTORE PUSH1 0x22 PUSH1 0x4 MSTORE PUSH1 0x24 PUSH0 REVERT JUMPDEST PUSH0 PUSH1 0x2 DUP3 DIV SWAP1 POP PUSH1 0x1 DUP3 AND DUP1 PUSH2 0x1811 JUMPI PUSH1 0x7F DUP3 AND SWAP2 POP JUMPDEST PUSH1 0x20 DUP3 LT DUP2 SUB PUSH2 0x1824 JUMPI PUSH2 0x1823 PUSH2 0x17CD JUMP JUMPDEST JUMPDEST POP SWAP2 SWAP1 POP JUMP JUMPDEST PUSH32 0x4E487B7100000000000000000000000000000000000000000000000000000000 PUSH0 MSTORE PUSH1 0x11 PUSH1 0x4 MSTORE PUSH1 0x24 PUSH0 REVERT JUMPDEST PUSH0 PUSH2 0x1861 DUP3 PUSH2 0x1559 JUMP JUMPDEST SWAP2 POP PUSH2 0x186C DUP4 PUSH2 0x1559 JUMP JUMPDEST SWAP3 POP DUP3 DUP3 MUL PUSH2 0x187A DUP2 PUSH2 0x1559 JUMP JUMPDEST SWAP2 POP DUP3 DUP3 DIV DUP5 EQ DUP4 ISZERO OR PUSH2 0x1891 JUMPI PUSH2 0x1890 PUSH2 0x182A JUMP JUMPDEST JUMPDEST POP SWAP3 SWAP2 POP POP JUMP JUMPDEST PUSH32 0x4E487B7100000000000000000000000000000000000000000000000000000000 PUSH0 MSTORE PUSH1 0x12 PUSH1 0x4 MSTORE PUSH1 0x24 PUSH0 REVERT JUMPDEST PUSH0 PUSH2 0x18CF DUP3 PUSH2 0x1559 JUMP JUMPDEST SWAP2 POP PUSH2 0x18DA DUP4 PUSH2 0x1559 JUMP JUMPDEST SWAP3 POP DUP3 PUSH2 0x18EA JUMPI PUSH2 0x18E9 PUSH2 0x1898 JUMP JUMPDEST JUMPDEST DUP3 DUP3 DIV SWAP1 POP SWAP3 SWAP2 POP POP JUMP JUMPDEST PUSH0 PUSH1 0x40 DUP3 ADD SWAP1 POP PUSH2 0x1908 PUSH0 DUP4 ADD DUP6 PUSH2 0x15FD JUMP JUMPDEST PUSH2 0x1915 PUSH1 0x20 DUP4 ADD DUP5 PUSH2 0x15FD JUMP JUMPDEST SWAP4 SWAP3 POP POP POP JUMP JUMPDEST PUSH0 PUSH1 0x60 DUP3 ADD SWAP1 POP PUSH2 0x192F PUSH0 DUP4 ADD DUP7 PUSH2 0x16FF JUMP JUMPDEST PUSH2 0x193C PUSH1 0x20 DUP4 ADD DUP6 PUSH2 0x15FD JUMP JUMPDEST PUSH2 0x1949 PUSH1 0x40 DUP4 ADD DUP5 PUSH2 0x15FD JUMP JUMPDEST SWAP5 SWAP4 POP POP POP POP JUMP JUMPDEST PUSH0 PUSH2 0x195B DUP3 PUSH2 0x1559 JUMP JUMPDEST SWAP2 POP PUSH2 0x1966 DUP4 PUSH2 0x1559 JUMP JUMPDEST SWAP3 POP DUP3 DUP3 SUB SWAP1 POP DUP2 DUP2 GT ISZERO PUSH2 0x197E JUMPI PUSH2 0x197D PUSH2 0x182A JUMP JUMPDEST JUMPDEST SWAP3 SWAP2 POP POP JUMP JUMPDEST PUSH0 PUSH2 0x198E DUP3 PUSH2 0x1559 JUMP JUMPDEST SWAP2 POP PUSH2 0x1999 DUP4 PUSH2 0x1559 JUMP JUMPDEST SWAP3 POP DUP3 DUP3 ADD SWAP1 POP DUP1 DUP3 GT ISZERO PUSH2 0x19B1 JUMPI PUSH2 0x19B0 PUSH2 0x182A JUMP JUMPDEST JUMPDEST SWAP3 SWAP2 POP POP JUMP INVALID LOG2 PUSH5 0x6970667358 0x22 SLT KECCAK256 0xCE RETURNDATACOPY STATICCALL 0x2B 0xB5 NOT 0xC0 0xDA CREATE2 0xA6 0xB7 0xBE 0xB3 PUSH6 0xE06DC3C093A9 STATICCALL PUSH28 0x1BABC1B5000F6FB2787264736F6C634300081E003300000000000000 "
				},
				"gasEstimates": {
					"creation": {
						"codeDepositCost": "1327400",
						"executionCost": "infinite",
						"totalCost": "infinite"
					},
					"external": {
						"MAX_FEE()": "414",
						"allowance(address,address)": "infinite",
						"approve(address,uint256)": "infinite",
						"balanceOf(address)": "2939",
						"calculateTax(uint256)": "infinite",
						"decimals()": "450",
						"getMaxFee()": "421",
						"getTaxFeePercentage()": "2565",
						"isFeeExempt(address)": "2967",
						"name()": "infinite",
						"owner()": "2633",
						"pause()": "infinite",
						"paused()": "2540",
						"renounceOwnership()": "infinite",
						"setFeeExemption(address,bool)": "infinite",
						"setTaxFee(uint256)": "infinite",
						"setTreasury(address)": "infinite",
						"symbol()": "infinite",
						"taxFee()": "2470",
						"totalSupply()": "2500",
						"transfer(address,uint256)": "infinite",
						"transferFrom(address,address,uint256)": "infinite",
						"transferOwnership(address)": "infinite",
						"treasury()": "2597",
						"unpause()": "infinite"
					},
					"internal": {
						"_update(address,address,uint256)": "infinite"
					}
				},
				"methodIdentifiers": {
					"MAX_FEE()": "bc063e1a",
					"allowance(address,address)": "dd62ed3e",
					"approve(address,uint256)": "095ea7b3",
					"balanceOf(address)": "70a08231",
					"calculateTax(uint256)": "483a9310",
					"decimals()": "313ce567",
					"getMaxFee()": "92828671",
					"getTaxFeePercentage()": "99f3bc9a",
					"isFeeExempt(address)": "3f4218e0",
					"name()": "06fdde03",
					"owner()": "8da5cb5b",
					"pause()": "8456cb59",
					"paused()": "5c975abb",
					"renounceOwnership()": "715018a6",
					"setFeeExemption(address,bool)": "751fd179",
					"setTaxFee(uint256)": "c4081a4c",
					"setTreasury(address)": "f0f44260",
					"symbol()": "95d89b41",
					"taxFee()": "a071dcf4",
					"totalSupply()": "18160ddd",
					"transfer(address,uint256)": "a9059cbb",
					"transferFrom(address,address,uint256)": "23b872dd",
					"transferOwnership(address)": "f2fde38b",
					"treasury()": "61d027b3",
					"unpause()": "3f4ba83a"
				}
			},
			"storageLayout": {
				"storage": [
					{
						"astId": 307,
						"contract": "Monica.sol:Monica",
						"label": "_balances",
						"offset": 0,
						"slot": "0",
						"type": "t_mapping(t_address,t_uint256)"
					},
					{
						"astId": 313,
						"contract": "Monica.sol:Monica",
						"label": "_allowances",
						"offset": 0,
						"slot": "1",
						"type": "t_mapping(t_address,t_mapping(t_address,t_uint256))"
					},
					{
						"astId": 315,
						"contract": "Monica.sol:Monica",
						"label": "_totalSupply",
						"offset": 0,
						"slot": "2",
						"type": "t_uint256"
					},
					{
						"astId": 317,
						"contract": "Monica.sol:Monica",
						"label": "_name",
						"offset": 0,
						"slot": "3",
						"type": "t_string_storage"
					},
					{
						"astId": 319,
						"contract": "Monica.sol:Monica",
						"label": "_symbol",
						"offset": 0,
						"slot": "4",
						"type": "t_string_storage"
					},
					{
						"astId": 976,
						"contract": "Monica.sol:Monica",
						"label": "_paused",
						"offset": 0,
						"slot": "5",
						"type": "t_bool"
					},
					{
						"astId": 8,
						"contract": "Monica.sol:Monica",
						"label": "_owner",
						"offset": 1,
						"slot": "5",
						"type": "t_address"
					},
					{
						"astId": 1092,
						"contract": "Monica.sol:Monica",
						"label": "treasury",
						"offset": 0,
						"slot": "6",
						"type": "t_address"
					},
					{
						"astId": 1094,
						"contract": "Monica.sol:Monica",
						"label": "taxFee",
						"offset": 0,
						"slot": "7",
						"type": "t_uint256"
					},
					{
						"astId": 1101,
						"contract": "Monica.sol:Monica",
						"label": "isFeeExempt",
						"offset": 0,
						"slot": "8",
						"type": "t_mapping(t_address,t_bool)"
					}
				],
				"types": {
					"t_address": {
						"encoding": "inplace",
						"label": "address",
						"numberOfBytes": "20"
					},
					"t_bool": {
						"encoding": "inplace",
						"label": "bool",
						"numberOfBytes": "1"
					},
					"t_mapping(t_address,t_bool)": {
						"encoding": "mapping",
						"key": "t_address",
						"label": "mapping(address => bool)",
						"numberOfBytes": "32",
						"value": "t_bool"
					},
					"t_mapping(t_address,t_mapping(t_address,t_uint256))": {
						"encoding": "mapping",
						"key": "t_address",
						"label": "mapping(address => mapping(address => uint256))",
						"numberOfBytes": "32",
						"value": "t_mapping(t_address,t_uint256)"
					},
					"t_mapping(t_address,t_uint256)": {
						"encoding": "mapping",
						"key": "t_address",
						"label": "mapping(address => uint256)",
						"numberOfBytes": "32",
						"value": "t_uint256"
					},
					"t_string_storage": {
						"encoding": "bytes",
						"label": "string",
						"numberOfBytes": "32"
					},
					"t_uint256": {
						"encoding": "inplace",
						"label": "uint256",
						"numberOfBytes": "32"
					}
				}
			},
			"userdoc": {
				"kind": "user",
				"methods": {},
				"version": 1
			}
		}
	}
}